S315080000009025002049010008F92000082713000858
S31508000010311F00088D0D0008993D000800000000FA
S315080000200000000000000000000000002B2D000862
S315080000307D0F000800000000A5220008FD2E00081C
S3150800004063010008630100086301000863010008F2
S3150800005063010008630100086301000863010008E2
S3150800006063010008630100086301000863010008D2
S3150800007063010008630100086301000863010008C2
S3150800008063010008630100086301000863010008B2
S3150800009063010008630100086301000863010008A2
S315080000A06301000863010008630100086301000892
S315080000B091300008A9300008C13000086301000823
S315080000C06301000863010008630100086301000872
S315080000D06301000849370008630100087D370008F6
S315080000E06301000863010008630100086301000852
S315080000F06301000863010008630100086301000842
S315080001006301000863010008AD31000863010008B7
S3150800011079360008630100086301000863010008D6
S315080001206301000863010008630100086301000811
S31508000130DFF810D000F09EFB004800474542000853
S31508000140AFF3008090250020064880470648004700
S31508000150FEE7FEE7FEE7FEE7FEE7FEE7FEE7FEE769
S31508000160FEE7FEE7313000083101000840EA0103E6
S315080001709B0703D009E008C9121F08C0042AFAD24F
S3150800018003E011F8013B00F8013B521EF9D2704713
S31508000190D2B201E000F8012B491EFBD270470022BB
S315080001A0F6E710B513460A4604461946FFF7F0FF68
S315080001B0204610BD421C10F8011B0029FBD1801AED
S315080001C0704780EA010210B502F00043400022D0D1
S315080001D04A001FD0010E01EB1261C0F35600C2F3AC
S315080001E0560240F4000042F40002A0FB022000047C
S315080001F07F39140400D0401C50EA124001D4400054
S31508000200491EC2B20C0604EBD010401C4008802AD6
S3150800021002D003E0002010BD20F00100002900DA1A
S315080002200020184310BD30B480EA010202F00045F0
S3150800023030F0004221F0004013D090B1C30DD40D28
S31508000240C2F31601C0F31600E41A41F4000140F4A3
S3150800025000027D34914201D3641C00E04900002C61
S3150800026002DA30BC002070474FF4000000239142A8
S3150800027001D3891A034340084FEA4101F7D151B126
S31508000280914202D14FF0004105E002D24FF0010140
S3150800029001E06FF0010103EBC450284430BC00F0C4
S315080002A055BA2DE9FE4F804681EA0300C00F0C4679
S315080002B0009021F0004123F00045B8EB0200A94167
S315080002C005D24046214690461C460B46024623F078
S315080002D00040104347D0270DC7F30A00C3F30A515D
S315080002E00290401A019040286BDAC3F3130040F4D9
S315080002F0801B0098924620B10023D2EB030A63EBD9
S315080003000B0B01985946C0F14002504600F0EDF932
S3150800031006460D4650465946019A00F005FA10EB76
S3150800032008006141002487EA115284EAE7731A43F8
S3150800033040D0009A62B3019A012A4FEA075215DCA7
S31508000340001B61EB02014FF0004202EA0752CDE9B9
S315080003500042001C41F5801132462B4600F03CFA5B
S3150800036003B0BDE8F08F40462146F9E7001B61EB74
S315080003700201001C41F5801300185B412018A2F504
S31508000380001747EB030140EAD570B6196D4111E035
S315080003906D084FEA360645EAC0754FEA0752001B54
S315080003A061EB0201001C41F5801149084FEA300053
S315080003B00019514132462B4603B0BDE8F04F00F014
S315080003C0FCB90098012240000023D0EB020263EB3F
S315080003D0E073009821464FEAE074B8EB000061EB41
S315080003E00401E9E783F000435BE781F0004158E741
S315080003F02DE9FE4F81EA030404F0004421F0004190
S3150800040000944FF0000B23F0004350EA01045ED03D
S3150800041052EA03045BD0C3F30A54C1F30A552C44C9
S31508000420A4F2F3340194A0FB0254C1F3130141F47E
S315080004308011C3F3130343F4801301FB024400FB4A
S31508000440034E840A970A44EA815447EA8357A4FB71
S31508000450076802958D0A05FB07854FEA932C04FB6E
S315080004600C542705029D4FEA065847EA1637B5EB9E
S3150800047008056EEB070C870E920E47EA811742EACB
S315080004808312A7FB0201B6EB0B0164EB00042B0DEC
S3150800049043EA0C335E1844EB1C50DA465146E7FB38
S315080004A00201C5F313044FEA0B3343EA14534FEA28
S315080004B00432019C43EA0603A4F10C040294009C4E
S315080004C0CDE900B400F088F903B0BDE8F08F00204C
S315080004D00146F9E72DE9F04D81EA030404F0004BE3
S315080004E021F0004514464FF0000A23F0004150EA77
S315080004F0050220D054EA01021DD0C5F30A57024668
S31508000500C5F31303C1F31300C1F30A5640F480156B
S3150800051043F48013A7EB0608101BD64608F2FD38ED
S3150800052073EB050002D308F1010801E092185B415C
S31508000530B8F1000F03DA00200146BDE8F08D00206F
S315080005404FF48011064684460EE0171B73EB050729
S3150800055005D3121B63EB050306434CEA010C490855
S315080005604FEA300092185B4150EA0107EDD152EA92
S31508000570030012D082EA040083EA0501084305D085
S31508000580101BAB4106D20122002306E000224FF0E1
S31508000590004302E06FF0010253101AEB06004CEB21
S315080005A0085110EB0A0041EB0B01BDE8F04D00F0D5
S315080005B004B996230022114600F0D1B820F0004075
S315080005C0C10DC0F3160040F400007F2901DA0020AF
S315080005D07047962903DCC1F19601C84070479639E1
S315080005E08840704700F0004230F000400AD0C10D44
S315080005F001F56071C0F3160042EA0151C2084007CE
S3150800060011437047002001467047000030B5041EAC
S3150800061071F1000404DB4FF00044404264EB010131
S31508000620141E73F1000405DB1C464FF000435242CA
S3150800063063EB0403994208BF904230BD01F00043C2
S3150800064030B421F0004150EA010206D00A0DA2F5A5
S315080006506072C1F31301002A02DC30BC0020704727
S31508000660440F44EAC104C100E01830BC00EBC25094
S3150800067000F06CB8002801DBC0F10040002901DB5E
S31508000680C1F10041814270472DE9F05F054600201F
S3150800069092469B4688460646814640241BE02846E5
S315080006A041464746224600F02FF853465A46C01A96
S315080006B0914110D311461846224600F016F82D1A15
S315080006C067EB01084F4622460120002100F00DF88D
S315080006D017EB00094E41201EA4F10104DFDC484651
S315080006E031462A464346BDE8F09F202A04DB203AD5
S315080006F000FA02F1002070479140C2F1200320FA67
S3150800070003F3194390407047202A04DB203A21FA64
S3150800071002F00021704721FA02F3D040C2F120020C
S315080007209140084319467047202A06DBCB17203A22
S3150800073041FA02F043EAE07306E041FA02F3D040D8
S31508000740C2F1200291400843194670470029A8BF04
S315080007507047401C490008BF20F00100704710B4DC
S31508000760B0FA80FC00FA0CF050EA010404BF10BC91
S31508000770704749B1CCF1200421FA04F411FA0CF1BE
S3150800078018BF012121430843A3EB0C01CB1D4FEAF7
S3150800079000614FEA102042BF002010BC704700EBF2
S315080007A0C35010440029A4BF10BC7047401C490020
S315080007B008BF20F0010010BC704710B5141E73F175
S315080007C0000408DA401C41F1000192185B411A4303
S315080007D001D120F0010010BD2DE9F04D92469B464F
S315080007E011B1B1FA81F202E0B0FA80F220329046F5
S315080007F0FFF77BFF04460F4640EA0A0041EA0B0171
S3150800080053465A46084313D0114653EA010019D0F5
S31508000810C8F140025046FFF777FF05460E46504698
S3150800082059464246FFF761FF084305D0012004E018
S3150800083020463946BDE8F08D0020054346EAE076B5
S315080008402C4337430A986305E40AA0EB0800002204
S31508000850FD0A44EA47540A3002D500200146E9E772
S31508000860010510196941DDE9084500196941BDE826
S31508000870F04DA2E7064C074D06E0E06840F001039C
S3150800088094E8070098471034AC42F6D3FFF754FCB7
S31508000890549500087495000830B58C1810F8012B8B
S315080008A012F00F0301D110F8013B120906D110F816
S315080008B0012B03E010F8015B01F8015B5B1EF9D11F
S315080008C001E001F8013B521EFBD1A142E6D300200C
S315080008D030BDCA430260704721B1826842F0010206
S315080008E0826003E0826822F0010282607047014656
S315080008F000208A6802F004020AB1012000E0002004
S3150800090070470246002013680B400BB1012000E037
S3150800091000207047014600208A6802F008020AB1E2
S31508000920012000E00020704730B502460020002371
S3150800093050680F4C20400D790C6844EA0524204382
S31508000940506090680B4C2040D1E902542C434D79F5
S3150800095044EA450420439060D06A20F470000C7C79
S31508000960641EE4B2234340EA0350D06230BD00005F
S31508000970FFFEF0FFFDF7F1FFF0B504460D46002037
S315080009800021092D11DDE068A5F10A0606EB4607E8
S31508000990072606FA07F18843A5F10A0606EB460676
S315080009A003FA06F10843E0600CE0206905EB450709
S315080009B0072606FA07F1884305EB450603FA06F10A
S315080009C008432061072A0FDA606B561E06EB860776
S315080009D01F2606FA07F18843561E06EB860605FA11
S315080009E006F10843606322E00D2A0FDA206BD61F52
S315080009F006EB86071F2606FA07F18843D61F06EB7D
S31508000A00860605FA06F10843206310E0E06AA2F1BB
S31508000A100D0606EB86071F2606FA07F18843A2F19C
S31508000A200D0606EB860605FA06F10843E062F0BDF8
S31508000A30816841F008018160704721B1826842F4FB
S31508000A40A002826003E0826822F4A00282607047F6
S31508000A50816841F0040181607047000030B10749A0
S31508000A60096841F40001054A116005E0034909686F
S31508000A7021F40001014A1160704700000824014072
S31508000A8030B587B004460D464FF4004001F02CFF00
S31508000A900121084601F054FF0121042001F050FF0E
S31508000AA00121480201F04CFF4FF4A06001F05EFB03
S31508000AB02C482D4908602D484860042C0AD110207E
S31508000AC0ADF8180000208DF81B0006A9284800F08C
S31508000AD041FB14E0052C0AD12020ADF818000020AF
S31508000AE08DF81B0006A9224800F034FB07E0102CFD
S31508000AF003D12846FFF7B2FF01E007B030BD00205A
S31508000B0001908DF8080001208DF809004FF4602047
S31508000B1003900020049001208DF8140001A91548BF
S31508000B20FFF702FFE5B101211248FFF7D5FE11488C
S31508000B30FFF77EFF142000F045FA00BF0D48FFF7C7
S31508000B40E9FE0028FAD10B48FFF782FF00BF0948E3
S31508000B50FFF7CDFE0028FAD101210648FFF76DFF01
S31508000B6000BFCAE7790B000844040020552A00088C
S31508000B7000080140002401402DE9F04704464FF0E3
S31508000B8000090723012221461748FFF7F5FE012130
S31508000B901548FFF752FF012000F014FA00BF0221A2
S31508000BA01148FFF7AEFE0028F9D002210E48FFF7DC
S31508000BB090FE0D494C310868FFF7FBFC81464FF063
S31508000BC08B414846FFF72FFB8246FFF70BFD07468A
S31508000BD04FF06632054BFFF70BFC0546FFF72EFD77
S31508000BE081464846BDE8F0870024014066660A400B
S31508000BF009480A4908600A4848600A49074881605E
S31508000C000949C160094805490861094903488161DC
S31508000C100849C16170470000A90D0008A00400201A
S31508000C202B1300082D2D0008812100080B11000840
S31508000C30A92200086F2D000820B14FF48051044AFC
S31508000C40116004E04FF48051014A121F1160704789
S31508000C501408014038B50446A4B100BF2146042053
S31508000C6001F06EFE4FF48050ADF8000018208DF8A4
S31508000C70030069460C4800F06DFA00BF0020FFF734
S31508000C80DBFF0CE000BF4FF48050ADF800000020F9
S31508000C908DF803006946044800F05CFA00BF00209E
S31508000CA0FFF7CAFF38BD00000008014000B50A4832
S31508000CB00A4908600A4848600A4888600A4808617C
S31508000CC00A4848610A48C8610A4808620A484862E8
S31508000CD000F014F800BD0000E5130008E004002049
S31508000CE0B92A00081D3A0008810A0008690E00089A
S31508000CF0772200081D2F00082911000813481449F7
S31508000D004860144808601448086114491048C161CD
S31508000D1013480F49886113490D48416212480C4926
S31508000D200862124888621248C86212490848016374
S31508000D3011494163114901641148054988631149FC
S31508000D400348C163104941647047000059140008FC
S31508000D500805002095140008552B0008AD36000834
S31508000D60FB360008552A0008790B0008F50E00081E
S31508000D70810F0008C50F0008A90F0008F52B000809
S31508000D80172C00081D2C00086936000800BFFEE76E
S31508000D90024682EA2120034B33F8100080EA01203C
S31508000DA080B270478843000870B504460D46002691
S31508000DB005E020783146FFF7EBFF0646641C281E3F
S31508000DC0A5F101018DB2F4D1304670BD39B1084A9A
S31508000DD01268012383401A43054B1A6006E0044A49
S31508000DE01268012383409A43014B1A60704700003A
S31508000DF00074004030B5002200230A4C226840F6F1
S31508000E00FE748440A243D1E900452C438D682C43E7
S31508000E10CD6844EA050303FA00F42243014C226034
S31508000E2030BD00000074004008B500220092054A53
S31508000E30009200F10802009B1A440092009A116081
S31508000E4008BD00000074004008B500220092054A5B
S31508000E50009200F11402009B1A440092009A116055
S31508000E6008BD00000074004030B585B004460D4644
S31508000E701D481E4908600121042001F061FD012179
S31508000E80480701F03DFD00200190029003900220E2
S31508000E90049000208DF8030003208DF802007CB929
S31508000EA01020ADF800006946114800F053F901A971
S31508000EB00020FFF79FFF29460020FFF787FF10E075
S31508000EC0102C0ED12020ADF800006946084800F025
S31508000ED041F901A91020FFF78DFF29461020FFF7D9
S31508000EE075FF05B030BD0000F50E00084C04002063
S31508000EF0000801402DE9F05F04468946CA46504677
S31508000F00FFF770FB05464FF066321B4BFFF77EFB7B
S31508000F1004D300215046FFF7ADFB01D24FF000097C
S31508000F204FF08B415046FFF74CF98346FFF75AFBC3
S31508000F3007464FF06632104BFFF7CCFA0546FFF727
S31508000F407DFB824644B95046FFF738FB85B22946F1
S31508000F500020FFF769FF0DE0102C08D15046FFF777
S31508000F602DFB85B229460020FFF76EFF02E0002020
S31508000F70BDE8F09F4846FBE766660A4070470000F2
S31508000F800021074A11600121064A117000BF044971
S31508000F9009688142FBDB0021024A11707047000094
S31508000FA06C0400207004002030B50446254603E092
S31508000FB04FF47A7000F006F8281EA5F10105F7DC53
S31508000FC030BD000001460DE00022094B1A600122DF
S31508000FD0084B1A7000BF064A1268642AFBDB002217
S31508000FE0044B1A700A1EA1F10101EDDC70470000DE
S31508000FF06C0400207004002030B5044604254FF424
S31508001000302000F06FF80546042D17D10C4800690A
S3150800101040F002000A49086108464461006940F048
S31508001020400008614FF4302000F05CF8054604489B
S31508001030006941F6FD71084001490861284630BD3E
S315080010400020024004200B49C96801F0010109B1DA
S3150800105001200EE00749C96801F0040109B1022020
S3150800106007E00449C96801F0100109B1032000E04E
S3150800107004207047002002400348006940F08000C1
S3150800108001490861704700000020024070B5044617
S315080010900D460426F00200F025F80646042E11D166
S315080010A00948006940F00100074908612580F002F7
S315080010B000F018F806460448006941F6FE71084033
S315080010C001490861304670BD0020024002480349C4
S315080010D0486003484860704723016745002002407E
S315080010E0AB89EFCD00B502460423FFF7ABFF0346F5
S315080010F003E0FFF7A7FF0346521E012B01D1002A82
S31508001100F7D102B90523184600BD30B503460020BD
S3150800111005E00446401C1C5D8C4200D130BD90425F
S31508001120F7D30020FAE7000040B10549054A1160E7
S3150800113005499160054951600549D160704700002D
S31508001140172C000860050020F52B00081D2C000848
S31508001150693600082DE9F0410246002500260020E0
S3150800116000230024002791F803C00CF00F0591F81E
S3150800117003C00CF0100CBCF1000F03D091F802C0AC
S315080011804CEA050591F800C0BCF1000F31D014688F
S3150800119000202BE04FF0010C0CFA00F3B1F800C068
S315080011A00CEA03069E4220D183004FF00F0C0CFA7E
S315080011B003F7BC4305FA03FC4CEA040491F803C0A0
S315080011C0BCF1280F06D14FF0010C0CFA00FCC2F84E
S315080011D014C00AE091F803C0BCF1480F05D14FF0DE
S315080011E0010C0CFA00FCC2F810C0401C0828D1D328
S315080011F01460B1F800C0BCF1FF0F34DD546800205C
S315080012002EE000F1080C4FF0010808FA0CF3B1F8CB
S3150800121000C00CEA03069E4221D183004FF00F0C52
S315080012200CFA03F7BC4305FA03FC4CEA040491F8EC
S3150800123003C0BCF1280F05D100F1080C08FA0CF818
S31508001240C2F8148091F803C0BCF1480F07D100F129
S31508001250080C4FF0010808FA0CF8C2F81080401C78
S315080012600828CED35460BDE8F0810000F0B50A46E0
S31508001270002300240021002500F00046B6F1004FA7
S3150800128002D11D4EF16901E01B4E7168C0F303459A
S3150800129083B200F44016B6F5401F08D121F07061FC
S315080012A0154E766826F07066134F7E6012E000F4DD
S315080012B08016B6F5801F06D1032606FA05F4A14363
S315080012C041F0706106E0460D360103FA06F6B143B1
S315080012D041F0706122B1460D360103FA06F6314334
S315080012E000F00046B6F1004F02D1034EF16101E06D
S315080012F0014E7160F0BD00000000014090F8BC246A
S3150800130082B903885A1C0280021DD1547D2902D154
S31508001310012280F8BC240288B2F5966F02DD01220C
S3150800132080F8BC24704700BFFEE703B59DF803109C
S315080013309DF80220C2EB021201EB82019DF8012002
S31508001340C2EB4213C3EB022201EB02100CBD0000F4
S3150800135070B505464FF400600F4908602846FFF748
S315080013600FFE4FF480600C4908602846FFF708FE18
S3150800137009480838006800F4006008B1012400E054
S3150800138000244FF480600449091D08602846FFF7C9
S31508001390F7FD204670BD0000100C014070B50546EB
S315080013A00C4625B94FF400600D49086004E04FF477
S315080013B000600B49091F08602046FFF7E1FD4FF45E
S315080013C080600749091F08602046FFF7D9FD4FF4DA
S315080013D08060034908602046FFF7D2FD70BD000013
S315080013E0140C014038B50446DCB100BF214608207C
S315080013F001F0A6FA4FF44060ADF8000003208DF81E
S31508001400020018208DF8030069460F48FFF7A2FE70
S3150800141000BF4FF480600C49103108604000086036
S315080014200CE000BF4FF44060ADF8000000208DF8D6
S31508001430030069460448FFF78DFE00BF03480449C8
S3150800144048600448086038BD000C0140591400087B
S3150800145050050020951400082DE9F04107460D4671
S3150800146008260EE02846FFF773FF20B16006040E33
S3150800147044F0010403E06006040E04F0FE04701E46
S31508001480C6B2002EEED129463846FFF787FF20461A
S31508001490BDE8F0812DE9F04104460D4608260DE029
S315080014A004F0800008B1012700E0002729463846E5
S315080014B0FFF774FF6006040E701EC6B2002EEFD149
S315080014C02846FFF745FF80464046BDE8F081000004
S315080014D038B5044684B100BF2146102001F030FA21
S315080014E04FF40050ADF8000048208DF80300694617
S315080014F00848FFF72FFE0CE000BF4FF40050ADF888
S31508001500000000208DF8030069460248FFF722FE16
S3150800151000BF38BD00100140F0B507460C46154619
S315080015201E462A2000F0CEFC384600F0AFFC2846BE
S3150800153000F0ACFC2B2000F0C5FC204600F0A6FC11
S31508001540304600F0A3FC2C2000F0BCFCF0BD2DE9D1
S31508001550F04306460F46904699460025444641E024
S315080015607A1B91B2321B90B24A4600F095F87A1B64
S3150800157091B2321990B24A4600F08EF83A1991B2F1
S31508001580721B90B24A4600F087F83A1B91B2721B5A
S3150800159090B24A4600F080F87A1991B2321990B2A0
S315080015A04A4600F079F83A1B91B2721990B24A4647
S315080015B000F072F83A1991B2721990B24A4600F0E0
S315080015C06BF87A1991B2321B90B24A4600F064F869
S315080015D06D1C05FB05F004FB040108FB08F08142BD
S315080015E000DD641EA542BBDDBDE8F0832DE9FF4F93
S315080015F084B081468A460020029083460698A0EB6E
S3150800160009050798A0EB0A06CDF80490CDF800A0C6
S31508001610002D01DD012705E00DB9002702E04FF096
S31508001620FF376D42002E02DD4FF0010806E016B9BD
S315080016304FF0000802E04FF0FF387642B54201DD70
S315080016402C4600E03446002003901EE0009A91B232
S31508001650019A90B2119A00F01FF802982844029055
S31508001660B3440298A04205DD0298001B0290019837
S3150800167038440190A34504DDABEB040B00984044C5
S3150800168000900398401C80B20390611C039888421E
S31508001690DCDB08B0BDE8F08F70B504460D4616468B
S315080016A02B46224629462046FFF736FF304600F0ED
S315080016B0EDFB70BD2DE9F84105460E4617469846DE
S315080016C0079C33463A46314628460094FFF78EFF74
S315080016D043462A46314628460094FFF787FF434685
S315080016E03A46414628460094FFF780FF43463A4665
S315080016F0314638460094FFF779FFBDE8F8812DE9B1
S31508001700F04706460F4614461D46DDF820A0681E1B
S3150800171083B2601E82B239463046FFF7FDFEB846F0
S315080017200EE0B14606E0504600F0B0FB09F10100B4
S315080017301FFA80F9A145F6DB08F101001FFA80F8C7
S31508001740A845EEDBBDE8F08738B5044601210C2034
S3150800175001F0F6F80121084601F0F2F801211748D0
S31508001760FFF784FDB4B14FF43040ADF80000102007
S315080017708DF8030003208DF8020069461048FFF72C
S31508001780E9FC4FF48060ADF8000069460D48FFF7A4
S31508001790E1FC12E04FF43040ADF8000000208DF86F
S315080017A0030069460648FFF7D5FC4FF48060ADF89C
S315080017B0000069460348FFF7CDFC38BD000230003B
S315080017C0000C01400008014038B504462046FFF7E2
S315080017D0BBFF4FF480506B4908601420FFF7F2FBFB
S315080017E0362000F06FFB7820FFF7ECFB002000F0B6
S315080017F05DFB3A2000F066FB052000F057FBB2209F
S3150800180000F060FB0C2000F051FB0C2000F04EFBB2
S31508001810002000F04BFB332000F048FB332000F09B
S3150800182045FBB72000F04EFB352000F03FFBBB2000
S3150800183000F048FB192000F039FBC02000F042FBFD
S315080018402C2000F033FBC22000F03CFB012000F006
S315080018502DFBC32000F036FB122000F027FBC42026
S3150800186000F030FB202000F021FBC62000F02AFB08
S315080018700F2000F01BFBD02000F024FBA42000F072
S3150800188015FBA12000F012FBE02000F01BFBD02086
S3150800189000F00CFB042000F009FB0D2000F006FB0D
S315080018A0112000F003FB132000F000FB2B2000F0B2
S315080018B0FDFA3F2000F0FAFA542000F0F7FA4C201F
S315080018C000F0F4FA182000F0F1FA0D2000F0EEFA14
S315080018D00B2000F0EBFA1F2000F0E8FA232000F0B6
S315080018E0E5FAE12000F0EEFAD02000F0DFFA042055
S315080018F000F0DCFA0C2000F0D9FA112000F0D6FA34
S31508001900132000F0D3FA2C2000F0D0FA3F2000F084
S31508001910CDFA442000F0CAFA512000F0C7FA2F2069
S3150800192000F0C4FA1F2000F0C1FA1F2000F0BEFA2A
S31508001930202000F0BBFA232000F0B8FA212000F09E
S31508001940C1FA112000F0BEFA292000F0BBFA78206F
S31508001950FFF738FB0020F0231A4601460090FFF7F0
S31508001960CEFE09480949C8600948886009484860A0
S3150800197009480860094888610948C86109484861F2
S3150800198038BD0000140C01404F15000850210020F6
S31508001990ED15000899160008FF160008E11A000858
S315080019A0B91D00081F1E00082DE9FF4F07468A4685
S315080019B090469B460E9D002002900097284605EB10
S315080019C0D071C1F347042046E21704EB5272D210D5
S315080019D02146E31704EB5373DB10A4EBC3030BB1E7
S315080019E0012300E000231A446A4392B20192A8F147
S315080019F0200000F0FF080AEB0500401E83B23819E4
S31508001A00401E82B251463846FFF786FD00265BE047
S31508001A10102D05D12F4800EB0810805D039013E0C8
S31508001A20182D07D108EB48002B4901EB0010805D03
S31508001A30039009E0202D05D1284800EB8810805D29
S31508001A40039001E0BDE8FF8F4FF0000936E00F98DC
S31508001A50C8B9012000FA09F00399084018B1584698
S31508001A6000F014FA02E00D9800F010FA0298401CF3
S31508001A70C0B20290029890FBF4F104FB1100C8B9B9
S31508001A80002002901DE0012000FA09F003990840A1
S31508001A9020B15A4651463846FFF7FEFD781C87B2F4
S31508001AA00098381AA04205D1009F0AF101001FFAD2
S31508001AB080FA06E009F1010000F0FF09B9F1080F04
S31508001AC0C5DB00BF701C86B201988642A0DB00BF4A
S31508001AD0B8E7000095450008854B0008555D0008E5
S31508001AE02DE9FE470646894615469A46DDE90C481D
S31508001AF00B9F1CE0182C09D153462A464946304606
S31508001B00CDE90148009700F017F80DE0202C09D11F
S31508001B1053462A4649463046CDE90148009700F023
S31508001B20AFF801E0BDE8FE87AD1C301986B228780B
S31508001B300028DFD100BFF5E72DE9FF4F06468946A5
S31508001B4092469B460E9C0020039000962046E2177C
S31508001B5004EB5272D2102146E31704EB5373DB10E1
S31508001B60A4EBC3030BB1012300E000231A4462432C
S31508001B7092B2019205200290002579E005EB8500D6
S31508001B8000EB45103D4911F810009AF800108842FC
S31508001B906BD105EB850000EB4510384901EB400099
S31508001BA040789AF8011088425FD109EB0400401E7C
S31508001BB083B23019401E82B249463046FFF7ACFC64
S31508001BC000274FE04FF0000846E00F9808BB05EBEA
S31508001BD0850000EB4510294901EB4000801CC05DDB
S31508001BE0012101FA08F1084018B1584600F04EF9EB
S31508001BF002E00D9800F04AF90398401CC0B2039021
S31508001C00039890FBF4F104FB110008BB0020039035
S31508001C1025E005EB850000EB4510184901EB40006F
S31508001C20801CC05D012101FA08F1084020B15A461E
S31508001C3049463046FFF730FD701C86B20098301AC8
S31508001C40A04205D1009E09F101001FFA80F906E0BD
S31508001C5008F1010000F0FF08B8F1080FB5DB00BF76
S31508001C60781CC7B201988742ACDB00BF681C85B2F6
S31508001C700298854282DBBDE8FF8F000015750008D3
S31508001C802DE9FF4F0646894692469B460E9C002044
S31508001C90039000962046E21704EB5272D2102146B2
S31508001CA0E31704EB5373DB10A4EBC3030BB1012357
S31508001CB000E000231A44624392B201920520029082
S31508001CC0002571E005EB85103A4911F810009AF8DD
S31508001CD00010884265D105EB8510364901EB4000B6
S31508001CE040789AF8011088425BD109EB0400401E3F
S31508001CF083B23019401E82B249463046FFF70CFCC3
S31508001D0000274BE04FF0000842E00F98F8B905EBC2
S31508001D108510284901EB4000801CC05D012101FAAD
S31508001D2008F1084018B1584600F0B0F802E00D98DE
S31508001D3000F0ACF80398401CC0B20390039890FBDF
S31508001D40F4F104FB1100F8B90020039023E005EB39
S31508001D508510184901EB4000801CC05D012101FA7D
S31508001D6008F1084020B15A4649463046FFF794FC28
S31508001D70701C86B20098301AA04205D1009E09F15F
S31508001D8001001FFA80F906E008F1010000F0FF08DB
S31508001D90B8F1080FB9DB00BF781CC7B201988742B3
S31508001DA0B0DB00BF681C85B2029885428ADBBDE8B5
S31508001DB0FF8F0000877600082DE9F04F0746884612
S31508001DC015461E46DDF82490002408EB0600401E42
S31508001DD083B27819401E82B241463846FFF79CFB0B
S31508001DE0A24618E04FF0000B0FE019F8140000F0B7
S31508001DF05DF8012101EB440119F8010000F056F8DD
S31508001E00641C0BF101001FFA80FBB345EDDB0AF1F8
S31508001E1001001FFA80FAAA45E4DBBDE8F08F2DE938
S31508001E20FE4305460F4616469846DDE90A94102CE9
S31508001E3003D0182C01D0202C0FD1204604EBD071EA
S31508001E40491069438DB207FB04F087B2F02D00DD17
S31508001E50F025F02F03DDF02701E0BDE8FE8310E052
S31508001E600020CDE900940290327843463946284648
S31508001E70FFF79AFD204604EBD07105EB61018DB2A0
S31508001E80761C30780028EBD100BFE6E710B504468B
S31508001E904FF4806004490860201200F01FF8E0B291
S31508001EA000F01CF810BD00001008014010B50446EB
S31508001EB04FF4806002490860204600F00FF810BD14
S31508001EC01008014010B504464FF4806002490860C6
S31508001ED0204600F003F810BD140801404FF4805264
S31508001EE0124B1A60002118E04FF400520F4B1A608B
S31508001EF000F0800222B14FF400421B1F1A6003E073
S31508001F004FF40042094B1A604FF40052074B1B1F4F
S31508001F101A604206100E4A1CD1B20829E4DB4FF4B7
S31508001F208052024B1B1F1A6070470000140C0140B8
S31508001F3000BFFEE71CB5FEF75BFEFEF7B7FE00F036
S31508001F40ABF83B48016A01208847394801224FF41B
S31508001F50E13183680320984735480121026910203A
S31508001F609047344801680120884733480090334831
S31508001F703C231A460021C469B420A047102000213A
S31508001F80CDE900102D484FF61F032DA244691620EF
S31508001F90A04718200021CDE9001028484FF47843BF
S31508001FA028A244690520A04710200021CDE9001089
S31508001FB022484FF4784326A20E2144691D20A047E3
S31508001FC02D221A212348FEF7E3F810200021CDE937
S31508001FD000101A481F2320A2022144690020A047A6
S31508001FE010200021CDE90010144840F2FF731FA20B
S31508001FF0032144690020A04710200021CDE90010E4
S315080020000E484FF6FF73134A042144690220A0477D
S315080020100120FFF75DFA0120FEF71CFE1948016B47
S315080020200A208847174818A182691A4890471CBD94
S31508002030E0040020740400201479000830210020F0
S3150800204047440000436176656E2050726F000000B9
S3150800205031000000702100202D3E204D4355203AC6
S315080020602032362E31302043200000002D3E2054E9
S31508002070494D453A2030303A30303A3030205320F6
S3150800208000000000080500207B5265616479202164
S315080020907D0D0A000048004000B503480349086062
S315080020A000F006F800BD0000C917000874040020F7
S315080020B00848094908600948486009488860094885
S315080020C0C86009480861094848610948886109489B
S315080020D0C8617047FF1600083021002099160008CD
S315080020E0ED1500084F150008B51600081F1E000854
S315080020F0E11A0008B91D00087047000070B50021F4
S3150800210000230F22C47804B3154C246804F4E06451
S31508002110C4F5E064210AC1F10403CA40447804FA0C
S3150800212003F184781440214309010E4C0678A15521
S31508002130047804F01F050124AC4005786D11AD0044
S3150800214005F1E025C5F8004109E0047804F01F050B
S315080021500124AC40044D0678761145F8264070BD3A
S315080021600CED00E000E400E080E100E002490143F4
S31508002170024A1160704700000000FA050CED00E005
S315080021803FB50446D4E900100968884206D020689D
S315080021900068606000202072607269E0207A40B9A9
S315080021A00120207200206072E16903C9C4E90501B3
S315080021B05EE0207DE169097888420AD0E069007806
S315080021C02075E06940781830617D401AC0B28DF8F4
S315080021D00900E0698178A07D081AC0B28DF80A0066
S315080021E0E069C178E07D081AC0B28DF80B00E06995
S315080021F04168A069081A0390DDE90201FFF795F81E
S31508002200051E01DB284600E068420090D4E9030178
S31508002210FFF78BF80190DDE90001401A21D4DDE9CA
S315080022200001401A00280ADD70206072A07A08B9F9
S31508002230012000E00020A0720020207217E0039918
S315080022402069081A0AD470206072A07A08B9012099
S3150800225000E00020A0720020207208E000206072D2
S3150800226005E0DDE90001401A01D40020607200BFD4
S31508002270607A04B030BD2DE9F04104460D46164695
S315080022801F46042C05D13A463146284600F024FF5D
S3150800229006E0082C04D13A463146284600F092FF5B
S315080022A0BDE8F081704700002DE9F04F9DB0064665
S315080022B00C46154699464FF0000A00201C903088B7
S315080022C000287DD0FD4A11787388321D9818072298
S315080022D0FEF71BFF00F0FF0BBBF1000F71D07188F2
S315080022E0ABF10100084470807188301D0F18F4485E
S315080022F00660F3492869C86194F81A04002876D15B
S3150800230030887188401A082871DBB9F1000F04D0AB
S315080023100522ECA104202B689847387820704FF0E6
S3150800232001080BE01C9800021C9017F808101C986E
S3150800233008441C9008F101001FFA80F8B8F1040F50
S31508002340F0DD1C986060A08800F4005070B101218F
S3150800235040F22240015578792072F879B97900EB74
S3150800236001206081082084F81A040DE0002140F25B
S315080023702240015500202072B879797900EB0120B6
S315080023806081072084F81A04608994F81A140844AE
S31508002390801CC4F81C04787884F82004B97840F2C4
S315080023A021400155F878C0F3001140F22340015549
S315080023B0F87800F00F0140F224400155397901E020
S315080023C080E278E2401C015594F81A043844E0602B
S315080023D094F82004B94991F82014884208DD0121AF
S315080023E040F227400155002084F826045FE21CE0ED
S315080023F040F22140015DB14890F82104814207DD91
S31508002400012140F227400155012084F826044EE2B6
S315080024106089AA4949898842E8DB012140F22740B8
S315080024200155092084F8260441E294F81A04002884
S315080024307ED030887188401AD4F81C14884277DB1D
S31508002440B9F1000F04D00522A0A104202B689847F3
S31508002450D4F81C04401E395CD4F81C04801E385C71
S3150800246001EB00202082B4F81C04C01E81B2781C3F
S315080024706A6890478046218A414506D0012140F284
S3150800248027400155032084F8260478788B4991F86B
S315080024902014884202D1462084F81A047088B4F8B9
S315080024A01C1408447080B9F1000F9FD04A4689A1D0
S315080024B003A801F073FC03A8FDF77CFE401C0290FC
S315080024C0024603A904202B68984740F22740005D7E
S315080024D0012814D1152285A104202B689847424665
S315080024E088A103A801F05AFC03A8FDF763FE401C67
S315080024F00290024603A904202B68984704E01D228F
S3150800250085A104202B6898474FF0000A2378524685
S315080025100AF1010A88A103A801F040FC03A8FDF707
S3150800252049FE401C0290024603A904202B6800E0DD
S3150800253070E1984752460AF1010A7FA103A8636829
S3150800254001F02CFC03A8FDF735FE401C029002465C
S3150800255003A904202B689847237A52460AF1010AF0
S3150800256075A103A801F01AFC03A8FDF723FE401C79
S315080025700290024603A904202B68984763895246AD
S315080025800AF1010A6CA103A801F008FC03A8FDF7EB
S3150800259011FE401C0290024603A904202B689847A6
S315080025A04FF0000815E0E06810F80830424665A1CB
S315080025B003A801F0F3FB03A8FDF7FCFD401C0290FD
S315080025C0024603A904202B68984708F101001FFA60
S315080025D080F860894045E6DC228A5FA103A801F0FD
S315080025E0DDFB03A8FDF7E6FD401C0290024603A9A1
S315080025F004202B689847B9F1020F5ED114225AA11C
S3150800260004202B68984794F820245CA103A801F0BD
S31508002610C5FB03A8FDF7CEFD401C0290024603A9A0
S3150800262004202B68984740F22140025D57A103A871
S3150800263001F0B4FB03A8FDF7BDFD401C029002465D
S3150800264003A904202B68984740F22240025D53A153
S3150800265003A801F0A3FB03A8FDF7ACFD401C0290FC
S31508002660024603A904202B68984740F22340025DDE
S315080026704EA103A801F092FB03A8FDF79BFD401CA1
S315080026800290024603A904202B68984740F224408A
S31508002690025D4AA103A801F081FB03A8FDF78AFDA4
S315080026A0401C0290024603A904202B68984740F272
S315080026B02540025D45A103A88EE099E0140000209C
S315080026C0C0040020696E203120000000696E2032A7
S315080026D0200000003E3E2D2D2D2D64656275672075
S315080026E025642D2D2D2D3C3C0D0A000056616C6984
S315080026F0646174696F6E206661696C7320210D0AC6
S3150800270000000000436865636B203A257820200D99
S315080027100A20200D0A00000056616C69646174691C
S315080027206F6E206973207375636365737366756C62
S3150800273020210D0A000000002564203A2578202073
S315080027400D0A00002D3E20202564203A25782020F9
S315080027503C2D200D0A000000456E64203A2578209D
S31508002760200D0A200D0A00003E3E2D2D20436F6ED7
S3150800277074726F6C202D2D3C3C0D0A004D6F6465FC
S315080027806C203A2578200D0A000000005665727301
S31508002790696F6E203A2564200D0A000052533438BA
S315080027A035203A257820200D0A0000004D5F6F720B
S315080027B05F53203A2578200D0A000000436C6173A8
S315080027C073203A2578200D0A000000004D49442060
S315080027D03A2578200D0A000001F0E0FA03A8FDF773
S315080027E0E9FC401C0290024603A904202B6898477E
S315080027F0B9F1030F5BD1344903C9CDE901010422BC
S3150800280001A910462B6898473288311D04202B6889
S3150800281098474CE0002001902C49029003C9CDE965
S3150800282001012B48DDE90112C0E90312E96888476E
S315080028302748407AD0B3B9F1000F04D0052225A164
S3150800284004202B68984730887188401A07280DDBC2
S315080028507088401C7080012140F2274001550820ED
S3150800286084F82604462084F81A041FE0B9F1000FFC
S3150800287004D0052219A104202B68984778781949AD
S3150800288091F82014884209D1012140F227400155C8
S31508002890082084F82604462084F81A0400200C49E7
S315080028A0487240F2BC413046FDF779FC00BF012072
S315080028B01DB0BDE8F08F40F2BC413046FDF76FFC15
S315080028C00020F5E70020F3E7904500088845000852
S315080028D0C0040020696E203320000000696E203491
S315080028E0200000001400002001460020034A50681A
S315080028F020F4404008435060704700000010024032
S3150800290029B1064AD2690243044BDA6104E0034A54
S31508002910D2698243014BDA61704700000010024019
S3150800292029B1064A12690243044B1A6104E0034AB4
S3150800293012698243014B1A61704700000010024079
S3150800294029B1064A92690243044B9A6104E0034A94
S3150800295092698243014B9A61704700000010024059
S3150800296029B1064AD2680243044BDA6004E0034AF6
S31508002970D2688243014BDA607047000000100240BB
S3150800298030B500210022002400232D4D6D6805F086
S315080029900C0121B1042905D0082923D105E0294DC8
S315080029A0056022E0274D05601FE0254D6D6805F49A
S315080029B07012234D6D6805F48034022505EB9242AA
S315080029C01CB9214D554305600BE01D4D6D6805F496
S315080029D000351DB11C4D5543056002E0194D5543A0
S315080029E0056002E0174D056000BF00BF144D6D6815
S315080029F005F0F0010909154D6B5C0568DD40456079
S31508002A000F4D6D6805F4E061090A104D6B5C456869
S31508002A10DD4085600A4D6D6805F46051C90A0B4DA5
S31508002A206B5C4568DD40C560054D6D6805F4404141
S31508002A30890B074D6B5CC568B5FBF3F5056130BDC1
S31508002A400010024000127A0000093D0078040020B8
S31508002A50880400202DE9FC471020FEF78DF88246F1
S31508002A605046FDF7BFFD06460E4A0F4BFDF7BDFC67
S31508002A7004460E4A0E4BFDF72DFD804600220D4BEF
S31508002A80FDF70FFCCDE90001FDF7D8FD82460021D0
S31508002A905046FDF7EFFD01D28AF0004A5046BDE8E0
S31508002AA0FC870000E17A14AE47E1F63F85EB51B8A2
S31508002AB01E85DB3F0000394038B50446012108462B
S31508002AC0FFF73EFF01211F48FEF7D0FB44B300BFC6
S31508002AD021460820FFF734FF4FF43040ADF80000D8
S31508002AE003208DF8020010208DF803006946164869
S31508002AF0FEF730FB4FF48040ADF8000048208DF813
S31508002B00030069461048FEF725FB00BF4FF4004056
S31508002B100D491031086080100860401008600CE00C
S31508002B2000BF4FF47040ADF8000000208DF8030098
S31508002B3069460548FEF70EFB00BF044804490860CD
S31508002B4038BD000000023000000C0140552B00087B
S31508002B50500400202DE9F0410746884600258026C6
S31508002B60300223490860801008604010091D08607B
S31508002B704046FEF705FA00242CE04FF400501C49A5
S31508002B80091D086007FA04F03040B04204D14FF43A
S31508002B900040091F086004E04FF400401449091D6D
S31508002BA008604046FEF7ECF94FF4005010490860FB
S31508002BB00F480838006800F4804018B146FA04F057
S31508002BC0054302E00020204105434046FEF7D8F9B8
S31508002BD0601CC4B2082CD0DB4FF4004004490860DE
S31508002BE080100860401008602846BDE8F0810000A3
S31508002BF0100C014030B503460C461546002207E086
S31508002C00184600F008F824F812009B1C501C82B2E3
S31508002C10AA42F5DB30BD0146088870472DE9F05F0A
S31508002C2080468A461746B8F1006F02D33348804576
S31508002C3001D3BDE8F09FFEF749FAA8F1006B4FEA09
S31508002C409B25CBF34809C9F50074A74200DC3C462E
S31508002C504DE04FF0006101EB85208A142849FFF703
S31508002C60C9FF00260BE009EB0600254931F81000DC
S31508002C704FF6FF71884200D003E0701C86B2A64268
S31508002C80F1DB00BFA6421BDA4FF0006101EB85209D
S31508002C90FEF7B2F9002608E03AF8160006EB090135
S31508002CA0174A22F81100701C86B2A642F4DB4FF0D0
S31508002CB0006101EB85208A14114900F023F804E02D
S31508002CC022465146404600F01DF8A74200D10FE0C3
S31508002CD06D1C4FF000090AEB440AA044381B87B262
S31508002CE0B7F5007F02DD4FF4007400E03C46B0E71C
S31508002CF000BFFEF7C1F900BF9BE70000000002080D
S31508002D00700500202DE9F04105460E4617460024B9
S31508002D1007E036F814102846FEF7B8F9AD1C601C13
S31508002D2084B2BC42F5DBBDE8F08170470CB54FF4C0
S31508002D30616291FBF2F2D2B28DF801204FF4616222
S31508002D4091FBF2F302FB13123C2392FBF3F2D2B28D
S31508002D508DF802203C2291FBF2F302FB1312D2B249
S31508002D608DF80320DDE90023C0E900230CBD2DE919
S31508002D70F04104460F464FF000082078A074A07C66
S31508002D805A2802D00020BDE8F081D4F80480042631
S31508002D9007E004F1120000F806804FEA1828701EB2
S31508002DA086B2012EF5DA40F22240005D40B1217A62
S31508002DB0E1756089010A2176A17A6176082505E020
S31508002DC06089010AE175A17A21760725628904F1ED
S31508002DD012035819E168FDF7C9F960892844401EAD
S31508002DE081B204F113007A6890470646310A608971
S31508002DF0421904F11200815460892844401C04F1E8
S31508002E0012010E5460892844821C04203B689847A6
S31508002E100120B8E710B500F001F810BD0CB5002088
S31508002E20019000903348006840F4803031490860CA
S31508002E3000BF3048006800F4003000900198401C3C
S31508002E400190009818B90198B0F57F4FF1D129483B
S31508002E50006800F4003010B10120009001E0002065
S31508002E6000900098012843D12348006840F01000DC
S31508002E70214908600846006820F0030008600846F3
S31508002E80006840F0020008601A484068194948601E
S31508002E900846406848600846406840F480604860D4
S31508002EA00846406820F47C1048600846406840F4AC
S31508002EB0E81048600846006840F08070086000BF67
S31508002EC00C48006800F000700028F9D009484068EE
S31508002ED020F00300074948600846406840F00200B1
S31508002EE0486000BF0348406800F00C000828F9D184
S31508002EF00CBD0000001002400020024000B5054845
S31508002F00007820B104480068401C0349086000F0B6
S31508002F104FF800BD700400206C04002070B503460D
S31508002F2053B31E4800681E4AB0FBF2F1B1F1807F28
S31508002F3001D301201DE021F07F40401E4FF0E02222
S31508002F40506150170F22002807DA1407260E154C71
S31508002F5000F00F052D1F665503E01407250E124CC9
S31508002F60255400BF00204FF0E02290610720106131
S31508002F70002090B100BFFEE700BF0A480C38006881
S31508002F8000F4E06009490843001D06490C39086049
S31508002F90BFF34F8F00BF00BFFEE770BD00000020E3
S31508002FA0A086010018ED00E000E400E00000FA0544
S31508002FB01D48C068401C1C49C8600846C0681B49B3
S31508002FC088422FDD01211848C1600069401C164956
S31508002FD008610846C07A401CC1B21348C172C07A5B
S31508002FE03B281FDD00211048C172807A401CC1B2FF
S31508002FF00D488172807A3B2814DD00210A488172C7
S31508003000407A401CC1B208484172407A172809DD47
S31508003010002105484172007A08B9012000E0002025
S31508003020014908727047000058040020A086010074
S3150800303010B51348006840F00100114908600846B9
S315080030404068104908400E494860084600680E491D
S3150800305008400B4908600846006820F4802008608C
S315080030600846406820F4FE0048604FF41F00886058
S31508003070FFF7D0FE4FF000600449086010BD00005D
S31508003080001002400000FFF8FFFFF6FE08ED00E022
S315080030904FF08040008A4FF08040008A20F00100FF
S315080030A04FF080410882704704480088034800882A
S315080030B020F0010001490880704700001004004014
S315080030C0044800880348008820F001000149088068
S315080030D0704700001008004070B588B005460E46D7
S315080030E0144621460420FFF70BFC01210820FFF7B0
S315080030F027FC01210846FFF723FC4FF47070ADF852
S315080031001C001CB118208DF81F0002E000208DF865
S315080031101F0003208DF81E0007A92248FEF71AF89B
S31508003120ADF81450ADF810600020ADF81600ADF8F3
S31508003130120004A91C4800F045FA7020ADF80000FA
S315080031400120ADF802000220ADF8080069461648CD
S3150800315000F0DCF80821144800F024F96946124802
S3150800316000F02AF90821104800F078F969460E4857
S3150800317000F082F908210C4800F0CEF969460A48A1
S3150800318000F0D4F90821084800F00EFA00220121BF
S31508003190054800F0B2F82146034800F093F808B055
S315080031A070BD0000000C014000080040044800887B
S315080031B00348008820F00100014908807047000094
S315080031C0100C004070B588B005460E4614462146D8
S315080031D04FF40050FFF7B4FB01211020FFF7B0FBB6
S315080031E001210846FFF7ACFB4FF47070ADF81C00E0
S315080031F01CB118208DF81F0002E000208DF81F0072
S3150800320003208DF81E0007A92648FDF7A3FFADF891
S315080032101450ADF810600020ADF81600ADF8120095
S315080032208DF8180004A9204800F0CCF97020ADF8F4
S3150800323000000120ADF802000220ADF8080069463A
S31508003240194800F063F80821174800F0ABF86946FA
S31508003250154800F0B1F80821134800F0FFF8694650
S31508003260114800F009F908210F4800F055F9694698
S315080032700D4800F05BF908210B4800F095F901218B
S31508003280094800F02BF80121074800F00FF8002242
S315080032900121054800F031F82146034800F012F8EC
S315080032A008B070BD001001400034014021B1028809
S315080032B042F08002028004E002884FF67F731A40CB
S315080032C00280704721B1028842F00102028004E0C0
S315080032D002884FF6FE731A400280704731B1B0F883
S315080032E0442042F40042A0F8442005E0B0F8442007
S315080032F0C2F30E02A0F8442070471AB183890B4323
S31508003300838102E083898B438381704770B50024EB
S3150800331000220023058C4FF6FE7635400584028C84
S315080033208388048B4FF68F752C40B51E2C400D886C
S315080033302C43751E2A400D892A434D882A43144D6D
S31508003340A8420BD0134DA84208D0134DA84205D069
S31508003350124DA84202D0124DA84213D14FF6F77566
S315080033602A404D892A434FF6FB752A408D882A4301
S315080033704FF6FF652B404FF6FF552B408D892B43A3
S31508003380CD892B4383800483CD888586028470BDCE
S31508003390002C014000340140004001400044014037
S315080033A0004801400A460021018B4FF6F773194081
S315080033B0114301837047000070B5002400220023E2
S315080033C0058C4FF6EF7635400584028C8388048B8E
S315080033D048F6FF752C404FF6FF452C400D884FF6F2
S315080033E0FF7606EA05252C434FF6DF752A400D8938
S315080033F006EA05152A434D8806EA05152A43154D9A
S31508003400A84202D0144DA8421DD14FF67F752A4016
S315080034104D894FF6FF7606EA05152A434FF6BF751E
S315080034202A408D8806EA05152A434FF6FF352B40B4
S315080034304FF2FF752B408D8906EA85052B43CD890A
S3150800344006EA85052B4383800483CD880587028495
S3150800345070BD0000002C0140003401400A460021DE
S31508003460018B4FF2FF7319404FF6FF7303EA0223ED
S31508003470194301837047000070B500240022002319
S31508003480058C4FF6FF6635400584028C8388848B4D
S315080034904FF68F752C404FF6FC752C400D882C4343
S315080034A04FF6FF552A400D894FF6FF7606EA0525A1
S315080034B02A434D8806EA05252A43154DA84202D017
S315080034C0144DA8421DD14FF2FF752A404D894FF67B
S315080034D0FF7606EA05252A434FF6FF352A408D88EA
S315080034E006EA05252A434EF6FF752B404DF6FF756D
S315080034F02B408D8906EA05152B43CD8906EA051565
S315080035002B4383808483CD888587028470BD000021
S31508003510002C0140003401400A460021818B4FF6F9
S31508003520F7731940114381837047000070B5002274
S3150800353000230024058C4EF6FF7635400584038C5F
S315080035408488828B48F6FF752A404FF6FF452A4045
S315080035500D884FF6FF7606EA05252A434DF6FF75D0
S315080035602B400D8906EA05352B434D8806EA0535B5
S315080035702B430B4DA84202D00A4DA84208D14BF660
S31508003580FF752C408D894FF6FF7606EA85152C4384
S3150800359084808283CD88A0F84050038470BD0000E3
S315080035A0002C0140003401400A460021818B4FF26D
S315080035B0FF7319404FF6FF7303EA02231943818309
S315080035C070470000002202881D4B98420ED01D4B02
S315080035D098420BD0B0F1804F08D01B4B984205D0CB
S315080035E01A4B984202D01A4B984204D14FF68F7361
S315080035F01A404B881A43174B984207D0164B9842E5
S3150800360004D04FF6FF431A40CB881A4302808B88B2
S3150800361083850B8803850A4B98420BD0094B984241
S3150800362008D00E4B984205D00D4B984202D00D4B50
S31508003630984201D10B7A03860123838270470000E2
S31508003640002C0140003401400004004000080040FE
S31508003650000C0040001000400014004000400140EB
S31508003660004401400048014013B50446012201A95F
S315080036702046FFF7D3FA1CBD10B540F2255109487C
S3150800368000F007F960B140F22551064800F090F8BD
S31508003690044800F0B9F9C4B221460348FDF72EFEE6
S315080036A010BD0000004C0040701C00202DE9F041C0
S315080036B007460D46144626464FF00008B4F5966FA1
S315080036C002DD0020BDE8F08111E000BF4021384648
S315080036D000F0D2F80028F9D0404608F10108295C24
S315080036E0384600F096F94021384600F061F8301E59
S315080036F0A6F10106E9D10120E4E72DE9F0410646E5
S315080037000C462046FCF756FD05460027B5F5966F8C
S3150800371001DDBDE8F08110E000BF4021304600F031
S31508003720ABF80028F9D038467F1C215C304600F0FB
S3150800373070F94021304600F03BF8281EA5F1010536
S31508003740EAD100BFE5E7000010B540F22551094867
S3150800375000F09FF860B140F22551064800F028F8BD
S31508003760044800F051F9C4B221460348FDF7C6FDE6
S3150800377010BD000000380140300E002010B540F2A0
S315080037802551094800F085F860B140F225510648F0
S3150800379000F00EF8044800F037F9C4B22146034891
S315080037A0FDF7ACFD10BD000000480040B017002032
S315080037B001F40072B2F5007F00D100BFCA4302804F
S315080037C0704721B1828942F40052828104E08289DD
S315080037D04DF6FF731A4082817047000010B5044603
S315080037E02048844209D101218803FFF7B9F800214E
S315080037F04FF48040FFF7B4F832E01B48844209D101
S3150800380001214804FFF78CF800214FF40030FFF738
S3150800381087F825E01548844209D101218804FFF775
S315080038207FF800214FF48020FFF77AF818E0104857
S31508003830844209D10121C804FFF772F800214FF428
S315080038400020FFF76DF80BE00A48844208D10121F1
S315080038500805FFF765F800214FF48010FFF760F8B8
S3150800386010BD0000003801400044004000480040F8
S31508003870004C00400050004002460020B1F5007F91
S3150800388000D100BF13880B400BB1012000E00020D7
S31508003890704770B50246002400230025002040F634
S315080038A06A16B14200D100BFC1F3421501F01F03E9
S315080038B0012606FA03F3012D02D19689334006E064
S315080038C0022D02D1168A334001E0968A33400C1243
S315080038D0012606FA04F41688344013B10CB1012007
S315080038E000E0002070BDF0B5034600240026002540
S315080038F0002040F66A17B94200D100BF1846C1F346
S31508003900421401F01F06012707FA06F5012C01D11A
S315080039100C3004E0022C01D1103000E014301AB14A
S3150800392007682F43076002E00768AF430760F0BDEA
S315080039302DE9F04786B005460E460024A24600BF8C
S31508003940A1460027B08900B100BF2F462C8A4CF645
S31508003950FF700440F08804432C82AC894EF6F310BD
S315080039600440B08831890843718908430443AC810F
S31508003970AC8A4FF6FF400440B0890443AC8201A8E4
S31508003980FEF7FEFF1F48874202D1DDF810A001E0CE
S31508003990DDF80CA0A88900F4004040B10AEBCA0083
S315080039A000EB0A1031684900B0FBF1F807E00AEBB2
S315080039B0CA0000EB0A1031688900B0FBF1F86420F0
S315080039C0B8FBF0F004012009642101FB1089A889DD
S315080039D000F4004040B1322000EBC900B0FBF1F022
S315080039E000F00700044308E0322000EB09106421C8
S315080039F0B0FBF1F000F00F0004432C8106B0BDE8DF
S31508003A00F08700000038014001468888C0F30800A6
S31508003A107047C1F3080282807047000070B586B00F
S31508003A2004460D4616464FF4A060FEF79FFB01219B
S31508003A300846FEF785FF012C4FD101210820FEF725
S31508003A407FFF3146A003FEF77BFF01210420FDF727
S31508003A500DFCC748FFF7C2FE4020ADF8140003204E
S31508003A608DF8160018208DF8170005A9C148FDF72E
S31508003A7071FB8020ADF8140048208DF8170005A9C1
S31508003A80BC48FDF767FB01950020ADF810000C2037
S31508003A90ADF80E000020ADF80C00ADF80A00ADF840
S31508003AA0080001A9B248FFF743FF012240F2255159
S31508003AB0AF48FFF718FF3146AD48FFF782FE2520CD
S31508003AC08DF8000001208DF801008DF802008DF8B0
S31508003AD003006846FEF712FB47E1022C4CD1012190
S31508003AE00420FEF72DFF31462004FEF709FF0420C7
S31508003AF0ADF8140018208DF8170003208DF816006D
S31508003B0005A99D48FDF726FB0820ADF814000420FA
S31508003B108DF8170005A99848FDF71CFB01950020AC
S31508003B20ADF80800ADF80A00ADF80C00ADF81000C5
S31508003B300C20ADF80E0001A99048FFF7F9FE4FF4E6
S31508003B40A060FEF713FB26208DF8000000208DF8F4
S31508003B5001008DF8020001208DF803006846FEF783
S31508003B60CDFA012240F225518448FFF7BCFE3146C2
S31508003B708248FFF726FEF8E0032C54D101211020D5
S31508003B80FEF7DEFE31464FF48020FEF7B9FE01212E
S31508003B907B48FDF76BFB4FF48060ADF814001820E6
S31508003BA08DF8170003208DF8160005A97548FDF74E
S31508003BB0D1FA4FF40060ADF8140004208DF8170010
S31508003BC005A97048FDF7C6FA01950020ADF808006A
S31508003BD0ADF80A00ADF80C00ADF810000C20ADF8F1
S31508003BE00E0001A96848FFF7A3FE4FF4A060FEF790
S31508003BF0BDFA27208DF8000001208DF8010002206B
S31508003C008DF8020001208DF803006846FEF776FA63
S31508003C10012240F225515C48FFF765FE31465A48B5
S31508003C20FFF7CFFDA1E0042C4FD101211020FEF7AC
S31508003C3087FE31466004FEF763FE2002ADF81400E5
S31508003C4018208DF8170003208DF8160005A94D4891
S31508003C50FDF780FA6002ADF8140004208DF817000D
S31508003C6005A94848FDF776FA4FF41650019000204A
S31508003C70ADF80800ADF80A00ADF80C00ADF8100074
S31508003C800C20ADF80E0001A94048FFF751FE4FF48D
S31508003C90A060FEF76BFA34208DF8000001208DF83D
S31508003CA0010003208DF8020001208DF80300684604
S31508003CB0FEF724FA012240F225513448FFF713FE95
S31508003CC031463248FFF77DFD4FE0052C4BD10121E7
S31508003CD03020FEF735FE31464FF48010FEF710FE11
S31508003CE04FF48050ADF8140018208DF81700032003
S31508003CF08DF8160005A92348FDF72CFA0420ADF81F
S31508003D0014008DF8170005A92148FDF723FA019537
S31508003D100020ADF810000C20ADF80E000020ADF81C
S31508003D200C00ADF80A00ADF8080001A91948FFF71C
S31508003D30FFFD35208DF8000001208DF801000220D6
S31508003D408DF8020001208DF803006846FEF7D6F9C3
S31508003D50012240F225510F48FFF7C5FD31460D48AF
S31508003D60FFF72FFD01E006B070BD00BFFBE70000BE
S31508003D7000380140000C01400008014000440040A2
S31508003D80100014000010014000480040004C00409C
S31508003D90001401400050004000BFFEE70FB4084B76
S31508003DA010B504A902AA039800F01CF8044602A953
S31508003DB0002000F042FA204610BC5DF814FB000013
S31508003DC03B42000802E008C8121F08C1002AFAD1BF
S31508003DD070477047002001E001C1121F002AFBD17D
S31508003DE0704700002DE9FF4F8DB00F4605460026A7
S31508003DF006E025280BD0DDE90F1290476D1C761CCE
S31508003E0028780028F5D111B03046BDE8F08F002497
S31508003E10A246A1460122E94900E0044315F8013FFC
S31508003E20203B02FA03F00842F7D128782A2810D056
S31508003E306FF02F022878A0F13001092914D80AEB6F
S31508003E408A0102EB410144F0020400EB010A6D1CF1
S31508003E50F0E701CF5FEA000A03D544F40054CAF13B
S31508003E60000A44F002046D1C28782E2817D115F88C
S31508003E70010F44F004042A280ED06FF02F02287888
S31508003E80A0F1300109290AD809EB890102EB4101A1
S31508003E9000EB01096D1CF2E757F8049B6D1C2878A6
S31508003EA06C280FD006DC4C2817D068280DD06A2855
S31508003EB014D104E0742810D07A280FD10DE044F408
S31508003EC000140AE044F4801401E044F440146978CC
S31508003ED0814202D104F580146D1C6D1C28786E2869
S31508003EE01ED00CDC632830D004DC00288BD0582880
S31508003EF011D19FE0642867D069280CD164E0732843
S31508003F002DD004DC6F2872D0702804D194E075286F
S31508003F106ED078286DD0DDE90F129047761C4BE1FC
S31508003F20C4F30250022806D0032809D0042801CF7A
S31508003F3009D0066040E101CFF117C0E900613BE115
S31508003F4001CF068038E1067036E117F8040B8DF8C4
S31508003F50000000208DF80100EB46012003E057F829
S31508003F6004BB4FF0FF3061074FF0000102D40DE0AB
S31508003F7008F10101884649450FDA8045F8DB1BF848
S31508003F8008100029F4D108E008F1010188468142A9
S31508003F90FADB1BF808100029F6D1DDE90F23AAEB96
S31508003FA008008146214600F031F9304400EB080646
S31508003FB004E0DDE90F121BF8010B9047B8F1010880
S31508003FC0F7D221464846F2E00A21C4F302524FF0DE
S31508003FD0000B0891022A04D001CFC117032A09D081
S31508003FE00AE0FF1D27F00707F7E8020108E02CE0C2
S31508003FF01EE01FE000B2C117042A01D140B2C11762
S31508004000021E71F1000206DA0023D0EB030063EB0F
S3150800401001012D2202E0220504D52B228DF8242049
S31508004020012203E0E20701D02022F7E7904653E099
S315080040300A210BE0102109E010214FF0000B44F093
S3150800404004044FF00809089103E008214FF0000B1B
S315080040500891C4F30252022A04D001CF0021032A90
S3150800406006D006E0FF1D27F00707F7E8020103E080
S3150800407080B2042A00D1C0B24FF0000822072BD51F
S315080040802A78702A07D0DDF820C08CF0100C5CEA7C
S315080040900B0C05D00EE040228DF82420012208E002
S315080040A050EA010306D030238DF824308DF82520F8
S315080040B002229046089B83F0080353EA0B030BD1B0
S315080040C050EA010201D1620706D530228DF8242074
S315080040D04FF00108A9F101092A78582A04D038A214
S315080040E00B9208AA0A920BE03AA2F9E75B46089AED
S315080040F0FCF7CAFA0B9B9B5C0A9A521E0A9213702B
S3150800410050EA0102F2D10A98ADEB000000F1200B4B
S31508004110600702D524F4803401E04FF00109D9453F
S3150800412002DDA9EB0B0000E0002000EB0B01414487
S315080041300890AAEB010AE00306D4DDE90F2321461D
S31508004140504600F063F806444FF0000908E009A954
S3150800415011F80900DDE90F12904709F10109761CEB
S31508004160C145F4DBE0030CD5DDE90F2321465046B3
S3150800417000F04CF8064404E0DDE90F1230209047C1
S31508004180761C0899481E08900029F5DC08E00A986C
S315080041900A990078491C0A91DDE90F129047761CA6
S315080041A0BBF10001ABF1010BF1DC21465046DDE91C
S315080041B00F2300F019F806446D1C21E609280100B2
S315080041C0303132333435363738396162636465667F
S315080041D00000000030313233343536373839414241
S315080041E043444546000000002DE9F04104460025F9
S315080041F01E461746880404D405E039462020B047F1
S315080042006D1C641EF9D52846BDE8F0812DE9F041FC
S31508004210044600251E469046C80301D5302700E00F
S315080042202027880404D505E041463846B0476D1C6A
S31508004230641EF9D52846BDE8F0810A68531C0B6050
S31508004240107070478AB0FDF775FE2022324902A821
S31508004250FBF78CFF5FE03148C16802A888479DF8E4
S31508004260110088B12E48C0682D49C97ACDE90010D9
S315080042702B48837A427A2BA13148FFF78FFD3148C4
S315080042802F498269304890472548C07A00902448CB
S31508004290837A427A2DA12A48FFF780FD1020002153
S315080042A0CDE90010304840F2FF73254A03214469DE
S315080042B00020A0471E212248FBF771FF2B48806883
S315080042C000F400502A49086008460068A0B9012091
S315080042D0FCF7B2FC1B4827A182691B4890471020AF
S315080042E00021CDE90010204840F2FF7324A20321E3
S315080042F044691520A0470EE00020FCF79DFC10201D
S315080043000021CDE90010184840F2FF731DA20321D1
S3150800431044691520A0479EE734950008A0040020AC
S31508004320580400202D2D2054696D653A2025643ADD
S3150800433025643A2564202D202564202D2D0D0A009C
S315080043407021002008050020004800402D3E20541A
S31508004350494D453A202532643A2532643A25326475
S3150800436020532020000000003021002000100140CA
S315080043709C0400204B4559202D4C20210D0A000095
S315080043803020000031200000000021104220633058
S315080043908440A550C660E770088129914AA16BB18F
S315080043A08CC1ADD1CEE1EFF1311210027332522237
S315080043B0B5529442F772D662399318837BB35AA3DF
S315080043C0BDD39CC3FFF3DEE3622443342004011407
S315080043D0E664C774A44485546AA54BB5288509952F
S315080043E0EEE5CFF5ACC58DD55336722611163006D7
S315080043F0D776F6669556B4465BB77AA7199738877F
S31508004400DFF7FEE79DD7BCC7C448E5588668A77896
S315080044104008611802282338CCC9EDD98EE9AFF9CE
S31508004420488969990AA92BB9F55AD44AB77A966A76
S31508004430711A500A333A122AFDDBDCCBBFFB9EEB1E
S31508004440799B588B3BBB1AABA66C877CE44CC55C46
S31508004450222C033C600C411CAEED8FFDECCDCDDD6E
S315080044602AAD0BBD688D499D977EB66ED55EF44E16
S31508004470133E322E511E700E9FFFBEEFDDDFFCCFBE
S315080044801BBF3AAF599F788F8891A981CAB1EBA112
S315080044900CD12DC14EF16FE18010A100C230E3208E
S315080044A00450254046706760B9839893FBA3DAB336
S315080044B03DC31CD37FE35EF3B1029012F322D232DE
S315080044C03542145277625672EAB5CBA5A895898506
S315080044D06EF54FE52CD50DC5E234C324A01481042E
S315080044E06674476424540544DBA7FAB79987B897D6
S315080044F05FE77EF71DC73CD7D326F2369106B0167E
S3150800450057667676154634564CD96DC90EF92FE995
S31508004510C899E9898AB9ABA94458654806782768CD
S31508004520C018E1088238A3287DCB5CDB3FEB1EFB75
S31508004530F98BD89BBBAB9ABB754A545A376A167A1D
S31508004540F10AD01AB32A923A2EFD0FED6CDD4DCD45
S31508004550AABD8BADE89DC98D267C076C645C454C6D
S31508004560A23C832CE01CC10C1FEF3EFF5DCF7CDF15
S315080045709BAFBABFD98FF89F176E367E554E745EBD
S31508004580932EB23ED10EF01E00000002000000007D
S31508004590FFFFFFFF00000000000000000000000011
S315080045A000000000000000000808080808080800C5
S315080045B0001818000000486C2412000000000000D3
S315080045C000000000000000002424247F1212127F3D
S315080045D012121200000000081C2A2A0A0C182828A1
S315080045E02A2A1C080800000022251515152A5854E1
S315080045F054542200000000000C1212120A762529D3
S3150800460011916E0000000606040300000000000079
S3150800461000000000000040201010080808080808DC
S315080046201010204000000204080810101010101086
S3150800463008080402000000000008086B1C1C6B0830
S31508004640080000000000000000080808087F0808A5
S31508004650080800000000000000000000000000003C
S3150800466000060604030000000000000000FE00002B
S31508004670000000000000000000000000000000002C
S3150800468000060600000000804040202010100808A0
S315080046900404020200000000182442424242424238
S315080046A04224180000000000080E08080808080838
S315080046B008083E00000000003C4242422020100844
S315080046C004427E00000000003C4242201820404080
S315080046D042221C0000000000203028242422227ECA
S315080046E020207800000000007E0202021A264040C0
S315080046F042221C0000000000382402021A26424208
S3150800470042241800000000007E2222101008080823
S3150800471008080800000000003C42424224182442CF
S3150800472042423C00000000001824424242645840BD
S3150800473040241C00000000000000001818000000BB
S315080047400018180000000000000000000800000023
S3150800475000000808040000004020100804020408AD
S3150800476010204000000000000000007F0000007FCD
S31508004770000000000000000002040810204020107D
S3150800478008040200000000003C4242464020101087
S3150800479000181800000000001C225A555555552DC2
S315080047A042221C00000000000808181414243C22A9
S315080047B04242E700000000001F2222221E22424237
S315080047C042221F00000000007C4242010101010153
S315080047D042221C00000000001F224242424242427E
S315080047E042221F00000000003F4212121E1212024F
S315080047F042423F00000000003F4212121E121202FF
S3150800480002020700000000003C222201010171217A
S3150800481022221C0000000000E7424242427E424239
S315080048204242E700000000003E0808080808080899
S3150800483008083E00000000007C1010101010101030
S31508004840101010110F0000007722120A0E0A121219
S31508004850222277000000000007020202020202027A
S3150800486002427F000000000077363636362A2A2AAA
S315080048702A2A6B0000000000E346464A4A52525272
S3150800488062624700000000001C224141414141414B
S3150800489041221C00000000003F424242423E020202
S315080048A002020700000000001C2241414141414D1F
S315080048B053321C60000000003F4242423E12122260
S315080048C02242C700000000007C4242020418204031
S315080048D042423E00000000007F4908080808080810
S315080048E008081C0000000000E742424242424242D9
S315080048F042423C0000000000E742422224241414ED
S3150800490018080800000000006B4949494955553602
S315080049102222220000000000E74224241818182446
S315080049202442E70000000000772222141408080831
S3150800493008081C00000000007E212010100804044E
S3150800494042423F00000078080808080808080808D6
S315080049500808087800000002020404080808101075
S315080049602020204040001E101010101010101010AB
S315080049701010101E0000384400000000000000005F
S315080049800000000000000000000000000000000019
S3150800499000000000FF0006080000000000000000FC
S315080049A00000000000000000000000003C427844BF
S315080049B04242FC0000000000030202021A2642429C
S315080049C042261A00000000000000000038440202D7
S315080049D002443800000000006040404078444242EB
S315080049E04264D80000000000000000003C427E023D
S315080049F002423C0000000000F08808087E0808080B
S31508004A0008083E0000000000000000007C22221C6E
S31508004A10023C42423C000000030202023A4642427D
S31508004A204242E700000000000C0C00000E080808CF
S31508004A3008083E0000000000303000003820202022
S31508004A40202020221E0000000302020272120A160B
S31508004A5012227700000000000E0808080808080857
S31508004A6008083E0000000000000000007F929292B5
S31508004A709292B70000000000000000003B46424248
S31508004A804242E70000000000000000003C424242AB
S31508004A9042423C0000000000000000001B26424283
S31508004AA042221E020700000000000000784442422D
S31508004AB042447840E000000000000000774C0404FF
S31508004AC004041F0000000000000000007C42023CB5
S31508004AD040423E0000000000000008083E080808A2
S31508004AE0080830000000000000000000634242424F
S31508004AF04262DC000000000000000000E7422424B7
S31508004B00140808000000000000000000EB494955A1
S31508004B105522220000000000000000007624181824
S31508004B2018246E000000000000000000E74224245C
S31508004B301418080807000000000000007E2210086C
S31508004B4008447E000000C0202020202010202020BD
S31508004B50202020C000101010101010101010101077
S31508004B601010101010000608080808081008080891
S31508004B7008080806000C32C2000000000000000009
S31508004B800000000000000000000000000000000017
S31508004B900000000000000000000000000000000007
S31508004BA000000000000000000000000000000000F7
S31508004BB00000000000000000000000000060006027
S31508004BC00060006000600060006000400020002077
S31508004BD00020000000000000006000600060000087
S31508004BE00000000000000000006006600630039820
S31508004BF001880044000000000000000000000000DA
S31508004C000000000000000000000000000000000096
S31508004C100000000000000000000000000010021064
S31508004C200210021002FE07FE070802080108010822
S31508004C30010801FE07FE070401040104010401003E
S31508004C40000000000000000000000040004000F0E6
S31508004C500158034C03CC034C0058007000E000C018
S31508004C6001C00140034C035C034C034801F00040BB
S31508004C70004000000000000000000000000E010ACD
S31508004C8001910091009100510051003A00AE03A035
S31508004C90025004500448044804480484028403006B
S31508004CA00000000000000000000000000038006C52
S31508004CB0006C006C006C006C002C0098071C011A34
S31508004CC001330133016301E300C308C6093C070049
S31508004CD00000000000000000000C001C001000107E
S31508004CE000080004000000000000000000000000AA
S31508004CF000000000000000000000000000000000A6
S31508004D00000000000000000000000400020001800E
S31508004D1000800040004000200020002000200020E5
S31508004D2000200020004000400080008000000100B4
S31508004D300200040000000000000200040008001041
S31508004D4000100020002000400040004000400040C5
S31508004D500040004000200020001000100008000459
S31508004D600002000000000000000000000000000033
S31508004D70004000C0004000460C4E0FD001F0015E16
S31508004D800F460C40004000400000000000000000F4
S31508004D900000000000000000000000000000000005
S31508004DA000000040004000400040004000FE0F4068
S31508004DB000400040004000400000000000000000E5
S31508004DC000000000000000000000000000000000D5
S31508004DD000000000000000000000000000000000C5
S31508004DE00000000000000000000C001C001000106D
S31508004DF00008000400000000000000000000000099
S31508004E0000000000000000000000000000FE07008F
S31508004E100000000000000000000000000000000084
S31508004E200000000000000000000000000000000074
S31508004E300000000000000000000000000000000064
S31508004E400000000000000000001C001C001C000000
S31508004E500000000000000000000004000600020038
S31508004E60030001000180008000400040006000202F
S31508004E7000200010001000080008000C00040006BE
S31508004E80000200000000000000000000000000F022
S31508004E900098010C030C0306060606060606060617
S31508004EA0060606060606060C030C039801F0000023
S31508004EB000000000000000000000000000000040A4
S31508004EC0007C0060006000600060006000600060B8
S31508004ED000600060006000600060006000FC030085
S31508004EE0000000000000000000000000000000F8BC
S31508004EF0008401020306030603000300018001C0C3
S31508004F0000600020001000080204020602FE0300EA
S31508004F10000000000000000000000000000000780B
S31508004F2000C6008601860180018001C000700080ED
S31508004F3001000100030003060306038601F80000CA
S31508004F4000000000000000000000000000000080D3
S31508004F50018001C001A001A0019001880188018497
S31508004F60018201FE0F8001800180018001E00700B7
S31508004F70000000000000000000000000000000FC27
S31508004F800304000400040004000400F4008C010477
S31508004F9003000300030603060382018401F80000E8
S31508004FA0000000000000000000000000000000E013
S31508004FB00118030C030C0004000600E60116030E94
S31508004FC00606060606060604060C021803F0000086
S31508004FD0000000000000000000000000000000F8CB
S31508004FE0070C06040204010001000180008000404D
S31508004FF00040004000600060006000600060000043
S31508005000000000000000000000000000000000F89A
S31508005010010C030606060606060C021C03F000C869
S31508005020010C0306060606060606060C03F0010032
S31508005030000000000000000000000000000000F072
S31508005040000C010C03060206060606060606078C71
S315080050500678060006000300030C018C01780000A0
S315080050600000000000000000000000000000000032
S31508005070000000000000000000E000E000E0000082
S31508005080000000000000000000E000E000E0000072
S315080050900000000000000000000000000000000002
S315080050A00000000000000000006000600000000032
S315080050B000000000000000000000006000600040E2
S315080050C0002000200000000000000000000004008E
S315080050D002000180004000200010000800040008BB
S315080050E000100020004000800000010002000400BB
S315080050F000000000000000000000000000000000A2
S31508005100000000000000000000FE0700000000008C
S3150800511000FE07000000000000000000000000007C
S315080051200000000000000000000000000004000865
S31508005130001000200040008000000100020004006A
S315080051400200018000400020001000080004000052
S31508005150000000000000000000000000000000E061
S31508005160031806040C040C0C0C0C0C0007800140F8
S31508005170004000400000000000E000E000E0000001
S3150800518000000000000000000000000000E0001819
S31508005190030C02CC0564056605A605B604B604B676
S315080051A004B604B602E4010C040C021803F000006D
S315080051B00000000000000000000000000000006081
S315080051C00060005000D00090009000880088010818
S315080051D001F801040304030402020202060F0F0089
S315080051E0000000000000000000000000000000FEB3
S315080051F0008C030C030C030C030C038C01FC000C41
S31508005200030C020C060C060C060C060C03FE010029
S31508005210000000000000000000000000000000E0A0
S315080052200318030C060C0404040600060006000610
S31508005230000600060006040C040C021803F0000021
S315080052400000000000000000000000000000007FD1
S31508005250008C010C030C030C060C060C060C060C41
S31508005260060C060C060C060C030C038C017F0000CA
S31508005270000000000000000000000000000000FF21
S3150800528003060306040604060086008600FE00865A
S3150800529000860086000600060406040602FF0300D0
S315080052A0000000000000000000000000000000FFF1
S315080052B003060306040604060086008600FE00862A
S315080052C0008600860006000600060006001F00008D
S315080052D0000000000000000000000000000000F0D0
S315080052E00018010C020C020402060006000600065D
S315080052F000C60F060306030C030C031803F0000090
S315080053000000000000000000000000000000000F80
S315080053100F060606060606060606060606FE07061D
S31508005320060606060606060606060606060F0F0003
S31508005330000000000000000000000000000000FC63
S31508005340036000600060006000600060006000604C
S3150800535000600060006000600060006000FC030000
S31508005360000000000000000000000000000000F837
S3150800537007C000C000C000C000C000C000C000C018
S3150800538000C000C000C000C000C000C000C000C609
S315080053900066003C0000000000000000000000CF8E
S315080053A0038601C60046002600160036002E006E4B
S315080053B0004600C60086008601060106038F070020
S315080053C00000000000000000000000000000001FB0
S315080053D0000600060006000600060006000600068F
S315080053E000060006000600060406040602FF03007F
S315080053F00000000000000000000000000000000798
S3150800540007860386038E038E034E034E034A035A0A
S31508005410035A033A0332033203320312038707009F
S315080054200000000000000000000000000000008EE0
S315080054300F0C021C021C0234023402640264024489
S3150800544002C402840284038403040304031F0200C3
S31508005450000000000000000000000000000000F04E
S315080054600098010C030C0206060606060606060642
S31508005470060606060606060C020C039801F000004E
S31508005480000000000000000000000000000000FF0F
S31508005490000603060606060606060606068603FE32
S315080054A0000600060006000600060006001F0000AB
S315080054B0000000000000000000000000000000F0EE
S315080054C00098010C030C02060606060606060606E2
S315080054D0060606060676064C02CC039801F00080FE
S315080054E0070003000000000000000000000000FFA5
S315080054F001060306060606060606060603FE004617
S3150800550000C600860086010603060306060F0E007F
