:020000040800F2
:100000004816002085010008A30500089B0500088C
:100010009F05000821040008054C000800000000AE
:10002000000000000000000000000000690A000855
:1000300025040008000000003D060008110D00081E
:100040009F0100089F0100089F0100089F01000810
:100050009F0100089F0100089F0100089F01000800
:100060009F0100089F0100089F0100089F010008F0
:100070009F0100089F0100089F0100089F010008E0
:100080009F0100089F0100089F0100089F010008D0
:100090009F0100089F0100089F0100089F010008C0
:1000A0009F0100089F0100089F0100089F010008B0
:1000B000B10D00089F0100089F0100089F01000882
:1000C0009F0100089F0100089F0100089F01000890
:1000D0009F0100089F0100089F0100089F01000880
:1000E0009F0100089F010008C11F000800000000D8
:1000F0000000000000000000000000000000000000
:10010000000000009F0100089F010008000000009F
:100110009F0100089F01000800000000000000008F
:100120009F0100089F0100089F0100089F0100082F
:1001300000000000000000000000000000000000BF
:10014000000000000000000000000000B11F0008D7
:1001500000000000000000009F0100089F0100084F
:100160009F01000800000000000000009F0100083F
:10017000DFF80CD000F084F8004800473D6100082B
:10018000481600200648804706480047FEE7FEE77D
:10019000FEE7FEE7FEE7FEE7FEE7FEE7FEE7FEE737
:1001A000150D0008710100082DE9F05F05460020DB
:1001B00092469B4688460646814640241BE02846D8
:1001C00041464746224600F04AF853465A46C01A6E
:1001D000914110D311461846224600F031F82D1AED
:1001E00067EB01084F4622460120002100F028F865
:1001F00017EB00094E41201EA4F10104DFDC484644
:1002000031462A464346BDE8F09F40EA01039B077A
:1002100003D009E008C9121F08C0042AFAD203E07B
:1002200011F8013B00F8013B521EF9D2704703461A
:1002300011F8012B00F8012B002AF9D1184670475C
:10024000202A04DB203A00FA02F100207047914096
:10025000C2F1200320FA03F3194390407047202A8B
:1002600004DB203A21FA02F00021704721FA02F360
:10027000D040C2F120029140084319467047000067
:10028000064C074D06E0E06840F0010394E80700E3
:1002900098471034AC42F6D3FFF76EFF746700083E
:1002A0009467000838B504460B4951F82400012131
:1002B00000F0E6F9684600F068F9084830F81400E4
:1002C000ADF8000028208DF80300054951F82400FE
:1002D000694600F0CBF838BD9C0000209800002053
:1002E0009000002010B500F09FF8012000F016F8F3
:1002F000022000F013F8032000F010F8012000F0B5
:1003000031F8022000F02EF8032000F02BF8002036
:10031000FFF7C8FF0120FFF7C5FF10BD38B5044641
:100320000D4951F82400012100F0AAF9684600F0B7
:100330002CF90A4830F81400ADF8000010208DF8B0
:10034000030002208DF80200054951F82400694697
:1003500000F08CF838BD00008000002078000020FC
:1003600068000020032800DD7047064931F81010AE
:1003700031B1044931F81010034A52F820201161BC
:1003800000BFF1E7780000206800002070B5054646
:100390000C4608480560204600F00EF800BF0548EE
:1003A00000680028FBD100214FF0804000F013FDD1
:1003B00070BD0000000000201FB5044600214FF072
:1003C000804000F008FD00220121880700F020FD98
:1003D000022C02D11920029004E0012C02D146F235
:1003E0008F5002900520ADF800000020ADF80C0001
:1003F000019069464FF0804000F014FD012188070C
:1004000000F0E6FC0121880700F0D6FC012211462D
:10041000900700F0FDFC0121880700F0DCFC1FBD07
:1004200000BFFEE77047000010B5042000F05CFC40
:10043000074800680749B0FBF1F007490860084623
:1004400000684FF47A7148430449086010BD000009
:100450005000002040420F00A4000020A80000200F
:100460000149086070470000140401402DE9F04183
:10047000024600250026002000230024002791F8D2
:1004800003C00CF00F0591F803C00CF0100CBCF188
:10049000000F03D091F802C04CEA050591F800C0A6
:1004A000BCF1000F31D0146800202BE04FF0010C9C
:1004B0000CFA00F3B1F800C00CEA03069E4220D10A
:1004C00083004FF00F0C0CFA03F7BC4305FA03FC52
:1004D0004CEA040491F803C0BCF1280F06D14FF098
:1004E000010C0CFA00FCC2F814C00AE091F803C039
:1004F000BCF1480F05D14FF0010C0CFA00FCC2F81A
:1005000010C0401C0828D1D31460B1F800C0BCF161
:10051000FF0F34DD546800202EE000F1080C4FF08E
:10052000010808FA0CF3B1F800C00CEA03069E4279
:1005300021D183004FF00F0C0CFA03F7BC4305FAEE
:1005400003FC4CEA040491F803C0BCF1280F05D168
:1005500000F1080C08FA0CF8C2F8148091F803C0F6
:10056000BCF1480F07D100F1080C4FF0010808FA60
:100570000CF8C2F81080401C0828CED35460BDE8A7
:10058000F08141617047016170474FF6FF71018052
:10059000022181700421C170704700BFFEE700BFD7
:1005A000FEE7704770B5002100230F22C47804B322
:1005B000154C246804F4E064C4F5E064210AC1F138
:1005C0000403CA40447804FA03F1847814402143B8
:1005D00009010E4C0678A155047804F01F0501248A
:1005E000AC4005786D11AD0005F1E025C5F800417E
:1005F00009E0047804F01F050124AC40044D06789E
:10060000761145F8264070BD0CED00E000E400E0F6
:1006100080E100E002490143024A11607047000096
:100620000000FA050CED00E0024A0A400243024BCA
:100630001A60704780FFFF1F08ED00E07047000060
:1006400029B1064A52690243044B5A6104E0034A45
:1006500052698243014B5A6170470000001002400A
:1006600029B1064AD2690243044BDA6104E0034A25
:10067000D2698243014BDA617047000000100240EA
:1006800029B1064A92690243044B9A6104E0034A85
:1006900092698243014B9A6170470000001002404A
:1006A0002DE9F04F00260027B4460024A046A146BD
:1006B0000022002100250023DFF88CA2DAF804A034
:1006C0000AF00C0222B1042A1ED0082A73D120E0BD
:1006D000DFF874A2DAF830A00AF0007ABAF1000F5D
:1006E0000DD0DFF864A2DAF854A00AF4007ABAF167
:1006F000000F04D0DFF854A2C0F800A003E0DFF838
:1007000050A2C0F800A0A9E0DFF844A2C0F800A001
:10071000A4E0DFF834A2DAF804A00AF48035DFF8A8
:1007200028A2DAF82CA00AF00046B6F1004F52D108
:10073000DFF814A2DAF82CA0DFF818B20AEA0B07E7
:10074000DFF804A2DAF82CA00AF0F00CDFF8F8A128
:10075000DAF82CA00AF0070400BF062C16D2DFE856
:1007600004F00306090C0F124FF0010911E04FF0DD
:1007700002090EE04FF004090BE04FF0080908E011
:100780004FF0100905E04FF0200902E04FF0010999
:1007900000BF00BF00BF15B9DFF8BC810EE0DFF875
:1007A000A8A1DAF804A00AF4003ABAF1000F03D0C5
:1007B000DFF8A48102E04CE0DFF894814FEA172AC9
:1007C0000AFB08FA4FEA1C1B0BFB09FBBAFBFBFAFE
:1007D000C0F800A03CE0DFF870A1DAF804A0DFF870
:1007E0007CB10AEA0B0101F0C04ABAF1000F07D14F
:1007F00001F4701ABAF5701F02D04FF0020A01E03E
:100800004FF0010A01F0C04BC1F3834E4EEA5B6B1F
:100810000AEB0B0135B9DFF840A101FB0AFAC0F879
:1008200000A015E0DFF820A1DAF804A00AF4003AED
:10083000BAF1000F06D0DFF820A101FB0AFAC0F8D8
:1008400000A005E0DFF808A101FB0AFAC0F800A04B
:1008500004E0DFF8FCA0C0F800A000BF00BFDFF894
:10086000E8A0DAF804A0CAF30212DFF8DCA0DAF894
:1008700004A00AF0800ABAF1000F04D0DFF8E0A06B
:100880001AF802A001E04FF0000A5346D0F800A089
:100890002AFA03FAC0F804A0DFF8ACA0DAF804A042
:1008A000CAF30122DFF8A0A0DAF804A00AF4806AF3
:1008B000BAF1000F04D0DFF8A8A01AF802A001E0F6
:1008C0004FF0000A5346D0F804A02AFA03FAC0F801
:1008D00008A0DFF874A0DAF804A0CAF3C122DFF898
:1008E00068A0DAF804A00AF4005ABAF1000F04D0A4
:1008F000DFF86CA01AF802A001E04FF0000A53469E
:10090000D0F804A02AFA03FAC0F80CA0DFF838A047
:10091000DAF804A0CAF38132DFF82CA0DAF804A0D8
:100920000AF0805ABAF1000F01D042F00402DFF859
:1009300034A01AF80230D0F80CA0BAFBF3FAC0F8D1
:1009400010A0BDE8F08F000000100240006CDC0237
:1009500000127A0000FF010000093D0000003C6029
:10096000636700086B67000810B50246002300218A
:100970000020234C646804F48033214CE16A21F0A8
:10098000074103B939E010461D4C646804F4003493
:1009900004B140081B4CA04203D91B4CA04200D21A
:1009A0002BE01A4CA04205D9194CA04202D241F0CA
:1009B000807122E0174CA04205D9174CA04202D208
:1009C00041F0007119E0144CA04205D9134CA0422B
:1009D00002D241F0407110E0114CA04205D9114CF7
:1009E000A04202D241F0806107E00E4CA04204D93F
:1009F0000D4CA04201D241F0A061014CE16210BD5A
:100A00000010024060823B00404B4C0080584F0079
:100A1000105E5F0094357700101B7F0020BCBE0085
:100A2000286BEE0030D73D01D8E9DC01012806D162
:100A30000649496D41F03001044A516505E003491A
:100A4000496D21F03001014A5165704700100240A4
:100A500001460020034A506820F00C6008435060B3
:100A60007047000000100240704710B500F002F817
:100A700010BD00001CB50020019000903F480068A8
:100A800040F480303D49086000BF3C48006800F4F5
:100A9000003000900198401C0190009818B901980E
:100AA000B0F5405FF1D13548006800F4003010B176
:100AB0000120009001E000200090009801285BD107
:100AC0002F48006840F010002D4908600846006873
:100AD00020F0070008600846006840F00400086045
:100AE00026484068254948600846406820F4605020
:100AF00048600846406840F4005048600846406836
:100B000020F4E06048600846406840F48060486037
:100B1000084640681B490840184948600846406834
:100B200019490843154948601848FFF71DFF134845
:100B3000006840F080701149086000BF0F480068ED
:100B400000F000700028F9D00120FFF76FFF0B487C
:100B5000406820F00300094948600846406840F0BA
:100B60000200486000BF0548406800F00C000828FB
:100B7000F9D10020FFF75AFF1CBD00000010024011
:100B800000200240FFFFC01F0000052000127A0075
:100B900010B51A4800681A4A811A904218D007DC2A
:100BA0001849084458B14FEA61010844F8B90BE00C
:100BB0001548084488B114490844C0B912E04FF4FC
:100BC0008000FFF745FF13E00020FFF741FF0FE033
:100BD0004FF44000FFF73CFF0AE04FF40000FFF73E
:100BE00037FF05E04FF00460FFF732FF00E000BF81
:100BF00000BF01210803FFF723FD10BD50000020B6
:100C000000D8B805009423FD00CA91FEF0B591B05C
:100C100007460C46394604A804F0DFFD0546002DC2
:100C20004DD146E00BA904A804F00EFE054615B907
:100C30009DF8350000B941E09DF835002E2800D11F
:100C400037E00DF1350631466846FFF7F0FA1D48EA
:100C50000078401C1B49087008460078092801DD0F
:100C600000200870012C03D117A003F0CDFF04E091
:100C7000022C02D116A003F0C7FF9DF8340000F04B
:100C80003F00102804D1694614A003F0BDFF03E023
:100C9000694612A003F0B8FF9DF8340000F03F0051
:100CA000102805D1012C03D102213046FFF7AEFFF9
:100CB00000BF0C4801F0D4F90028B3D100BF28468A
:100CC00011B0F0BD050000202020207C5F5F0000F7
:100CD0002020207C2020207C5F5F000025730D0AEF
:100CE0000000000098010020042808D14FF0E02106
:100CF000096941F004014FF0E022116107E04FF073
:100D0000E021096921F004014FF0E02211617047F0
:100D10007047000010B501210807FFF7A1FC1D482E
:100D2000007840F004001B49503981F85000002140
:100D30004FF08050FFF794FC1748006840F0010026
:100D4000154908600846406814490840124948603F
:100D500008460068124908400F49086008460068C4
:100D600020F480200860084640680E4908400A497F
:100D700048600846006B0C490840074908634FF477
:100D80001F008860FFF771FE4FF0006007490860A0
:100D900010BD000050700040001002400C00FFE841
:100DA000FFFFF6FEFFFF001700FFFEFE08ED00E06C
:100DB00010B502F0D7FA10BD21B1028842F08002CE
:100DC000028004E002884FF67F731A400280704769
:100DD000CA430282704721B1028842F001020280B8
:100DE00004E002884FF6FE731A400280704730B567
:100DF0000246002000230024158A05EA0103958994
:100E000005EA010413B10CB1012000E0002030BD5F
:100E10001AB183890B43838102E083898B438381E9
:100E20007047000000220288104B98420BD0B0F1AE
:100E3000804F08D00E4B984205D00E4B984202D0FE
:100E40000D4B984205D14FF68F731A408B88134390
:100E50009AB202808B68C3620B880385034B984269
:100E600001D18B7B0386012383827047002C0140D4
:100E700000080040000C00400004004010B586B09F
:100E8000044601210420FFF7FBFB01218803FFF743
:100E9000F7FB05A8FFF779FB4FF40070ADF81400DD
:100EA00002208DF8160018208DF8170005A91748A4
:100EB000FFF7DCFA4FF48060ADF8140028208DF8BD
:100EC000170005A91148FFF7D1FA01A800F0D8F8DA
:100ED00001940020ADF80800ADF80A00ADF80C0050
:100EE000ADF810000C20ADF80E0001A9084800F084
:100EF0004FF8012240F22551054800F024F8012165
:100F0000034800F007F806B010BD000000080140DB
:100F10000038014021B1828942F40052828104E00C
:100F200082894DF6FF731A40828170470246002085
:100F3000B1F5007F00D100BF13880B400BB1012039
:100F400000E000207047F0B503460024002600258D
:100F5000002040F66A17B94200D100BF1846C1F31D
:100F6000421401F01F06012707FA06F5012C01D1F2
:100F70000C3004E0022C01D1103000E014301AB122
:100F800007682F43076002E00768AF430760F0BDC2
:100F90002DE9F04F89B005460E4600240020079049
:100FA000834682468146B08900B100BFA9462C8A9B
:100FB0004CF6FF700440F08804432C82AC894EF656
:100FC000F3100440B0883189084371890843044311
:100FD000AC81AC8A4FF6FF400440B0890443AC8238
:100FE00002A8FFF75DFB2348814502D105980790D1
:100FF00001E0049807904FF47A710798A0FB017004
:101000000146102200233846FFF7CEF8CDE9000153
:1010100037683A460023FFF7C7F804464FF47A7062
:10102000B4FBF0FBB4FBF0F100FB11404FEA001AF7
:101030004FF47A70BAFBF0F100FB11A0B0F5FA7F23
:1010400004D24FF47A70BAFBF0FA0CE04FF47A70E5
:10105000BAFBF0F000F1010ABAF1100F03D34FF020
:10106000000A0BF1010B4AEA0B10288109B0BDE818
:10107000F08F000000380140C1F308028280704701
:101080004FF41651016000218180C18001810C2143
:1010900041810021818170472DE9F04105460E46CE
:1010A0001446012714B1012C12D108E0104803782E
:1010B000C2783146284601F051F8074609E00C484D
:1010C000437882783146284601F048F8074600E028
:1010D00000BF00BF07480068401C0649086008467A
:1010E0000068042800D904273846BDE8F0810000D4
:1010F000EC0D0020D400002010B502460020002393
:10110000014C237010BD0000DC0D00202DE9F041E2
:1011100005460F4600260124284600F0A1FF20B313
:1011200015480178284600F065FF06460D2E01D0CF
:1011300002241CE0114800681149884216D10F486A
:10114000406810494968884211D10C48007B08B9B1
:1011500000240CE00948007B012801D1012406E0AD
:101160000648007B022802D1022400E0022406483F
:10117000C4732046BDE8F081EC0D0020CC0D0020AA
:1011800055534253AC0D0020DC0D0020012812D134
:101190000D490978491C0C4A1170114609780A2931
:1011A00005DA0621094A11700121D1700AE00A21ED
:1011B000064A117006E0022803D10A21034A117081
:1011C00000E000BF70470000F4000020DC0D0020AC
:1011D00070B505460C46A1212175FE2161750021DF
:1011E000E1822183012161830123034A21462846AC
:1011F00000F0FDFF70BD0000F40D00202DE9F04768
:1012000081460F463E46012503244FF0000848461C
:1012100000F026FF002878D0554800780B2875D2BA
:10122000DFE800F006A10D44556692797E33900008
:10123000484600F0A9FA02204D49087094E039466A
:101240004846FFF7C5FF0546BDB94A48007A4949F7
:1012500081F84800084690F8480000280ADD464812
:10126000007838B9012044490870D6F88010086C1D
:10127000804779E003203E490870032D04D1032004
:101280003B494870092008706EE0737900223946A6
:10129000484600F063FF05463DB90020354981F816
:1012A000480033484078324908705DE0484600F015
:1012B000B5FD04463CB904202D49087000202F4993
:1012C0000870002502E02046FFF760FF4CE048462A
:1012D00000F0C6FC04463CB90520254908700020F2
:1012E00026490870002502E02046FFF74FFF3BE04B
:1012F000484600F0CDFB04464CB908201C49087054
:1013000000201E490870002504E02EE02BE0204656
:10131000FFF73CFF28E03946484600F031F823E06B
:10132000D6F88010C86B804700F0FF08B8F1000FB6
:1013300003D108200E49087003E0B8F1010F00D175
:10134000062511E004250FE0484600F0F7FC0446AE
:101350002CB90748407806490870002502E020466D
:10136000FFF714FF00E000BF00BF2846BDE8F0878C
:10137000DC0D0020EC0D002008010020F40000200E
:101380002DE9F047804689460024404600F068FE7B
:1013900000287DD0F248007909287AD2DFE800F0F1
:1013A00079051568CEFDFCFBFA00EE4843781F2254
:1013B000ED49404600F0A3FE0120E94948710220B2
:1013C00008710020E9490870C6E1E64841784046C6
:1013D00000F00BFE0446012C26D10020E4490860F1
:1013E0000220DF494871E048007B00F08007DE48BA
:1013F0008068A8B1DC488068DE490860D848806809
:10140000DD49086008460068DC490860802F03D188
:101410000320D34908712AE00420D149087126E04D
:101420000520CF49087122E0022C04D1CC48407934
:10143000CB4908711BE0042C06D10120D04908706B
:101440000820C749087112E0032C10D1C748007862
:10145000401CC649087008460078032804DAC048D2
:101460004079BF49087102E00220BD49C87373E1A9
:10147000BC480178404600F0B8FD0446012C03D07A
:10148000B748407903283AD00020B949086001E004
:1014900063E160E10320B2494871B2488088B549F0
:1014A0000968884216D2AF4803788288B24801683A
:1014B000404600F0F4FDAB488088AE490968081A40
:1014C000AC490860A7488088AB4909680844AA4924
:1014D000086032E0A748006818B90520A0490871E3
:1014E0002BE0A0480378A348008882B2A248016894
:1014F000404600F0D4FD00209E4908601DE0042C09
:1015000008D100209E4908700720954908710520E0
:10151000487112E0032C10D194480078401C934984
:10152000087008460078032804DA8D4840798C4911
:10153000087102E002208A49C8730DE189484178A8
:10154000404600F052FD0446012C43D1002088495A
:1015500008600420824948718248C088854909682A
:10156000884222D27F484378C28883480168404637
:1015700000F0C5FD80480068804908607948C0884F
:101580007D49096808447C4908607648C0887949E3
:10159000096803E0CDE0B2E07CE059E0081A754943
:1015A000086000207149087051E07248006818B95D
:1015B00005206B4908714AE06A4843786D48008805
:1015C00082B26D480168404600F099FD00206949EB
:1015D00008603CE0022C1CD1674800686749096834
:1015E00088420DD05F484378C288C088DFF888C140
:1015F000DCF800C0ACEB0001404600F080FD26E0C6
:1016000058484378C2885C480168404600F077FD3E
:101610001DE0042C08D101205949087008205049C8
:1016200008710520487112E0032C10D14F48007852
:10163000401C4E49087008460078032804DA4848E0
:1016400040794749087102E002204549C87383E0A8
:101650000520434948714B4888603F2088810C260B
:1016600004E0002047498855701EC6B2002EF8D10C
:101670000020444908703B48037839483F2281687C
:10168000404600F00CFD062035490871002037491E
:10169000087061E033480178404600F0A6FC04463B
:1016A000012C0FD100203249086005202C494871D7
:1016B00008468078087049464046FFF727FD2849CC
:1016C000C8731BE0042C06D100202D4908700720A8
:1016D0002349087112E0032C10D124480078401CE3
:1016E0002249087008460078032804DA1C4840792B
:1016F0001B49087102E002201949C8732CE000223E
:1017000049464046FFF7C8FC054665B91C480078C5
:10171000022803D108201249087109E010484079D5
:101720000F49087104E0042D02D102200C49C8734E
:1017300012E0012249464046FFF7AEFC054625B9B6
:10174000074840790649087104E0042D02D10220BF
:101750000349C87300E000BF00BFBDE8F087000088
:10176000DC0D0020EC0D0020AC0D0020D800002086
:10177000D4000020DC000020E0000020E400002075
:10178000E8000020CC0D002010B50446204600F0F3
:1017900067FC48B1074808490860084848600020CD
:1017A000487301200649C8700020064908600649B0
:1017B000087010BD55534243AC0D002050403020FE
:1017C000DC0D0020D4000020F400002070B5044699
:1017D0000D461048407860B10E484178204601F02F
:1017E000ECFF0C484178204601F0B0FB002009498D
:1017F00048700848007860B106480178204601F03A
:10180000DCFF04480178204601F0A0FB00200149DC
:10181000087070BDEC0D00207CB506460D462C46C8
:1018200094F84300082856D194F84500502852D126
:1018300094F8520000F0800038B194F85200464904
:10184000C870B4F85400888006E094F85200424909
:101850008870B4F85400C88094F85A0000F08000F2
:1018600038B194F85A003C49C870B4F85C008880DC
:1018700006E094F85A0038498870B4F85C00C880D3
:1018800035488178304601F00FFB334948700846EF
:10189000C178304601F008FB2F4908700846C0881F
:1018A0000221CDE900102120035D94F820202A4870
:1018B0004178304601F0ADFB274880880221CDE910
:1018C00000102120035D94F8202023480178304641
:1018D00001F09FFB3EE094F84300092803D11FA0CC
:1018E00003F092F932E094F84300022803D121A0DA
:1018F00003F08AF92AE094F84300032803D12CA0CE
:1019000003F082F922E094F84300072803D130A0C5
:1019100003F07AF91AE094F843000B2803D135A0BC
:1019200003F072F912E094F843000E2803D13BA0B3
:1019300003F06AF90AE094F84300102803D140A0AC
:1019400003F062F902E048A003F05EF9D4F88010D9
:10195000086C804700207CBDEC0D0020487562209B
:101960006973206E6F7420737570706F7274656424
:101970002E0A0000436F6D6D756E69636174696F47
:101980006E7320616E642043444320436F6E747213
:101990006F6C20646576696365206973206E6F746F
:1019A00020737570706F727465642E0A00000000F9
:1019B00048494420646576696365206973206E6FC9
:1019C0007420737570706F727465642E0A00000065
:1019D0005072696E7465722064657669636520690A
:1019E00073206E6F7420737570706F727465642EDF
:1019F0000A000000536D61727420436172642064B8
:101A00006576696365206973206E6F7420737570E5
:101A1000706F727465642E0A000000005669646578
:101A20006F2064657669636520206973206E6F742A
:101A300020737570706F727465642E0A0000000068
:101A4000417564696F2F566964656F2044657669D6
:101A5000636573206973206E6F7420737570706F87
:101A6000727465642E0A00005468652061747461A4
:101A70006368656420646576696365206973206EB8
:101A80006F7420737570706F727465642E200A0015
:101A900070B505460326284600F0E2FA002855D026
:101AA0002B48C078012802D002284DD127E03F20E2
:101AB00028498860802008730A20887326482449B2
:101AC0008860052088700F2405E0002121480F3030
:101AD0000155601EC4B2002CF7D11A201D49C873ED
:101AE0003F211C484174C174012019490871072025
:101AF00008700320C8730220C870032625E014482C
:101B0000C07B80B91448807800F0800018B10120B3
:101B10001249087302E000201049087301200C49A3
:101B2000C87000260FE00A48C07B012803D108498D
:101B3000C870012607E00648C07B022803D10120B7
:101B40000349C870022600E000BF00BF304670BDE8
:101B5000DC0D0020AC0D0020480E0020380E0020C7
:101B6000FFB581B007460E461D460320394908706F
:101B7000384600F075FA002867D03748C078012849
:101B800002D002285FD139E0344885608020334993
:101B900008730A208873304886600F2405E000210E
:101BA0002E480F300155601EC4B2002CF7D12820FA
:101BB0002A49C8739DF80F10284841749DF80E10EB
:101BC00081749DF80D10C1749DF80C100175C5F35A
:101BD0004F2000909DF80110204881759DF800105D
:101BE000C17501201C490871072008700320C873C3
:101BF0000220C87003201749087025E01648C07BF2
:101C000050B9384600F02CFA30B101201249C870A2
:101C100000201049087015E00F48C07B012807D14B
:101C2000384600F01DFA18B101200B49C87009E0D0
:101C30000948C07B022805D101200749C87002204D
:101C40000449087000E000BF00BF0248007805B0FA
:101C5000F0BD00000A010020DC0D0020AC0D0020CA
:101C600070B505460326284600F0FAF900285AD038
:101C70002E48C078012802D0022852D123E0082043
:101C80002B498860802008730A20887329482749D7
:101C90008860042088700F2405E0002124480F305C
:101CA0000155601EC4B2002CF7D125202049C8730D
:101CB00001201E490871072008700320C873022004
:101CC000C87003262EE01948C07BC8B919480078AF
:101CD0001949C8701748407888701648807848704D
:101CE0001448C0780870134881791348417211482C
:101CF000C0791149087201200C49C87000260FE014
:101D00000A48C07B012803D10849C870012607E0B2
:101D10000648C07B022803D101200449C87002266E
:101D200000E000BF00BF304670BD0000DC0D0020A9
:101D3000AC0D0020480E0020380E002070B505467E
:101D40000326284600F08CF900285DD02F48C07883
:101D5000012802D0022855D12BE03F202C49886071
:101D6000802008730A2088732A482849886008461A
:101D700080784870062088700F2405E000212448F0
:101D80000F300155601EC4B2002CF7D1032020494A
:101D9000C87300211E4801743F21C17401201B49F2
:101DA0000871072008700320C8730220C87003263A
:101DB00029E01648C07BA0B9164801781648C171C1
:101DC0001448417814488171124881781248417151
:101DD0001048C0781049087101200C49C8700026CD
:101DE0000FE00A48C07B012803D10849C8700126CA
:101DF00007E00648C07B022803D101200349C870D0
:101E0000022600E000BF00BF304670BDDC0D0020A0
:101E1000AC0D0020480E0020380E002070B505469D
:101E20000326284600F01CF9002846D02448C07834
:101E3000012802D002283ED124E0002021498860F8
:101E400008730620887320481D4988603F208881D8
:101E5000032088700F2405E000211A480F30015537
:101E6000601EC4B2002CF7D100201649C8730120AF
:101E700013490871072008700320C8730220C87036
:101E8000032619E00E48C07B20B901200C49C87018
:101E900000260FE00A48C07B012803D10849C8701A
:101EA000012607E00648C07B022803D1012004492F
:101EB000C870022600E000BF00BF304670BD0000C1
:101EC000DC0D0020AC0D0020CC0D00202DE9FF41E1
:101ED00082B007460E461D464FF00308384600F014
:101EE000BFF800285BD03048C078012802D0022813
:101EF00053D138E02D48856000202C4908730A2012
:101F00008873294886600F2405E0002127480F3098
:101F10000155601EC4B2002CF7D12A202349C87392
:101F20009DF81310214841749DF8121081749DF89A
:101F30001110C1749DF810100175C5F34F20019068
:101F40009DF80510194881759DF80410C175012090
:101F500015490871072008700320C8730220C87053
:101F60004FF003081AE01048C07B28B901200E4941
:101F7000C8704FF000080FE00B48C07B012802D169
:101F80000949C87008E00848C07B022804D1012034
:101F90000549C8704FF0020800E000BF00BF40468E
:101FA00006B0BDE8F0810000DC0D0020AC0D002083
:101FB00010B5024800F05AFC10BD00009801002046
:101FC00010B54FF48020FEF74BFA10BD014648696A
:101FD000806880B2704708B50146D1F8CC0000682F
:101FE00000900098C0F3414008BD024602F29F30C5
:101FF000405C7047024602F5557050F8210070476A
:1020000070B504460E4600250021C4F8101300BF29
:102010000BE0002104F5467040F825103C3040F8F4
:1020200025103C304155681CC5B20F2DF1DB08214D
:10203000A4F8B6133146204601F081FE204601F097
:102040008FFA204601F0B8F90121204601F0CFFEB9
:10205000204601F0E9F9204601F0DBFA002070BDCE
:102060000146D1F8100370470146D1F814037047B8
:1020700010B50446204601F042FE002010BD70B5A8
:1020800004460D46002104F29F304155113000EB0B
:10209000451041612946204601F0F0FC70BD2DE954
:1020A000F04105460E4617461C46012105F56C70A9
:1020B00000EB4410817005F56C7000EB4410C660B5
:1020C00005F56C7000EB4410076105F56C7000EBD2
:1020D0004410007E30B9002105F56C7000EB44100F
:1020E000017205E0022105F56C7000EB44100172ED
:1020F00021462846FFF7C3FF0020BDE8F0812DE907
:10210000F04105460E4617461C46002105F56C7049
:1021100000EB4410817005F56C7000EB4410C66054
:1021200005F56C7000EB4410076105F56C7000EB71
:102130004410407E28B905F56C7000EB4410017224
:1021400005E0022105F56C7000EB44100172214698
:102150002846FFF794FF0020BDE8F0812DE9F0410B
:1021600005460C4616461F46022121750121617560
:102170000021E1822683618306F08000802805D15A
:1021800005F56C7000EB4710017605E0002105F5C0
:102190006C7000EB4710417600231A462146284612
:1021A00000F025F8BDE8F0812DE9F04105460E4626
:1021B00017461C46012105F56C7000EB4410817038
:1021C000022105F56C7000EB4410017205F56C708E
:1021D00000EB4410C66005F56C7000EB441007611D
:1021E00021462846FFF74BFF0020BDE8F0812DE98E
:1021F000F04180460C4615461E460127E07801282E
:1022000002D0022820D108E032462946204600F0BC
:10221000A9FC0220E070012717E0207F0D2805D1DE
:102220000120E0700021217700270CE0207F0B289F
:1022300003D10120E070022705E0207F0C2802D1A5
:102240000120E070032700E000BF00BF3846BDE872
:10225000F0812DE9F04105460F4616461C46002147
:1022600005F56C7000EB4410817005F56C7000EBA7
:102270004410C76005F56C7000EB441006612EB980
:10228000012105F56C7000EB4410417605F56C708A
:1022900000EB4410407E30B9002105F56C7000EB76
:1022A0004410017205E0022105F56C7000EB44104A
:1022B000017221462846FFF7E2FE0020BDE8F081CA
:1022C00070B505460E461446002105F56C7000EB0E
:1022D00044108170032105F56C7000EB441001720D
:1022E00005F56C7000EB4410C660082105F56C70B4
:1022F00000EB4410016121462846FFF7C0FEC0B242
:1023000070BD2DE9F04780460C4616461D46DDE9B6
:10231000089746F08001217506216175E58205F474
:102320007F40B0F5407F03D140F20941218301E0B5
:102330000021218367833B464A4621464046FFF7FA
:1023400056FFBDE8F0870246002100BF0AE002F513
:10235000B26030F8110000F4004008B90846704738
:10236000481CC1B20829F2DB4FF6FF70F7E710B541
:1023700002460B88147823440B801378981810BDFC
:102380002DE9FC4704460D4616464FF0000804F5BB
:1023900088704FF4007300222946CDE900062046DC
:1023A000FFF7AFFFB0F100091BD10AE004F5887018
:1023B00010F808000C4901F8080008F101001FFAA4
:1023C00080F8B045F2DB04F5887305F1500205F1A1
:1023D0003E0105F13400009600F09CFA074607B173
:1023E000B9464846BDE8FC87AC0B00202DE9FC410E
:1023F00004460D46164604F588704FF4807300229B
:102400002946CDE900062046FFF77BFF071E06D1CF
:10241000324604F5887105F1220000F013FB3846BE
:10242000BDE8FC812DE9FC470446884615461E465A
:102430000A9F04F5887045F4407300224146CDE9B7
:1024400000072046FFF75DFFB0F1000905D13A46CD
:10245000314604F5887000F044FB4846BDE8FC872F
:102460002DE9F04106460C464FF0000800250021FA
:10247000A174207F0C2878D2DFE800F077060F3DAA
:10248000466778939CC2D9F0627904F11401304612
:10249000FFF716FF02212177F1E061793046FFF75F
:1024A000A4FD0546012D1FD1207D00F08007608B23
:1024B00058B141F2883074490880802F02D103213D
:1024C00021770CE00521217709E032206E49088050
:1024D000802F02D10921217701E0072121773046A1
:1024E000FFF774FD208205E0032D03D10B21217736
:1024F0000521A174C3E02379A2893046A168FFF7C2
:1025000053FE04212177BAE021793046FFF76DFDB3
:102510000546012D01D109212177042D04D16078D0
:1025200020700C2121770FE0032D02D10B212177A0
:102530000AE03046FFF74AFD218A401A52490988CD
:10254000884201D90B21217799E00121627906F5B2
:102550006C7000EB421041766379A2893046A16825
:10256000FFF777FE0621217789E087E06179304621
:10257000FFF73BFD0546012D02D1072121770FE032
:10258000042D04D1607820700C21217708E0022D01
:1025900002D10521217703E0032D01D10B21217701
:1025A0006DE02379002211463046FFF7FDFD08213A
:1025B000217764E021793046FFF717FD0546012DAC
:1025C00004D1607820700D21217718E0032D02D10D
:1025D0000B21217713E03046FFF7F8FC218A401ADF
:1025E00029490988884202D90B21217707E0042D67
:1025F00005D1607820700C2121774FF003083EE070
:10260000617906F56C7000EB4110407E80F00101AD
:10261000627906F56C7000EB421041766379002216
:1026200011463046FFF715FE0A21217727E0617930
:102630003046FFF7DAFC0546012D04D160782070A2
:102640000D21217708E0022D02D10921217703E035
:10265000032D01D10B21217711E0FFE7A07B401C66
:10266000C1B2A173022902DC0121217705E0082112
:10267000A174607820704FF0020800E000BF00BF36
:102680004046BDE8F0810000CC00002070B592B05B
:1026900005460C460126A0780A287BD2DFE800F028
:1026A0000525345A677B98B5D2DC08222146284696
:1026B000FFF79CFEC0B994F82910A1710120A07009
:1026C000A0790021CDE90010617900231A4628463F
:1026D00000F06DFCA0790021CDE9001021790023E4
:1026E0001A46284600F063FCB9E01222214628462B
:1026F000FFF77CFE38B9D4F88000C16904F12200EC
:1027000088470220A070AAE001222146284600F056
:1027100003FAF0B9022000F041FE0120A41CA077CA
:10272000D4F87E10086A80470320207000200090B3
:102730000190A27FA1780346284600F038FC0020D3
:1027400000900190A27FA41E61790346284600F004
:102750002EFC84E0092221462846FFF711FE28B905
:10276000E08EB0F5806F01DC0420A07077E0E28E8F
:1027700021462846FFF704FE58B9D4F8800004F13A
:10278000500204F13E01436A04F1340098470520E9
:10279000A07064E062E094F8300088B1FF200090FF
:1027A00094F8302002AB21462846FFF73BFE70B973
:1027B000D4F88000816A02A888470620A07006E04D
:1027C000D4F88000816A28A088470620A07046E0DF
:1027D00094F8310088B1FF20009094F8312002ABCA
:1027E00021462846FFF71EFE70B9D4F88000C16A62
:1027F00002A888470720A07006E0D4F88000C16ACC
:1028000019A088470720A07029E094F8320088B109
:10281000FF20009094F8322002AB21462846FFF7B3
:1028200001FE70B9D4F88000016B02A88847082027
:10283000A07006E0D4F88000016B0BA08847082048
:10284000A0700CE094F839202146284600F077F972
:1028500008B90920A07002E0002600E000BF00BF18
:10286000304612B070BD00004E2F410038B505460D
:10287000002400200090284601F0FFF9002847D0EE
:10288000284601F004FA0090009808B9002038BDED
:102890000098C0F3C00018B1284602F09DF9044327
:1028A0000098C0F3001018B1284602F0E2F8044383
:1028B0000098C0F3401018B1284601F00EFF044301
:1028C0000098C0F3806018B1284602F03BF804433A
:1028D0000098C0F3406018B1284601F006FB04439D
:1028E0000098C0F3006018B1284601F08DFF044342
:1028F0000098C0F3407018B1284601F0BDFA0443B7
:102900000098C0F3405018B1284601F0CBFA0443B8
:102910002046BCE72DE9F04F87B006468A4693462D
:102920001D462C460027B84600BF287830706878CE
:102930007070A978E87801EB0020708028793071F8
:1029400068797071A879B071E879F071287A30727D
:102950001098092870DD092001903079022862DC86
:102960000020069059E001A92046FFF700FD04462B
:102970006078042851D1A07847B207EBC7005044D3
:102980000690E078032848DA214603A800F096F87C
:102990004FF000089DF81000022838DC32E001A951
:1029A0002046FFF7E4FC0446607805282AD10BEBAB
:1029B000071000EBC800029020480078B84206D00B
:1029C0001E490F7003A9069800F078F80CE02179F1
:1029D000607901EB00201A490988884200DA15E085
:1029E00003A9069800F06AF82146029800F056F80C
:1029F0002179607901EB00201149088008F101007C
:102A00004FFA80F89DF810004045C8DC05E04FF013
:102A10000309484607B0BDE8F08F7088BDF8041080
:102A20008842A0DC03E04FF003094846F2E70020AB
:102A300003490880014908700020EBE7D00000201E
:102A4000CE00002010B50B7803704B7843708C7863
:102A5000CB7804EB032343800B7903714B794371EB
:102A60008B798371CB79C371082A16DD0C7A4B7A86
:102A700004EB032303818C7ACB7A04EB0323438199
:102A80000C7B4B7B04EB032383818B7B8373CB7B9E
:102A9000C3730B7C03744B7C437410BD0A780270C3
:102AA0004A7842708A788270CA78C2700B794A7903
:102AB00003EB022282808A79827170470A78027061
:102AC0004A7842708A788270CA78C2700A79027134
:102AD0004A7942718A798271CA79C2710A7A02721C
:102AE000704730B513464578032D14D10578AD1ED7
:102AF0009D4202DC0578AD1E00E01D46ACB2801C94
:102B0000002204E0855C0D70491C951CAAB2A2420B
:102B1000F8DB00250D7030BD70B506460C46154635
:102B20000021217505216175E582002121836183E2
:102B300000231A4621463046FFF759FB70BD70B599
:102B400006460C4615460021217509216175E5826E
:102B500000212183618300231A4621463046FFF776
:102B600046FB70BD10B503461878587008201870E1
:102B700099609A8101241C77002010BD704770472E
:102B800010B5024902A002F03FF810BD36650008FA
:102B90002573000010B5044904A002F035F80020A8
:102BA0000349087010BD00004A6500082573000045
:102BB000040000207047000010B50446012C04D129
:102BC000084909A002F020F80AE0022C04D10749C4
:102BD00005A002F019F803E0054903A002F014F87B
:102BE00010BD0000AC65000825730000CB6500082F
:102BF000E96500087047000010B5024902A002F024
:102C000003F810BD736500082573000010B5024974
:102C100002A001F0F9FF10BD126500082573000045
:102C2000F0B58FB038223BA101A8FDF7EEFA474876
:102C3000007830B101282BD0022835D0032864D188
:102C400062E0002242A1434802F0E8FC30B142A019
:102C500001F0DAFF4FF0FF300FB0F0BD47A001F0F8
:102C6000D3FF4E4800684D490989A0FB01603246F8
:102C700003464BA001F0C8FF4848007B012803D160
:102C80004F4950A001F0C0FF0120304908703DE0DD
:102C90004E494FA001F0B8FF01214EA0FDF7B6FF4D
:102CA00002202A49087031E04BA001F0ADFF3B48FB
:102CB000007B012803D151A001F0A6FF26E00A22E3
:102CC00057A15A4802F0D8FCD0B937256B462A469E
:102CD00001A9564802F03CFE0446BDF8000000B1D0
:102CE0001CB153A001F090FF02E059A001F08CFF4D
:102CF0004E4802F083FC002215A1104602F08EFC23
:102D000003201249087001E000E000BF00BF00206E
:102D1000A2E7000041543332463431352055534246
:102D2000204F544720486F73742044656D6F2061B5
:102D300070706C69636174696F6E207573696E671A
:102D4000204641545F46532020200000040000200C
:102D500000000000580700203E2043616E6E6F7433
:102D600020696E697469616C697A652066696C6551
:102D70002073797374656D0D0A0000003E2046696A
:102D80006C652053797374656D20696E697469612F
:102D90006C697A65642E0D0A00000000380E002070
:102DA0003E204469736B20636170616369747920AC
:102DB0003A20256C6C752042797465730A00000016
:102DC0002767000825730D0A000000000A67000845
:102DD00025730000303A2F003E2057726974696EE7
:102DE000672046696C6520746F206469736B206688
:102DF0006C617368202E2E2E0D0A00003E2044695F
:102E0000736B20666C6173682069732077726974D4
:102E1000652070726F746563746564200D0A00002C
:102E2000303A415433322E5458540000880900205F
:102E30003E20415433322E5458542063616E6E6FDD
:102E4000742062652077726974656E2E0D0A000029
:102E50003E2027415433322E545854272066696C43
:102E60006520637265617465642E0D0A00000000C0
:102E7000704770477047704710B5024902A001F0D3
:102E8000C3FE10BD62650008257300007047000096
:102E900010B5024902A001F0B7FE10BD716600082E
:102EA000257300000120704770B505460E46284680
:102EB000FFF749FA04464FF6FF70844205D046F406
:102EC000004105F5B26020F81410E0B270BD014673
:102ED0000122C1F81023002070470246022106E0BB
:102EE000002302F5B26020F81130481CC1B2082955
:102EF000F6DB0020704710B504460021204600F0A4
:102F0000E7F90020E1688861401EE16848612046D9
:102F100000F026FB0021C4F81013002010BD70B58E
:102F200004460D46052D01D0042D06D1D4F880109D
:102F3000486C80470C20207007E0062D05D10C203E
:102F40002070D4F880100868804770BD02460829B8
:102F500009DA02F5B26030F81100C0F30E0302F591
:102F6000B26020F81130002070472DE9F04106468C
:102F70000F4614461D46DDF81880304600F0D0F9A3
:102F8000002000F0A4F92146304600F080F9E56702
:102F9000C4F8808039463046FFF732F8D4F8801004
:102FA00008688047304600F0A5F9BDE8F0812DE9BA
:102FB000F04704460D4617461E46DDE9089827B13E
:102FC00004F56C7000EB4510077004F56C7000EBB5
:102FD0004510C088404508D0B8F1000F05D004F571
:102FE0006C7000EB4510A0F8068004F56C7000EBE7
:102FF0004510C078B04205D026B104F56C7000EBE6
:103000004510C6702946204600F024FC0020BDE88B
:10301000F0872DE9F04704460D4617461E46DDE9C8
:10302000088904F5B26010F8150000F07F0104F57E
:103030006C7000EB4510417004F5B26010F815009B
:10304000C0F3C01104F56C7000EB4510817004F5FD
:103050006C7000EB4510077004F56C7000EB4510C8
:1030600080F8058004F56C7000EB4510A0F8069020
:1030700004F56C7000EB4510C670002104F56C700F
:1030800000EB4510017604F56C7000EB45104176BD
:103090002EB9012104F56C7000EB45100171294631
:1030A000204600F0D7FB0020BDE8F0870146002253
:1030B000C1F814230020704701460122C1F81423EF
:1030C000002070473EB505460C4602200290284677
:1030D000FEF7C6FF18B12846FEF7C6FF30B92078C4
:1030E00020B12078032801D00320207020780D28FB
:1030F0007BD2DFE800F0071822ADC95F7B8D996BAA
:10310000C9C99E002846FEF7ABFF58B101202070C8
:10311000642000F043F92846FEF7AAFFD4F8801097
:10312000C8688047B1E0D5F81403012804D1022013
:103130002070322000F032F9A7E0D4F880108868BF
:10314000804700212846FFF7AFFE607180212846A6
:10315000FFF7AAFE20712846FEF78AFF48BBD4F885
:103160008010C86880472846FEF735FFC1B221208D
:103170000155052020702122105DD4F8802091692E
:103180008847A0790021CDE900102120035D94F843
:10319000202021792846FFF73CFFA0790021CDE9C6
:1031A00000102120035D94F8202061792846FFF764
:1031B00030FF6AE021462846FFF768FA28B9D4F8BC
:1031C0008010486B8047092020705EE0D4F88010A2
:1031D000886B8047012807D1E06F214602682846A6
:1031E000904708B9062020704FE04DE0E06F21467F
:1031F00082682846904702909DF8080010B9072081
:10320000207004E09DF808102046FFF788FE3CE09F
:10321000E06F2146C2682846904702909DF808104A
:103220002046FFF77CFE30E021462846FFF718F9DC
:103230002BE02146284600F02AF8D4F88010486890
:103240008047E06F04F120014268284690471CE067
:10325000D4F88010086980472146284600F017F806
:10326000D4F8801048688047E06F04F1200142687C
:10327000284690472846FFF730FE002020700121A5
:103280002846FEF7BDFE00E000BF00BF3EBD70B5A2
:1032900005460C46002020706070A0700120E07090
:1032A000012121774021A171002084F82000012113
:1032B0002120015521792846FFF748FE61792846EB
:1032C000FFF744FE002070BD0146002070477047A4
:1032D00070B505460C462CB94FF400710448FDF753
:1032E00052F904E04FF400710148FDF74AF970BD4E
:1032F0000010014038B504464FF4C060FDF78AF96C
:1033000043208DF8000001208DF8010003208DF886
:10331000020001208DF803006846FDF743F938BD2F
:1033200010B5044600F001F810BD08B500214FF0BB
:103330000060FDF779F94FF4A060FDF76BF91C20F0
:103340008DF8000000208DF8010001208DF80200AA
:103350008DF803006846FDF725F901210846FDF7C1
:103360007FF908BD10B501218807FDF740FD88B140
:1033700001218807FDF72CFD0748006828B10648A1
:103380000068401E0449086004E000214FF08040BE
:10339000FDF721FD10BD00000000002010B504461F
:1033A00001212046FCF7F2FF10BD10B504460221B2
:1033B0002046FCF7EBFF10BD7CB50446002500203D
:1033C00001900090E068C0680190019820F04000F2
:1033D000403001900198E168C860204600F088F80C
:1033E00000200090009820F4803000F5803000909C
:1033F000009820F4802000F580200090009820F4B0
:10340000002000F500200090607A28B1009820F498
:10341000801000F5801000900098E1688863142007
:10342000FFF7BCFF28467CBDFEB5044600260025FC
:1034300000200290019000902046FFF748FF0021F5
:10344000D4F80C0101600121204600F002FC204666
:1034500000F055FC606900680090009820F00400BE
:103460000090009960690160E07A01281DD18020F8
:10347000E168486202986FF30F0080300290029872
:1034800080B200F5C00002900298E168886201985D
:103490006FF30F00E0300190019880B200F5C0009A
:1034A00001900198E168C1F800011021204600F068
:1034B00027F9204600F0FEF800250DE04FF0FF311F
:1034C00004F1900050F825008160002104F1900083
:1034D00050F82500C1606D1C2078A842EED801216B
:1034E000204600F04EF8204600F0A4F83046FEBD1D
:1034F000F8B50446002600250020009000BF0320F8
:10350000FFF753FFE06800690090681C0546134907
:10351000884201D90020F8BD0098C00F0028EED0E5
:103520000025009820F00100401C00900098E16800
:10353000086100BFE06800690090681C0546074903
:10354000884200D904E0009800F001000028F1D181
:1035500000BF0320FFF729FF3046DCE7400D0300E2
:1035600008B50146002000220092009A22F00102D4
:10357000521C0092CA689268009B9A43CB689A607A
:1035800008BD38B505460C46002000902146284667
:10359000FFF79EFE284600F082FB00900098C0F3E3
:1035A000003058B9012C09D1009820F4805000F562
:1035B000805000900099D5F8CC0001600098C0F3CD
:1035C000003040B13CB9009820F480500090009940
:1035D000D5F8CC000160C820FFF7E0FE38BD08B583
:1035E00000210091491EC26851606FF08041C2689D
:1035F0005161009921F0004101F1004100910099D1
:1036000021F4006101F5006100910099C2689161A7
:1036100008BD08B50146002000220092009A22F061
:103620000102521C0092CA689268009B1A43CB6840
:103630009A6008BD38B50446002500200090E16876
:103640008861401EE16848612046FFF7C8FF009886
:1036500020F0100010300090009820F4001000F5C9
:1036600000100090009820F0007000F100700090B1
:10367000009820F0807000F180700090E068806910
:10368000009988430843E168886100200090009811
:1036900020F0005000F100500090009820F0080049
:1036A00008300090E068806900998843E16888618B
:1036B000284638BDF8B504460025002600200090B5
:1036C000009820F01000103000900098E168086128
:1036D00000BFE06800690090701C064607498842F8
:1036E00000D904E00098C0F300100028F1D100BF19
:1036F0000320FFF75AFE2846F8BD0000400D0300E6
:10370000F8B504460D4600260027002000900098DA
:1037100020F0200020300090009865F38A1000907F
:103720000098E168086100BFE06800690090781CBB
:1037300007460749884200D904E00098C0F34010CA
:103740000028F1D100BF0320FFF72FFE3046F8BD5F
:10375000400D03000146C868406900F00100704751
:103760001CB50246002000230093009B23F0004379
:1037700003F1004300930124009B64F3DC430093B6
:1037800002F1900353F82130009C1C6102F1900378
:1037900053F821301B680193019B23F0004303F190
:1037A00000430193019B23F08043019302F19003B6
:1037B00053F82130019C1C601CBD10B586B0024638
:1037C000002000230393019302F1900353F821306A
:1037D0001B680093009B23F0804303F18043009318
:1037E000009BC3F3814323B1009BC3F38143022BAE
:1037F00011D1D368DB6A0393039BC3F30743DBB99F
:10380000009B23F00043009302F1900353F8213012
:10381000009C1C6010E053691B690193019BC3F37A
:1038200007434BB9009B23F00043009302F1900340
:1038300053F82130009C1C60009B23F0004303F1EF
:103840000043009302F1900353F82130009C1C6068
:1038500006B010BD3FB502460020002300240294AC
:1038600003940194441E009402F1900454F8214002
:10387000009DA5600024039402F56C7404EB4114D0
:10388000647934B1012C6AD0022C03D0032C38D1D6
:1038900038E000BF039C24F00104641C0394039CE3
:1038A00024F0080408340394039C24F0800480343A
:1038B0000394039C24F4806404F580640394039CC3
:1038C00024F010041034039402F56C7404EB4114DA
:1038D000A47834B1039C24F4807404F580740394B8
:1038E0000FE0039C24F040044034039402F56C7410
:1038F00004EB4114247924B1039C24F020042034E7
:1039000003944EE0039C24F00104641C0394039C84
:1039100024F0100410340394039C24F008040834A9
:103920000394039C24F0800480340394039C24F4C7
:10393000806404F580640394039C24F4007404F50B
:103940000074039402F56C7404EB4114A4782CB158
:10395000039C24F4807404F58074039421E0039C98
:1039600024F00104641C0394039C24F4007404F503
:1039700000740394039C24F020042034039402F583
:103980006C7404EB4114A47854B1039C24F08004BB
:1039900080340394039C24F4807404F580740394AD
:1039A00000BF00BF02F1900454F82140039DE56080
:1039B000012404FA01F35469A4691C435569AC61FC
:1039C000029C24F0007404F100740294D468A46989
:1039D000029D2C43D568AC610024019402F56C74FF
:1039E00004EB41142578019C65F39C54019402F585
:1039F0006C7404EB41146578019C65F3CE2401944A
:103A000002F56C7404EB4114A578019C65F3CF3486
:103A1000019402F56C7404EB4114E478022C01D19A
:103A2000012500E00025019C65F35144019402F555
:103A30006C7404EB41146579019C65F39344019423
:103A400002F56C7404EB4114E588019C65F30A04EB
:103A5000019402F56C7404EB41146479032C05D1D4
:103A6000019C24F0005404F10054019402F19004EC
:103A700054F82140019D256004B030BD2DE9F0438C
:103A800088B004460D464FF00009C8464FF48077D1
:103A9000002006900790009004F56C7000EB451034
:103AA000006910B304F56C7000EB4510016904F572
:103AB0006C7000EB4510C0880144491E04F56C7021
:103AC00000EB4510C088B1FBF0F086B2BE420DDDC0
:103AD0003E4604F56C7000EB4510C188714304F557
:103AE0006C7000EB4510016100E0012604F56C707C
:103AF00000EB4510807850B104F56C7000EB451078
:103B0000C188714304F56C7000EB4510016104F548
:103B10006C7000EB45100169069861F31200069085
:103B2000069866F3DC40069004F56C7000EB4510D7
:103B3000017A069861F35E70069004F1900050F8E7
:103B400025000699016104F1900050F825000068F5
:103B50000790204600F089F8079960F35D7107919E
:103B6000079820F0004000F100400790079820F0EF
:103B70008040079004F1900050F8250007990160FB
:103B800004F56C7000EB4510807800285DD104F5D9
:103B90006C7000EB45100069002856D004F56C707D
:103BA00000EB4510407930B1012821D0022803D024
:103BB000032839D11BE000BFE068C06A039004F518
:103BC0006C7000EB45100069C01CC0F38F080398AF
:103BD00080B240450ADA009820F0200020300090A2
:103BE000E068806900990843E16888611DE000BFD2
:103BF00060690069019004F56C7000EB4510006984
:103C0000C01CC0F38F08019880B240450BDA0098C1
:103C100020F0806000F180600090E0688069009989
:103C20000843E168886100E000BF00BF04F56C70E4
:103C300000EB4510008A83B204F56C7000EB451070
:103C40002A46C168204600F0F9F8484608B0BDE8A9
:103C5000F08308B5426912680092009A61F301028C
:103C60000092009B4269136008BD01464869806864
:103C700000F0010080F00100704700B502461046D8
:103C8000FFF768FD012800D100BD0020FCE70146D8
:103C90000020CA685069CA6892691040704708B528
:103CA0000146D1F8CC0000680090009820F0040094
:103CB0000090009820F002000090009820F008008A
:103CC0000090009820F020000090009808BD014668
:103CD000486940697047F0B503460024D01CC717F7
:103CE00000EB9777BD10D3F8D06000BF03E03068D9
:103CF0000860091D641CAC42F9D30846F0BD38B514
:103D000004462046FFF7CBFF0090009820F4807017
:103D100000F5807000900099D4F8CC000160642018
:103D2000FFF73CFB009820F4807000900099D4F8D5
:103D3000CC0001601420FFF731FB012038BD70B5C5
:103D400002460C46002300200125957040259580F1
:103D5000012C0BD14FF0A0430125D5720825157019
:103D6000042555709D15D58002251572D36003F585
:103D700000651561002110E003F5106505EB4116A3
:103D800002F1180545F8216003F5306505EB411691
:103D900002F1540545F82160491C55788D42EBD855
:103DA00003F5806555614035C2F8CC50002108E02C
:103DB00003F5A06505EB411602F1900545F8216079
:103DC000491C15788D42F3D8002108E003F5805591
:103DD00005EB013602F1D00545F82160491C157844
:103DE0008D42F3D803F56065C2F80C5170BDF8B58B
:103DF00004460D460026E068C0680090009820F058
:103E000000500090009820F080400090012D06D1D5
:103E1000009820F0005000F10050009006E02DB90D
:103E2000009820F0804000F1804000900098E16808
:103E3000C8603220FFF7B2FA3046F8BD2DE9F041F4
:103E40000446002600270020DD1C4FEAE57805EB3C
:103E500098784FEAA80704F1D00555F822C000BFB2
:103E600004E00D68CCF80050091D401CB842F8D39E
:103E70003046BDE8F081000038B5044600200090CF
:103E800007480068816820468847009820F0005065
:103E900000F1005000900098E1684861012038BDB1
:103EA000C40000200CB50146D1F8900000680090D5
:103EB000009820F0004000F100400090009820F0B1
:103EC000804000F180400090009AD1F8900002609C
:103ED00000200190019820F4001000F500100190DE
:103EE0000198CA68506101200CBD7CB505460024CC
:103EF00000262846FFF7EBFE019000BF1BE001986B
:103F000080B20121A1400840A0B105F1900050F815
:103F10002400006800900098C0F3C03028B121460A
:103F2000284600F00DF8064304E02146284600F03C
:103F3000FCF90643641C2878A042E0D830467CBDDA
:103F40007FB505460C4605F1900050F82460B06836
:103F50000390F0680290DDE902100840039005F13B
:103F6000900050F82400006801900020029003980F
:103F7000C0F38000D0B100200090009820F0040031
:103F8000001D00900098B06005F1900050F82400EA
:103F9000C0680090009820F00200801C009005F19D
:103FA000900050F824000099C16073E00398C0F3BA
:103FB000401048B100200090009820F020002030F0
:103FC00000900098B06065E00398C0F3C00078B33B
:103FD00005F1900050F82400C0680090009820F08F
:103FE0000200801C009005F1900050F82400009918
:103FF000C160052105F5647001550020009000980E
:1040000020F01000103000900098B0600020009068
:10401000009820F00800083000900098B0600398E5
:1040200020F010000390E1B22846FFF7C6FB31E014
:10403000FFE70398C0F3802060B305F1900050F8CB
:104040002400C0680090009820F00200801C0090BE
:1040500005F1900050F824000099C160E1B22846B3
:10406000FFF7ABFB00200090009820F0100010300C
:1040700000900098B060082105F56470015500209B
:104080000090009820F4806000F580600090009817
:10409000B06000BF0398C0F34020F8B105F1900074
:1040A00050F82400C0680090009820F00200801CA6
:1040B000009005F1900050F824000099C160E1B231
:1040C0002846FFF77AFB00200090009820F400704B
:1040D00000F5007000900098B06023E1039800F0B4
:1040E000010000285AD0012105F564700155002116
:1040F000783840F8241000200090009820F001004B
:10410000401C00900098B0600198C0F3814020B13D
:104110000198C0F3814002282AD105F1900050F89F
:104120002400C0680090009820F00200801C0090DD
:1041300005F1900050F824000099C160E1B22846D2
:10414000FFF73BFB00200090009820F0100010309B
:1041500000900098B06005F56C7000EB4410007E94
:1041600080F0010105F56C7000EB44100176D9E098
:104170000198C0F381400328AFD1019820F000508E
:1041800000F10050019005F1900050F824000199D1
:104190000160012105F29F300155C3E00398C0F38F
:1041A0004000002851D005F1900050F82400C0686C
:1041B0000090009820F00200009005F1900050F867
:1041C00024000099C16005F56470005D012804D1E8
:1041D000012105F29F3001552DE005F56470005D69
:1041E000052804D1042105F29F30015523E005F58F
:1041F0006470005D062804D005F56470005D082831
:1042000008D1002105F5467040F8241003218730BD
:10421000015510E00198C0F3814003280BD105F54A
:104220006C7000EB4410007E80F0010105F56C70AD
:1042300000EB4410017600200090009820F002006E
:10424000801C00900098B0606CE00398C0F3C01030
:1042500010B305F1900050F82400C0680090009859
:1042600020F00200801C009005F1900050F824001E
:104270000099C160062105F564700155E1B2284638
:10428000FFF79BFA00200090009820F0800080301B
:1042900000900098B06045E00398C0F30010E0B3D0
:1042A0000198C0F38140032814D105F1900050F823
:1042B0002400C0680090009820F00200801C00904C
:1042C00005F1900050F824000099C160E1B2284641
:1042D000FFF773FA032105F5647001550020009083
:1042E000009820F01000103000900098B060019805
:1042F000C0F3814020B10198C0F38140022811D160
:10430000019820F0004000F100400190019820F059
:104310008040019005F1900000E003E050F8240097
:1043200001990160012004B070BD7FB505460C46BF
:1043300005F1900050F82460B0680390F068029096
:10434000DDE902100840039005F1900050F82400C8
:10435000006801900398C0F38000D0B10020009065
:10436000009820F00400001D00900098B06005F156
:10437000900050F82400C0680090009820F00200DF
:10438000801C009005F1900050F824000099C16055
:10439000A0E10398C0F3401048B1002000900098BD
:1043A00020F02000203000900098B06092E1039847
:1043B000C0F34020F8B105F1900050F82400C06827
:1043C0000090009820F00200801C009005F1900001
:1043D00050F824000099C160E1B22846FFF7EDF9DA
:1043E00000200090009820F4007000F5007000900C
:1043F0000098B0606EE1039800F0010038B300212E
:1044000005F5467040F8241005F1900050F824009E
:10441000C0680090009820F00200801C009005F118
:10442000900050F824000099C160E1B22846FFF7DF
:10443000C4F900200090009820F00100401C00907A
:104440000098B060012105F56470015542E10398C0
:10445000C0F3C00010B300200090009820F00800C6
:10446000083000900098B06005F1900050F82400EA
:10447000C0680090009820F00200801C009005F1B8
:10448000900050F824000099C160E1B22846FFF77F
:1044900094F9052105F5647001551BE10398C0F3FB
:1044A000001038B3002105F5467040F8241005F1DE
:1044B000900050F82400C0680090009820F002009E
:1044C000801C009005F1900050F824000099C16014
:1044D000E1B22846FFF771F900200090009820F023
:1044E0001000103000900098B060032105F5647052
:1044F0000155EFE00398C0F3C01010B305F1900030
:1045000050F82400C0680090009820F00200801C41
:10451000009005F1900050F824000099C160E1B2CC
:104520002846FFF74AF9062105F564700155002079
:104530000090009820F08000803000900098B060DB
:10454000C8E00398C0F3801038B3002105F5467029
:1045500040F8241005F1900050F82400C068009045
:10456000009820F00200801C009005F1900050F8A7
:1045700024000099C160E1B22846FFF71EF900202F
:104580000090009820F04000403000900098B0600B
:10459000042105F5647001559CE00398C0F3802068
:1045A00060B305F1900050F82400C06800900098B6
:1045B00020F00200801C009005F1900050F82400CB
:1045C0000099C160E1B22846FFF7F7F8002000909B
:1045D000009820F01000103000900098B060082182
:1045E00005F56470015500200090009820F480606B
:1045F00000F5806000900098B0606BE00398C0F315
:104600004000002866D005F1900050F82400C068F2
:104610000090009820F00200009005F1900050F802
:1046200024000099C16005F56470005D012815D172
:10463000012105F29F3001550198C0F38140022805
:104640003ED105F56C7000EB4410407E80F0010116
:1046500005F56C7000EB4410417631E005F56470AF
:10466000005D032804D1022105F29F30015527E0A7
:1046700005F56470005D04280FD105F56C7000EB42
:1046800044100079012803D1E1B22846FFF768F809
:10469000022105F29F30015512E005F56470005DBE
:1046A000052804D1042105F29F30015508E005F5E5
:1046B0006470005D062803D1032105F29F30015587
:1046C00000200090009820F00200801C00900098CC
:1046D000B06000BF012004B070BD7FB50446E06843
:1046E000C06A00900198C0F3C30104F56C7000EB40
:1046F00041100069C01CC0F38F0673E04FF6FF71D4
:10470000009801EA80050198C0F3C30104F56C70BC
:1047100000EB41100069A84215D20198C0F3C30113
:1047200004F56C7000EB4110008A85B20020039004
:10473000039820F0200020300390E06880690399FE
:104740008843E16888610198C0F3C30104F56C7087
:1047500000EB41100069C01CC0F38F060198C0F344
:10476000C302C0F3C30304F56C7000EB43102B4687
:10477000C1682046FFF762FB0198C0F3C30104F54E
:104780006C7000EB4110C06841190198C0F3C3027E
:1047900004F56C7000EB4210C1600198C0F3C301D6
:1047A00004F56C7000EB41100069411B0198C0F3E7
:1047B000C30204F56C7000EB421001610198C0F374
:1047C000C30104F56C7000EB411040694119019878
:1047D000C0F3C30204F56C7000EB42104161E06865
:1047E000C06A0090009880B2B0420ADD0198C0F320
:1047F000C30104F56C7000EB4110006900287FF4E0
:104800007DAF012004B070BD7FB5044600250020B7
:104810000090019003900290D4F8CC0000680390BF
:10482000D4F8CC0000680290029820F004000290B6
:10483000029820F002000290029820F008000290F6
:10484000029820F0200002900398C0F3400058B175
:10485000029820F00200801C0290394800684168EC
:104860002046884745F001050398C0F3C0000028A2
:1048700053D0029820F00800083002900398C0F34B
:104880008000002844D00398C0F34140022804D09F
:104890000398C0F34140012825D160690068019068
:1048A0000398C0F3414002281DD141F27071606944
:1048B0004160019800F00300022814D0207A0228F9
:1048C00004D102212046FFF7C4F90CE04BF68031F9
:1048D00060694160019800F00300012803D00121C4
:1048E0002046FFF7B6F916480068C1682046884799
:1048F00000200090009820F0005000F1005000903F
:10490000E0688069009988430843E168886104E0B1
:104910000B4800680169204688470398C0F340109F
:1049200030B1029820F020002030029045F00105BF
:104930000299D4F8CC000160284604B070BD000094
:10494000C4000020FEB5044660690069009001982B
:10495000C0F3C30104F56C7000EB41100069C01C8A
:10496000C0F38F0674E04FF6FF71009801EA8005EE
:104970000198C0F3C30104F56C7000EB41100069AD
:10498000A84216D20198C0F3C30104F56C7000EB85
:104990004110008A85B200200290029820F08060C9
:1049A00000F180600290E068806902998843E168C4
:1049B00088610198C0F3C30104F56C7000EB4110ED
:1049C0000069C01CC0F38F060198C0F3C302C0F396
:1049D000C30304F56C7000EB43102B46C1682046FE
:1049E000FFF72CFA0198C0F3C30104F56C7000EBDB
:1049F0004110C06841190198C0F3C30204F56C70FE
:104A000000EB4210C1600198C0F3C30104F56C7063
:104A100000EB41100069411B0198C0F3C30204F58B
:104A20006C7000EB421001610198C0F3C30104F502
:104A30006C7000EB4110406941190198C0F3C3024A
:104A400004F56C7000EB42104161606900690090F0
:104A5000009880B2B0420ADD0198C0F3C30104F5AA
:104A60006C7000EB4110006900287FF47CAF0120DE
:104A7000FEBD30B585B00446002000900390039839
:104A800020F0100010300390E0688069039988439B
:104A9000E1688861E068006A0490049800F00F0003
:104AA000009004F190009DF8001050F8210000687B
:104AB00001900498C0F34340022806D0032878D020
:104AC000052877D0072873D175E00498C0F30A1041
:104AD000002869DD04F56C709DF8001000EB4110B2
:104AE000C068002860D00498C0F30A1204F56C7006
:104AF0009DF8003000EB4310C1682046FFF7EBF84B
:104B0000049800F00F0104F56C7000EB4110C068D0
:104B10000499C1F30A110144049800F00F0204F54E
:104B20006C7000EB4210C160049800F00F0104F5B6
:104B30006C7000EB411040690499C1F30A11014403
:104B4000049800F00F0204F56C7000EB4210416114
:104B500004F56C709DF8001000EB4110456904F5F8
:104B600055709DF8001040F8215004F190009DF818
:104B7000001050F82100006902900298C0F3C9406B
:104B8000002811DD019820F0004000F10040019064
:104B9000019820F08040019004F190009DF80020E1
:104BA000019950F82200016006E002E002E0FFE710
:104BB00000BF00BF00BF00BF00BF039820F010007F
:104BC00010300390E068806903990843E1688861C8
:104BD000012005B030BD000038B50446002000902B
:104BE00007480068016820468847009820F00800C0
:104BF000083000900098E1684861012038BD00004D
:104C0000C400002000BFFEE70FB4054B10B503A998
:104C1000044A029800F018F810BC5DF814FB00007C
:104C20004D5F00086400002002E008C8121F08C1A0
:104C3000002AFAD170477047002001E001C1121F1D
:104C4000002AFBD1704700002DE9FF4F8BB09A4638
:104C50000F460446002606E025280BD052460D9943
:104C60009047641C761C20780028F5D10FB03046A0
:104C7000BDE8F08F0025A94601227D4900E00543EB
:104C800014F8013F203B02FA03F00842F7D12078E4
:104C90002E2817D114F8010F45F004052A280ED04C
:104CA0006FF02F022078A0F1300109290AD809EB12
:104CB000890102EB410100EB0109641CF2E757F89E
:104CC000049B641C20786C280DD004DC4C2812D086
:104CD0006A2811D104E074280DD07A280CD10AE09A
:104CE00045F4001507E0617845F48015814202D152
:104CF000641C05F58015641C207869283ED006DC0C
:104D00000028B3D063280BD0642804D136E0732880
:104D100010D075285CD052460D999047761CA5E0BE
:104D200017F8040B8DF8000000208DF80100E8460C
:104D3000012003E057F8048B4FF0FF3069074FF074
:104D4000000501D40AE06D1C4D450DDA8542FADB01
:104D500018F805100029F6D106E06D1C8542FCDB31
:104D600018F805100029F8D12E4404E018F8010BBA
:104D700052460D9990476D1EF8D277E000200A90B8
:104D8000C5F302504FF00A0B02280CD001CFC11717
:104D9000021E71F100020CDA0023D0EB030063EB7A
:104DA00001012D2208E0FF1D27F00707F7E80201A7
:104DB000EEE72A0504D52B228DF82420012203E0FA
:104DC000EA070FD02022F7E70DF12008089218E03B
:104DD00000200A90C5F302504FF00A0B022803D0BE
:104DE00001CF00210022EFE7FF1D27F00707F7E8BA
:104DF0000201F7E75A460A9BFBF7D6F9303208F86A
:104E0000012D50EA0102F5D1ADEB080000F1200BB5
:104E1000680701D44FF00109D94502DDA9EB0B0069
:104E200000E000208146002506E009A85246405DCA
:104E30000D9990476D1C761C08988542F5DB04E0BF
:104E4000302052460D999047761CB9F10001A9F126
:104E50000109F5DC05E018F8010B52460D99904761
:104E6000761CBBF10001ABF1010BF4DC641CFAE62B
:104E70000928010070B504460D4600202071401E2F
:104E8000E0622946204601F0A3F908B1032070BD75
:104E900094F82E1294F82F0241EA00204AF6552188
:104EA000884201D00220F2E794F86900010694F8E4
:104EB000680041EA004194F8670041EA002094F854
:104EC0006610084320F07F400D49884201D1002040
:104ED000DDE794F88500010694F8840041EA00417A
:104EE00094F8830041EA002094F88210084320F0EF
:104EF0007F400349884201D10020C8E70120C6E76E
:104F000046415400024600E0521C107810B110785F
:104F10008842F9D1107870470246891E5069801E78
:104F2000884201D8002070479378906A01FB030003
:104F3000F9E72DE9F04704468946B9F1000F06D19B
:104F4000E76817B16069B84215D8012713E04946F0
:104F5000204601F00DF80646022E02D20120BDE8DF
:104F6000F087701C08B93046F9E76069B04201D992
:104F70003046F4E74F463D4600BF6D1C6069A842CD
:104F800004D80225BD4201D90020E8E72946204681
:104F900000F0EEFF064606B909E0701C08B1012ECC
:104FA00001D13046DBE7BD42E7D10020D7E700BFA3
:104FB0006FF070422946204601F024F98046B8F18E
:104FC000000F08D1B9F1000F05D02A464946204606
:104FD00001F018F98046B8F1000F0BD1E5602069A7
:104FE000401C78B12069401E2061607940F00100CA
:104FF000607107E0B8F1010F02D14FF0FF3000E01F
:10500000012005462846AAE72DE9F35F0198D0F86C
:10501000009001E009F1010999F800002F28F9D06A
:1050200099F800005C28F5D0009886690B222021B1
:10503000304601F0C3F800252F46AB464FF0080A72
:1050400000BF58460BF1010B19F80040202C03DD7E
:105050002F2C01D05C2C00D157E02E2C01D05745CD
:105060000DD3BAF1080F01D12E2C02D00620BDE8D5
:10507000FC9F08274FF00B0AA806050EE1E7802CDD
:1050800001DB45F00305812C01DB9F2C03DDE02CC7
:1050900020DBFC2C1EDC58460BF1010B19F80080BC
:1050A000B8F1400F02DBB8F17E0F05DDB8F1800FDB
:1050B00006DBB8F1FC0F03DCAAF10100B84201D80D
:1050C0000620D4E738467F1C345438467F1C06F847
:1050D000008019E0214620A0FFF714FF08B1062048
:1050E000C5E7412C04DB5A2C02DC45F0020508E040
:1050F000612C06DB7A2C04DC45F00105A4F12000CC
:10510000C4B238467F1C34549BE700BF09EB0B0147
:1051100001980160202C01DC042000E000200446FE
:105120000FB90620A3E73078E52801D105203070BB
:10513000BAF1080F01D1A806050E05F003000128F9
:1051400001D144F0100405F00C00042801D144F012
:105150000804F47200208AE7222A2B2C3A3B3C3DBB
:105160003E3F5B5D7C7F00002DE9F04104460E462A
:105170000021204600F031F90546EDB9002700BFB7
:105180002169206801F024F8054605B113E0606943
:105190000078E52802D06069007820B9781C0746BD
:1051A000B04201D107E000270121204600F038F885
:1051B0000546002DE4D000BF042D00D10725284668
:1051C000BDE8F0812DE9F04104460021204600F0C1
:1051D00004F9054615B12846BDE8F08100BF2169F4
:1051E000206800F0F5FF054605B116E066693778DE
:1051F0000FB9042511E0F07A00F0080030B90B2255
:105200003046A16900F0BAFF00B906E0002120464F
:1052100000F006F80546002DE1D000BF2846DBE788
:105220002DE9F04104468846E088461CB0B208B13A
:10523000206910B90420BDE8F08106F00F000028B5
:105240006BD12069401C2061E06828B92068008982
:10525000B04262D80420EEE720688078401E00EA61
:105260001610002859D1E168206800F081FE05463B
:10527000012D01D80220DEE7681C08B90120DAE719
:1052800020684069A84242D8B8F1000F01D104203B
:10529000D1E7E1682068FFF74CFE05460DB907200D
:1052A000C9E7012D01D10220C5E7681C08B901201A
:1052B000C1E7206801F0E9F808B10120BBE72168E7
:1052C00001F130004FF40072002100F077FF294611
:1052D0002068FFF721FE2168C86200270EE0012048
:1052E00021680871206801F0D0F808B10120A2E718
:1052F0002068C06A401C2168C8627F1C20688078D2
:10530000B842ECD82068C06AC01B2168C862E5605A
:1053100029462068FFF700FE2061E68020683030D3
:1053200006F00F0100EB41106061002083E72DE9DA
:10533000F04704468946042528E02169206800F0EA
:1053400047FF054605B124E0D4F8148098F80060C2
:105350000EB904251DE098F80B0000F03F07E52E7C
:105360000DD02E2E0BD00F2F09D027F020000828AB
:1053700001D1012000E00020484500D109E00021D2
:105380002046FFF74DFF054605B102E020690028E1
:10539000D3D100BF0DB1002020612846BDE8F087C1
:1053A00070B5044601212046FFF7DEFE054695B99B
:1053B0002169206800F00CFF054665B92022002114
:1053C000606900F0FBFE0B22D4E9050100F0E9FE64
:1053D000012021680871284670BD2DE9F04104467E
:1053E0000E46E680A568012D03D020684069A842DA
:1053F00002D80220BDE8F0812DB92068007803288A
:1054000001D12068456A45B920680089B04201D8B9
:105410000220EFE72068476A1EE0206880784FEAA4
:10542000001812E02946206800F0A2FD0546681C1D
:1054300008B90120DEE7022D03D320684069A842A5
:1054400001D80220D6E7A6EB08064645EAD229464F
:105450002068FFF761FD0746E5600FB90220C9E744
:1054600007EB161020612068303006F00F0100EBCA
:10547000411060610020BDE710B504460648FCF706
:10548000EFFD28B10548007820F0010003490870BD
:105490000248007810BD000098010020090100209A
:1054A00010B5034600240BB1042010BD012412489E
:1054B000007800F0010008B10320F6E731B10129BE
:1054C00006D0022909D0032910D10BE000240FE0F7
:1054D0000A480068106000240AE04FF40070108051
:1054E000002405E04FF40070106001E0042400BFC8
:1054F00000BF2046D9E7000009010020380E002037
:105500002DE9F04105460F4690461C46002605B998
:1055100014B90420BDE8F0811148007800F00100C2
:1055200008B10320F6E70F48FCF79AFD98B100BFD9
:105530006302424639460B48FCF712FB06460A490D
:105540000848FBF71DFF0748FCF78AFD08B9012052
:10555000E0E7032EECD00EB90020DBE70120D9E70D
:10556000090100209801002014010020014609B122
:105570000120704701480078FBE700000901002086
:105580002DE9F04105460F4690461C46002605B918
:1055900014B90420BDE8F0811548007800F001003E
:1055A00008B10320F6E71248007800F0040008B1C3
:1055B0000220EFE70F48FCF753FD98B100BF6302EC
:1055C000424639460B48FCF781FC06460A49094821
:1055D000FBF7D6FE0748FCF743FD08B90120D9E7E1
:1055E000032EECD00EB90020D4E70120D2E7000052
:1055F00009010020980100201401002070B5054623
:10560000284600F04DF9044634B9284600F066FFFC
:1056100004460CB900202860204670BDF7B582B062
:1056200016460398019001A800F054FD0546002D90
:1056300002DA0B2005B0F0BD0E4850F825400CB141
:1056400000202070029810B10020029908700949CA
:10565000029841F82500029808B1012E01D00020DF
:10566000E8E7002203A902A800F05EFA07463846E0
:10567000E0E700000C0100202DE9F7438AB0054661
:1056800016461DB909200DB0BDE8F0830020286042
:1056900006F01F0626F001020BA903A800F044FA49
:1056A0000746002F7ED1CDF824D003A80B9900F037
:1056B00005FC0746089C0FB904B9062706F01C0034
:1056C000002851D04FB1042F03D103A8FFF768FE83
:1056D000074646F00806089C09E0E07A00F0110051
:1056E00008B1072703E006F0040000B10827002FE7
:1056F00049D106F00800002845D000F0B2FC8046F1
:1057000084F80E804FEA1821E1734FEA18412174A2
:105710004FEA186161740020E07220770021617700
:10572000A177E1772146039800F0F8FC814600213B
:10573000204600F03EFE012003990871B9F1000FE8
:1057400021D00398D0F82C804946039800F0FBFD47
:105750000746C7B9A9F101000399C86041460398FB
:1057600000F036FD07460EE06FB9E07A00F0100059
:1057700008B1042707E006F0020020B1E07A00F04B
:10578000010000B1072747B906F0080008B146F04C
:1057900020060398C06AE8612C621FB9AE71002030
:1057A000E87100E017E02146039800F0B7FC28619B
:1057B000E07F0106A07F41EA0041607F41EA0020CE
:1057C000217F0843E8600020A860A8610398286052
:1057D0002868C088A880384655E733B585B00446A8
:1057E00014B9092007B030BD002206A904A800F0B2
:1057F0009BF905461DBB0498206001A8A0612046C6
:10580000069900F05BFB0546B5B9606958B160695F
:10581000C07A00F0100028B16169049800F07EFCA5
:10582000A06000E005253DB90498C088A080002153
:105830002046FFF7D2FD0546042D00D105250DB108
:10584000002020602846CDE7FEB505460E462846D6
:1058500000F044FE04460CBB2EB900212846FFF799
:10586000BCFD04461AE0C5F818D000212846FFF711
:105870005EFD0446042C02D10020286100246CB98E
:105880003146284600F0EFFB00212846FFF7C8FC10
:105890000446042C02D10020286100242046FEBDCD
:1058A0002DE9F0410446204600F018FE0746002F7F
:1058B0004CD1A07900F02000002847D0A07900F05A
:1058C000400078B121684878012304F12401A269DD
:1058D000FFF756FE10B10120BDE8F081A07920F05D
:1058E0004000A071E169206800F072FC0746002FBB
:1058F0002CD1256AE87A40F02000E872207B2877D6
:10590000A089010A6977E068010CA977E068010EB7
:10591000E9772846216900F04CFD00F0A2FB06461D
:10592000AE75310AE975310C2976310E69760020A1
:10593000A8740021E974A07920F02000A071012052
:1059400021680871206800F03CFD07463846C3E72F
:105950002DE9FF4F83B0044615469B4604980190FD
:105960000020CBF80000204600F0B8FD029002981D
:1059700018B1029807B0BDE8F08FE07908B1E0797E
:10598000F8E7A07900F0020008B90720F2E7A06864
:105990002844A168884200D20025B5E02089C0F3E0
:1059A0000800002877D120688078401EA16800EAAE
:1059B000512000F0FF0ABAF1000F1ED1A06838B9DB
:1059C000276957B900212068FFF7B3FA074604E0BA
:1059D00061692068FFF7ADFA074607B997E0012F24
:1059E00002D10220E071C5E7781C10B90120E071F6
:1059F000C0E76761206900B92761A07900F0400025
:105A000078B121684878012304F12401A269FFF7E5
:105A1000B7FD10B10120E071ACE7A07920F04000A3
:105A2000A07161692068FFF777FA064616B902206F
:105A3000E0719FE756444FEA5529B9F1000F2BD08A
:105A40000AEB090021688978884203D920688078A8
:105A5000A0EB0A09216848784B4632460199FFF7C6
:105A60008FFD10B10120E07184E7A069801B4845DB
:105A70000ED2A069801B019A02EB40214FF4007204
:105A800004F1240000F08DFBA07920F04000A0710B
:105A90004FEA49282BE013E0A069B0420FD0D4E9C7
:105AA000020188420BD2216848780123324604F172
:105AB0002401FFF725FD10B10120E0715AE7A6612E
:105AC0002089C0F30800C0F50078A84500D9A84691
:105AD0002189C1F3080204F12401501842460199BA
