:020000040800F2
:10000000080A002089010008390E00089D04000834
:10001000550D0008E1020008251B00080000000043
:100020000000000000000000000000006D1100084A
:1000300021030008000000002D0F0008ED12000849
:10004000A3010008A3010008A3010008A301000800
:10005000A3010008A3010008A3010008A3010008F0
:10006000A3010008A3010008A3010008A3010008E0
:10007000A3010008A3010008A3010008A3010008D0
:10008000A3010008A3010008A3010008A3010008C0
:10009000A3010008A3010008A3010008A3010008B0
:1000A000A3010008A3010008A3010008A3010008A0
:1000B000A3010008A3010008A3010008A301000890
:1000C000A3010008A3010008A3010008750F0008A0
:1000D0004D10000889160008BD160008F11600082A
:1000E000A3010008A30100084D0E00080000000055
:1000F0000000000000000000000000000000000000
:1001000000000000A3010008A30100080000000097
:10011000A3010008A3010008000000000000000087
:10012000A3010008A3010008A3010008A30100081F
:1001300000000000000000000000000000000000BF
:100140000000000000000000000000003D0E00085C
:100150000000000000000000A3010008A301000847
:10016000000000000000000000000000A3010008E3
:10017000DFF810D000F088F800480047212300087D
:10018000AFF30080080A0020064880470648004771
:10019000FEE7FEE7FEE7FEE7FEE7FEE7FEE7FEE737
:1001A000FEE7FEE719140008710100082DE9F05F71
:1001B0000546002092469B468846064681464024D6
:1001C0001BE0284641464746224600F04CF853467D
:1001D0005A46C01A914110D311461846224600F0E3
:1001E00033F82D1A67EB01084F4622460120002103
:1001F00000F02AF817EB00094E41201EA4F101047B
:10020000DFDC484631462A464346BDE8F09F421CA3
:1002100010F8011B0029FBD1801A704730B50B463E
:10022000014600202022012409E021FA02F59D4226
:1002300005D303FA02F5491B04FA02F52844151EFA
:10024000A2F10102F1DC30BD202A04DB203A00FAE1
:1002500002F1002070479140C2F1200320FA03F31D
:10026000194390407047202A04DB203A21FA02F01B
:100270000021704721FA02F3D040C2F120029140E0
:100280000843194670470000064C074D06E0E06839
:1002900040F0010394E8070098471034AC42F6D3CD
:1002A000FFF76AFFE4F4030804F50308064807496A
:1002B0000860074848600749044881600649C160F2
:1002C0000648024908617047FD020008F405002055
:1002D000A104000879120008590E00083103000833
:1002E00000BFFEE7024682EA2120034B33F81000EC
:1002F00080EA012080B27047AAF2030870B5044674
:100300000D46002605E020783146FFF7EBFF064654
:10031000641C281EA5F101018DB2F4D1304670BDD8
:10032000704710B504462146032001F06AF910BD5C
:1003300030B50346002005E00446401C1C5D8C429D
:1003400000D130BD9042F7D30020FAE7F0B500BFEE
:100350004FF0E02080690D490968081A0C4948608F
:1003600008460268002309480068C6171446A4FB23
:10037000001703FB007002FB06030A4604484068AE
:10038000821843F1000310461946F0BD100000200A
:100390001C00002013B582B00024684600F034F839
:1003A00003990198441A002C05DA9DF80200401EBA
:1003B000C0B28DF802009DF802009DF80A10401AA4
:1003C00043F6095110FB01F004EB8014204604B001
:1003D00010BD0246107D022813DA01201071138827
:1003E000581C108002F11500C1547D2901D1022052
:1003F00010751088C82801DD0320107502F1150062
:100400009060107D704700002DE9FF4704460020F2
:1004100002900390FFF79AFF05460E461B480268BC
:10042000D31728463146FFF7C1FE81464946684644
:1004300000F022FFDDE90001CDE90201144899FB3B
:10044000F0F0002806DD002002900390DDE90201B3
:1004500000F03AFF0D480268D31728463146FFF7EF
:10046000A5FE174619460B480268D3173846FFF712
:100470009DFE03900848DDE902128160C260DDE95B
:100480000201C4E90001BDE8FF8700003C00002034
:1004900080510100440000202800002000BFFEE73A
:1004A00003B59DF802109DF80120C2EB021201EB8A
:1004B00082019DF80020C2EB4213C3EB022201EB44
:1004C00002100449884201DA014600E00149084669
:1004D0000CBD0000805101001CB50446684601F0C7
:1004E00090FEB4B10121124801F050FD4FF40050CC
:1004F000009001208DF8070000208DF804008DF891
:10050000060018208DF8050069460A4801F084FEAF
:100510000CE04FF40050009003208DF806000420FA
:100520008DF805006946034801F076FE1CBD000009
:10053000040018000010014070B505460C4625B1B6
:10054000012D03D0022D06D104E005E02046FFF77F
:10055000C3FF01E000E000BF00BF70BD70B50446FE
:10056000012514B1012C08D100E007E04FF400513F
:10057000044801F0A5FE054600E000BF00BF284684
:1005800070BD0000001001402DE9F04107460C4607
:1005900015461E462A2000F059FB384600F070FB35
:1005A000284600F06DFB2B2000F050FB204600F0A9
:1005B00067FB304600F064FB2C2000F047FBBDE8F1
:1005C000F081002106E042F2107200BF531E1A1E95
:1005D000FCDC491C8142F6DB70472DE9F0470646FA
:1005E0000F46904699460025444641E07A1B91B259
:1005F000321B90B24A4600F095F87A1B91B232193C
:1006000090B24A4600F08EF83A1991B2721B90B23D
:100610004A4600F087F83A1B91B2721B90B24A46E4
:1006200000F080F87A1991B2321990B24A4600F07F
:1006300079F83A1B91B2721990B24A4600F072F8FA
:100640003A1991B2721990B24A4600F06BF87A19D1
:1006500091B2321B90B24A4600F064F86D1C05FB63
:1006600005F004FB040108FB08F0814200DD641E74
:10067000A542BBDDBDE8F0872DE9FF4F85B081467F
:100680008A460020039083460798A0EB0905089846
:10069000A0EB0A06CDF80890CDF804A0002D01DDEE
:1006A000012705E00DB9002702E04FF0FF376D424A
:1006B000002E02DD4FF0010806E016B94FF00008E9
:1006C00002E04FF0FF387642B54201DD2C4600E0F3
:1006D0003446002004901EE0019A91B2029A90B232
:1006E000129A00F01FF8039828440390B34403982B
:1006F000A04205DD0398001B039002983844029045
:10070000A34504DDABEB040B019840440190049831
:10071000401C80B20490611C04988842DCDB09B064
:10072000BDE8F08F70B504460D4616462B462246AE
:1007300029462046FFF728FF304600F0A1FA70BD99
:100740002DE9F84305460E4617469846089C334661
:100750003A46314628460094FFF78EFF43462A4624
:10076000314628460094FFF787FF43463A46414604
:1007700028460094FFF780FF43463A463146384604
:100780000094FFF779FFBDE8F8832DE9F0470646AE
:100790000F4614461D46DDF82090A01BE91B00FB08
:1007A00001F8681E83B2601E82B239463046FFF7F8
:1007B000EBFE04E0484600F063FAA8F10108B8F146
:1007C000000FF7DCBDE8F0871CB50446684601F071
:1007D00018FDBCB10121124801F0D8FB4FF4806034
:1007E000009001208DF8070000208DF804001020F3
:1007F0008DF8060004208DF805006946094801F0CF
:100800000BFD0CE04FF48060009003208DF8060093
:1008100004208DF805006946024801F0FDFC1CBD6E
:10082000020018000008014038B504462046FFF7D2
:10083000CBFF204600F050FCC820FFF7C2FE11207D
:1008400000F004FA1420FFF7BCFE362000F0FEF999
:100850003220FFF7B6FE002000F023FA3A2000F025
:10086000F5F9052000F01DFAB22000F0EFF90C2098
:1008700000F017FA0C2000F014FA002000F011FA32
:10088000332000F00EFA332000F00BFAB72000F00E
:10089000DDF9352000F005FABB2000F0D7F919206A
:1008A00000F0FFF9C02000F0D1F92C2000F0F9F998
:1008B000C22000F0CBF9012000F0F3F9C32000F0D2
:1008C000C5F9122000F0EDF9C42000F0BFF9202096
:1008D00000F0E7F9C62000F0B9F90F2000F0E1F9C7
:1008E000D02000F0B3F9A42000F0DBF9A12000F043
:1008F000D8F9E02000F0AAF9D02000F0D2F90420C5
:1009000000F0CFF90D2000F0CCF9112000F0C9F96A
:10091000132000F0C6F92B2000F0C3F93F2000F0AF
:10092000C0F9542000F0BDF94C2000F0BAF91820AD
:1009300000F0B7F90D2000F0B4F90B2000F0B1F988
:100940001F2000F0AEF9232000F0ABF9E12000F009
:100950007DF9D02000F0A5F9042000F0A2F90C20C8
:1009600000F09FF9112000F09CF9132000F099F994
:100970002C2000F096F93F2000F093F9442000F07D
:1009800090F9512000F08DF92F2000F08AF91F20F6
:1009900000F087F91F2000F084F9202000F081F991
:1009A000232000F07EF9212000F050F9112000F002
:1009B0004DF9292000F04AF9C820FFF702FE05484A
:1009C0000088F0231A46002100900846FFF7DDFE5C
:1009D00038BD0000480000202DE9FF5F07468A4629
:1009E00090469B460F9D002002900097284605EBFD
:1009F000D071C1F347042046E21704EB5272D210C3
:100A00002146E31704EB5373DB10A4EBC3030BB1D4
:100A1000012300E000231A446A4392B20192A8F134
:100A2000200000F0FF080AEB0500401E83B23819D1
:100A3000401E82B251463846FFF7A6FD00265BE015
:100A4000102D05D12F4800EB0810805D039013E0B6
:100A5000182D07D108EB48002B4901EB0010805DF1
:100A6000039009E0202D05D1284800EB8810805D17
:100A7000039001E0BDE8FF9F4FF0000936E01098B9
:100A8000C8B9012000FA09F00399084018B1584686
:100A900000F0F6F802E00E9800F0F2F80298401C20
:100AA000C0B20290029890FBF4F104FB1100C8B9A7
:100AB000002002901DE0012000FA09F0039908408F
:100AC00020B15A4651463846FFF72CFE781C87B2B3
:100AD0000098381AA04205D1009F0AF101001FFAC0
:100AE00080FA06E009F1010000F0FF09B9F1080FF2
:100AF000C5DB00BF701C86B201988642A0DB00BF38
:100B0000B8E700002AC303081AC90308EADA030891
:100B10002DE9FE470646894615469A46DDE90C480A
:100B20000B9F1CE0182C09D153462A4649463046F3
:100B3000CDE90148009700F017F80DE0202C09D10D
:100B400053462A4649463046CDE90148009700F011
:100B50000FF801E0BDE8FE87AD1C301986B2287899
:100B60000028DFD100BFF5E770B504AC70CC70BDD4
:100B700070B504AC70CC70BD2DE9F05F07468846B7
:100B800015461E46DDF82890002408EB0600401E9E
:100B900083B27819401E82B241463846FFF7F4FC12
:100BA000A24618E04FF0000B0FE019F8140000F017
:100BB00078F8012101EB440119F8010000F071F807
:100BC000641C0BF101001FFA80FBB345EDDB0AF159
:100BD00001001FFA80FAAA45E4DBBDE8F09F2DE989
:100BE000FE4305460F4616469846DDE90A94102C4A
:100BF00003D0182C01D0202C0FD1204604EBD0714B
:100C0000491069438DB207FB04F087B2F02D00DD77
:100C1000F025F02F03DDF02701E0BDE8FE8310E0B2
:100C20000020CDE9009402903278434639462846A8
:100C3000FFF7D2FE204604EBD07105EB61018DB2C7
:100C4000761C30780028EBD100BFE6E710B50446EB
:100C50000121084600F008FA4FF480600749086057
:100C6000204600F02CF84FF480600449091F08600A
:100C70000021012000F0F8F910BD00001408014027
:100C800010B504460121084600F0EEF9201200F0EC
:100C900016F8E0B200F013F80021012000F0E4F9AA
:100CA00010BD10B504460121084600F0DDF92046CC
:100CB00000F005F80021012000F0D6F910BD10B5B4
:100CC0000446204600F0EEF910BD000038B501F0F2
:100CD000EDFC032001F000FC00F03EF8FFF7E6FA1F
:100CE00011488168012088470F48416801208847E2
:100CF0000D4801224FF4E131C368032098470A48A8
:100D00000121026908469047084800900848F023EE
:100D10001A460021046A0846A0470648016806A052
:100D200000F002FF38BD0000FC0100201A3F00085F
:100D3000100200204C00002073797374656D5F63AE
:100D40006F72655F636C6F636B3A202564200D0AD8
:100D50000000000000BFFEE710B500F015F80548E0
:100D6000054988600548C86005484860054808612D
:100D700010BD0000FD120008FC010020A91A0008A7
:100D8000290800083905000817481849086018485C
:100D900048601849154881601749C16017490161C9
:100DA00017494161174981611749C16117490162BA
:100DB00017480E49486217490C4881621649C162BA
:100DC0001649416316480949086316490748816373
:100DD0001549016415480549C8631549034841642C
:100DE0001448024988647047230300081002002059
:100DF0008B0700082507000879060008DB050008B6
:100E000041070008DF0B0008110B0008790B0008F0
:100E100001120008891100086F1100080904000878
:100E2000C912000895030008CD1500080316000834
:100E3000DC0500205D0500087047000010B5024881
:100E400002F0F6FD10BD00005800002010B54FF470
:100E5000802001F0C7F910BD3CB50446D4E900106C
:100E60000968884206D0206800686060002020720F
:100E7000607255E0207A40B9012020720020607233
:100E8000E16903C9C4E905014AE00020009001902E
:100E90000025D4E90501FFF703FB0090E269D2E9E0
:100EA0000001FFF7FDFA0190DDE90001884203DD52
:100EB0001C49019808440190DDE90010401A009097
:100EC000D4E90301FFF7ECFA0190E0694168A069F9
:100ED000814209D20098401E00901349A069081A67
:100EE000E1694968451803E0E0694168A0690D1AA5
:100EF0002069A84202D90098401E0090DDE9000157
:100F0000401A0AD470206072A07A08B9012000E06B
:100F10000020A0720020207201E00020607200BF5B
:100F2000607A3CBD8051010040420F0070470000D4
:100F300070B504460D460D480268D3172046294671
:100F4000FFF734F90A49086008480268D3172046B9
:100F50002946FFF72BF906484260406803490968B3
:100F6000081A4FF0E021886170BD000010000020D9
:100F70001C00002010B502210B4801F0D3FA012813
:100F800010D18021084801F0CDFA58B90022802103
:100F9000054801F0CFFA0021012000F065F801209A
:100FA0000249088010BD0000003001400C00002004
:100FB0001CB50446684601F024F99CB30121214880
:100FC00000F0E4FF01214FF4C01000F0DFFF4FF408
:100FD0008050009001208DF8070000208DF804005B
:100FE00010208DF8060004208DF80500694616488B
:100FF00001F012F94FF42040009008208DF806000F
:101000006946114801F008F94FF480400090002033
:101010008DF8060018208DF8050069460A4801F091
:10102000FBF80DE0FFE74FF47040009003208DF8CF
:10103000060004208DF805006946034801F0ECF82D
:101040001CBD000003001800000C014010B5022177
:10105000044801F067FA012803D18021014801F01A
:1010600061FA10BD0038004020B1012807D00228E5
:1010700012D110E04FF48052094B1A600DE029B1F3
:101080004FF48052064B1B1D1A6003E04FF4805250
:10109000034B1A6001E000E000BF00BF7047000092
:1010A000100C014010B5044600BF02210948006839
:1010B00001F038FA0028F8D021460648006801F00F
:1010C0002FFA00BF80210348006801F02BFA0028A6
:1010D000F8D110BD080000207CB50546002405B1FC
:1010E00001242046FFF764FF00210120FFF7BCFF29
:1010F0001C48006801F028FA684601F001FA072050
:1011000001F0EAF92146184800F040FF00220121D1
:10111000242001F07DF901208DF8010000208DF8D8
:10112000040002208DF8020000208DF80300012049
:101130008DF805008DF806008DF8070000208DF869
:10114000000069460748006801F01EFA002280216D
:101150000448006801F0EEF921460248006801F0F9
:10116000DAF97CBD080000200E001C00704730B585
:101170000446002504E04FF47A7000F005F86D1C79
:10118000A542F8DB30BD00002DE9F04F8346194839
:1011900000680BFB00FAFFF7D9F806460F4624E07B
:1011A000FFF7D4F80D460446301B77EB050004D258
:1011B000B4EB060865EB07090FE00F480068C008AC
:1011C0000E4900FB01F84FF00009B8EB060869EB87
:1011D000070918EB040849EB05094FEAEA70B8EB78
:1011E0000A0179EB000000D300E0D9E700BFBDE8B9
:1011F000F08F0000140000204C00002080510100FE
:101200002DE9F04F8346194800680BFB00FAFFF701
:101210009DF806460F4624E0FFF798F80D46044671
:10122000301B77EB050004D2B4EB060865EB070929
:101230000FE00F480068C0080E4900FB01F84FF0AE
:101240000009B8EB060869EB070918EB040849EB3D
:1012500005094FEAEA70B8EB0A0179EB000000D308
:1012600000E0D9E700BFBDE8F08F000018000020C3
:101270004C000020805101001CB502464FF4616310
:1012800091FBF3F0182801DA034600E01823DBB2E3
:101290008DF800304FF4616391FBF3F403FB1413FA
:1012A0003C2493FBF4F0C3B28DF801303C2391FB56
:1012B000F3F403FB1410C3B28DF80230DDE90034FF
:1012C000C2E900341CBD000013B5DDE90001FFF7E1
:1012D000E7F804460448006884FB002001461046F5
:1012E000FFF726FE1CBD00003C00002002480068FD
:1012F000401C0149086070471C00002010B50446DE
:10130000204600F01FF80A480068C0080949086034
:10131000084600684FF47A7190FBF1F006490860C6
:1013200004480068054990FBF1F00549086010BDCC
:101330004C0000203C0000204000002040420F00F4
:101340004400002070B504462B48006800092B4972
:10135000086029480068C0084FF47A71B0FBF1F0CA
:101360002749086024480068C0082649B0FBF1F00E
:101370002549086054B300BF1F4800680109481E92
:10138000B0F1807F01D301201BE0481E4FF0E02226
:10139000506150170F22002804DB13071D0E1B4B52
:1013A0001D5406E013071E0E194B00F00F052D1FEC
:1013B0005E5500BF00204FF0E022906107201061D1
:1013C00000200028D8D101F061FA13E000BFBFF37C
:1013D0004F8F0F480C38006800F4E0600D49084357
:1013E000001D0B490C390860BFF34F8F00BF00BFD1
:1013F00000BFFDE770BD00004C0000201000002081
:101400001400002040420F001800002000E400E01B
:1014100018ED00E00000FA052248C06920F0805075
:1014200000F180501F49C8611F48007840F0040057
:101430001D49503981F850001A48C06920F0805089
:101440001849C8610846006820F00100401C086087
:1014500000BF14480068C0F340000028F9D01148CC
:10146000406820F003000F49486000BF0D48406805
:10147000C0F381000028F9D10A4800680B490840F0
:10148000084908600020486041F61070C8624FF4B7
:10149000801008634FF41F008860C8030449086087
:1014A000704700000010024050700040FFFFF2FE45
:1014B00008ED00E070B50446062C15D2DFE804F014
:1014C0001403070B0F130E480E4908600EE00E4878
:1014D0000C4908600AE00D480A49086006E00C481B
:1014E0000849086002E001E0002070BD00BF202133
:1014F0000448006801F0F4F905462846F5E70000C5
:101500000038014024000020004400400048004012
:10151000004C004010B50446062C15D2DFE804F05C
:101520001403070B0F130D480D4908600DE00D481B
:101530000B49086009E00C480949086005E00B48C0
:101540000749086001E000E010BD00BF2021044809
:10155000006801F0BCF900BFF6E700000038014068
:10156000240000200044004000480040004C00409F
:1015700070B50446062C15D2DFE804F01403070BFF
:101580000F130D480D4908600DE00D480B49086028
:1015900009E00C480949086005E00B480749086064
:1015A00001E000E000BF00BF0448006801F082F9DC
:1015B0000546284670BD0000003801402400002088
:1015C0000044004000480040004C00402DE9F0413C
:1015D00007460C461546C82D01DA284600E0C8200B
:1015E0008046002605E03046761C215C384600F037
:1015F00015F8B8F10000A8F10108F4D10120BDE808
:10160000F08170B505460C462046FEF700FE064602
:10161000324621462846FFF7D9FF70BD70B5044613
:101620000D46062C15D2DFE804F01403070B0F1348
:101630001048114908600DE010480F49086009E0A2
:101640000F480D49086005E00E480B49086001E0AD
:1016500000E070BD00BF00BF40210748006801F0F6
:101660003FF90028F8D029460348006801F026F920
:1016700000BFEEE700380140240000200044004095
:1016800000480040004C004070B501252846FFF797
:1016900011FF80B12846FFF76BFFC4B2064951F82D
:1016A00025002146FEF795FE2846FFF733FF214629
:1016B0002846FFF7B3FF70BDDC05002070B502259A
:1016C0002846FFF7F7FE80B12846FFF751FFC4B266
:1016D000064951F825002146FEF77BFE2846FFF714
:1016E00019FF21462846FFF799FF70BDDC05002051
:1016F00070B503252846FFF7DDFE80B12846FFF7C9
:1017000037FFC4B2064951F825002146FEF761FEB5
:101710002846FFF7FFFE21462846FFF77FFF70BDF2
:10172000DC0500207CB504460D4600262F483049D4
:1017300008600846006801F057F905B101263146F6
:101740002C4800F023FC01212A480C3800F01EFC34
:10175000684600F056FD4FF40070009001208DF8AF
:10176000070000208DF8040008208DF806000420F2
:101770008DF805006946204800F04EFD4FF480606A
:10178000009000208DF8060018208DF805006946AD
:10179000194800F041FD072000F09EFE01220021C3
:1017A000252000F035FE00231A4621461048006827
:1017B00001F09EF801210E48006801F05FF9012157
:1017C0000B48006801F00BF900210948006801F09E
:1017D000E0F8012209490648006801F0BFF801213C
:1017E0000348006801F06EF87CBD0000003801403D
:1017F000240000200E0018000008014005000C0025
:101800007CB504460D4600262D482E490860084642
:10181000006801F0E9F805B1012631462A4800F0D8
:10182000B5FB0121294800F0B1FB684600F0E9FC56
:101830000420009001208DF8070000208DF804009E
:1018400008208DF8060004208DF805006946204820
:1018500000F0E2FC0820009000208DF8060018201F
:101860008DF8050069461A4800F0D6FC072000F004
:1018700033FE02220021262000F0CAFD00231A4672
:1018800021461048006801F033F801210D48006836
:1018900001F0F4F801210B48006801F0A0F80021E4
:1018A0000848006801F075F801220A4905480068F7
:1018B00001F054F801210348006801F003F87CBDF1
:1018C000004400402400002011001C000200180009
:1018D0000008014005000C007CB504460D460026BA
:1018E0003348344908600846006801F07DF805B1C6
:1018F00001263146304800F049FB01214FF4C01069
:1019000000F044FB01212D4800F040FB01212C4850
:1019100000F0E0FC684600F074FC4FF4806000903A
:1019200001208DF8070000208DF8040008208DF8B4
:10193000060004208DF805006946224800F06CFC82
:101940004FF40060009000208DF8060018208DF8FC
:10195000050069461B4800F05FFC072000F0BCFD55
:1019600003220021272000F053FD00231A462146C0
:101970001048006800F0BCFF01210E48006801F02B
:101980007DF801210B48006801F029F80021094881
:10199000006800F0FEFF01220B490648006800F0D5
:1019A000DDFF01210348006800F08CFF7CBD0000D2
:1019B000004800402400002012001C000400180011
:1019C0000104182C0010014005000C007CB50446F1
:1019D0000D4600262E482F4908600846006801F091
:1019E00003F805B1012631462B4800F0CFFA01215A
:1019F0002A4800F0CBFA684600F003FC4FF4806000
:101A0000009001208DF8070000208DF804000820C8
:101A10008DF8060004208DF805006946204800F086
:101A2000FBFB4FF40060009000208DF806001820AA
:101A30008DF8050069461A4800F0EEFB072000F01B
:101A40004BFD04220021342000F0E2FC00231A4662
:101A500021461048006800F04BFF01210D48006846
:101A600001F00CF801210B48006800F0B8FF0021DC
:101A70000848006800F08DFF01220A490548006807
:101A800000F06CFF01210348006800F01BFF7CBDE3
:101A9000004C00402400002013001C00040018002B
:101AA0000010014005000C0070B504460D461646B6
:101AB000012C06D0022C0DD0032C14D0042C24D1E0
:101AC0001AE031462846FFF72DFE1148114941F82A
:101AD00024001BE031462846FFF792FE0E480D49D0
:101AE00041F8240012E031462846FFF7F5FE0B4886
:101AF000084941F8240009E031462846FFF766FF0F
:101B00000748044941F8240000E000BF00BF70BD51
:101B10005C020020DC0500203C0300201C040020A7
:101B2000FC04002000BFFEE70FB4054B10B503A96D
:101B3000044A029800F018F810BC5DF814FB00008D
:101B4000F12100085400002002E008C8121F08C15B
:101B5000002AFAD170477047002001E001C1121F2E
:101B6000002AFBD1704700002DE9FF4F89B09B464A
:101B70000446002506E025280BD05A460B999047CD
:101B8000641C6D1C20780028F5D10DB02846BDE8F6
:101B9000F08F0027B8460122474900E0074314F8B8
:101BA000013F203B02FA03F00842F7D120782E28AB
:101BB00019D114F8010F47F004072A280ED06FF04E
:101BC0002F022078A0F1300109290CD808EB8801F8
:101BD00002EB410100EB0108641CF2E70A98641C67
:101BE00050F8048B0A9020780028CED0642808D0C2
:101BF000692806D075281ED05A460B9990476D1C4F
:101C000058E00A994FF00A0901C90A91002802DA3E
:101C100040422D2102E0390504D52B218DF82010FA
:101C2000012103E0F90704D02021F7E78A4608AE36
:101C30000DE00021FAE70A994FF00A0901C90A915B
:101C4000F7E74946FEF7EAFA303106F8011D0028A9
:101C5000F7D1ADEB060000F12009780701D44FF071
:101C60000108C84502DDA8EB090000E0002080461D
:101C7000002706E008A85A46C05D0B9990476D1CE6
:101C80007F1C5745F6DB04E030205A460B999047FD
:101C90006D1CB8F10001A8F10108F5DC05E016F8AB
:101CA000010B5A460B9990476D1CB9F10001A9F13F
:101CB0000109F4DC641C65E709280100034949684F
:101CC00060F30711014A51607047000000100240A4
:101CD0000349496860F30A21014A516070470000D6
:101CE000001002400349496860F3CD21014A516068
:101CF0007047000000100240012807D10749496DD4
:101D000021F030013031054A516505E00349496D44
:101D100021F03001014A5165704700000010024077
:101D2000052827D2DFE800F0030A11181F00134A24
:101D3000126861F30002114B1A601CE00F4A12682E
:101D400061F310420D4B1A6015E00C4A126861F302
:101D500018620A4B1A600EE0084A126A61F3000228
:101D6000064B1A6207E0054A526A61F30002034B10
:101D70005A6200E000BF00BF704700000010024040
:101D80002DE9F04F85B004460025AA46AB46002653
:101D9000A9460020049003900290019000F0FAF907
:101DA0000090009820B1012812D0022875D112E0CD
:101DB0005648406DC0F3402038B15448006BC0F322
:101DC000406010B15248206001E05248206067E056
:101DD0005048206064E04D484068C0F3004B4B48D9
:101DE000C06AC00F30BB49484068C0F383454748CC
:101DF0004068C0F3417ABAF1000F01D10F2D04D130
:101E00004FEA0A10401C054400E0AD1CBBF1000F76
:101E100003D14148684320603DE03C484068C0F33E
:101E2000404018B13C486843206034E0394868437A
:101E3000206030E03548C06AC0F303100390334897
:101E4000C06AC0F3082002903048C06A00F0070062
:101E50000190BBF1000F02D12F48049009E02B48FC
:101E60004068C0F3404010B12B48049001E029487D
:101E700004900121019801FA00F0039900FB01FC94
:101E800002990498A0FB017001466246002338467F
:101E9000FEF78CF9206003E0FFE71E48206000BFDA
:101EA00000BF1A484068C0F303161C4810F806909B
:101EB000206820FA09F0606014484068C0F30226E8
:101EC000174810F80690606820FA09F0E0600F48A3
:101ED0004068C0F3C226134810F80690606820FAE4
:101EE00009F0A06009484068C0F3007607484068E0
:101EF000C0F3813040EA86060B4810F80690A068CF
:101F0000B0FBF9F0206105B0BDE8F08F0010024091
:101F1000006CDC0200127A0000093D00BAF40308EC
:101F2000CAF40308D2F40308DAF4030810B5014632
:101F30000020094B03EB1142126801F01F0401233A
:101F4000A3401A4001F01F040123A3409A4200D08D
:101F500000E0012010BD0000001002400349096BA1
:101F600060F35961014A116370470000001002409C
:101F700000B503460120FFF7F1FF0348406D63F30E
:101F800049200149486500BD0010024010B50129F3
:101F90000DD10E4B03EB1042126800F01F04012319
:101FA000A3401A43094C04EB10431A600CE0074BA2
:101FB00003EB1042126800F01F040123A3409A4370
:101FC000024C04EB10431A6010BD000000100240E8
:101FD00010B501290DD10E4B03EB1042126800F031
:101FE0001F040123A3401A43094C04EB10431A6059
:101FF0000CE0074B03EB1042126800F01F040123B2
:10200000A3409A43024C04EB10431A6010BD000039
:102010000010024030B50246002000233AB9324C8D
:10202000646824F48034304D6C60304819E02E4CE4
:10203000646824F4803404F580342B4D6C60012AEC
:1020400006D12B482C46646824F400346C6008E008
:102050002648254C646824F4003404F50034224DED
:102060006C60244CA04204D9234CA04201D200232E
:1020700026E0224CA04204D9214CA04201D20123E7
:102080001EE0204CA04204D91F4CA04201D20223E2
:1020900016E01D4CA04204D91C4CA04201D20323DF
:1020A0000EE01B4CA04204D91A4CA04201D20423DA
:1020B00006E0184CA04203D9174CA04200D20523D9
:1020C000094C646861F39544074D6C600D09064C3A
:1020D000646865F35E74044D6C602C46E46A63F3D7
:1020E0001A64EC6230BD00000010024000093D009F
:1020F00000127A0060823B00404B4C0080584F0039
:10210000105E5F0094357700101B7F0020BCBE007E
:10211000286BEE0030D73D01D8E9DC011648006895
:1021200020F00100401C1449086000BF12480068FC
:10213000C0F340000028F9D00F48406820F00300A9
:102140000D49486000BF0C484068C0F3810000287A
:10215000F9D109480068094908400749086000208A
:10216000486041F61070C8624FF4801008634FF465
:102170001F0088607047000000100240FFFFF2FE61
:102180000349496860F30101014A5160704700004A
:102190000010024002484068C0F381007047000010
:1021A000001002400649496860F39751044A5160A3
:1021B00082080349496862F3DB61014A5160704754
:1021C0000010024010B50446012C01D1FFF7D0FEEB
:1021D0000348406D64F308200149486510BD0000C4
:1021E00000100240014908607047000014040140DB
:1021F00070B504460D46E1B20320FFF70FFA204602
:1022000070BD4FF6FF7101600021817101710421E1
:1022100041710121C1717047F0B50A461588ABB212
:102220009579032D01D100241AE0957965B9557986
:1022300005F00F045579182D01D1036110E055798F
:10224000282D0DD143610BE0957905F0080516792D
:1022500006F004063543D67906F0030645EA06047F
:10226000DDB2A5B1002110E001258D401D405DB11A
:1022700005688F000F26BE40B543056005688E00D7
:1022800004FA06F635430560491C0829ECD3FF2BF8
:1022900015DD1B12002110E001258D401D405DB1B0
:1022A00045688F000F26BE40B543456045688E00E7
:1022B00004FA06F635434560491C0829ECD3F0BD05
:1022C0000246002093680B408B4200D000E00120C2
:1022D00070470000F0B50C46104F07EB1062C0F3DA
:1022E0000741C0F30725C6B2C5F12007A7EB010CD3
:1022F0004FF0FF3707FA0CF3C5F120077F1AFB40B8
:10230000CB408B4017689F4317602CB106FA01FC45
:10231000176847EA0C071760F0BD00000000014095
:102320001CB5FEF7D3FC60E03048416B6846884737
:102330002E48816C01208847F8B92C48816C012017
:10234000884778B92A480068401C2949086008462F
:102350000068642801DD012008602548016825A087
:10236000FFF7E2FB00BF2148816A052088471F482C
:10237000816C012088470028F5D01D49086800EBD2
:10238000D0714910A0EB4101012913D11D49096801
:10239000174A126891420DD0154800681949086023
:1023A000194800901148F0231A460021046A084693
:1023B000A0471AE00E49086800EBD0714910A0EB65
:1023C000410191B90F490968094A126891420CD03C
:1023D000074800680B4908600C4800900348F02348
:1023E0001A460021046A0846A0479DE71002002013
:1023F000040000204B6579206E756D203A2025641D
:102400000000000000000020220102081A3F00081E
:102410002DE9F0470B4614464FF0000C00BF2C4A44
:102420001268C2F302211D4626460A46C2F1070978
:10243000B9F1040F02D94FF0040901E0C2F1070914
:10244000C84602F10409B9F1070F02D24FF00009A2
:1024500001E0A2F103094F464FF0010909FA08F91A
:10246000A9F1010909EA050909FA07F94FF0010A7A
:102470000AFA07FAAAF1010A0AEA060A49EA0A0967
:10248000CC4601466246002904DB15072E0E114D8D
:102490006E5407E015072F0E0D4D0C3501F00F0699
:1024A000361FAF5500BF014600290DDB00BF00BF3E
:1024B00001F01F050122AA404D09AD0005F1E025FC
:1024C000C5F8002100BF00BF00BFBDE8F0870000D5
:1024D0000CED00E000E400E000BF00F00702064B56
:1024E00019684FF6FF031940044B0B4343EA0221DE
:1024F000014B196000BF70470CED00E00000FA05C9
:102500000021017041708170C17001714171817150
:102510000121C1717047026861F386120260704741
:10252000C16070470246002093680B4003B900E089
:10253000012070471AB143680B43436002E04368CF
:102540008B4343607047000010B504460C4884423A
:102550000AD101214FF00C10FFF73AFD00214FF096
:102560000C10FFF735FD0AE00648844207D101212F
:102570008012FFF72DFD0021A012FFF729FD10BDED
:102580000030014000380040C26922F40062C2619C
:102590000A7862B9026822F400420260026822F4FA
:1025A00080420260026822F48062026036E00A78AB
:1025B000012A0ED1026822F400420260026822F46D
:1025C00080420260026822F4806202F5806202604A
:1025D00024E00A78022A0ED1026822F4004202F5B1
:1025E00000420260026822F480420260026822F423
:1025F0008062026012E00A78032A0FD1026822F496
:10260000004202F500420260026822F4804202F5B4
:1026100080420260026822F480620260CB79026824
:1026200063F3492202604A78012A09D1CA79012A52
:1026300006D1026822F4807202F58072026003E023
:10264000026822F4807202604B78026863F38202AF
:1026500002608A78072A0BDD426822F4807202F554
:10266000807242608A78036862F3C503036008E001
:10267000426822F4807242608B78026863F3C5027C
:102680000260CB78026863F3C71202600B790268BC
:1026900063F3CB2202604B79026863F3410202606C
:1026A0008B79026863F300020260704710B500F096
:1026B00001F810BD10B54FF4AA701E490860FFF76D
:1026C0002DFD01210020FFF72BFB00BF0120FFF7AC
:1026D0002DFC0128FAD123210020FFF79BFC0121CA
:1026E0000220FFF71DFB00BF1920FFF71FFC012888
:1026F000FAD10020FFF7E2FA0420FFF7F3FA0420F2
:10270000FFF7E6FA0120FFF7F7FA0220FFF738FD9E
:1027100000BFFFF73FFD0228FBD10020FFF7ECFAD6
:102720000520FFF73FFD0020FFF74CFD00F004F807
:1027300010BD0000002002402DE9FF5F00240025AD
:102740000026A146A246A3460020039002900190D5
:10275000FFF720FD0090009820B1012814D0022836
:1027600074D115E04348406DC0F3402040B141486A
:10277000006BC0F3406018B13F484049086002E078
:102780003F483E49086065E03D483C49086061E0DB
:1027900038484068C0F300463648C06AC00F20BBC6
:1027A00034484068C0F3834432484068C0F3417500
:1027B0000DB90F2C03D12801401C044400E0A41CD7
:1027C00026B9304860432D4908603DE029484068FB
:1027D000C0F3404020B12B4860432849086033E0F3
:1027E00027486043254908602EE02248C06AC0F3AC
:1027F000031003901F48C06AC0F3082002901D48D0
:10280000C06A00F00700019016B9DFF878B009E05F
:1028100018484068C0F3404010B1DFF868B001E0EC
:10282000DFF85CB00121019801FA00F0039900FB88
:1028300001FC0298ABFB007001466246002338465B
:10284000FDF7B4FC0D49086004E0FFE70C480B49B4
:10285000086000BF00BF07484068C0F303190A487A
:1028600010F809A00548006820FA0AF0034908603A
:10287000BDE8FF9F00100240006CDC024C0000200D
:1028800000127A0000093D00AAF40308042808D1C8
:102890004FF0E021096941F004014FF0E02211619D
:1028A00007E04FF0E021096921F004014FF0E02238
:1028B000116170470146486880B27047C1F3080251
:1028C00042607047C26861F34D32C260704701F0E8
:1028D0001F0212B10268426801E0CA4302607047F9
:1028E00002461068084008B1012070470020FCE74C
:1028F0002DE9F04385B004460F4690469946684658
:10290000FFF73EFA1448844201D1029E00E0039E84
:1029100006EB86004000B0FBF7F50A20B5FBF0F1AE
:1029200000FB1150052803D20A20B5FBF0F503E0A7
:102930000A20B5FBF0F0451CA06865F30F00A0600D
:10294000E06868F30C30E060206969F30D302061C5
:1029500005B0BDE8F08300000038014030B5012A21
:102960000BD100EB11431B6801F01F050124AC40A3
:10297000234300EB114423600AE000EB11431B6882
:1029800001F01F050124AC40A34300EB1144236078
:1029900030BD41B9C26822F40072C260C26822F43C
:1029A0008062C2601AE001290AD1C26822F4007272
:1029B000C260C26822F4806202F58062C2600DE0EB
:1029C00002290BD1C26822F4007202F50072C260C3
:1029D000C26822F4806202F58062C2607047C268F9
:1029E00061F38202C260704710B504461D488442FC
:1029F00008D101211C48FFF7EBFA00211A48FFF724
:102A0000E7FA2EE01948844208D101218012FFF72D
:102A1000DFFA0021A012FFF7DBFA22E0144884421B
:102A200008D101218012FFF7D3FA0021A012FFF78D
:102A3000CFFA16E00F48844208D101218012FFF737
:102A4000C7FA0021A012FFF7C3FA0AE00A4884423D
:102A500007D101218012FFF7BBFA0021A012FFF776
:102A6000B7FA10BD003801400E000C0000440040D1
:102A700000480040004C004000500040C26861F334
:102A8000C302C26070474FF410610958CA0AD202EB
:102A90004FF410610A5040F60401095821F4807285
:102AA00040F604010A507047014601F530600022EB
:102AB00002610123026963F3DC42026102696FF380
:102AC000120218320261026922F0C04202F1C042D1
:102AD0000261704710B58A7812BB0A7800F510635E
:102AE00003EB4212126822F400140A7803EB42123C
:102AF0001460CA78032A02D0CA78022A32D10A782E
:102B000000F5106303EB4212126822F0805202F1CA
:102B100080520B7800F5106404EB43131A6021E037
:102B20000A7800F5306303EB4212126822F40014B5
:102B30000A7803EB42121460CA78032A02D0CA78DA
:102B4000022A0FD10A7800F5306303EB42121268B3
:102B500022F0805202F180520B7800F5306404EBD1
:102B600043131A6010BD00F5106303EB41139A6024
:102B7000704730B502464FF40165AB5840F6340556
:102B8000AC5824FA01F505F0010543EAC51302F536
:102B9000106505EB4115AD6805EA030030BD30B5A1
:102BA00000220B788BB98B68402B00D10DE08B682D
:102BB000202B01D1012208E08B68102B01D10222C9
:102BC00003E08B68082B00D103228B78002B61D1A6
:102BD00040F61C031B580D780124AC40234340F6FB
:102BE0001C0423500B7873B90B7800F5106404EBC8
:102BF00043131B6862F30A030C7800F5106505EBBC
:102C0000441423600EE00D890B7800F5106404EB8A
:102C100043131C6865F30A040B7800F5106505EB97
:102C200043131C60CD780B7800F5106404EB43135C
:102C30001C6865F393440B7800F5106505EB4313AE
:102C40001C600D7800F5106404EB45131B6865F3F8
:102C500099532C4600F5106505EB441423600B785E
:102C60002C4604EB43131B6823F0805303F180537D
:102C70000C7805EB441423600B782C4604EB4313CB
:102C80001B6823F4004303F500430C7805EB441460
:102C9000236053E040F61C031C580D780123AB4021
:102CA00044EA034440F61C031C500B7873B90B78BC
:102CB00000F5306404EB43131B6862F30A030C78DD
:102CC00000F5306505EB441423600EE00D890B78A8
:102CD00000F5306404EB43131C6865F30A040B78B9
:102CE00000F5306505EB43131C60CD780B7800F5DB
:102CF000306404EB43131B6865F393430C7800F5D1
:102D0000306505EB441423600B782C4604EB431329
:102D10001B6823F0805303F180530C7805EB4414B7
:102D200023600B782C4604EB43131B6823F4004309
:102D300003F500430C7805EB4414236030BD00F527
:102D4000306303EB41139A607047024602F530602E
:102D500000EB4110836840F614008058184070471B
:102D600010B58A7812BB0A7800F5106303EB4212A3
:102D70001268D20F4AB90A7803EB4212126822F0A5
:102D800080440A7803EB421214600A7800F510635D
:102D900003EB4212126822F4001202F500120B78C3
:102DA00000F5106404EB43131A6021E00A7800F583
:102DB000306303EB42121268D20F4AB90A7803EB70
:102DC0004212126822F080440A7803EB4212146027
:102DD0000A7800F5306303EB4212126822F4001205
:102DE00002F500120B7800F5306404EB43131A600F
:102DF00010BD000010B50022036961F38A1303615E
:102E0000036923F020032033036105E01346521CBD
:102E1000054CA34200D904E00369C3F34013002B1F
:102E2000F4D100BF10BD0000400D0300014640F684
:102E300018004258001D4058104080B270470146AB
:102E400040F618004258001D40581040000C7047D2
:102E50004161704701464A69886910407047012AFC
:102E600003D183690B43836102E083698B438361F0
:102E70007047D0F8001E21F00101C0F8001E704715
:102E8000F0B51746DD1C4FEAE57C05EB9C7C4FEA6C
:102E9000AC060C46002205E04FF480552D58256005
:102EA000241D521CB242F7D3F0BDD0F8002861F3C4
:102EB0000A12C0F80028704741627047F0B5134607
:102EC00000240022426A19B942EA0345856215E0EE
:102ED000856A02EB1542002407E000F5827555F87B
:102EE000245002EB1542651CECB24D1EA542F4DCE9
:102EF00042EA034700F5827646F82570F0BDD0F827
:102F0000001E21F00101491CC0F8001E7047014657
:102F100040F60800405800F0010070472DE9F047E6
:102F200080460E46D8F8007006EB460000EBC6015E
:102F300008F10C0000EB8104D4E90601451A4FF0BA
:102F40000009A068A84200D2A568E81C4FEA9009D1
:102F500015E0D4E90601451AA068A84200D2A56888
:102F6000E81C4FEA9009ABB2B2B23846616900F092
:102F700021F8606928446061E0692844E06107F550
:102F8000106000EB4610806980B2484506D9D4E94C
:102F90000610884202D2A0690028DAD145B940F66D
:102FA0003400C0590121B140884340F63401C85172
:102FB000BDE8F087F0B5DE1C4FEAE67C06EB9C7CB2
:102FC0004FEAAC070D46002409E000F5805606EBF9
:102FD0000236D5F800C0C6F800C02D1D641CBC42E6
:102FE000F3D3F0BD70B50446002504F5B67694F829
:102FF0008401022802D0032817D100E000BF7088A6
:10300000012811D1002084F88701D4F88C0120F028
:103010000200C4F88C01606804F5B671826820462D
:103020009047204600F018F903E0204600F020F910
:1030300000BF00BF284670BD2DE9F04104460D4693
:10304000276805F0800050B105F07F0000EB4001DB
:1030500001EBC00104F10C0000EB810609E005F072
:103060007F0000EB400101EBC00104F1BC0000EB6C
:10307000810631463846FFF72DFD00207073BDE80C
:10308000F08170B505460E4606F07F0000EB40016A
:1030900001EBC00105F10C0000EB8104002E44D1CE
:1030A00095F8800102284CD1A168606A884211D944
:1030B000A168606A401A6062A168606A884201D2B1
:1030C000606A00E0A06883B200212846626900F0CF
:1030D000ADFA36E0A168206A884217D1A168A06ADB
:1030E000884213D3B5F88211A06A88420ED200201C
:1030F000206200231A461946284600F097FA00235A
:103100001A463146284600F007FA1AE06868C06897
:1031100038B195F88401032803D16868C16828464E
:103120008847284600F078F80BE06868406940B1AD
:1031300095F88401032804D168683146426928461D
:10314000904770BD70B505460E4606F07F0000EB57
:10315000400101EBC00105F1BC0000EB810426BB7E
:1031600095F8800103282CD1A168606A884211D9A2
:10317000A168606A401A6062A168606A884201D2F0
:10318000606A00E0A06883B231462846626900F0B8
:10319000C3F916E06868006918B1686801692846D3
:1031A0008847284600F058F80BE06868806940B10D
:1031B00095F88401032804D168683146826928465D
:1031C000904770BD70B504460D4604F5BA7104F51C
:1031D000B67000F04DFE012084F880014FF4B97004
:1031E000005BA4F8820194F86C0100F01F0020B18C
:1031F000012806D002280CD107E0204600F043F851
:1032000008E0204600F0F8FB04E0204600F07BF8E0
:1032100000E000BF00BF70BD10B50446052084F873
:10322000800100231A461946204600F075F910BDAA
:103230002DE9F04105460E46144605F10C07BC6227
:103240007C62022085F88001234632460021284610
:1032500000F0ECF9BDE8F08110B50446042084F8D4
:10326000800100231A461946204600F0DFF910BD00
:1032700010B504460021204600F0D5FD80212046EF
:1032800000F0D1FD10BD70B50446002504F5B676FA
:10329000307800F0600038B1606804F5B67182687B
:1032A00020469047284670BD40F26D10005D0A2808
:1032B00022D2DFE800F00509210D21111521191D89
:1032C000204600F00BFB1BE02046FFF78BFE17E0CB
:1032D000204600F093FD13E0204600F002FD0FE0D1
:1032E000204600F082FA0BE0204600F053FA07E097
:1032F000204600F01FFD03E02046FFF7B9FF00BFA6
:1033000000BF2846CFE72DE9F04104464FF0000802
:1033100004F5B6773D79387800F06000202805D1B3
:10332000606804F5B671826820469047787820B1CD
:1033300001283DD0032872D162E094F8840102286C
:1033400002D003282ED107E005F07F0018B12946EE
:10335000204600F068FD29E005F0800050B105F03E
:103360007F0000EB400101EBC00104F10C0000EB19
:10337000810609E005F07F0000EB400101EBC00190
:1033800004F1BC0000EB8106707B012801D13061A3
:1033900001E000203061022206F110012046FFF713
:1033A00047FF03E02046FFF763FF00BF00BF54E084
:1033B00094F88401022802D003281BD107E02DB124
:1033C000802D03D02946204600F02DFD16E0788898
:1033D00078B905F07F0048B129462046FFF72CFE5A
:1033E000606804F5B6718268204690472046FFF772
:1033F00033FF03E02046FFF73BFF00BF00BF2CE098
:1034000094F88401022802D003281CD108E02DB1D1
:10341000802D03D02946204600F005FD17E018E076
:10342000788830B92DB1802D03D02946204600F090
:10343000FAFC606804F5B671826820469047204621
:10344000FFF70AFF03E02046FFF712FF00BF00BFAF
:1034500003E02046FFF70CFF00BF00BF4046BDE879
:10346000F08110B504462068FFF751FD012802D114
:103470002068FFF744FD10BD70B504462568284656
:10348000FFF701FBE86820F4705000F5A050E860F9
:10349000402300221146204600F011F8402300226C
:1034A0008021204600F00BF8012084F88401606838
:1034B000406818B1606841682046884770BD2DE9B2
:1034C000F04705460E4617469846D5F8009006F098
:1034D000800060B906F07F0000EB400101EBC00105
:1034E00005F1BC0000EB81040120A0700BE006F0A8
:1034F0007F0000EB400101EBC00105F10C0000EB87
:1035000081040020A070C4F80880E7702146484676
:10351000FFF745FBBDE8F0872DE9F04305460C4673
:1035200016462F6804F07F0808EB480909EBC80924
:1035300005F1BC0808EB890191F8008007F53069B6
:1035400009EB481007F5006C4E618B614FF00008E5
:10355000C1F81C8004F07F08B8F1000F03D1D1F846
:103560000880C1F81880D1F81880B8F1000F04D095
:1035700004F07F08B8F1000F10D1D1F80890D0F80E
:10358000108069F31208C0F810804FF00109D0F8DC
:10359000108069F3DC48C0F8108018E0D1F808907A
:1035A000D1F81880C844A8F10108B8FBF9F2D1F8A5
:1035B000088008FB02F8D0F8109068F31209C0F8F0
:1035C0001090D0F8108062F3DC48C0F8108091F8B9
:1035D0000380B8F1010F17D1DCF80880C8F3002888
:1035E000B8F1000F08D1D0F8008028F0005808F199
:1035F0000058C0F8008007E0D0F8008028F080581C
:1036000008F18058C0F80080D0F8008028F0806869
:1036100008F18068C0F80080D0F8008028F00048E9
:1036200008F10048C0F80080BDE8F0832DE9F84FAC
:1036300006460F4692469B46D6F8008007F07F006C
:1036400000EB400101EBC00106F10C0000EB81042E
:10365000207808F5106101EB401508F50069C4F801
:1036600014A0C4F818B00020E061A06948B9012195
:10367000286961F3DC40286128696FF31200286132
:103680002FE007F07F0090B9A168A069884201D9B6
:10369000A068A061A169286961F312002861012175
:1036A000286961F3DC402861A069206219E0A16803
:1036B000A0690844401EB0FBF1F00090A1692869A0
:1036C00061F3120028610098296960F3DC412961E7
:1036D000E078012805D1286920F0C04000F10050B1
:1036E0002861E078012809D0A06938B1D9F8340000
:1036F0002278012191400843C9F83400E07801287C
:1037000011D1D9F80800C0F3002030B9286820F0A2
:10371000005000F10050286005E0286820F080503B
:1037200000F180502860286820F0806000F18060FF
:103730002860286820F0004000F100402860E07810
:10374000012806D1208B83B2227840466169FFF7B9
:1037500031FCBDE8F88F70B505462C68B4F1A04F78
:1037600017D180212046FFF7A7FB18220021204611
:10377000FFF7A4FB142201212046FFF79FFB142230
:1037800002212046FFF79AFB142203212046FFF76F
:1037900095FB70BD70B50446002504F5B676F0883B
:1037A000012803D02046FFF763FD1CE094F8840154
:1037B000022802D0032811D109E0002084F88801F2
:1037C000012204F5C4712046FFF732FD0AE0012210
:1037D00004F289112046FFF72BFD03E02046FFF796
:1037E00047FD00BF00BF284670BD2DE9F0470446E5
:1037F0004FF00008C14600254FF4B770005B061279
:10380000082E4BD2DFE806F04A04090E4A4A414529
:10381000A16808688047054645E0A1688868804738
:10382000054640E04FF4B770075D062F22D2DFE86F
:1038300007F003080D12171CA168086980470546A8
:1038400021E0A1684869804705461CE0A1688869B5
:103850008047054617E0A168C8698047054612E021
:10386000A168486A804705460DE0A168086A80475C
:10387000054608E0606804F5B67182682046904706
:103880004046BDE8F08700BF0DE02046FFF7F0FCA2
:1038900009E02046FFF7ECFC4046F2E72046FFF740
:1038A000E7FC4046EDE700BFB5B12888A0B14FF472
:1038B000B970005B80B129884FF4B970005B814218
:1038C00001DA288802E04FF4B970005B81464A466D
:1038D00020466968FFF7ACFC4046D2E770B5044665
:1038E000002594F88401022802D0032811D100E0B9
:1038F00000BF94F8870128B1D4F88C0140F0020091
:10390000C4F88C01022204F5C6712046FFF790FC32
:1039100003E02046FFF7ACFC00BF00BF284670BDA7
:1039200010B504466068006A20B160680521026A2B
:103930002046904710BD10B504466068006A20B16B
:1039400060680621026A2046904710BD2DE9F041CB
:103950008046D8F8006000253046FFF767FA074632
:1039600046E007F00100002840D029463046FFF726
:1039700000F9044604F0010088B140F63400805993
:103980000121A940884340F634018851012229468B
:103990003046FFF7E8F8E9B24046FFF772FB04F063
:1039A000080020B1082229463046FFF7DCF804F071
:1039B000100020B1102229463046FFF7D4F804F059
:1039C000400020B1402229463046FFF7CCF804F0F1
:1039D000020020B1022229463046FFF7C4F804F065
:1039E000800018B129464046FFF798FA6D1C7F0801
:1039F000002FB6D1BDE8F08170B50446002504F56E
:103A0000B67694F8840103280BD1606804F5B6718A
:103A1000826820469047F08810B92046FFF71CFCCA
:103A200003E02046FFF724FC00BF00BF284670BD1E
:103A30002DE9F04105462E682F1D3046FFF70AFAA2
:103A40000446706900F00100002864D104F002000F
:103A500018B102213046FFF7FBF904F4802010B1C1
:103A60003846FFF773FF04F4002010B1384600F029
:103A700054F804F4805038B1384600F097F84FF409
:103A800080513046FFF7E4F904F0080030B13846C1
:103A900000F002FA08213046FFF7DAF904F400508A
:103AA00038B13846FFF7E8FC4FF400513046FFF7D5
:103AB000CFF904F0100010B1384600F0D1F804F44A
:103AC000801038B13846FFF72BFF4FF48011304695
:103AD000FFF7BEF904F4001038B13846FFF72BFFAA
:103AE0004FF400113046FFF7B3F904F0004038B14D
:103AF000384600F0F7F94FF000413046FFF7A8F9DB
:103B000004F4006038B1384600F0D0F94FF4006199
:103B10003046FFF79DF9BDE8F0812DE9F0410446FC
:103B2000D4F8008000264046FFF789F9074639E0BF
:103B300007F00100A0B331464046FFF706F90546FD
:103B400005F0010040B1012231464046FFF7F7F889
:103B5000F1B22046FFF7F6FA05F00800C0B10822DE
:103B600031464046FFF7EBF8F1B22046FFF72AFB5B
:103B700094F8860160B194F886112068D0F80008A6
:103B800061F30A102168C1F80008002084F886015A
:103B900005F0100020B1102231464046FFF7CFF863
:103BA000761C7F08002FC3D1BDE8F0812DE9F041DC
:103BB0000646376807F500640025606820F00100BC
:103BC00060603046FFF7C7FD10213846FFF712F955
:103BD00000BF0BE0FF2107F5106000EB451081608E
:103BE00007F5306000EB451081606D1C042DF1D3AA
:103BF0004FF0FF30A0614FF00110E061606920F0EC
:103C00000100401C6061606920F00200801C60615E
:103C1000606920F0080008306061206920F0010030
:103C2000401C2061206920F00200801C2061206976
:103C300020F008000830206100213846FFF735F9F0
:103C40003846FEF731FF012086F884017068006A6B
:103C500020B170680121026A30469047BDE8F081CA
:103C60002DE9F0470746D7F8008000221021404692
:103C7000FFF7F5F8D8F82060C6F30A15C6F34349F4
:103C800006F00F0000EB400101EBC00107F1BC00A2
:103C900000EB8104B9F1020F0ED1DDB1ABB206F039
:103CA0000F0240466169FFF7EBF8606928446061E4
:103CB000E0692844E0610DE0B9F1060F0AD1ABB22A
:103CC00006F00F0207F5BA714046FFF7D9F8E06930
:103CD0002844E061012210214046FFF7C0F8BDE80A
:103CE000F0872DE9F0410446002704F5B675A88851
:103CF000D0B9E888C0B9A87800F07F0694F88401AC
:103D0000032803D12046FFF7B3FA10E084F8866158
:103D10001EB1022084F8840102E0012084F88401AD
:103D20002046FFF799FA02E02046FFF7A1FA38464D
:103D3000BDE8F08170B50446002604F5B675A87894
:103D40002D490870A888002850D1E88800284DD156
:103D500094F88401022802D0032842D115E02648B5
:103D6000007870B12448007884F88901032084F831
:103D7000840160680168204688472046FFF76CFA96
:103D800002E02046FFF768FA2FE01B48007870B980
:103D9000022084F884011848007884F8890160685A
:103DA0004168204688472046FFF756FA18E094F805
:103DB00089011149097888420FD16068416820461D
:103DC00088470D48007884F88901606801682046BA
:103DD00088472046FFF740FA02E02046FFF73CFA0A
:103DE00003E02046FFF744FA00BF02E02046FFF759
:103DF0003FFA304670BD00005000002070B5044608
:103E0000002504F5B676708801280AD184F8870168
:103E1000606804F5B6718268204690472046FFF737
:103E20001BFA284670BD2DE9F04104460D4627686F
:103E300005F0800050B105F07F0000EB400101EB80
:103E4000C00104F10C0000EB810609E005F07F00E1
:103E500000EB400101EBC00104F1BC0000EB810666
:103E600031463846FEF77CFF01207073BDE8F081D3
:103E70000A7802704A7842708B78CA7803EB022283
:103E800042800B794A7903EB022282808B79CA79CE
:103E900003EB0222C280704710B504466068C06917
:103EA00018B16068C1692046884710BD70B50446E6
:103EB000256840F60800405900F0010088B194F8E8
:103EC000840184F88501042084F884012046FFF7EA
:103ED000C8FA6068006A20B160680221026A204660
:103EE000904770BD70B50446256840F604004059FF
:103EF00020F0010140F6040041512068FEF7B9FFAF
:103F000094F8850184F884016068006A20B16068D3
:103F10000321026A2046904770BD101000F000F0A7
:103F2000011BC5F7C5F7C5F7C5F7C5D7C5D7BDD7B9
:103F3000BDD7BDD7C5D7C5D7C5D7C5F7C5F7C5F751
:103F4000BDF7BDF7C617C618CE38CE59D679D69963
:103F5000D679DEBADEBADEDADEDBDEFBDEFBE71BBD
:103F6000DEFBE71CE71CE71CE73CE73CE73CE73CE3
:103F7000E73CE73CE73CE73CE73CE73CE73CE73C29
:103F8000E71CE71CE71CE71CE71CE71CE71CE71C19
:103F9000E71CE71CE71CE71CE71CE71CE71CE71B0A
:103FA000E71CDEFBDEFBDEFBDEDBD6BACE58B596C9
:103FB00094925ACB5AAA5ACB5ACB5ACB62EB62EBA9
:103FC0005ACB5ACB5ACB5ACB5ACB62EB62EB62EB51
:103FD00062EB5ACB5AAA5AAA5AAA5AAA5AA95ACA38
:103FE00062EB736E7BCF8C318C5194929CD4A51470
:103FF000AD35AD35AD35AD35A515AD35AD35AD35D9
:10400000AD55A5149CB38C5184107BCF7BAF7BAE98
:10401000738E736D6B0C62AB526952284A284A2822
:10402000524962CA732C7B8D7BAD7BAE7BAE7BAE7F
:104030007BCE83EF84108C108C308C308C5194515B
:10404000945194719C929CB2949294518C3083EFD1
:1040500083EF84108C30947194719C929C929C920A
:104060009C929471947194719471947194919492BE
:10407000949294929CB29CD39CD3A4F3A4F3A4D323
:104080009CB294719471947194929CB29CB29CD3A2
:104090009CD39CD39CF3A514A534A535A5359CB31E
:1040A00083EF5AAA4A2842084A284A485AAA6B0B60
:1040B000736D738D736C6B4C6B4C7B8D83EF8C309D
:1040C000947194929C929C929C929C929C929C92B1
:1040D0009CB19CB19C929C919CB19CD1A4F2A513E3
:1040E000AD34A514A514A514A514A514A514A514E0
:1040F000A514A514A513A4F3A4F3A4F3A4F39CD3CB
:104100009CD3C5F7C5F7C5F7C5F7C5D7C5D7BDD784
:10411000BDD7BDD7C5D7C5D7C5D7C5F7C5F7C5F76F
:10412000C5F7BDF7C617C618CE38CE58D679D6997A
:10413000D69ADEBADEBADEDADEDBDEFBDEFBE71BBA
:10414000E71BE71CE71CE71CE73CE73CE73CE73CD8
:10415000E73CE73CE73CE73CE73CE73CE73CE71C67
:10416000E71CE71CE71CE71CE71CE71CE71CE71C37
:10417000E71CE71CE71CE71CE71CE71CE71CE71C27
:10418000E71BDEFBDEFBDEFBDEDAD69AC638B57552
:104190008C505ACB5AAA5ACB5ACB5ACB62EB62EB11
:1041A0005ACB5ACB5ACB5ACB62EB62EB62EB62EB47
:1041B0005ACB5AAB5AAA5AAA5AAA5AAA5AA95ACA9E
:1041C000630B738E83F08C318C519C92A4D4A51513
:1041D000AD35AD35AD35AD35AD15AD35AD35AD55CF
:1041E000AD35A5149CD38C51841083EF83EF83CF1E
:1041F0007BCF7B8E6B2C62CB5A8A524952284A283D
:104200005A6962EB734D7B8D7BAE7BCE7BCE7BCED2
:104210007BCE83EF83EF8C318C51945194719471E8
:1042200094719C929CB29CB29C9294518C3083EF7E
:1042300083EF84108C51947194919CB294929C92CF
:104240009C929471947194719471947194919492DC
:10425000949294929CB29CD39CD3A4F3A4F3A4D341
:104260009CB294519471947194929CB29CD39CD3BF
:104270009CD29CD39CF3A514A534A535A514949287
:104280007BAE52894A2842084A28526962CA6B2C7E
:10429000736D738D6B4C6B4C736C7BAD83EF8C507B
:1042A00094719C929C929C929C929C929C919C92C8
:1042B0009CB29CB29C919C919CB29CD2A4F2A533DE
:1042C000AD34AD34A514A513A513A514A514A514D8
:1042D000A514A514A514A4F3A4F3A4F3A4F3A4F3C0
:1042E0009CD3C5F7C5F7C5F7C5F7C5D7C5D7BDD7A3
:1042F000BDD7BDD7C5D7C5D7C5F7C5F7BDD7C5F796
:10430000BDD7C617C617CE38CE58CE58D679D69A4E
:10431000DEBADEBADEDADEFBDEFBDEFBE71BE71C25
:10432000E71CE71CE73CE73CE73CE73CE73CE73CB5
:10433000E73CE73CE73CE73CE71CE73CE71CE71CC5
:10434000E71CE71CE71CE71CE71CE71CE71CE71C55
:10435000E71CE71CE71CE71CE71CE71CE71CE71C45
:10436000E71BDEFBDEFBDEFBDEDAD699C618AD55B9
:1043700083EF5ACA5AAA5ACB5ACB5ACB5ACB62EBC2
:104380005ACB5ACB5ACB5ACB62EB62EB62EB5ACB8D
:104390005ACB5AAA5AAA528A528A5AAA5AAA5AEAEC
:1043A000630B738E83F08C3194519C92A4F4A51509
:1043B000AD35AD35AD35AD35AD15AD35AD55AD55CD
:1043C000AD35A5159CD38C518C30841083EF83F0D0
:1043D00083CF7BCF736D630C5A8A52494A28522986
:1043E0005AAA6B0C736D7BAE7BCE7BCE7BCE7BCF24
:1043F0007BCF84108C108C518C519451947194719A
:1044000094929CB29CB29CB29C9294518C1083EF7B
:1044100083EF8C108C51947194929CB294929492EC
:104420009CB29471947194719471947194919492DA
:1044300094929CB29CB29CD3A4D3A4F3A4F3A4D32F
:104440009CB29471947194719CB29CB29CB29CD3B6
:104450009CD39CD39CF3A514A514A5159CF48C7235
:10446000738D52694A2842084A28528962EB6B2CA4
:10447000738D738D6B2C6B4C736C7BAE8C0F947146
:104480009C92949294929C929C919C929C929CB2AD
:104490009CB29CB29C919CB29CD2A4F2A513A53371
:1044A000AD34AD34A514A514A514A514A514AD34CC
:1044B000AD34A514A514A514A4F3A4D3A4F3A4F3B4
:1044C0009CF3C5F7C5F7C5F7C5F7C5D7C5D7BDD7A1
:1044D000BDD7BDD7C5D7C5D7C5F7C5F7BDD7BDD7DC
:1044E000BDD7C617C618CE38CE59CE59D679DEBA42
:1044F000DEBADEBADEDADEFBDEFBE71BE71CE71C1A
:10450000E73CE71CE73CE73CE73CE73CE73CE73CB3
:10451000E73CE73CE73CE73CE71CE71CE71CE71C03
:10452000E71CE71CE71CE71CE71CE71CE71CE71C73
:10453000E71CE71CE71CE71CE71CE71CE71CE71C63
:10454000DEFBDEFBDEFBDEFBD6BACE79BDF7AD349B
:104550007BAE528A5AAA5ACB5ACB5ACB5ACB5ACB99
:104560005ACB5ACB5ACB5ACB62EB62EB62EB5ACBAB
:104570005ACB5AAA5AAA528A528A5AAA5ACA62EBE1
:10458000630C7BAE83F08C3194729C93A4F4A515DC
:10459000AD35AD35AD15AD15AD15AD35AD35AD356B
:1045A000AD35A5149CD38C518C308C1083F08C10BD
:1045B00083F083CF738E6B2C5AAA4A494A495249D9
:1045C0005AAA6B2C738E7BCF83CF7BCF7BCF83EFAD
:1045D00083EF84108C308C51945194719471947148
:1045E00094719C929CB29CB294718C308C1083EF2D
:1045F00084108C109471949294929CB294929492A0
:104600009CB29491947194719471947194929CB2AF
:1046100094929CB29CB29CD3A4D3A4F3A4F3A4D34D
:104620009CB29471947194719CB29CB29CB29CD3D4
:104630009CB29CD3A4F3A514A514A5159CB38C51CE
:104640006B4D4A494A084A284A28528962EB6B4C0A
:10465000738D738D6B2C6B2C736C7BCE8C30947143
:104660009C929C929C929C929C929CB29CB29CB27A
:104670009CB29CB294919CB29CD2A4F3A513A513B6
:10468000AD34A514A514A514A514A514A514AD3412
:10469000AD34A514A514A514A4F3A4F3A4F3A4F3B2
:1046A0009CF3C5F7C5F7C5F7C5F7C5D7C5D7C5D7B7
:1046B000BDD7BDD7C5D7C5D7C5F7BDD7BDD7BDD722
:1046C000BDD7C5F7C618CE38CE58D679D679DE9A7A
:1046D000DEBADEBADEDADEFBE71BE73CE71CE71CEE
:1046E000E71CE71CE73CE73CE73CE73CE73CE73CF2
:1046F000E73CE73CE73CE73CE71CE71CE71CE71C22
:10470000E71CE71CE71CE71CE71CE71CE71CE71C91
:10471000E71CE71CE71CE71CE71CE71CE71CE71B82
:10472000DEFBDEFBDEFBDEFBD6BACE79BDD69CD34C
:104730006B4C528A5AAA5ACB5ACB5ACB5ACB5ACB29
:104740005ACB5ACB5ACB5ACB62EB62EB62EB5ACBC9
:104750005ACB528A528A528A528A5AAA5ACA630B2E
:104760006B2C7BAF84108C5194729C93A4F4AD3568
:10477000AD35AD35AD15AD15AD35AD35AD55AD5529
:10478000AD35A4F49CB394518C318C108C108C31C9
:10479000841083F07BAE6B2D5AAA52694A49526944
:1047A0005ACB6B4D7BAE7BCF83EF83EF83EF83EFF1
:1047B00084108C308C3094519471947194719471F4
:1047C00094929CB29CB29CB294718C30841083EF12
:1047D00084108C309471949294929CB2949294929E
:1047E000949294719471947194719471949294715F
:1047F00094929CB29CB29CB2A4D3A4F3A4F39CB2B6
:104800009C92947194719C929CB29CB29CD29CD3C9
:104810009CD39CD3A4F3A514A514A51594B37BF045
:10482000632C4A4942084A294A495AAA62EB736DE5
:10483000738D738D6B2C6B2B736C83CE8C3094715A
:1048400094929CB29492949294929C929CB29CB2B8
:104850009CB29CB294919CB29CF2A4F3AD34AD3462
:10486000AD34A514A514A514A514A514A514AD3430
:10487000A514A514A514A4F3A4F3A4F3A4F39CD342
:104880009CD2C5F7C5F7BDD7BDD7C5D7C5D7C5D746
:10489000BDD7BDD7C5D7C5D7C5F7C5F7C5F7C5F7C8
:1048A000C5F7C618CE38CE38CE59D679DE9ADEBADC
:1048B000DEBADEBADEFBDEFBE71BE71CE71CE71C0B
:1048C000E71CE71CE73CE73CE73CE73CE73CE73C10
:1048D000E73CE73CE73CE73CE71CE71CE71CE71C40
:1048E000E71CE71CE71CE71CE71CE71CE71CE71CB0
:1048F000E71CE71CE71CE71BDEFBDEFBDEFBE71B20
:10490000DEFBDEFBDEFBDEFBD6BACE58B5969CB2F4
:10491000630C5AAA5ACB5ACB5ACB5ACB5ACB5ACB46
:104920005ACB5ACB5ACB5ACB5ACB5ACB5ACB5ACB5F
:104930005AAA528A528A528A5AAA5AAA5ACA630B45
:104940006B4C7BCF8C318C5194729C93A4F4AD153D
:10495000AD15AD15AD15AD15AD35AD35AD55AD5587
:10496000AD35A4F49CB394728C318C518C518C5124
:104970008C3184107BAF6B2D5AAA52695269528ACE
:1049800062EB738D7BCF83EF83EF83EF83EF840F35
:104990008C308C308C3094719471947194929C9280
:1049A0009CB29CB29CB29C9294718C308410841006
:1049B0008C308C519471949294929CB29CB294924B
:1049C000947194719471947194719492949294915D
:1049D000949294929CB29CB2A4F3A4F3A4F39CB2DC
:1049E0009492947194719C929CB29CD39CD39CD3CE
:1049F0009CF39CF3A514A514A514A53594B37BCF03
:104A0000630C4A494A084A2852695ACB6B2C736D89
:104A1000738D736C6B2B6B2B738D83EF8C50947138
:104A200094929CB294929CB29C929CB29CB29CB286
:104A30009CB29CB29CB29CB2A4F3A513AD34AD342D
:104A4000AD34AD14A514A514A514A514A514A5146E
:104A5000A514A514A513A4F3A4F3A4F3A4F39CD361
:104A60009CD2C5F7C5F7BDD7BDD7C5D7C5D7BDD76C
:104A7000C5D7C5D7C5D7C5D7C5F7C5F7C5F7C5F7D6
:104A8000C5F7C618CE38CE38D679D679DE9ADEBAD2
:104A9000DEBADEBADEFBDEFBE71BE71CE71CE71C29
:104AA000E71CE71CE73CE73CE73CE73CE73CE73C2E
:104AB000E73CE73CE73CE73CE71CE71CE71CE71C5E
:104AC000E71CE71CE71CE71CE71CE71CE71CE71CCE
:104AD000E71CE71CE71CE71BE71BDEFBDEFBDEFB3E
:104AE000DEFBDEFBDEFBDEDBD6BAC638B5958C51CD
:104AF00062EB5AAA5ACB5ACB5ACB5ACB5ACB5ACB87
:104B00005ACB5ACB5ACB5ACB5ACB5ACB5ACB5ACB7D
:104B10005AAA528A528A528A5AAA5AAA5ACB62EB83
:104B20006B4D7BCF8C318C5194729CB3A4F4A51542
:104B3000AD15AD15AD15AD15AD35AD35AD55AD35C5
:104B4000AD35A4D49C938C518C31943194518C51BB
:104B50008C3183F07BAF6B0C5AAA528A528A5AAAC4
:104B6000630B7BAE83EF840F83EF83EF83EF8410BF
:104B70008C308C30945194719471949294929C9254
:104B80009CB29CB29CB2949294718C30841084102C
:104B90008C308C51947194929CB294929CB2949269
:104BA000947194719471947194719C929492947193
:104BB000949294929CB29CB2A4D3A4F3A4F39CD3F9
:104BC0009492949194919C929CD39CD39CD39CF36B
:104BD0009CF3A514A514A514A535A51594927BCF17
:104BE000630C4A2842084A28526A62CB6B2C738DA8
:104BF000738D6B4C6B2B6B4B7BAD83EF8C50949117
:104C000094929CB294929CB29C929CB29CB29CB2A4
:104C10009CB29CB29CB29CD2A513AD14AD14AD3421
:104C2000AD14AD14A514A514A514A514A514A514AC
:104C3000A514A513A4F3A513A4F3A4F3A4F39CD380
:104C40009CD2C617C5F7BDD7BDD7C5D7C5D7BDD769
:104C5000C5D7C5D7C5D7C5D7C5F7C5F7C5F7C5F7F4
:104C6000C5F7C618CE38CE58D679D679D69ADEBAD8
:104C7000DEBADEBADEFBDEFBE71CE71CE71CE71C46
:104C8000E71CE71CE73CE73CE73CE73CE73CE73C4C
:104C9000E73CE73CE73CE73CE71CE71CE71CE71C7C
:104CA000E71CE71CE71CE71CE71CE71CE71CE71CEC
:104CB000E71CE71CE71CDEFBDEFBDEFBDEFBDEFBAE
:104CC000DEFBDEFBDEFBD6BAD6BAC617AD758C307E
:104CD0005ACA5ACA5ACB5ACB5ACB5ACB5ACB5ACBAE
:104CE0005ACB5ACB62EB5ACB5ACB5ACB5ACB5ACB74
:104CF0005AAA5AAA528A528A5AAA5AAA5ACB630C58
:104D00006B4D83F08C318C5194929CB3A514AD15EE
:104D1000AD15AD35AD15AD15AD35AD35AD55AD35C3
:104D2000AD359CD394728C318C3194319452945221
:104D30008C3183F07BAF6B0C5AAB528A528A5ACAC1
:104D40006B2C7BAE83EF83EF840F840F84108C3049
:104D50008C308C519451947194929C929C929C9220
:104D60009CB29CB29CB2947194518C1083EF8410CD
:104D70008C308C51947194929CB29C929C9294929F
:104D800094719471947194719471947194929492B9
:104D900094929C929CB29CD3A4F3A4D3A4D39CB22F
:104DA0009492949194929CB29CD39CD39CF39CF348
:104DB0009CF39D14A534A534A5359D148C9273CF16
:104DC000630C4A2841E84A29528A62EB6B4C738D86
:104DD000736C6B4B6B4B6B4B7BAD840F94719492EC
:104DE000949294B294929CB29CB29CB2A4D39CB282
:104DF0009CB29CB29CB29CD2A4F3AD14AD34AD3441
:104E0000AD34AD34AD34AD34AD34AD34A514A514EA
:104E1000A514A513A513A4F3A4F3A4F3A4F39CD39E
:104E20009CB2C617C5F7C5D7BDD7C5D7C5D7C5D797
:104E3000C5D7C5D7C5D7C5D7C5F7C5F7C5F7C5F712
:104E4000C5F7C618CE38CE59D679D699D69ADEBAD5
:104E5000DEBADEDADEFBDF1BE71CE71CE71CE71C23
:104E6000E71CE73CE73CE73CE73CE73CE73CE73C4A
:104E7000E73CE73CE73CE73CE71CE71CE71CE71C9A
:104E8000E71CE71CE71CE71CE71CE71CE71CE71C0A
:104E9000E71CE71CE71CE71BDEFBDEFBDEFBDEFBA3
:104EA000DEFBDEFBDEFBD6BAD699BDF7A53483EF79
:104EB0005AAA5AAA5ACB5ACB5ACB5ACB5ACB5ACB0C
:104EC0005ACB5ACB5ACB5ACB5ACB5ACB5ACB5ACABB
:104ED0005AAA528A528A528A5AAA5AAA5ACB630C9E
:104EE000736D84108C5194729C939CD3A4F4A4F49D
:104EF000AD15AD15AD15AD15AD35AD35AD35AD3522
:104F0000AD159CB394728C318C318C318C518C31B9
:104F10008C3183F07BAE630C5AAA5289528A5ACBE9
:104F20006B4D7BCF83EF83EF840F83EF84108C3046
:104F30008C51945194719C729C929C929C929C92E4
:104F40009CB29CB29C9294719451841084108410F1
:104F50008C308C51947194929C929C929C929471FE
:104F60009471947194719471947194719471947119
:104F7000949294929CB29CD3A4D3A4F3A4D39CB255
:104F80009492949194929CD39CD39CD39CF39CF345
:104F90009CF4A514A515A515A5149CF48C51738E2D
:104FA0005ACB4A084A084A495A8A630B734C736CB5
:104FB000736C6B4B6B2B6B2C7BCE8C2F9471949101
:104FC00094929CB29CB29CB29CB29CB29CD39CD258
:104FD0009CB29CB29CD2A4F3A513AD34AD34AD34D5
:104FE000AD34AD14AD34AD34AD34AD14AD14AD1439
:104FF000A513A4F3A4F3A4F3A4F3A4F39CD39CD328
:105000009CD2C617C5F7BDD7BDD7C5D7C5D7BDD7A5
:10501000C5D7C5D7C5D7C5D7C5F7C5F7C5F7C5F730
:10502000C5F7C618CE38CE59D679D69ADEBADEBACA
:10503000DEDBDEDBDEFBDF1BE71BE71CE71CE71C20
:10504000E71CE73CE73CE73CE73CE73CE73CE73C68
:10505000E73CE73CE73CE73CE71CE71CE71CE71CB8
:10506000E71CE71CE71CE71CE71CE71CE71CE71C28
:10507000E71CE71CE71CE71BDEFBDEFBDEFBDEFBC1
:10508000DEFBDEFBDEFBD6BACE79BDD79CF3736DBB
:105090005AAA5ACB5ACA5ACB5ACB5ACB5ACB5ACB0A
:1050A0005ACB5ACB5ACB5ACB5ACB5ACB5ACB5AAAF9
:1050B0005AAA528A528A528A5AAA5AAA5ACB6B2C94
:1050C000736D84108C5194929CB3A4D4AD15AD151E
:1050D000AD35AD35AD15AD15AD35AD35AD35AD3500
:1050E000A5149CB394728C318C318C318C518C31E1
:1050F0008C318C107B8E62EB5AAA528A5AAA630BAF
:10510000736D7BCF83EF840F841083EF84108C301A
:10511000945194719C929C929C929C929C929C9291
:105120009C929C92947194718C30841084108410A1
:105130008C308C51947194929C929C929C9294711C
:105140009471947194719471947194719471947137
:105150009C929CB29CD29CD3A4F3A4F3A4D39CB203
:10516000949294919CB29CD3A4F39CF39CF3A514C9
:10517000A514A514A515A515A5149CD384106B4DD5
:10518000528A4A084A0852495AAA6B0C736C736CCB
:10519000736C6B2B6B2B734C83CE8C2F947194910F
:1051A00094929CB29CB29CB29CB29CD29CD29CD257
:1051B0009CD29CD29CD2A4F3A533AD34AD34AD3493
:1051C000AD34AD14A514AD34AD34AD34AD34AD143F
:1051D000A513A4F3A4F3A4F3A4F3A4F39CD39CD346
:1051E0009CD2C617C5F7BDD7BDD7C5D7C5D7BDD7C4
:1051F000C5D7C5D7C5D7C5F7C5F7C5F7C5F7C5F72F
:10520000C5F7CE38CE38CE79D699D69ADEBADEDA60
:10521000DEDBDEDBDEFBDF1BE71BE71CE71CE71C3E
:10522000E71CE73CE73CE73CE73CE73CE73CE73C86
:10523000E73CE73CE73CE73CE71CE71CE71CE71CD6
:10524000E71CE71CE71CE71CE71CE71CE71CE71C46
:10525000E71CE71CE71CDEFBDEFBDEFBDEFBDEFB08
:10526000DEFBDEFBDEFBD69ACE58B5B694B2630CFD
:105270005AAA5ACB5AAA5ACB5ACB5ACB5ACB5ACB48
:105280005ACB5ACB5ACB5ACB5ACB5ACB5ACB5AAA17
:10529000528A528A528A528A5AAA5AAA5ACB6B2CDA
:1052A000736D84108C5194729CB3A4F4AD35AD151C
:1052B000AD15AD15AD15AD15AD35AD35AD35AD355E
:1052C000A5149C9394528C318C318C318C518C511F
:1052D0008C3183F0736E62EB5AAA528A5AAA6B2CF5
:1052E000738D83EF841084108410840F84108C30AD
:1052F000945194719C929C929C929C9294929C92B8
:105300009C929492947194518C3083EF84108C1001
:105310008C309451949194929C929C92949294711A
:105320009471947194719471947194719471947155
:105330009C929CB29CD2A4F3A4F3A4F39CD39CB201
:10534000949294919CB29CD3A4F4A514A514A51492
:10535000A514A534A535A535A5159CD383F0632CDC
:10536000528A4A084A0852495ACB6B2C736D736CA7
:105370006B4C6B2B6B2B738D83CE8C4F94919492D3
:1053800094929CB29CB29CB29CB29CD29CD29CD275
:105390009CD29CD29CF2A513A533AD34AD34AD3470
:1053A000AD34AD14A514AD34AD34AD14AD14A514A5
:1053B000A514A514A513A4F3A4F3A4F39CD39CD320
:1053C0009CD2C617C5F7BDD7BDD7BDD7BDD7BDD7F2
:1053D000C5D7BDD7BDD7C5F7C5F7C5F7C5F7C5F75D
:1053E000C5F7CE38CE38CE79D699D69ADEBADEDA7F
:1053F000DEDBDEDBDEFBDEFBE71BE71CE71CE71C7E
:10540000E71CE73CE73CE73CE73CE73CE73CE73CA4
:10541000E73CE73CE73CE73CE71CE71CE71CE71CF4
:10542000E71CE71CE71CE71CE71CE71CE71CE71C64
:10543000E71CE71CE71CDEFBDEFBDEFBDEFBDEFB26
:10544000DEFBDEFBDEFBCE99C638AD958C715ACA09
:105450005AAA5ACB5ACA5ACB5ACB5ACB5ACB5ACB46
:105460005ACB5ACB5ACB5ACB5ACB5ACB5ACB5AAA35
:10547000528A528A528A528A5AAA5AAA5ACB6B2CF8
:10548000738E8C308C5194729CB3A514AD35AD35B0
:10549000AD35AD35AD15AD15AD15AD15A515A515CC
:1054A000A4F494928C518C318C318C318C518C3190
:1054B0008C3183F0734D62EB5AAA528A5ACB6B4DF2
:1054C0007BAE83EF84108410841084108C308C3079
:1054D000947194929C929C929C92949294929C929D
:1054E0009CB2949294718C518C1083EF84108C1028
:1054F0008C309451949294929C929C929492947138
:105500009471947194719471947194719471947173
:105510009CB29CB29CD3A4F3A4F3A4F39CD39CB2FE
:10552000949294919CB29CD3A4F4A4F4A514A514D1
:10553000A534A534A535A535A5149CB37BF0630C23
:10554000528A42084A28526962CB6B4C734C736C86
:105550006B2C6B2C6B2C7B8D83CE8C509491949206
:1055600094929CB29CB29CB29CD29CD29CD29CD273
:105570009CD29CD2A4F3A513A513AD34AD34AD34A5
:10558000AD14AD14A514AD34AD34AD34AD14A514C3
:10559000A514A514A514A4F3A4F3A4D39CD39CD35D
:1055A0009CD2C5F7C5F7C5F7C5F7BDD7BDD7BDD7E1
:1055B000BDD7BDD7C5F7C5F7C5F7C5F7BDD7C5F783
:1055C000C618CE38D679CE79D69AD6BADEBADEDA11
:1055D000DEDBDEFBDEFBE71BE71CE71CE71CE73C32
:1055E000E73CE73CE73CE73CE73CE73CE73CE73CA3
:1055F000E73CE71CE71CE71CE71CE71CE71CE71C73
:10560000E71CE71CE71CE71CE71BDEFBE71BE71CAE
:10561000E71CE71CE71CE71BDEFBDEFBDEFBDEFB1B
:10562000DEFBDEFBDEDACE79C638AD5584105AAA31
:105630005AAA5ACA5AAA5ACB5ACB5ACB5ACB5ACB85
:105640005ACB5ACB5ACB5ACB5ACB5ACB5ACB5AAA53
:10565000528A528A528A5AAA5AAA5ACB62EB6B2CA5
:10566000738D8C30947194729CB3A514AD35AD35A7
:10567000AD35AD35AD35AD35AD35AD35AD35A51542
:10568000A4F494728C318C318C118C3194528C3105
:105690008C317BCF6B2D62EB5AAA528A62EB736D11
:1056A0007BCE8410841084108C308C108C308C3025
:1056B000947194929C929C929492947194929C92E4
:1056C0009492947194718C518C10841083EF8C306F
:1056D0008C30945194929CB29CB29CB294929471EE
:1056E00094719471947194929492949294929492ED
:1056F0009CB29CD39CD3A4F3A4F3A4F39CD39CB2FC
:10570000949294929CB29CD3A4F3A4F39CF3A5141A
:10571000A514A534A514A5149CF48C7273AE630C67
:105720004A4942084A28528962EB6B4C736D6B4CB4
:105730006B2C6B2C6B4C7B8D83EF947094919CB293
:105740009CB294929CB29CD29CD29CD29CD29CD271
:105750009CD29CD2A4F3A513AD34AD34AD34AD14BA
:10576000AD14A514A514A514AD14AD34AD14A4F353
:10577000A513A513A4F3A4F3A4F3A4D39CD39CD39F
:105780009CD2C5F7C5F7C5F7C5F7BDD7BDD7BDD7FF
:10579000BDF7BDF7BDF7C5F7C5F7C5F7BDD7C5F769
:1057A000C618CE38D679D679D69AD6BAD6BADEDB2E
:1057B000DEFBDEFBDEFBE71BE71CE71CE71CE73C30
:1057C000E73CE73CE73CE73CE73CE73CE73CE73CC1
:1057D000E73CE71CE71CE71CE71CE71CE71CE71C91
:1057E000E71CE71CE71CE71CE71BDEFBE71BE71CCD
:1057F000E71CE71CE71CE71BDEFBDEFBDEFBDEFB3A
:10580000DEFBDEFBDEDACE79BDF7A53473AE528A5D
:105810005AAA5ACA5ACA5ACA5ACA5ACB5ACB5ACB85
:105820005ACB5ACB5ACB5ACB5ACB5ACB5ACA528A9A
:10583000528A528A528A5AAA5AAA5ACB630B6B4D81
:10584000738E8C51947194929CD3A514AD35AD3563
:10585000AD35AD35AD35AD35AD35AD35AD35A51560
:10586000A4F494728C318C318C318C318C528C310B
:105870008C317BAF6B0C5ACB5ACA5AAA630C738E0D
:105880007BCF841084108C308C308C308C308C51D9
:1058900094719471947194719471947194719492BF
:1058A000947194718C518C308410841084108C30DD
:1058B0008C30945194919CB29CB294929491947136
:1058C000947194719471949194929491947194922E
:1058D0009CB29CD39CD3A4F3A514A4F39CD39CB2F8
:1058E000949294929CB29CD3A4F3A4F39CF3A51439
:1058F000A514A534A514A5359CD48C516B6D5AAA5A
:105900004A2842084A285AAA630B736D736D6B4C80
:105910006B2C6B2C6B4C7BAD840F947094919CB270
:105920009CB29CB29CD29CD29CD29CD29CD39CD345
:105930009CD29CD3A4F3A513AD54AD54AD34AD1497
:10594000AD14A514A514A514AD34AD34A514A4F359
:10595000A4F3A4F3A4F3A4F3A4F3A4D39CD39CD3FF
:105960009CD2C5F7C5F7C5F7C5F7BDD7BDF7BDF7DD
:10597000BDF7BDF7BDF7BDF7C5F7C5F7C5F7C5F767
:10598000C618CE38CE79D679D6BAD6BADEDADEFBEC
:10599000DEFBDEFBDEFBE71BE71CE71CE71CE73C4E
:1059A000E73CE73CE73CE73CE73CE73CE73CE73CDF
:1059B000E73CE71CE71CE71CE71CE71CE71CE71CAF
:1059C000E71CE71CE71CE71CE71BDEFBE71BE71CEB
:1059D000E71CE71CE71CE71BDEFBDEFBDEFBDEFB58
:1059E000DEFBDEFBDEBACE58BDD6A4F36B4D52898A
:1059F0005AAA5ACA5ACA5ACA5ACA5ACA5ACA5ACBA6
:105A00005ACB5ACB5ACB5ACB5ACB5ACA5AAA528AD9
:105A1000528A528A528A5AAA5AAA62EB630C736D4E
:105A20007BAE8C51947194929CD4A515AD35AD3557
:105A3000AD35AD35AD35AD35AD35AD35AD35A5157E
:105A4000A4F494728C318C318C318C318C528C3129
:105A50008C117BAF6B0C5ACB5ACA5ACA6B2C7BAEDB
:105A600083EF84108C308C308C308C308C3094519F
:105A700094719471947194719471947194719492DD
:105A8000947194718C518C1083EF841084108C303D
:105A90008C51945194919CB29CB294929491947133
:105AA000947194719471947194919491949294924C
:105AB0009CB2A4D3A4D3A4F3A4F3A4F39CD39C9248
:105AC00094929CB29CD29CD3A4F3A4F49CF3A5140E
:105AD000A534A535A535A5159CD37BF0630C528A5A
