:020000040800F2
:1000000090340020890100089D140008191100088F
:10001000B9130008F10B0008DD2100080000000002
:100020000000000000000000000000003D18000873
:100030005D0E00080000000091150008BD190008C1
:10004000A3010008A3010008A3010008A301000800
:10005000A3010008A3010008A3010008A3010008F0
:10006000A3010008A3010008A3010008310C000847
:10007000A3010008A3010008A3010008A3010008D0
:10008000A3010008A3010008A3010008A3010008C0
:10009000A3010008A3010008A3010008A3010008B0
:1000A000A3010008A3010008A3010008A3010008A0
:1000B000A3010008A3010008A3010008A301000890
:1000C000A3010008A3010008A301000845160008C9
:1000D0001D170008591D0008851D0008B11D0008E6
:1000E000A3010008A3010008B114000800000000EB
:1000F0000000000000000000000000000000000000
:1001000000000000A3010008A30100080000000097
:10011000A3010008A3010008000000000000000087
:10012000A3010008A3010008A3010008A30100081F
:1001300000000000000000000000000000000000BF
:10014000000000000000000000000000A1140008F2
:100150000000000000000000A3010008A301000847
:10016000000000000000000000000000A3010008E3
:10017000DFF810D000F086FB00480047053000088B
:10018000AFF30080903400200648804706480047BF
:10019000FEE7FEE7FEE7FEE7FEE7FEE7FEE7FEE737
:1001A000FEE7FEE7E91A0008710100082DE9F05F9B
:1001B0000546002092469B468846064681464024D6
:1001C0001BE0284641464746224600F0A5FA534622
:1001D0005A46C01A914110D311461846224600F0E3
:1001E0008CFA2D1A67EB01084F46224601200021A8
:1001F00000F083FA17EB00094E41201EA4F1010420
:10020000DFDC484631462A464346BDE8F09F40EAD7
:1002100001039B0703D009E008C9121F08C0042A84
:10022000FAD203E011F8013B00F8013B521EF9D26B
:100230007047D2B201E000F8012B491EFBD2704793
:100240000022F6E710B513460A4604461946FFF7A2
:10025000F0FF204610BD421C10F8011B0029FBD105
:10026000801A704780EA010210B502F00043400096
:1002700022D04A001FD0010E01EB1261C0F35600DC
:10028000C2F3560240F4000042F40002A0FB022038
:1002900000047F39140400D0401C50EA124001D4FD
:1002A0004000491EC2B20C0604EBD010401C4008AE
:1002B000802A02D003E0002010BD20F001000029B8
:1002C00000DA0020184310BD30B480EA010202F0C9
:1002D000004530F0004221F0004013D090B1C30D32
:1002E000D40DC2F31601C0F31600E41A41F4000164
:1002F00040F400027D34914201D3641C00E04900C7
:10030000002C02DA30BC002070474FF400000023BC
:10031000914201D3891A034340084FEA4101F7D1C2
:1003200051B1914202D14FF0004105E002D24FF0AD
:10033000010101E06FF0010103EBC450284430BC1F
:1003400000F00CBA2DE9FE4F804681EA0300C00F91
:100350000C46009021F0004123F00045B8EB02006C
:10036000A94105D24046214690461C460B4602460E
:1003700023F00040104347D0270DC7F30A00C3F312
:100380000A510290401A019040286BDAC3F313001F
:1003900040F4801B0098924620B10023D2EB030A60
:1003A00063EB0B0B01985946C0F14002504600F038
:1003B000A4F906460D4650465946019A00F0BCF98C
:1003C00010EB08006141002487EA115284EAE773C8
:1003D0001A4340D0009A62B3019A012A4FEA0752A9
:1003E00015DC001B61EB02014FF0004202EA0752EC
:1003F000CDE90042001C41F5801132462B4600F049
:10040000F3F903B0BDE8F08F40462146F9E7001B41
:1004100061EB0201001C41F5801300185B412018BC
:10042000A2F5001747EB030140EAD570B6196D41FC
:1004300011E06D084FEA360645EAC0754FEA0752EB
:10044000001B61EB0201001C41F5801149084FEAD5
:1004500030000019514132462B4603B0BDE8F04F41
:1004600000F0B3B90098012240000023D0EB020253
:1004700063EBE073009821464FEAE074B8EB0000AC
:1004800061EB0401E9E783F000435BE781F00041A1
:1004900058E72DE9FE4F81EA030404F0004421F0FF
:1004A000004100944FF0000B23F0004350EA010498
:1004B0005ED052EA03045BD0C3F30A54C1F30A5579
:1004C0002C44A4F2F3340194A0FB0254C1F31301B1
:1004D00041F48011C3F3130343F4801301FB02447E
:1004E00000FB034E840A970A44EA815447EA835783
:1004F000A4FB076802958D0A05FB07854FEA932C3C
:1005000004FB0C542705029D4FEA065847EA1637AC
:10051000B5EB08056EEB070C870E920E47EA8117C4
:1005200042EA8312A7FB0201B6EB0B0164EB000465
:100530002B0D43EA0C335E1844EB1C50DA4651464F
:10054000E7FB0201C5F313044FEA0B3343EA1453EC
:100550004FEA0432019C43EA0603A4F10C0402941E
:10056000009CCDE900B400F03FF903B0BDE8F08F86
:1005700000200146F9E72DE9F04D81EA030404F07B
:10058000004B21F0004514464FF0000A23F00041D3
:1005900050EA050220D054EA01021DD0C5F30A57E3
:1005A0000246C5F31303C1F31300C1F30A5640F426
:1005B000801543F48013A7EB0608101BD64608F2FB
:1005C000FD3873EB050002D308F1010801E0921831
:1005D0005B41B8F1000F03DA00200146BDE8F08D61
:1005E00000204FF48011064684460EE0171B73EB83
:1005F000050705D3121B63EB050306434CEA010C08
:1006000049084FEA300092185B4150EA0107EDD1EA
:1006100052EA030012D082EA040083EA050108438B
:1006200005D0101BAB4106D20122002306E00022B8
:100630004FF0004302E06FF0010253101AEB060086
:100640004CEB085110EB0A0041EB0B01BDE8F04DFB
:1006500000F0BBB8C10F80EAE0700844CA079623D7
:10066000002100F084B896230022114600F07FB8E4
:1006700000F0004230F000400AD0C10D01F5607179
:10068000C0F3160042EA0151C20840071143704707
:1006900000200146704701F0004330B421F00041D2
:1006A00050EA010206D00A0DA2F56072C1F31301EF
:1006B000002A02DC30BC00207047440F44EAC10429
:1006C000C100E01830BC00EBC25000F047B830B5B4
:1006D0000B46014600202022012409E021FA02F500
:1006E0009D4205D303FA02F5491B04FA02F528449A
:1006F000151EA2F10102F1DC30BD202A04DB203AF4
:1007000000FA02F1002070479140C2F1200320FA64
:1007100003F3194390407047202A04DB203A21FA62
:1007200002F00021704721FA02F3D040C2F120020A
:100730009140084319467047202A06DBCB17203A20
:1007400041FA02F043EAE07306E041FA02F3D040D6
:10075000C2F1200291400843194670470029A8BF02
:100760007047401C490008BF20F00100704710B4DA
:10077000B0FA80FC00FA0CF050EA010404BF10BC8F
:10078000704749B1CCF1200421FA04F411FA0CF1BC
:1007900018BF012121430843A3EB0C01CB1D4FEAF5
:1007A00000614FEA102042BF002010BC704700EBF0
:1007B000C35010440029A4BF10BC7047401C49001E
:1007C00008BF20F0010010BC704710B5141E73F173
:1007D000000408DA401C41F1000192185B411A4301
:1007E00001D120F0010010BD2DE9F04D92469B464D
:1007F00011B1B1FA81F202E0B0FA80F220329046F3
:10080000FFF77BFF04460F4640EA0A0041EA0B016E
:1008100053465A46084313D0114653EA010019D0F3
:10082000C8F140025046FFF777FF05460E46504696
:1008300059464246FFF761FF084305D0012004E016
:1008400020463946BDE8F08D0020054346EAE076B3
:100850002C4337430A986305E40AA0EB0800002202
:10086000FD0A44EA47540A3002D500200146E9E770
:10087000010510196941DDE9084500196941BDE824
:10088000F04DA2E7064C074D06E0E06840F001039A
:1008900094E8070098471034AC42F6D3FFF76CFC9D
:1008A0002C6B00084C6B000830B585B004460D4633
:1008B000684602F0E2F901214FF4A01002F0ACF812
:1008C000002211460B2002F01FFC154802F040FAEE
:1008D000A8B2ADF80A000020ADF808000194114854
:1008E000009001208DF80F008DF80D008DF80E009E
:1008F00000208DF80C0002208DF8110001208DF8E9
:1009000010006946064802F0EBF901220221044872
:1009100002F014FA0121024802F0AAF905B030BD34
:10092000080002404C24014070B504462046FFF701
:1009300091FE05464FF08B412846FFF7C5FC054662
:10094000034801682846FFF78DFC0546284670BD20
:10095000200000201CB50446684602F0C4FA04B921
:100960001CBD0121174802F057F801211548401C11
:1009700002F052F803208DF8060004208DF80500DF
:1009800000200090009840F001000090009840F096
:1009900002000090009840F00400009069460A4868
:1009A00002F0ACFA00200090009840F001000090A6
:1009B000009840F0020000906946044802F09EFA58
:1009C00000BFCDE70200180000080140000C014004
:1009D00010B50F480068122800DD10BD002004E0AB
:1009E00000210C4A22F81010401C0949096888426D
:1009F000F6DB0121084801F088FE00BF07480088A7
:100A00000028FBD000200549088000BFE5E7000072
:100A100028000020BC2A0020002401402C000020D7
:100A20002DE9FE4F0020029001211B4801F06DFED0
:100A300000BF1A4800880028FBD000201749088012
:100A400017490968491E174A32F81100FFF70BFED3
:100A50000290154801680298FFF704FC4FF08B41A3
:100A60000090FFF731FC0190FFF702FE80460F4A2D
:100A70000F4BFFF70BFD06460E4A0F4BFFF77BFDB2
:100A8000044600220D4BFFF75DFC8246FFF703FE94
:100A900002900298BDE8FE8F002401402C00002047
:100AA00028000020BC2A002020000020295C8FC2E2
:100AB000F528F43F33E197FA795371BF00003940CC
:100AC00038B505460121394801F0A6FF022001F0A2
:100AD0002BFE2846FFF73EFF01242246641C072315
:100AE0000021334801F02DFD2246641C072301211B
:100AF0002F4801F026FD2246641C072302212C48C2
:100B000001F01FFD2246641C07230821284801F03C
:100B100018FD2246641C07230921254801F011FD18
:100B20002246641C07231021214801F00AFD012000
:100B300001F0F0FD601E1F490860084601681E486C
:100B4000FFF7B2FE684601F0CDFC01208DF80000F1
:100B500000208DF801008DF80200164800788DF80D
:100B600003006946124801F0A7FC01220721104842
:100B700001F0B1FD01210E4801F0D9FC01210C4822
:100B800001F0DAFC0A4801F0B4FC00BF084801F0AB
:100B9000B6FC0028FAD1064801F0BAFC00BF0448B0
:100BA00001F0BCFC0028FAD138BD00000900180093
:100BB0000024014028000020BC2A002006480749E4
:100BC0000860074848600749044881600649C160D9
:100BD00006480249086170470D0C00087C3000206F
:100BE0001D11000849190008BD1400086D0E000809
:100BF00000BFFEE7024682EA2120034B33F81000D3
:100C000080EA012080B27047F468000870B504469D
:100C10000D46002605E020783146FFF7EBFF06463B
:100C2000641C281EA5F101018DB2F4D1304670BDBF
:100C300010B5022002F03EF828B1022002F02AF896
:100C400001200149088010BD2C00002000EB80002D
:100C500017E000BF00BF00BF00BF00BF00BF00BF64
:100C600000BF00BF00BF00BF00BF00BF00BF00BF8C
:100C700000BF00BF00BF00BF00BF00BF00BF00BF7C
:100C8000401E0028E5DC70472DE9F84F4FF0000AC0
:100C900000F09EF810B90120204908601F48006844
:100CA000002838D000200090CC2001F0D3FA442056
:100CB00001F0D0FA00F08CF8CC2001F0CBFABE2085
:100CC00001F0C8FA00F066FC834600F063FC0446BD
:100CD000072C07DDE043C4B26FEA0B0000F0FF0B06
:100CE00001200090A1464FEA0929D9444846FFF760
:100CF000B1FC82465046FFF7BBFC07460022084B7A
:100D0000FFF7C7FB0546FFF7C6FC8246009808B10F
:100D10008AF0004A00BF5046BDE8F88F84000020EA
:100D20000000B03F1CB50446684602F0DCF8012123
:100D3000104801F071FE4FF48070009001208DF892
:100D4000070004208DF804004CB100208DF8040049
:100D500010208DF8060004208DF8050005E0002025
:100D60008DF8060004208DF805006946024802F05F
:100D7000C5F81CBD040018000010014070B5054600
:100D800000240120FFF7CEFF0120FFF75FFF0C4892
:100D900000680C49B0FBF1F00B4908604FF4FA70A1
:100DA000FFF754FF00F014F8012807D10749086045
:100DB00001243220FFF74AFFFFF766FF204670BD8F
:100DC00088000020808D5B008000002084000020CF
:100DD00070B500250120FFF7A5FF4FF480701D4975
:100DE00008613220FFF732FF4FF4807019494861E3
:100DF0004FF4FA70FFF72AFF4FF48070154908612D
:100E00000520FFF723FF0020FFF78CFF3220FFF7BC
:100E10001DFF002400BF3220FFF718FF641C062CC2
:100E200004DD00200C490860284670BD4FF4807135
:100E3000084802F0B7F80128EDD00120FFF772FF53
:100E40004FF48070034908610520FFF7FFFE01257C
:100E50002846EAE70010014084000020704710B5E2
:100E600004462146012000F034FF10BD30B5034692
:100E7000002005E00446401C1C5D8C4200D130BDC2
:100E80009042F7D30020FAE770B504460D460326DA
:100E90001448844202D2B4F1006F05D212A001F0CE
:100EA0000FFA0126304670BD0E48854202D8B5F1D2
:100EB000006F05D80FA001F003FA01263046F2E7D3
:100EC0000848844202D901263046ECE7A5F10060CB
:100ED000C20AA4F10060C10A09A001F0F1F930468C
:100EE000E1E7000000A00708532D4552524F520D74
:100EF0000A000000452D4552524F520D0A000000D5
:100F000063682D20703A205B53202D2025642C45EA
:100F1000202D256429200D0A000000002DE9F04352
:100F2000ADF6040D07460C4690464FF00109032527
:100F30004246394601A8FFF76AF94FF0006202EB1A
:100F4000C42102EBC420FFF79FFF0546012D04D109
:100F500000200DF6040DBDE8F08301F0AFFF4FF067
:100F6000804001F079FF0546012D01D0022D03D10B
:100F7000142001F047FF03E0042D01D10020E8E731
:100F80004FF0006101EBC42001F078FF0546032D0E
:100F900001D00020DDE700260EE001AA915D4FF0B0
:100FA000006202EBC422901901F010FF0546032DE8
:100FB00001D00020CDE7761CB6F5006FEDDB01F027
:100FC00027FF4846C5E70000F0B500BF4FF0E0201E
:100FD00080690D490968081A0C494860084602688A
:100FE000002309480068C6171446A4FB001703FB3A
:100FF000007002FB06030A4604484068821843F169
:10100000000310461946F0BD3800002044000020BF
:1010100013B582B00024684600F034F803990198B3
:10102000441A002C05DA9DF80200401EC0B28DF86B
:1010300002009DF802009DF80A10401A43F609517B
:1010400010FB01F004EB8014204604B010BD0246F2
:10105000107D022813DA012010711388581C1080AB
:1010600002F11500C1547D2901D1022010751088AC
:10107000C82801DD0320107502F115009060107D75
:10108000704700002DE9FF470446002002900390BE
:10109000FFF79AFF05460E461B480268D3172846FD
:1010A0003146FFF783F881464946684600F04CFC1C
:1010B000DDE90001CDE90201144899FBF0F00028B8
:1010C00006DD002002900390DDE9020100F064FCDF
:1010D0000D480268D31728463146FFF767F81746D0
:1010E00019460B480268D3173846FFF75FF803909C
:1010F0000848DDE902128160C260DDE90201C4E94D
:101100000001BDE8FF87000064000020805101005D
:101110006C0000205000002000BFFEE703B59DF8E2
:1011200002109DF80120C2EB021201EB82019DF832
:101130000020C2EB4213C3EB022201EB0210044970
:10114000884201DA014600E0014908460CBD000072
:10115000805101001CB50446684601F0C4FE6CB322
:1011600001211D4801F058FC01211B48801C01F0A1
:1011700053FC1020009001208DF8070000208DF80E
:10118000040010208DF8060004208DF80500694643
:10119000124801F0B3FE0420009001208DF80700F2
:1011A00000208DF8040010208DF8060004208DF832
:1011B000050069460A4801F0A1FE0BE010200090EE
:1011C00003208DF8060004208DF8050069460348C9
:1011D00001F094FE1CBD0000020018000008014050
:1011E0000010014010B504462046FFF7B3FF002170
:1011F000012000F019F810BD10B50C464CB1AA2022
:1012000000F0F8FF012000F0F5FF002000F0F2FFF1
:1012100008E0002000F0EEFF002000F0EBFF0020CF
:1012200000F0E8FF10BD0000012802D0022813D111
:1012300009E019B110220A4B1A6003E01022084B92
:101240001B1F1A6009E019B10422064B5A6102E023
:101250000422044B1A6100E000BF00BF7047000089
:10126000140801400010014000B5B3B002F09AF834
:1012700000F0A4F8FFF7A2FC30484168012088473D
:101280002E48C168012088472C4801224FF4E131E3
:1012900083681046984729484169012088472748B4
:1012A00001690120884728B1254826A1C26901208B
:1012B000904704E0224827A1C26901209047C82234
:1012C000284901A8FEF7A3FF274800787B2807D10B
:1012D00026A000F0F5FF244929A000F0F1FF0BE063
:1012E00029A000F0EDFF3222742101A8FFF716FEBD
:1012F0001D4923A000F0E4FF012000F055FA10483A
:101300000021826A012090470D480021826A022054
:1013100090470B48816864208847094802691F4844
:10132000C1688068904706481DA1C26901209047A6
:101330000348006C1F49086033B000BD882C0020B2
:10134000A02C0020733A20536563632044530D0A98
:1013500000000000733A204572726F722044530DF2
:101360000A0000002C68000800A00308703A2066FC
:101370006C617368207365636320210D0A000000AF
:10138000703A202573200A00703A20666C617368F9
:10139000206E756C6C20210D0A00000050000020AA
:1013A000733A2068656C6C6F20776F726C642021D3
:1013B0000D0A00001400002000BFFEE710B500F089
:1013C00019F8064806494860064888600648C8601B
:1013D000064808610648486110BD0000CD190008A4
:1013E000882C002061210008E51100087D0D00080F
:1013F000C10A000817481849086018484860184989
:10140000154881601749C160174941611748124961
:10141000086117491048816116480F4988621649CA
:101420000D48C16215480C49086315490A48016214
:1014300014480949C8611449074841621349816346
:101440001349C163134804494863134902480164BE
:10145000704700005F0E0008A02C0020D118000883
:10146000591800083F18000885100008991900084D
:101470001110000829120008F9110008890C000851
:101480009D1C0008D31C000864300020210A0008BD
:1014900029090008D1090008BC2A00207047000073
:1014A00010B5024803F03CF910BD0000E42A00200A
:1014B00010B54FF4802001F083FC10BD3CB504460C
:1014C000D4E900100968884206D02068006860608E
:1014D00000202072607255E0207A40B9012020720D
:1014E00000206072E16903C9C4E905014AE00020F7
:1014F000009001900025D4E90501FFF70FFE009050
:10150000E269D2E90001FFF709FE0190DDE900017F
:10151000884203DD1C49019808440190DDE9001070
:10152000401A0090D4E90301FFF7F8FD0190E0694B
:101530004168A069814209D20098401E0090134979
:10154000A069081AE1694968451803E0E069416843
:10155000A0690D1A2069A84202D90098401E009087
:10156000DDE90001401A0AD470206072A07A08B93F
:10157000012000E00020A0720020207201E0002085
:10158000607200BF607A3CBD8051010040420F0094
:101590007047000070B50024002524E00120FFF70B
:1015A000C1FB4FF48070154908610820FFF74EFB1E
:1015B0004FF48070114948610120FFF747FB00207C
:1015C000FFF7B0FB1420FFF741FB64104FF480716C
:1015D0000A4801F0E7FC08B144F080042820FFF736
:1015E00035FB681CC5B2082DD8DB0120FFF79AFB3C
:1015F0004FF4807001490861204670BD0010014021
:1016000070B504460D460D480268D317204629469A
:10161000FEF7CCFD0A49086008480268D317204647
:101620002946FEF7C3FD0648426040680349096841
:10163000081A4FF0E021886170BD000038000020DA
:101640004400002010B502210B4801F0E7FD0128FD
:1016500010D18021084801F0E1FD58B90022802115
:10166000054801F0E3FD0021012000F065F80120AC
:101670000249088010BD0000003001403400002005
:101680001CB50446684601F02EFC9CB3012121489C
:1016900001F0C2F901214FF4C01001F0BDF94FF47F
:1016A0008050009001208DF8070000208DF8040084
:1016B00010208DF8060004208DF8050069461648B4
:1016C00001F01CFC4FF42040009008208DF806002B
:1016D0006946114801F012FC4FF480400090002050
:1016E0008DF8060018208DF8050069460A4801F0BB
:1016F00005FC0DE0FFE74FF47040009003208DF8EB
:10170000060004208DF805006946034801F0F6FB49
:101710001CBD000003001800000C014010B50221A0
:10172000044801F07BFD012803D18021014801F02C
:1017300075FD10BD0038004020B1012807D00228F7
:1017400012D110E04FF48052094B1A600DE029B11C
:101750004FF48052064B1B1D1A6003E04FF4805279
:10176000034B1A6001E000E000BF00BF70470000BB
:10177000100C014010B5044600BF02210948006862
:1017800001F04CFD0028F8D021460648006801F021
:1017900043FD00BF80210348006801F03FFD0028A1
:1017A000F8D110BD300000207CB50546002405B1FD
:1017B00001242046FFF764FF00210120FFF7BCFF52
:1017C0001C48006801F03CFD684601F015FD07204B
:1017D00001F0FEFC2146184801F01EF9002201210B
:1017E000242001F091FC01208DF8010000208DF8EB
:1017F000040002208DF8020000208DF80300012073
:101800008DF805008DF806008DF8070000208DF892
:10181000000069460748006801F032FD002280217F
:101820000448006801F002FD21460248006801F00A
:10183000EEFC7CBD300000200E001C00704730B56F
:101840000446002504E04FF47A7000F005F86D1CA2
:10185000A542F8DB30BD00002DE9F04F8346194862
:1018600000680BFB00FAFFF7AFFB06460F4624E0CB
:10187000FFF7AAFB0D460446301B77EB050004D2A8
:10188000B4EB060865EB07090FE00F480068C008D5
:101890000E4900FB01F84FF00009B8EB060869EBB0
:1018A000070918EB040849EB05094FEAEA70B8EBA1
:1018B0000A0179EB000000D300E0D9E700BFBDE8E2
:1018C000F08F00003C0000208800002080510100C3
:1018D0002DE9F04F8346194800680BFB00FAFFF72B
:1018E00073FB06460F4624E0FFF76EFB0D460446E9
:1018F000301B77EB050004D2B4EB060865EB070953
:101900000FE00F480068C0080E4900FB01F84FF0D7
:101910000009B8EB060869EB070918EB040849EB66
:1019200005094FEAEA70B8EB0A0179EB000000D331
:1019300000E0D9E700BFBDE8F08F000040000020C4
:1019400088000020805101001CB502464FF46163FD
:1019500091FBF3F0182801DA034600E01823DBB20C
:101960008DF800304FF4616391FBF3F403FB141323
:101970003C2493FBF4F0C3B28DF801303C2391FB7F
:10198000F3F403FB1410C3B28DF80230DDE9003428
:10199000C2E900341CBD000013B5DDE90001FFF70A
:1019A000BDFB04460448006884FB00200146104645
:1019B000FFF726FE1CBD00006400002002480068FE
:1019C000401C0149086070474400002010B50446DF
:1019D000204600F01FF80A480068C008094908605E
:1019E000084600684FF47A7190FBF1F006490860F0
:1019F00004480068054990FBF1F00549086010BDF6
:101A000088000020640000206800002040420F0091
:101A10006C00002070B504462B48006800092B4973
:101A2000086029480068C0084FF47A71B0FBF1F0F3
:101A30002749086024480068C0082649B0FBF1F037
:101A40002549086054B300BF1F4800680109481EBB
:101A5000B0F1807F01D301201BE0481E4FF0E0224F
:101A6000506150170F22002804DB13071D0E1B4B7B
:101A70001D5406E013071E0E194B00F00F052D1F15
:101A80005E5500BF00204FF0E022906107201061FA
:101A900000200028D8D101F071FD13E000BFBFF392
:101AA0004F8F0F480C38006800F4E0600D49084380
:101AB000001D0B490C390860BFF34F8F00BF00BFFA
:101AC00000BFFDE770BD0000880000203800002046
:101AD0003C00002040420F004000002000E400E0F5
:101AE00018ED00E00000FA052248C06920F080509F
:101AF00000F180501F49C8611F48007840F0040081
:101B00001D49503981F850001A48C06920F08050B2
:101B10001849C8610846006820F00100401C0860B0
:101B200000BF14480068C0F340000028F9D01148F5
:101B3000406820F003000F49486000BF0D4840682E
:101B4000C0F381000028F9D10A4800680B49084019
:101B5000084908600020486041F61070C8624FF4E0
:101B6000801008634FF41F008860C80304490860B0
:101B7000704700000010024050700040FFFFF2FE6E
:101B800008ED00E070B50446062C15D2DFE804F03D
:101B90001403070B0F130E480E4908600EE00E48A1
:101BA0000C4908600AE00D480A49086006E00C4844
:101BB0000849086002E001E0002070BD00BF20215C
:101BC0000448006801F004FD05462846F5E70000DA
:101BD000003801404C000020004400400048004014
:101BE000004C004010B50446062C15D2DFE804F086
:101BF0001403070B0F130D480D4908600DE00D4845
:101C00000B49086009E00C480949086005E00B48E9
:101C10000749086001E000E010BD00BF2021044832
:101C2000006801F0CCFC00BFF6E70000003801407E
:101C30004C0000200044004000480040004C0040A0
:101C400070B50446062C15D2DFE804F01403070B28
:101C50000F130D480D4908600DE00D480B49086051
:101C600009E00C480949086005E00B48074908608D
:101C700001E000E000BF00BF0448006801F092FCF2
:101C80000546284670BD0000003801404C00002089
:101C90000044004000480040004C00402DE9F04165
:101CA00007460C461546C82D01DA284600E0C82034
:101CB0008046002605E03046761C215C384600F060
:101CC00015F8B8F10000A8F10108F4D10120BDE831
:101CD000F08170B505460C462046FEF7BCFA064674
:101CE000324621462846FFF7D9FF70BD70B504463D
:101CF0000D46062C15D2DFE804F01403070B0F1372
:101D00001048114908600DE010480F49086009E0CB
:101D10000F480D49086005E00E480B49086001E0D6
:101D200000E070BD00BF00BF40210748006801F01F
:101D30004FFC0028F8D029460348006801F036FC23
:101D400000BFEEE7003801404C0000200044004096
:101D500000480040004C004070B501252846FFF7C0
:101D600011FF60B12846FFF76BFFC4B2044951F878
:101D700025002146FFF76BF92846FFF733FF70BDBA
:101D80006430002070B502252846FFF7FBFE60B1E5
:101D90002846FFF755FFC4B2044951F825002146F3
:101DA000FFF755F92846FFF71DFF70BD643000208E
:101DB00070B503252846FFF7E5FE60B12846FFF71A
:101DC0003FFFC4B2044951F825002146FFF73FF90F
:101DD0002846FFF707FF70BD643000207CB504463D
:101DE0000D4600262F48304908600846006801F07B
:101DF00073FC05B1012631462C4800F00DFE01218F
:101E00002A480C3800F008FE684601F06CF84FF4E0
:101E10000070009001208DF8070000208DF804006C
:101E200008208DF8060004208DF80500694620483A
:101E300001F064F84FF48060009000208DF80600F7
:101E400018208DF805006946194801F057F8072059
:101E500001F0BEF901220021252001F055F90023EF
:101E60001A4621461048006801F0BAFB01210E48CD
:101E7000006801F07BFC01210B48006801F027FCA1
:101E800000210948006801F0FCFB012209490648CD
:101E9000006801F0DBFB01210348006801F08AFBC8
:101EA0007CBD0000003801404C0000200E001800EE
:101EB0000008014005000C007CB504460D460026D4
:101EC0002D482E4908600846006801F005FC05B160
:101ED000012631462A4800F09FFD0121294800F0E3
:101EE0009BFD684600F0FFFF0420009001208DF864
:101EF000070000208DF8040008208DF8060004205B
:101F00008DF805006946204800F0F8FF0820009091
:101F100000208DF8060018208DF8050069461A4843
:101F200000F0ECFF072001F053F9022200212620E7
:101F300001F0EAF800231A4621461048006801F033
:101F40004FFB01210D48006801F010FC01210B48F6
:101F5000006801F0BCFB00210848006801F091FB1B
:101F600001220A490548006801F070FB012103487D
:101F7000006801F01FFB7CBD004400404C000020C5
:101F800011001C00020018000008014005000C00B0
:101F90007CB504460D46002633483449086008469F
:101FA000006801F099FB05B101263146304800F088
:101FB00033FD01214FF4C01000F02EFD01212D480A
:101FC00000F02AFD01212C4800F0F6FF684600F0E1
:101FD0008AFF4FF48060009001208DF807000020F8
:101FE0008DF8040008208DF8060004208DF8050007
:101FF0006946224800F082FF4FF400600090002004
:102000008DF8060018208DF8050069461B4800F081
:1020100075FF072001F0DCF803220021272001F0E2
:1020200073F800231A4621461048006801F0D8FAD8
:1020300001210E48006801F099FB01210B4800685E
:1020400001F045FB00210948006801F01AFB01225C
:102050000B490648006801F0F9FA012103480068BD
:1020600001F0A8FA7CBD0000004800404C000020B0
:1020700012001C00040018000104182C001001407C
:1020800005000C007CB504460D4600262E482F495D
:1020900008600846006801F01FFB05B101263146C3
:1020A0002B4800F0B9FC01212A4800F0B5FC684635
:1020B00000F019FF4FF48060009001208DF80700B8
:1020C00000208DF8040008208DF8060004208DF80B
:1020D00005006946204800F011FF4FF400600090B1
:1020E00000208DF8060018208DF8050069461A4872
:1020F00000F004FF072001F06BF8042200213420D7
:1021000001F002F800231A4621461048006801F049
:1021100067FA01210D48006801F028FB01210B48F6
:10212000006801F0D4FA00210848006801F0A9FA1B
:1021300001220A490548006801F088FA0121034894
:10214000006801F037FA7CBD004C00404C000020D4
:1021500013001C00040018000010014005000C00D2
:1021600070B504460D461646012C06D0022C0DD043
:10217000032C14D0042C24D11AE031462846FFF752
:102180002DFE1148114941F824001BE03146284634
:10219000FFF792FE0E480D4941F8240012E0314647
:1021A0002846FFF7F5FE0B48084941F8240009E0EE
:1021B00031462846FFF766FF0748044941F82400E6
:1021C00000E000BF00BF70BDE42C002064300020A0
:1021D000C42D0020A42E0020842F002000BFFEE785
:1021E00008B5009002E00099491E0091009900296D
:1021F000F9DC08BD30B504462546002221E005FA89
:1022000002F000F0800068B110201149086007203A
:10221000FFF7E6FF10200E49091D08600320FFF7B5
:10222000DFFF0CE010200A4908600320FFF7D8FF09
:1022300010200749091D08600620FFF7D1FF501C38
:10224000C2B2082ADBDB10200149091D086030BD3D
:102250001008014070B5044625460120FEF762FDD6
:102260004FF48070154908610A20FEF7EFFC08263C
:102270001EE04FF48070114948610820FEF7E6FC2B
:1022800005F0010038B14FF480700C4908611E2040
:10229000FEF7DCFC02E02820FEF7D8FC6D104FF4BE
:1022A0008070064908610A20FEF7D0FC701EC6B295
:1022B000002EDEDC3220FEF7C9FC70BD00100140AC
:1022C0000FB4054B10B503A9044A029800F018F8A2
:1022D00010BC5DF814FB0000D52E00089000002013
:1022E00002E008C8121F08C1002AFAD170477047DF
:1022F000002001E001C1121F002AFBD1704700003D
:102300002DE9FF4F8BB09A460F460546002606E0A2
:1023100025280BD052460D9990476D1C761C2878C5
:102320000028F5D10FB03046BDE8F08F0024A0465C
:102330000122604900E0044315F8013F203B02FA06
:1023400003F00842F7D128782E2817D115F8010F8D
:1023500044F004042A280ED06FF02F022878A0F150
:10236000300109290AD808EB880102EB410100EB92
:1023700001086D1CF2E757F8048B6D1C287869285A
:102380003ED006DC0028CDD063280BD0642804D1D1
:1023900036E0732810D075284BD052460D999047DF
:1023A000761C85E017F8040B8DF8000000208DF8EE
:1023B0000100E946012003E057F8049B4FF0FF308D
:1023C00061074FF0000401D40AE0641C44450DDAB3
:1023D0008442FADB19F804100029F6D106E0641CE7
:1023E0008442FCDB19F804100029F8D1264404E0EB
:1023F00019F8010B52460D999047641EF8D257E028
:1024000001CF4FF00A0B002802DA40422D2102E0F2
:10241000210504D52B218DF82410012103E0E107CB
:1024200005D02021F7E70DF1200908910CE00021EB
:10243000F9E701CF4FF00A0BF9E75946FEF747F9E4
:1024400001F1300209F8012D0028F6D1ADEB0900A9
:1024500000F1200B600701D44FF00108D84502DDE0
:10246000A8EB0B0000E000208046002406E009A84D
:102470005246005D0D999047641C761C0898844272
:10248000F5DB04E0302052460D999047761CB8F1F8
:102490000001A8F10108F5DC05E019F8010B52462E
:1024A0000D999047761CBBF10001ABF1010BF4DCF8
:1024B0006D1C34E7092801000B78426863F3082299
:1024C00042604B78826863F3410282608B78826855
:1024D00063F3CB228260CA78521EC36A62F3175339
:1024E000C362704700210170417081700121C17089
:1024F0007047816821F0080108318160704701460A
:102500008868C0F3C00008B1012070470020FCE7D4
:10251000816821F00401091D8160704701468868C7
:10252000C0F3800008B1012070470020FCE78268FA
:1025300061F3082282607047826861F30002826062
:10254000704710B5122964D2DFE801F0090E1318A4
:102550001D22272C31363B40454A4F54595E0469B1
:1025600063F30204046155E0046963F3C504046184
:1025700050E0046963F3881404614BE0046963F379
:102580004B24046146E0046963F30E34046141E0C6
:10259000046963F3D13404613CE0046963F3944457
:1025A000046137E0046963F35754046132E004695D
:1025B00063F31A6404612DE0046963F3DD6404616C
:1025C00028E0C46863F30204C46023E0C46863F3D2
:1025D000C504C4601EE0C46863F38814C46019E0D5
:1025E000C46863F34B24C46014E0C46863F30E341E
:1025F000C4600FE0C46863F3D134C4600AE0C46807
:1026000063F39444C46005E0C46863F35754C46042
:1026100000E000BF00BF112A5AD2DFE802F05909DA
:102620000E13181D22272C31363B40454A4F5400CB
:10263000446B61F3040444634BE0446B61F349145D
:10264000446346E0446B61F38E24446341E0446B91
:1026500061F3D33444633CE0446B61F31854446346
:1026600037E0446B61F35D64446332E0046B61F313
:10267000040404632DE0046B61F34914046328E04F
:10268000046B61F38E24046323E0046B61F3D334A1
:1026900004631EE0046B61F31854046319E0046BD7
:1026A00061F35D64046314E0C46A61F30404C4620A
:1026B0000FE0C46A61F34914C4620AE0C46A61F3BA
:1026C0008E24C46205E0C46A61F3D334C46200E0BE
:1026D00000BF00BF10BD07290ADD836823F0007327
:1026E00003F100738360836861F35343836007E001
:1026F000836823F000738360836861F353438360CE
:10270000836862F3145383607047826861F3965262
:10271000826070470349096860F3D751014A11602C
:1027200070470000082401400649496860F38F3172
:10273000044A516082080349496862F31C71014AE6
:1027400051607047001002400349496860F3071167
:10275000014A516070470000001002400349496877
:1027600060F30A21014A51607047000000100240E6
:102770000349496860F3CD21014A51607047000068
:1027800000100240012807D10749496D21F03001AE
:102790003031054A516505E00349496D21F03001AA
:1027A000014A51657047000000100240052827D2F9
:1027B000DFE800F0030A11181F00134A126861F3E2
:1027C0000002114B1A601CE00F4A126861F31042BC
:1027D0000D4B1A6015E00C4A126861F318620A4B3F
:1027E0001A600EE0084A126A61F30002064B1A6290
:1027F00007E0054A526A61F30002034B5A6200E0A7
:1028000000BF00BF70470000001002402DE9F04FEC
:1028100085B004460025AA46AB460026A9460020FE
:10282000049003900290019000F0FAF90090009853
:1028300020B1012812D0022875D112E05648406D0F
:10284000C0F3402038B15448006BC0F3406010B171
:102850005248206001E05248206067E05048206004
:1028600064E04D484068C0F3004B4B48C06AC00F5D
:1028700030BB49484068C0F3834547484068C0F3CF
:10288000417ABAF1000F01D10F2D04D14FEA0A109D
:10289000401C054400E0AD1CBBF1000F03D14148D2
:1028A000684320603DE03C484068C0F3404018B1B8
:1028B0003C486843206034E039486843206030E099
:1028C0003548C06AC0F3031003903348C06AC0F3B0
:1028D000082002903048C06A00F007000190BBF168
:1028E000000F02D12F48049009E02B484068C0F344
:1028F000404010B12B48049001E029480490012188
:10290000019801FA00F0039900FB01FC0299049878
:10291000A0FB01700146624600233846FDF746FCE5
:10292000206003E0FFE71E48206000BF00BF1A4898
:102930004068C0F303161C4810F80690206820FA7F
:1029400009F0606014484068C0F30226174810F888
:102950000690606820FA09F0E0600F484068C0F314
:10296000C226134810F80690606820FA09F0A060AB
:1029700009484068C0F3007607484068C0F38130DA
:1029800040EA86060B4810F80690A068B0FBF9F004
:10299000206105B0BDE8F08F00100240006CDC0241
:1029A00000127A0000093D00046B0008146B000857
:1029B0001C6B0008246B000810B501460020094B71
:1029C00003EB1142126801F01F040123A3401A40D7
:1029D00001F01F040123A3409A4200D000E001202F
:1029E00010BD0000001002400349096B60F35961FB
:1029F000014A1163704700000010024000B5034611
:102A00000120FFF7F1FF0348406D63F349200149BE
:102A1000486500BD0010024010B501290DD10E4BD4
:102A200003EB1042126800F01F040123A3401A4375
:102A3000094C04EB10431A600CE0074B03EB104207
:102A4000126800F01F040123A3409A43024C04EBD8
:102A500010431A6010BD00000010024010B501299B
:102A60000DD10E4B03EB1042126800F01F0401233E
:102A7000A3401A43094C04EB10431A600CE0074BC7
:102A800003EB1042126800F01F040123A3409A4395
:102A9000024C04EB10431A6010BD0000001002400D
:102AA00030B50246002000233AB9324C646824F461
:102AB0008034304D6C60304819E02E4C646824F44A
:102AC000803404F580342B4D6C60012A06D12B48EC
:102AD0002C46646824F400346C6008E02648254CD9
:102AE000646824F4003404F50034224D6C60244CF6
:102AF000A04204D9234CA04201D2002326E0224C5C
:102B0000A04204D9214CA04201D201231EE0204C56
:102B1000A04204D91F4CA04201D2022316E01D4C52
:102B2000A04204D91C4CA04201D203230EE01B4C4E
:102B3000A04204D91A4CA04201D2042306E0184C4A
:102B4000A04203D9174CA04200D20523094C646867
:102B500061F39544074D6C600D09064C646865F39C
:102B60005E74044D6C602C46E46A63F31A64EC6294
:102B700030BD00000010024000093D0000127A0044
:102B800060823B00404B4C0080584F00105E5F005D
:102B900094357700101B7F0020BCBE00286BEE0030
:102BA00030D73D01D8E9DC011648006820F001006B
:102BB000401C1449086000BF12480068C0F3400080
:102BC0000028F9D00F48406820F003000D49486004
:102BD00000BF0C484068C0F381000028F9D10948C3
:102BE000006809490840074908600020486041F62C
:102BF0001070C8624FF4801008634FF41F008860A3
:102C00007047000000100240FFFFF2FE03494968D0
:102C100060F30101014A516070470000001002405A
:102C200002484068C0F38100704700000010024075
:102C30000649496860F39751044A51608208034984
:102C4000496862F3DB61014A51607047001002403D
:102C500010B50446012C01D1FFF7D0FE0348406DAA
:102C600064F308200149486510BD000000100240CF
:102C7000026861F300020260704700210160416058
:102C800001814181017341738173C1730174417486
:102C900070470000B0F1805F04D920F07041034A12
:102CA000116001E0024948607047000004040240DE
:102CB00000000240014600200022B1F1805F02D9ED
:102CC000054B1A6801E0054B1A6802EA01030BB1D3
:102CD000012000E000207047000402400000024094
:102CE00002684BF6EF731A40026002680B891A43C0
:102CF00002604B7C026863F30D320260CB7B02689A
:102D000063F38B2202608B7B026863F3092202600B
:102D10004B7B026863F3C71202600B7B026863F3AC
:102D2000861202600B7C026863F3451202604A89D6
:102D300042600A6882604A68C26070471AB10368DC
:102D40000B43036002E003688B430360704700009D
:102D50000021026822F0010202600022026042604B
:102D60008260C260014640F2FF420A40B2F5816FC4
:102D70000DD2CAB2083A1423B2FBF3F293000F2229
:102D80009A400D4B5B681A430B4B5A6012E040F2BD
:102D9000FF420A40B2F5916F0CD2CAB2083A14232E
:102DA000B2FBF3F293000F229A40044B1B681A43C4
:102DB000024B1A6070470000000002400404024009
:102DC00001490860704700001404014070B50446D2
:102DD0000D4603260A48006920F00100401C0849FE
:102DE000086125704FF4801000F036F8064604485C
:102DF000006920F0010002490861304670BD000002
:102E0000002002400149C8607047000000200240D5
:102E10000348006920F08000803001490861704754
:102E20000020024003200B49C96801F0010109B1EB
:102E300000200EE00749C968C1F3800109B10120F3
:102E400007E00449C968C1F3001109B1022000E09C
:102E5000032070470020024000B502460323FFF71D
:102E6000E1FF034603E0FFF7DDFF0346521E0BB907
:102E7000002AF8D102B90423184600BD30B5044633
:102E800003250D48006920F00200801C0A490861F2
:102E900008464461006920F0400040300861480461
:102EA000FFF7DAFF05460448006920F002000249F6
:102EB0000861284630BD0000002002400248034956
:102EC000486003484860704723016745002002407E
:102ED000AB89EFCD70B504460D46E1B20120FEF797
:102EE00005FF204670BD4FF6FF7101600021817122
:102EF0000171042141710121C1717047F0B50A4689
:102F00001588ABB29579032D01D100241AE095798B
:102F100065B9557905F00F045579182D01D1036174
:102F200010E05579282D0DD143610BE0957905F01E
:102F30000805167906F004063543D67906F003062F
:102F400045EA0604DDB2A5B1002110E001258D405F
:102F50001D405DB105688F000F26BE40B54305607A
:102F600005688E0004FA06F635430560491C0829F9
:102F7000ECD3FF2B15DD1B12002110E001258D4045
:102F80001D405DB145688F000F26BE40B5434560CA
:102F900045688E0004FA06F635434560491C082949
:102FA000ECD3F0BD0246002093680B408B4200D06A
:102FB00000E0012070470000F0B50C46104F07EB11
:102FC0001062C0F30741C0F30725C6B2C5F1200760
:102FD000A7EB010C4FF0FF3707FA0CF3C5F1200700
:102FE0007F1AFB40CB408B4017689F4317602CB182
:102FF00006FA01FC176847EA0C071760F0BD0000ED
:10300000000001401CB5002005E08821384A115419
:10301000384A1054401C7C28F7DBFEF725F965E0A0
:1030200035484169684688473448807A3449096898
:10303000884206D03148807A314908602E49486B71
:1030400080472D48406A4068007DE8B12A48406AC0
:10305000406880680078312810D1274881680A20AC
:1030600088472548406A406802882348406A40688B
:1030700000F115012048036A012098471E49496A5A
:103080004868E021FDF7DCF81C49887A00EBD07134
:103090004910A0EB410129B117480021826A0220A2
:1030A000904704E014480121826A022090471548A5
:1030B0000078401C1349087008460078642801DD38
:1030C0000020087001210846FEF736FB002403E0CB
:1030D000A0B2FEF74FFB641C642CF9DB0021012039
:1030E000FEF72AFB044881680A20884798E7000019
:1030F00094000020EC020020A02C002050000020B2
:1031000000000020040000202DE9F0470B46144683
:103110004FF0000C00BF2C4A1268C2F302211D467A
:1031200026460A46C2F10709B9F1040F02D94FF049
:10313000040901E0C2F10709C84602F10409B9F126
:10314000070F02D24FF0000901E0A2F103094F4638
:103150004FF0010909FA08F9A9F1010909EA05097D
:1031600009FA07F94FF0010A0AFA07FAAAF1010A67
:103170000AEA060A49EA0A09CC46014662460029DB
:1031800004DB15072E0E114D6E5407E015072F0EA8
:103190000D4D0C3501F00F06361FAF5500BF01462F
:1031A00000290DDB00BF00BF01F01F050122AA406E
:1031B0004D09AD0005F1E025C5F8002100BF00BFB5
:1031C00000BFBDE8F08700000CED00E000E400E087
:1031D00000BF00F00702064B19684FF6FF031940C5
:1031E000044B0B4343EA0221014B196000BF7047B7
:1031F0000CED00E00000FA050021017041708170C3
:10320000C1700171417181710121C1717047026802
:1032100061F3861202607047C16070470246002069
:1032200093680B4003B900E0012070471AB143686E
:103230000B43436002E043688B43436070470000E8
:1032400010B504460C4884420AD101214FF00C10FD
:10325000FFF704FC00214FF00C10FFF7FFFB0AE022
:103260000648844207D101218012FFF7F7FB0021B5
:10327000A012FFF7F3FB10BD003001400038004002
:10328000C26922F40062C2610A7862B9026822F45B
:1032900000420260026822F480420260026822F466
:1032A0008062026036E00A78012A0ED1026822F4B8
:1032B00000420260026822F480420260026822F446
:1032C000806202F58062026024E00A78022A0ED150
:1032D000026822F4004202F500420260026822F411
:1032E00080420260026822F48062026012E00A7882
:1032F000032A0FD1026822F4004202F50042026064
:10330000026822F4804202F580420260026822F4E0
:1033100080620260CB79026863F3492202604A78D6
:10332000012A09D1CA79012A06D1026822F48072E1
:1033300002F58072026003E0026822F4807202608B
:103340004B78026863F3820202608A78072A0BDDF9
:10335000426822F4807202F5807242608A780368C3
:1033600062F3C503036008E0426822F480724260A1
:103370008B78026863F3C5020260CB78026863F35E
:10338000C71202600B79026863F3CB2202604B79AB
:10339000026863F3410202608B79026863F3000202
:1033A0000260704710B54FF4AA701E490860FFF71D
:1033B000FBFB01210020FFF7F9F900BF0120FFF717
:1033C000FBFA0128FAD123210020FFF769FB012134
:1033D0000220FFF7EBF900BF1920FFF7EDFA0128F3
:1033E000FAD10020FFF7B0F90420FFF7C1F904205B
:1033F000FFF7B4F90120FFF7C5F90220FFF706FC3B
:1034000000BFFFF70DFC0228FBD10020FFF7BAF93F
:103410000520FFF70DFC0020FFF71AFC00F004F870
:1034200010BD0000002002402DE9FF5F00240025B0
:103430000026A146A246A3460020039002900190D8
:10344000FFF7EEFB0090009820B1012814D002286D
:1034500074D115E04348406DC0F3402040B141486D
:10346000006BC0F3406018B13F484049086002E07B
:103470003F483E49086065E03D483C49086061E0DE
:1034800038484068C0F300463648C06AC00F20BBC9
:1034900034484068C0F3834432484068C0F3417503
:1034A0000DB90F2C03D12801401C044400E0A41CDA
:1034B00026B9304860432D4908603DE029484068FE
:1034C000C0F3404020B12B4860432849086033E0F6
:1034D00027486043254908602EE02248C06AC0F3AF
:1034E000031003901F48C06AC0F3082002901D48D3
:1034F000C06A00F00700019016B9DFF878B009E063
:1035000018484068C0F3404010B1DFF868B001E0EF
:10351000DFF85CB00121019801FA00F0039900FB8B
:1035200001FC0298ABFB007001466246002338465E
:10353000FCF73CFE0D49086004E0FFE70C480B492E
:10354000086000BF00BF07484068C0F303190A487D
:1035500010F809A00548006820FA0AF0034908603D
:10356000BDE8FF9F00100240006CDC0288000020D4
:1035700000127A0000093D00F46A0008042808D10E
:103580004FF0E021096941F004014FF0E0221161A0
:1035900007E04FF0E021096921F004014FF0E0223B
:1035A000116170470146486880B27047C1F3080254
:1035B00042607047C26861F34D32C260704701F0EB
:1035C0001F0212B10268426801E0CA4302607047FC
:1035D00002461068084008B1012070470020FCE74F
:1035E0002DE9F04385B004460F469046994668465B
:1035F000FFF70CF91448844201D1029E00E0039EBB
:1036000006EB86004000B0FBF7F50A20B5FBF0F1B1
:1036100000FB1150052803D20A20B5FBF0F503E0AA
:103620000A20B5FBF0F0451CA06865F30F00A06010
:10363000E06868F30C30E060206969F30D302061C8
:1036400005B0BDE8F08300000038014030B5012A24
:103650000BD100EB11431B6801F01F050124AC40A6
:10366000234300EB114423600AE000EB11431B6885
:1036700001F01F050124AC40A34300EB114423607B
:1036800030BD41B9C26822F40072C260C26822F43F
:103690008062C2601AE001290AD1C26822F4007275
:1036A000C260C26822F4806202F58062C2600DE0EE
:1036B00002290BD1C26822F4007202F50072C260C6
:1036C000C26822F4806202F58062C2607047C268FC
:1036D00061F38202C260704710B504461D488442FF
:1036E00008D101211C48FFF7B9F900211A48FFF75A
:1036F000B5F92EE01948844208D101218012FFF764
:10370000ADF90021A012FFF7A9F922E01448844284
:1037100008D101218012FFF7A1F90021A012FFF7C3
:103720009DF916E00F48844208D101218012FFF76D
:1037300095F90021A012FFF791F90AE00A488442A6
:1037400007D101218012FFF789F90021A012FFF7AC
:1037500085F910BD003801400E000C000044004007
:1037600000480040004C004000500040C26861F337
:10377000C302C26070474FF410610958CA0AD202EE
:103780004FF410610A5040F60401095821F4807288
:1037900040F604010A507047014601F530600022EE
:1037A00002610123026963F3DC42026102696FF383
:1037B000120218320261026922F0C04202F1C042D4
:1037C0000261704710B58A7812BB0A7800F5106361
:1037D00003EB4212126822F400140A7803EB42123F
:1037E0001460CA78032A02D0CA78022A32D10A7831
:1037F00000F5106303EB4212126822F0805202F1CE
:1038000080520B7800F5106404EB43131A6021E03A
:103810000A7800F5306303EB4212126822F40014B8
:103820000A7803EB42121460CA78032A02D0CA78DD
:10383000022A0FD10A7800F5306303EB42121268B6
:1038400022F0805202F180520B7800F5306404EBD4
:1038500043131A6010BD00F5106303EB41139A6027
:10386000704730B502464FF40165AB5840F6340559
:10387000AC5824FA01F505F0010543EAC51302F539
:10388000106505EB4115AD6805EA030030BD30B5A4
:1038900000220B788BB98B68402B00D10DE08B6830
:1038A000202B01D1012208E08B68102B01D10222CC
:1038B00003E08B68082B00D103228B78002B61D1A9
:1038C00040F61C031B580D780124AC40234340F6FE
:1038D0001C0423500B7873B90B7800F5106404EBCB
:1038E00043131B6862F30A030C7800F5106505EBBF
:1038F000441423600EE00D890B7800F5106404EB8E
:1039000043131C6865F30A040B7800F5106505EB9A
:1039100043131C60CD780B7800F5106404EB43135F
:103920001C6865F393440B7800F5106505EB4313B1
:103930001C600D7800F5106404EB45131B6865F3FB
:1039400099532C4600F5106505EB441423600B7861
:103950002C4604EB43131B6823F0805303F1805380
:103960000C7805EB441423600B782C4604EB4313CE
:103970001B6823F4004303F500430C7805EB441463
:10398000236053E040F61C031C580D780123AB4024
:1039900044EA034440F61C031C500B7873B90B78BF
:1039A00000F5306404EB43131B6862F30A030C78E0
:1039B00000F5306505EB441423600EE00D890B78AB
:1039C00000F5306404EB43131C6865F30A040B78BC
:1039D00000F5306505EB43131C60CD780B7800F5DE
:1039E000306404EB43131B6865F393430C7800F5D4
:1039F000306505EB441423600B782C4604EB43132D
:103A00001B6823F0805303F180530C7805EB4414BA
:103A100023600B782C4604EB43131B6823F400430C
:103A200003F500430C7805EB4414236030BD00F52A
:103A3000306303EB41139A607047024602F5306031
:103A400000EB4110836840F614008058184070471E
:103A500010B58A7812BB0A7800F5106303EB4212A6
:103A60001268D20F4AB90A7803EB4212126822F0A8
:103A700080440A7803EB421214600A7800F5106360
:103A800003EB4212126822F4001202F500120B78C6
:103A900000F5106404EB43131A6021E00A7800F586
:103AA000306303EB42121268D20F4AB90A7803EB73
:103AB0004212126822F080440A7803EB421214602A
:103AC0000A7800F5306303EB4212126822F4001208
:103AD00002F500120B7800F5306404EB43131A6012
:103AE00010BD000010B50022036961F38A13036161
:103AF000036923F020032033036105E01346521CC1
:103B0000054CA34200D904E00369C3F34013002B22
:103B1000F4D100BF10BD0000400D0300014640F687
:103B200018004258001D4058104080B270470146AE
:103B300040F618004258001D40581040000C7047D5
:103B40004161704701464A69886910407047012AFF
:103B500003D183690B43836102E083698B438361F3
:103B60007047D0F8001E21F00101C0F8001E704718
:103B7000F0B51746DD1C4FEAE57C05EB9C7C4FEA6F
:103B8000AC060C46002205E04FF480552D58256008
:103B9000241D521CB242F7D3F0BDD0F8002861F3C7
:103BA0000A12C0F80028704741627047F0B513460A
:103BB00000240022426A19B942EA0345856215E0F1
:103BC000856A02EB1542002407E000F5827555F87E
:103BD000245002EB1542651CECB24D1EA542F4DCEC
:103BE00042EA034700F5827646F82570F0BDD0F82A
:103BF000001E21F00101491CC0F8001E704701465B
:103C000040F60800405800F0010070472DE9F047E9
:103C100080460E46D8F8007006EB460000EBC60161
:103C200008F10C0000EB8104D4E90601451A4FF0BD
:103C30000009A068A84200D2A568E81C4FEA9009D4
:103C400015E0D4E90601451AA068A84200D2A5688B
:103C5000E81C4FEA9009ABB2B2B23846616900F095
:103C600021F8606928446061E0692844E06107F553
:103C7000106000EB4610806980B2484506D9D4E94F
:103C80000610884202D2A0690028DAD145B940F670
:103C90003400C0590121B140884340F63401C85175
:103CA000BDE8F087F0B5DE1C4FEAE67C06EB9C7CB5
:103CB0004FEAAC070D46002409E000F5805606EBFC
:103CC0000236D5F800C0C6F800C02D1D641CBC42E9
:103CD000F3D3F0BD70B50446002504F5B67694F82C
:103CE0008401022802D0032817D100E000BF7088A9
:103CF000012811D1002084F88701D4F88C0120F02C
:103D00000200C4F88C01606804F5B6718268204630
:103D10009047204600F018F903E0204600F020F913
:103D200000BF00BF284670BD2DE9F04104460D4696
:103D3000276805F0800050B105F07F0000EB4001DE
:103D400001EBC00104F10C0000EB810609E005F075
:103D50007F0000EB400101EBC00104F1BC0000EB6F
:103D6000810631463846FFF72DFD00207073BDE80F
:103D7000F08170B505460E4606F07F0000EB40016D
:103D800001EBC00105F10C0000EB8104002E44D1D1
:103D900095F8800102284CD1A168606A884211D947
:103DA000A168606A401A6062A168606A884201D2B4
:103DB000606A00E0A06883B200212846626900F0D2
:103DC000ADFA36E0A168206A884217D1A168A06ADE
:103DD000884213D3B5F88211A06A88420ED200201F
:103DE000206200231A461946284600F097FA00235D
:103DF0001A463146284600F007FA1AE06868C0689B
:103E000038B195F88401032803D16868C168284651
:103E10008847284600F078F80BE06868406940B1B0
:103E200095F88401032804D1686831464269284620
:103E3000904770BD70B505460E4606F07F0000EB5A
:103E4000400101EBC00105F1BC0000EB810426BB81
:103E500095F8800103282CD1A168606A884211D9A5
:103E6000A168606A401A6062A168606A884201D2F3
:103E7000606A00E0A06883B231462846626900F0BB
:103E8000C3F916E06868006918B1686801692846D6
:103E90008847284600F058F80BE06868806940B110
:103EA00095F88401032804D1686831468269284660
:103EB000904770BD70B504460D4604F5BA7104F51F
:103EC000B67000F04DFE012084F880014FF4B97007
:103ED000005BA4F8820194F86C0100F01F0020B18F
:103EE000012806D002280CD107E0204600F043F854
:103EF00008E0204600F0F8FB04E0204600F07BF8E4
:103F000000E000BF00BF70BD10B50446052084F876
:103F1000800100231A461946204600F075F910BDAD
:103F20002DE9F04105460E46144605F10C07BC622A
:103F30007C62022085F88001234632460021284613
:103F400000F0ECF9BDE8F08110B50446042084F8D7
:103F5000800100231A461946204600F0DFF910BD03
:103F600010B504460021204600F0D5FD80212046F2
:103F700000F0D1FD10BD70B50446002504F5B676FD
:103F8000307800F0600038B1606804F5B67182687E
:103F900020469047284670BD40F26D10005D0A280B
:103FA00022D2DFE800F00509210D21111521191D8C
:103FB000204600F00BFB1BE02046FFF78BFE17E0CE
:103FC000204600F093FD13E0204600F002FD0FE0D4
:103FD000204600F082FA0BE0204600F053FA07E09A
:103FE000204600F01FFD03E02046FFF7B9FF00BFA9
:103FF00000BF2846CFE72DE9F04104464FF0000806
:1040000004F5B6773D79387800F06000202805D1B6
:10401000606804F5B671826820469047787820B1D0
:1040200001283DD0032872D162E094F8840102286F
:1040300002D003282ED107E005F07F0018B12946F1
:10404000204600F068FD29E005F0800050B105F041
:104050007F0000EB400101EBC00104F10C0000EB1C
:10406000810609E005F07F0000EB400101EBC00193
:1040700004F1BC0000EB8106707B012801D13061A6
:1040800001E000203061022206F110012046FFF716
:1040900047FF03E02046FFF763FF00BF00BF54E087
:1040A00094F88401022802D003281BD107E02DB127
:1040B000802D03D02946204600F02DFD16E078889B
:1040C00078B905F07F0048B129462046FFF72CFE5D
:1040D000606804F5B6718268204690472046FFF775
:1040E00033FF03E02046FFF73BFF00BF00BF2CE09B
:1040F00094F88401022802D003281CD108E02DB1D5
:10410000802D03D02946204600F005FD17E018E079
:10411000788830B92DB1802D03D02946204600F093
:10412000FAFC606804F5B671826820469047204624
:10413000FFF70AFF03E02046FFF712FF00BF00BFB2
:1041400003E02046FFF70CFF00BF00BF4046BDE87C
:10415000F08110B504462068FFF751FD012802D117
:104160002068FFF744FD10BD70B504462568284659
:10417000FFF701FBE86820F4705000F5A050E860FC
:10418000402300221146204600F011F8402300226F
:104190008021204600F00BF8012084F8840160683B
:1041A000406818B1606841682046884770BD2DE9B5
:1041B000F04705460E4617469846D5F8009006F09B
:1041C000800060B906F07F0000EB400101EBC00108
:1041D00005F1BC0000EB81040120A0700BE006F0AB
:1041E0007F0000EB400101EBC00105F10C0000EB8A
:1041F00081040020A070C4F80880E770214648467A
:10420000FFF745FBBDE8F0872DE9F04305460C4676
:1042100016462F6804F07F0808EB480909EBC80927
:1042200005F1BC0808EB890191F8008007F53069B9
:1042300009EB481007F5006C4E618B614FF00008E8
:10424000C1F81C8004F07F08B8F1000F03D1D1F849
:104250000880C1F81880D1F81880B8F1000F04D098
:1042600004F07F08B8F1000F10D1D1F80890D0F811
:10427000108069F31208C0F810804FF00109D0F8DF
:10428000108069F3DC48C0F8108018E0D1F808907D
:10429000D1F81880C844A8F10108B8FBF9F2D1F8A8
:1042A000088008FB02F8D0F8109068F31209C0F8F3
:1042B0001090D0F8108062F3DC48C0F8108091F8BC
:1042C0000380B8F1010F17D1DCF80880C8F300288B
:1042D000B8F1000F08D1D0F8008028F0005808F19C
:1042E0000058C0F8008007E0D0F8008028F080581F
:1042F00008F18058C0F80080D0F8008028F080686D
:1043000008F18068C0F80080D0F8008028F00048EC
:1043100008F10048C0F80080BDE8F0832DE9F84FAF
:1043200006460F4692469B46D6F8008007F07F006F
:1043300000EB400101EBC00106F10C0000EB810431
:10434000207808F5106101EB401508F50069C4F804
:1043500014A0C4F818B00020E061A06948B9012198
:10436000286961F3DC40286128696FF31200286135
:104370002FE007F07F0090B9A168A069884201D9B9
:10438000A068A061A169286961F312002861012178
:10439000286961F3DC402861A069206219E0A16806
:1043A000A0690844401EB0FBF1F00090A1692869A3
:1043B00061F3120028610098296960F3DC412961EA
:1043C000E078012805D1286920F0C04000F10050B4
:1043D0002861E078012809D0A06938B1D9F8340003
:1043E0002278012191400843C9F83400E07801287F
:1043F00011D1D9F80800C0F3002030B9286820F0A6
:10440000005000F10050286005E0286820F080503E
:1044100000F180502860286820F0806000F1806002
:104420002860286820F0004000F100402860E07813
:10443000012806D1208B83B2227840466169FFF7BC
:1044400031FCBDE8F88F70B505462C68B4F1A04F7B
:1044500017D180212046FFF7A7FB18220021204614
:10446000FFF7A4FB142201212046FFF79FFB142233
:1044700002212046FFF79AFB142203212046FFF772
:1044800095FB70BD70B50446002504F5B676F0883E
:10449000012803D02046FFF763FD1CE094F8840157
:1044A000022802D0032811D109E0002084F88801F5
:1044B000012204F5C4712046FFF732FD0AE0012213
:1044C00004F289112046FFF72BFD03E02046FFF799
:1044D00047FD00BF00BF284670BD2DE9F0470446E8
:1044E0004FF00008C14600254FF4B770005B06127C
:1044F000082E4BD2DFE806F04A04090E4A4A41452D
:10450000A16808688047054645E0A168886880473B
:10451000054640E04FF4B770075D062F22D2DFE872
:1045200007F003080D12171CA168086980470546AB
:1045300021E0A1684869804705461CE0A1688869B8
:104540008047054617E0A168C8698047054612E024
:10455000A168486A804705460DE0A168086A80475F
:10456000054608E0606804F5B67182682046904709
:104570004046BDE8F08700BF0DE02046FFF7F0FCA5
:1045800009E02046FFF7ECFC4046F2E72046FFF743
:10459000E7FC4046EDE700BFB5B12888A0B14FF475
:1045A000B970005B80B129884FF4B970005B81421B
:1045B00001DA288802E04FF4B970005B81464A4670
:1045C00020466968FFF7ACFC4046D2E770B5044668
:1045D000002594F88401022802D0032811D100E0BC
:1045E00000BF94F8870128B1D4F88C0140F0020094
:1045F000C4F88C01022204F5C6712046FFF790FC36
:1046000003E02046FFF7ACFC00BF00BF284670BDAA
:1046100010B504466068006A20B160680521026A2E
:104620002046904710BD10B504466068006A20B16E
:1046300060680621026A2046904710BD2DE9F041CE
:104640008046D8F8006000253046FFF767FA074635
:1046500046E007F00100002840D029463046FFF729
:1046600000F9044604F0010088B140F63400805996
:104670000121A940884340F634018851012229468E
:104680003046FFF7E8F8E9B24046FFF772FB04F066
:10469000080020B1082229463046FFF7DCF804F074
:1046A000100020B1102229463046FFF7D4F804F05C
:1046B000400020B1402229463046FFF7CCF804F0F4
:1046C000020020B1022229463046FFF7C4F804F068
:1046D000800018B129464046FFF798FA6D1C7F0804
:1046E000002FB6D1BDE8F08170B50446002504F571
:1046F000B67694F8840103280BD1606804F5B6718E
:10470000826820469047F08810B92046FFF71CFCCD
:1047100003E02046FFF724FC00BF00BF284670BD21
:104720002DE9F04105462E682F1D3046FFF70AFAA5
:104730000446706900F00100002864D104F0020012
:1047400018B102213046FFF7FBF904F4802010B1C4
:104750003846FFF773FF04F4002010B1384600F02C
:1047600054F804F4805038B1384600F097F84FF40C
:1047700080513046FFF7E4F904F0080030B13846C4
:1047800000F002FA08213046FFF7DAF904F400508D
:1047900038B13846FFF7E8FC4FF400513046FFF7D8
:1047A000CFF904F0100010B1384600F0D1F804F44D
:1047B000801038B13846FFF72BFF4FF48011304698
:1047C000FFF7BEF904F4001038B13846FFF72BFFAD
:1047D0004FF400113046FFF7B3F904F0004038B150
:1047E000384600F0F7F94FF000413046FFF7A8F9DE
:1047F00004F4006038B1384600F0D0F94FF400619D
:104800003046FFF79DF9BDE8F0812DE9F0410446FF
:10481000D4F8008000264046FFF789F9074639E0C2
:1048200007F00100A0B331464046FFF706F9054600
:1048300005F0010040B1012231464046FFF7F7F88C
:10484000F1B22046FFF7F6FA05F00800C0B10822E1
:1048500031464046FFF7EBF8F1B22046FFF72AFB5E
:1048600094F8860160B194F886112068D0F80008A9
:1048700061F30A102168C1F80008002084F886015D
:1048800005F0100020B1102231464046FFF7CFF866
:10489000761C7F08002FC3D1BDE8F0812DE9F041DF
:1048A0000646376807F500640025606820F00100BF
:1048B00060603046FFF7C7FD10213846FFF712F958
:1048C00000BF0BE0FF2107F5106000EB4510816091
:1048D00007F5306000EB451081606D1C042DF1D3AD
:1048E0004FF0FF30A0614FF00110E061606920F0EF
:1048F0000100401C6061606920F00200801C606162
:10490000606920F0080008306061206920F0010033
:10491000401C2061206920F00200801C2061206979
:1049200020F008000830206100213846FFF735F9F3
:104930003846FEF731FF012086F884017068006A6E
:1049400020B170680121026A30469047BDE8F081CD
:104950002DE9F0470746D7F8008000221021404695
:10496000FFF7F5F8D8F82060C6F30A15C6F34349F7
:1049700006F00F0000EB400101EBC00107F1BC00A5
:1049800000EB8104B9F1020F0ED1DDB1ABB206F03C
:104990000F0240466169FFF7EBF8606928446061E7
:1049A000E0692844E0610DE0B9F1060F0AD1ABB22D
:1049B00006F00F0207F5BA714046FFF7D9F8E06933
:1049C0002844E061012210214046FFF7C0F8BDE80D
:1049D000F0872DE9F0410446002704F5B675A88854
:1049E000D0B9E888C0B9A87800F07F0694F88401AF
:1049F000032803D12046FFF7B3FA10E084F886615C
:104A00001EB1022084F8840102E0012084F88401B0
:104A10002046FFF799FA02E02046FFF7A1FA384650
:104A2000BDE8F08170B50446002604F5B675A87897
:104A30002D490870A888002850D1E88800284DD159
:104A400094F88401022802D0032842D115E02648B8
:104A5000007870B12448007884F88901032084F834
:104A6000840160680168204688472046FFF76CFA99
:104A700002E02046FFF768FA2FE01B48007870B983
:104A8000022084F884011848007884F8890160685D
:104A90004168204688472046FFF756FA18E094F808
:104AA00089011149097888420FD160684168204620
:104AB00088470D48007884F88901606801682046BD
:104AC00088472046FFF740FA02E02046FFF73CFA0D
:104AD00003E02046FFF744FA00BF02E02046FFF75C
:104AE0003FFA304670BD00008C00002070B50446CF
:104AF000002504F5B676708801280AD184F887016C
:104B0000606804F5B6718268204690472046FFF73A
:104B10001BFA284670BD2DE9F04104460D46276872
:104B200005F0800050B105F07F0000EB400101EB83
:104B3000C00104F10C0000EB810609E005F07F00E4
:104B400000EB400101EBC00104F1BC0000EB810669
:104B500031463846FEF77CFF01207073BDE8F081D6
:104B60000A7802704A7842708B78CA7803EB022286
:104B700042800B794A7903EB022282808B79CA79D1
:104B800003EB0222C280704710B504466068C0691A
:104B900018B16068C1692046884710BD70B50446E9
:104BA000256840F60800405900F0010088B194F8EB
:104BB000840184F88501042084F884012046FFF7ED
:104BC000C8FA6068006A20B160680221026A204663
:104BD000904770BD70B50446256840F60400405902
:104BE00020F0010140F6040041512068FEF7B9FFB2
:104BF00094F8850184F884016068006A20B16068D7
:104C00000321026A2046904770BD000000000000AA
:104C10000000000000000000000000000000000094
:104C20000000000000000000000000000000000084
:104C30000000000000000000000000000000000074
:104C40000000000000000000000000000000000064
:104C50000000000000000000000000000000000054
:104C60000000000000000000000000000000000044
:104C70000000000000000000000000000000000034
:104C80000000000000000000000000000000000024
:104C90000000000000000000000000000000000014
:104CA0000000000000000000000000000000000004
:104CB00000000000000000000000000000000000F4
:104CC00000000000000000000000000000000000E4
:104CD00000000000000000000000000000000000D4
:104CE00000000000000000000000000000000000C4
:104CF00000000000000000000000000000000000B4
:104D000000000000000000000000000000000000A3
:104D10000000000000000000000000000000000093
:104D20000000000000000000000000000000000083
:104D30000000000000000000000000000000000073
:104D40000000000000000000000000000000000063
:104D50000000000000000000000000000000000053
:104D60000000000000000000000000000000000043
:104D70000000000000000000000000000000000033
:104D80000000000000000000000000000000000023
:104D90000000000000000000000000000000000013
:104DA000FFFF000000000000000000000000000005
:104DB00000000000000000000000000000000000F3
:104DC00000000000000000000000000000000000E3
:104DD00000000000000000000000000000000000D3
:104DE00000000000000000000000000000000000C3
:104DF00000000000000000000000000000000000B3
:104E000000000000000000000000000000000000A2
:104E10000000000000000000FFFF00000000000094
:104E20000000000000000000000000000000000082
:104E30000000000000000000FFFF00000000000074
:104E40000000000000000000000000000000000062
:104E50000000000000000000000000000000000052
:104E60000000000000000000000000000000000042
:104E70000000000000000000000000000000000032
:104E80000000000000000000000000000000FFFF24
:104E90000000000000000000000000000000000012
:104EA0000000000000000000000000000000000002
:104EB0000000FFFF000000000000000000000000F4
:104EC00000000000000000000000000000000000E2
:104ED00000000000000000000000000000000000D2
:104EE00000000000000000000000000000000000C2
:104EF00000000000000000000000000000000000B2
:104F0000000000000000FFFF0000000000000000A3
:104F10000000000000000000000000000000000091
:104F200000000000000000000000FFFF0000000083
:104F30000000000000000000000000000000000071
:104F40000000000000000000000000000000000061
:104F50000000000000000000000000000000000051
:104F60000000000000000000000000000000000041
:104F70000000000000000000000000000000FFFF33
:104F80000000000000000000000000000000000021
:104F90000000000000000000000000000000000011
:104FA0000000FFFF00000000000000000000000003
:104FB00000000000000000000000000000000000F1
:104FC00000000000000000000000000000000000E1
:104FD00000000000000000000000000000000000D1
:104FE00000000000000000000000000000000000C1
:104FF000000000000000FFFF0000000000000000B3
:1050000000000000000000000000000000000000A0
:1050100000000000000000000000FFFF0000000092
:105020000000000000000000000000000000000080
:105030000000000000000000000000000000000070
:105040000000000000000000000000000000000060
:105050000000000000000000000000000000000050
:105060000000000000000000000000000000FFFF42
:105070000000000000000000000000000000000030
:105080000000000000000000000000000000000020
:105090007BEFFFFF000000000000000000000000A8
:1050A0000000000000000000000000000000000000
:1050B00000000000000000000000000000000000F0
:1050C00000000000000000000000000000000000E0
:1050D00000000000000000000000000000000000D0
:1050E000000000000000FFFF84100000000000002E
:1050F00000000000000000000000000000000000B0
:105100000000000000000000FFFFFFFF00000000A3
:10511000000000000000000000000000000000008F
:10512000000000000000000000000000000000007F
:10513000000000000000000000000000000000006F
:10514000000000000000000000000000000000005F
:105150000000000000000000000000000000FFFF51
:10516000FFFF000000000000000000000000000041
:10517000000000000000000000000000000000002F
:10518000FFFFFFFF00000000000000000000000023
:10519000000000000000000000000000000000000F
:1051A00000000000000000000000000000000000FF
:1051B00000000000000000000000000000000000EF
:1051C00000000000000000000000000000000000DF
:1051D000000000000000FFFFFFFF000000000000D3
:1051E00000000000000000000000000000000000BF
:1051F0000000000000000000FFFFFFFF00000000B3
:10520000000000000000000000000000000000009E
:10521000000000000000000000000000000000008E
:10522000000000000000000000000000000000007E
:10523000000000000000000000000000000000006E
:105240000000000000000000000000000000FFFF60
:10525000FFFFFFFFFFFF0000000000000000000054
:1052600000000000000000000000FFFF0000000040
:10527000FFFFFFFF00000000000000000000000032
:10528000000000000000000000000000000000001E
:10529000000000000000000000000000000000000E
:1052A00000000000000000000000000000000000FE
:1052B00000000000000000000000000000000000EE
:1052C000000000000000FFFFFFFFFFFFFFFF0000E6
:1052D00000000000000000000000000000000000CE
:1052E000FFFFFFFF0000FFFFFFFFFFFF00000000C8
:1052F00000000000000000000000000000000000AE
:10530000000000000000000000000000000000009D
:10531000000000000000000000000000000000008D
:10532000000000000000000000000000000000007D
:105330000000000000000000000000000000FFFF6F
:10534000000000000000000000000000000000005D
:105350000000000000000000FFFFFFFFFFFF8410BF
:10536000FFFF4208000000000000000000000000F5
:10537000000000000000000000000000000000002D
:10538000000000000000000000000000000000001D
:10539000000000000000000000000000000000000D
:1053A00000000000000000000000000000000000FD
:1053B000000000000000FFFF0000000000000000EF
:1053C00000000000000000007BEFFFFFFFFFFFFF79
:1053D000FFFFFFFFFFFFFFFFFFFF000000000000D7
:1053E00000000000000000000000000000000000BD
:1053F00000000000000000000000000000000000AD
:10540000000000000000000000000000000000009C
:10541000000000000000000000000000000000008C
:105420000000000000000000000000000000FFFF7E
:10543000FFFF0000000000000000000039E7FFFF50
:10544000FFFFFFFFFFFFFFFFFFFFFFFFFFFFFFFF6C
:10545000FFFF00000000000000000000000000004E
:10546000000000000000000000000000000000003C
:10547000000000000000000000000000000000002C
:10548000000000000000000000000000000000001C
:10549000000000000000000000000000000000000C
:1054A0000000000000000000FFFF000000000000FE
:1054B00000000000FFFFFFFFFFFFFFFFFFFFFFFFF8
:1054C000FFFFFFFFFFFFFFFF0000000000000000E4
:1054D00000000000000000000000000000000000CC
:1054E00000000000000000000000000000000000BC
:1054F00000000000000000000000000000000000AC
:10550000000000000000000000000000000000009B
:10551000000000000000000000000000000000008B
:10552000FFFF00000000000000000000FFFFFFFF81
:10553000FFFFFFFFFFFFFFFFFFFFFFFFFFFFFFFF7B
:10554000000000000000000000000000000000005B
:10555000000000000000000000000000000000004B
:10556000000000000000000000000000000000003B
:10557000000000000000000000000000000000002B
:10558000000000000000000000000000000000001B
:1055900000000000FFFFFFFFFFFF00000000000011
:1055A0000000FFFFFFFFFFFFFFFFFFFFFFFFFFFF09
:1055B000FFFFFFFFFFFFFFFFFFFF000000000000F5
:1055C00000000000000000000000000000000000DB
:1055D00000000000000000000000000000000000CB
:1055E00000000000000000000000000000000000BB
:1055F00000000000000000000000000000000000AB
:10560000000000000000000000000000FFFF00009C
:105610008410FFFFFFFF00000000FFFFFFFFFFFF00
:10562000FFFFFFFFFFFFFFFFFFFFFFFFFFFFFFFF8A
:10563000FFFF00000000000000000000000000006C
:10564000000000000000000000000000000000005A
:10565000000000000000000000000000000000004A
:10566000000000000000000000000000000000003A
:10567000000000000000000000000000000000002A
:1056800000000000FFFF0000000000000000FFFF1E
:10569000FFFFFFFFFFFFFFFFFFFFFFFFFFFFFFFF1A
:1056A000FFFF000000000000FFFFFFFF0000000000
:1056B00000000000000000000000000000000000EA
:1056C00000000000000000000000000000000000DA
:1056D00000000000000000000000000000000000CA
:1056E00000000000000000000000000000000000BA
:1056F0000000000000000000000000000000FFFFAC
:105700000000000000000000FFFFFFFFFFFFFFFFA1
:10571000FFFFFFFF00000000000000000000FFFF8F
:10572000FFFF0000BDF700000000000000000000C7
:105730000000000000000000000000000000000069
:105740000000000000000000000000000000000059
:105750000000000000000000000000000000000049
:105760000000000000000000000000000000000039
:1057700000000000000000000000000000007BEFBF
:10578000FFFFFFFFFFFFFFFFFFFFFFFF42080000DB
:1057900000000000BDF7000000000000FFFF000057
:1057A00000000000000000000000000000000000F9
:1057B00000000000000000000000000000000000E9
:1057C00000000000000000000000000000000000D9
:1057D00000000000000000000000000000000000C9
:1057E00000000000000000000000000000000000B9
:1057F00000000000000000000000FFFFFFFFFFFFAF
:10580000FFFFFFFF0000000000000000000000009C
:105810000000FFFFFFFF4208000000000000000042
:105820000000000000000000000000000000000078
:105830000000000000000000000000000000000068
:105840000000000000000000000000000000000058
:105850000000000000000000000000000000000048
:105860000000000000000000000000000000000038
:1058700000000000FFFFFFFFFFFF0000000000002E
:10588000000000000000000000000000FFFF00001A
:105890000000000000000000000000000000000008
:1058A00000000000000000000000000000000000F8
:1058B00000000000000000000000000000000000E8
:1058C00000000000000000000000000000000000D8
:1058D00000000000000000000000000000000000C8
:1058E000000000000000000000000000FFFFFFFFBC
:1058F00000000000000000000000000000000000A8
:1059000000000000FFFF0000000000000000000099
:105910000000000000000000000000000000000087
:105920000000000000000000000000000000000077
:105930000000000000000000000000000000000067
:105940000000000000000000000000000000000057
:105950000000000000000000000000000000000047
:105960000000000000000000000000000000000037
:10597000000000000000000000000000C618000049
:105980000000000000000000000000000000000017
:105990000000000000000000000000000000000007
:1059A00000000000000000000000000000000000F7
:1059B00000000000000000000000000000000000E7
:105BB000FFFFFFFFFFFF00000000000000000000EB
:105BC000000000000000000000000000000042088B
:105BD00000000000000000000000000000000000C5
:105BE00000000000000000000000000000000000B5
:105BF00000000000000000000000000000000000A5
:105C00000000000000000000000000000000000094
:105C10000000000000000000000000000000000084
:105C20000000FFFFFFFFFFFFFFFFFFFFFFFFFFFF82
:105C3000FFFFFFFFFFFFC61800000000FFFFFFFF90
:105C4000FFFFFFFFFFFF0000FFFF0000000000005C
:105C50000000000000000000000000000000000044
:105C60000000000000000000000000000000000034
:105C70000000000000000000000000000000000024
:105C80000000000000000000000000000000000014
:105C90000000000000007BEFFFFFFFFFFFFFFFFFA2
:105CA000FFFFFFFFFFFFFFFFFFFFFFFFFFFF000002
:105CB0000000FFFF0000FFFFFFFFFFFFFFFFFFFFF0
:105CC000FFFFFFFFFFFF00000000000000000000DA
