:020000040800F2
:1000000080230020D50100081D1D00087D0F000879
:10001000611B0008290A00081931000800000000CF
:10002000000000000000000000000000172200088F
:10003000F90B000800000000D31D00080123000890
:10004000EF010008EF010008EF010008EF010008D0
:10005000EF010008EF010008EF010008EF010008C0
:10006000EF010008EF010008EF010008EF010008B0
:10007000EF010008EF010008EF010008EF010008A0
:10008000EF010008EF010008EF010008EF01000890
:10009000EF010008EF010008EF010008EF01000880
:1000A000EF010008EF010008EF010008EF01000870
:1000B0007D24000895240008AD240008EF01000805
:1000C000EF010008EF010008EF010008EF01000850
:1000D000EF010008EF010008EF010008EF01000840
:1000E000EF010008EF010008EF010008EF01000830
:1000F000EF010008EF010008EF010008EF01000820
:10010000EF010008EF01000899250008EF01000841
:10011000652A0008EF010008EF010008EF01000860
:10012000EF010008EF010008EF010008EF010008EF
:1001300000F002F800F03FF80AA090E8000C8244BA
:100140008344AAF10107DA4501D100F034F8AFF297
:10015000090EBAE80F0013F0010F18BFFB1A43F0A5
:1001600001031847F48D0000148E0000103A24BFDC
:1001700078C878C1FAD8520724BF30C830C144BF0C
:1001800004680C607047000000230024002500264E
:10019000103A28BF78C1FBD8520728BF30C148BFEA
:1001A0000B607047642900F07180002070471FB514
:1001B0001FBD10B510BD00F0C9F91146FFF7F7FFDC
:1001C00002F0B4FF00F0E7F903B4FFF7F2FF03BC5D
:1001D00000F0EAF90948804709480047FEE7FEE7D2
:1001E000FEE7FEE7FEE7FEE7FEE7FEE7FEE7FEE7E7
:1001F00004480549054A064B704700001D240008C5
:1002000031010008801D002080230020801F002075
:10021000801F00200FB41CB5074B06AA7B4469461B
:100220000090059800F075F90020694600F084F907
:100230001CBC5DF814FB00001903000070B50446F7
:1002400085690068C10601D5302600E02026C00778
:1002500007D070BDD4E9012130469047206A401C88
:1002600020626D1EF6D570BD70B5044685690078B4
:10027000C00707D170BDD4E9012120209047206A32
:10028000401C20626D1EF6D570BD00002DE9F041C6
:100290000646002410687529314616A510D0AFF324
:1002A0000080002802DA404213A507E031688A077F
:1002B00001D512A502E0490704D511A5012401E0EA
:1002C000AFF3008000210A2206F1240709E0B0FB09
:1002D000F2FCB0FBF2F302FB1C00303078541846FD
:1002E000491C0028F3D123462A463046BDE8F04198
:1002F00000F0B1B8000000002D0000002B0000004D
:10030000200000002DE9F0474FF0000A894604461E
:10031000C0F820A02046E1688847002876D025282C
:1003200006D0D4E901219047206A401C2062F1E701
:10033000E168204600258847C4F81CA0064600272F
:10034000C4F818A02A2E09D0304602F0E7FE38B3D0
:1003500004EB8708303EC8F8186019E059F8041B10
:10036000204604EB87029161E1688847012F064629
:1003700018D1E069002820DA25F020051DE0D8F822
:10038000180000EB800006EB40003038C8F8180079
:100390002046E1688847064602F0C0FE0028EED1FC
:1003A000012F0AD02E2E08D12046E16888477F1CF5
:1003B0000646022F45F02005C4DBA069002803DAB9
:1003C000404245F00105A061E80701D025F0100585
:1003D000B6B1A6F14100192802D8203645F40065CF
:1003E0004A463146204625604D46FFF7DBFE58B1B0
:1003F000012806D0ED1D25F0070000F1080989E766
:1004000004E005F1040985E730468AE7206ABDE883
:10041000F08710B5431C02E010F8011B71B1810791
:10042000FAD14FF0013202C88C1A8C4314EAC2117F
:10043000F9D0C01A0A0603D0C01E10BDC01A10BDE4
:100440000A0401D0801E10BD0902FCD0401E10BD60
:100450007047704770472DE9F0470D469946924620
:10046000044600F124080168880604D5E06921F0FB
:100470001001216000E00120A84201DD471B00E0DF
:100480000027A1697A1902EB0900081AA0612078F7
:10049000C00602D42046FFF7D1FE002608E0D4E9CA
:1004A00001211AF806009047206A401C761C206241
:1004B0004E45F4DB2078C0060AD52046FFF7BEFE85
:1004C00006E0D4E9012130209047206A401C2062D8
:1004D000381EA7F10107F4DC07E0D4E9012118F880
:1004E00005009047206A401C2062281EA5F10105E6
:1004F000F3DC2046FFF7B8FE2078000602D5022084
:10050000BDE8F0870120FBE701694A1C0261087819
:10051000704700B58FB0CDE9013100210591054943
:100520007944CDE9031011466846FFF7EBFE0FB0A2
:1005300000BD0000E5FFFFFF0A6802F8010B0A603A
:100540007047000000487047201D00207546FFF7E7
:10055000F9FFAE4605006946534620F00700854680
:1005600018B020B5FFF744FEBDE820404FF000066C
:100570004FF000074FF000084FF0000B21F007018B
:10058000AC46ACE8C009ACE8C009ACE8C009ACE8CE
:10059000C0098D46704710B50446AFF30080204671
:1005A000BDE81040FFF710BE01491820ABBEFEE7C2
:1005B000260002007047CA430260704721B182687A
:1005C00042F00102826003E0826822F00102826050
:1005D0007047014600208A6802F004020AB1012037
:1005E00000E0002070470246002013680B400BB16A
:1005F000012000E000207047014600208A6802F0D8
:1006000008020AB1012000E00020704730B5024620
:100610000020002350680F4C20400D790C6844EAFC
:1006200005242043506090680B4C2040D1E90254CF
:100630002C434D7944EA450420439060D06A20F46D
:1006400070000C7C641EE4B2234340EA0350D06285
:1006500030BD0000FFFEF0FFFDF7F1FFF0B50446EE
:100660000D4600200021092D11DDE068A5F10A06E4
:1006700006EB4607072606FA07F18843A5F10A06A6
:1006800006EB460603FA06F10843E0600CE0206939
:1006900005EB4507072606FA07F1884305EB4506F3
:1006A00003FA06F108432061072A0FDA606B561E31
:1006B00006EB86071F2606FA07F18843561E06EB4F
:1006C000860605FA06F10843606322E00D2A0FDA78
:1006D000206BD61F06EB86071F2606FA07F1884314
:1006E000D61F06EB860605FA06F10843206310E0E4
:1006F000E06AA2F10D0606EB86071F2606FA07F14F
:100700008843A2F10D0606EB860605FA06F10843BA
:10071000E062F0BD816841F008018160704721B15D
:10072000826842F4A002826003E0826822F4A002A0
:1007300082607047816841F0040181607047000069
:1007400030B10749096841F40001054A116005E02C
:100750000349096821F40001014A11607047000053
:100760000824014030B587B004460D464FF40040E0
:1007700001F030FB0121084601F058FB0121042063
:1007800001F054FB0121480201F050FB4FF4A0603E
:1007900001F0FEFA2C482D4908602D484860042CD1
:1007A0000AD11020ADF8180000208DF81B0006A912
:1007B000284800F0FFFA14E0052C0AD12020ADF8FB
:1007C000180000208DF81B0006A9224800F0F2FA5C
:1007D00007E0102C03D12846FFF7B2FF01E007B075
:1007E00030BD002001908DF8080001208DF809002F
:1007F0004FF4602003900020049001208DF8140035
:1008000001A91548FFF702FFE5B101211248FFF7E2
:10081000D5FE1148FFF77EFF142000F011FA00BF4B
:100820000D48FFF7E9FE0028FAD10B48FFF782FFD9
:1008300000BF0948FFF7CDFE0028FAD10121064884
:10084000FFF76DFF00BFCAE75D0800083000002019
:10085000411F000800080140002401402DE9F04735
:1008600004464FF000090723012221461748FFF7ED
:10087000F5FE01211548FFF752FF012000F0E0F9D5
:1008800000BF02211148FFF7AEFE0028F9D0022177
:100890000E48FFF790FE0D494C31086803F07AFAD4
:1008A00081464FF08B41484603F092F9824603F0AF
:1008B00057F907464FF06632054B02F027FF054611
:1008C00002F0AAFC81464846BDE8F08700240140BA
:1008D00066660A4020B14FF48051044A116004E07A
:1008E0004FF48051014A121F1160704714080140F3
:1008F00038B50446A4B100BF2146042001F096FAA1
:100900004FF48050ADF8000018208DF803006946C0
:100910000C4800F04FFA00BF0020FFF7DBFF0CE0AF
:1009200000BF4FF48050ADF8000000208DF80300A8
:100930006946044800F03EFA00BF0020FFF7CAFFF6
:1009400038BD00000008014000B50A480A490860A7
:100950000A4848600A4888600A4808610A484861AD
:100960000A48C8610A4808620A48486200F014F858
:1009700000BD000015100008701C0020A51F000815
:100980009D2D000865070008C90A0008A51D00087C
:1009900021230008890D00081348144948601448B1
:1009A00008601448086114491048C16113480F4990
:1009B000886113490D48416212480C490862124887
:1009C00088621248C86212490848016311494163AC
:1009D0001149016411480549886311490348C163FD
:1009E000104941647047000089100008981C0020DD
:1009F000C510000841200008992A0008E72A0008CD
:100A0000411F00085D080008550B0008FD0B000899
:100A1000410C0008250C0008E12000080321000813
:100A200009210008552A000800BFFEE739B1084A2D
:100A30001268012383401A43054B1A6006E0044AFA
:100A40001268012383409A43014B1A6070470000EB
:100A50000074004030B5002200230A4C226840F6A2
:100A6000FE748440A243D1E900452C438D682C4399
:100A7000CD6844EA050303FA00F42243014C2260E6
:100A800030BD00000074004008B500220092054A05
:100A9000009200F10802009B1A440092009A116033
:100AA00008BD00000074004008B500220092054A0D
:100AB000009200F11402009B1A440092009A116007
:100AC00008BD00000074004030B585B004460D46F6
:100AD0001D481E4908600121042001F0A7F90121E9
:100AE000480701F083F90020019002900390022052
:100AF000049000208DF8030003208DF802007CB9DB
:100B00001020ADF800006946114800F053F901A922
:100B10000020FFF79FFF29460020FFF787FF10E026
:100B2000102C0ED12020ADF800006946084800F0D6
:100B300041F901A91020FFF78DFF29461020FFF78A
:100B400075FF05B030BD0000550B000838000020CF
:100B5000000801402DE9F05F04468946CA46504628
:100B600002F0FEFF05464FF066321B4B02F0CCFE52
:100B700004D30021504603F021F901D24FF00009BF
:100B80004FF08B41504603F04DF9834602F0E8FFE9
:100B900007464FF06632104B02F024FC054602F087
:100BA0003BFB824644B9504603F0D4F885B229464F
:100BB0000020FFF769FF0DE0102C08D1504603F02C
:100BC000C9F885B229460020FFF76EFF02E0002039
:100BD000BDE8F09F4846FBE766660A4030B504462C
:100BE000002006E0462A02D1255C0D5400E00A549C
:100BF000401C9842F6DB30BD704700000021074AD8
:100C000011600121064A117000BF04490968814240
:100C1000FBDB0021024A1170704700002800002011
:100C20002C00002030B50446254603E04FF47A70CE
:100C300000F006F8281EA5F10105F7DC30BD000024
:100C400001460DE00022094B1A600122084B1A7080
:100C500000BF064A1268642AFBDB0022044B1A70AC
:100C60000A1EA1F10101EDDC704700002800002000
:100C70002C00002030B5044604254FF4302000F04D
:100C80006FF80546042D17D10C48006940F00200AA
:100C90000A49086108464461006940F04000086163
:100CA0004FF4302000F05CF805460448006941F636
:100CB000FD71084001490861284630BD002002400E
:100CC00004200B49C96801F0010109B101200EE0BF
:100CD0000749C96801F0040109B1022007E004498D
:100CE000C96801F0100109B1032000E00420704739
:100CF000002002400348006940F08000014908617B
:100D0000704700000020024070B504460D460426DE
:100D1000F00200F025F80646042E11D109480069BA
:100D200040F00100074908612580F00200F018F842
:100D300006460448006941F6FE7108400149086111
:100D4000304670BD00200240024803494860034815
:100D5000486070472301674500200240AB89EFCD12
:100D600000B502460423FFF7ABFF034603E0FFF79D
:100D7000A7FF0346521E012B01D1002AF7D102B969
:100D80000523184600BD000040B10549054A116021
:100D900005499160054951600549D16070470000DF
:100DA0000321000850180020E12000080921000854
:100DB000552A00082DE9F0410246002500260020B2
:100DC00000230024002791F803C00CF00F0591F8D0
:100DD00003C00CF0100CBCF1000F03D091F802C05E
:100DE0004CEA050591F800C0BCF1000F31D0146841
:100DF00000202BE04FF0010C0CFA00F3B1F800C01A
:100E00000CEA03069E4220D183004FF00F0C0CFA2F
:100E100003F7BC4305FA03FC4CEA040491F803C051
:100E2000BCF1280F06D14FF0010C0CFA00FCC2F8FF
:100E300014C00AE091F803C0BCF1480F05D14FF08F
:100E4000010C0CFA00FCC2F810C0401C0828D1D3D9
:100E50001460B1F800C0BCF1FF0F34DD546800200D
:100E60002EE000F1080C4FF0010808FA0CF3B1F87D
:100E700000C00CEA03069E4221D183004FF00F0C04
:100E80000CFA03F7BC4305FA03FC4CEA040491F89E
:100E900003C0BCF1280F05D100F1080C08FA0CF8CA
:100EA000C2F8148091F803C0BCF1480F07D100F1DB
:100EB000080C4FF0010808FA0CF8C2F81080401C2A
:100EC0000828CED35460BDE8F0810000F0B50A4692
:100ED000002300240021002500F00046B6F1004F59
:100EE00002D11D4EF16901E01B4E7168C0F303454C
:100EF00083B200F44016B6F5401F08D121F07061AE
:100F0000154E766826F07066134F7E6012E000F48E
:100F10008016B6F5801F06D1032606FA05F4A14314
:100F200041F0706106E0460D360103FA06F6B14362
:100F300041F0706122B1460D360103FA06F63143E5
:100F400000F00046B6F1004F02D1034EF16101E01E
:100F5000014E7160F0BD00000000014090F8BC241B
:100F60005AB903885A1C0280021DD1540288B2F576
:100F7000966F02DD012280F8BC24704700BFFEE7B7
:100F800070B505464FF400600F4908602846FFF72A
:100F900035FE4FF480600C4908602846FFF72EFEAE
:100FA00009480838006800F4006008B1012400E036
:100FB00000244FF480600449091D08602846FFF7AB
:100FC0001DFE204670BD0000100C014070B50546A6
:100FD0000C4625B94FF400600D49086004E04FF459
:100FE00000600B49091F08602046FFF707FE4FF419
:100FF00080600749091F08602046FFF7FFFD4FF496
:101000008060034908602046FFF7F8FD70BD0000CE
:10101000140C014038B50446DCB100BF214608205D
:1010200000F004FF4FF44060ADF8000003208DF89D
:10103000020018208DF8030069460F48FFF7BAFE3A
:1010400000BF4FF480600C49103108604000086018
:101050000CE000BF4FF44060ADF8000000208DF8B8
:10106000030069460448FFF7A5FE00BF0348044992
:1010700048600448086038BD000C01408910000831
:10108000601C0020C51000082DE9F04107460D4600
:1010900008260EE02846FFF773FF20B16006040E15
:1010A00044F0010403E06006040E04F0FE04701E28
:1010B000C6B2002EEED129463846FFF787FF2046FC
:1010C000BDE8F0812DE9F04104460D4608260DE00B
:1010D00004F0800008B1012700E0002729463846C7
:1010E000FFF774FF6006040E701EC6B2002EEFD12B
:1010F0002846FFF745FF80464046BDE8F0810000E6
:1011000038B5044684B100BF2146102000F08EFEA1
:101110004FF40050ADF8000048208DF803006946F8
:101120000848FFF747FE0CE000BF4FF40050ADF851
:10113000000000208DF8030069460248FFF73AFEE0
:1011400000BF38BD00100140F0B507460C461546FB
:101150001E462A2000F0CEFC384600F0AFFC2846A0
:1011600000F0ACFC2B2000F0C5FC204600F0A6FCF3
:10117000304600F0A3FC2C2000F0BCFCF0BD2DE9B3
:10118000F04306460F46904699460025444641E006
:101190007A1B91B2321B90B24A4600F095F87A1B46
:1011A00091B2321990B24A4600F08EF83A1991B2D3
:1011B000721B90B24A4600F087F83A1B91B2721B3C
:1011C00090B24A4600F080F87A1991B2321990B282
:1011D0004A4600F079F83A1B91B2721990B24A4629
:1011E00000F072F83A1991B2721990B24A4600F0C2
:1011F0006BF87A1991B2321B90B24A4600F064F84B
:101200006D1C05FB05F004FB040108FB08F081429E
:1012100000DD641EA542BBDDBDE8F0832DE9FF4F74
:1012200084B081468A460020029083460698A0EB4F
:1012300009050798A0EB0A06CDF80490CDF800A0A8
:10124000002D01DD012705E00DB9002702E04FF078
:10125000FF376D42002E02DD4FF0010806E016B99F
:101260004FF0000802E04FF0FF387642B54201DD52
:101270002C4600E03446002003901EE0009A91B214
:10128000019A90B2119A00F01FF802982844029037
:10129000B3440298A04205DD0298001B0290019819
:1012A00038440190A34504DDABEB040B00984044A7
:1012B00000900398401C80B20390611C0398884200
:1012C000DCDB08B0BDE8F08F70B504460D4616466D
:1012D0002B46224629462046FFF736FF304600F0CF
:1012E000EDFB70BD2DE9F84105460E4617469846C0
:1012F000079C33463A46314628460094FFF78EFF56
:1013000043462A46314628460094FFF787FF434666
:101310003A46414628460094FFF780FF43463A4646
:10132000314638460094FFF779FFBDE8F8812DE992
:10133000F04706460F4614461D46DDF820A0681EFD
:1013400083B2601E82B239463046FFF7FDFEB846D2
:101350000EE0B14606E0504600F0B0FB09F1010096
:101360001FFA80F9A145F6DB08F101001FFA80F8A9
:10137000A845EEDBBDE8F08738B5044601210C2016
:1013800000F054FD0121084600F050FD01211748EE
:10139000FFF79CFDB4B14FF43040ADF800001020D1
:1013A0008DF8030003208DF8020069461048FFF70E
:1013B00001FD4FF48060ADF8000069460D48FFF76D
:1013C000F9FC12E04FF43040ADF8000000208DF839
:1013D000030069460648FFF7EDFC4FF48060ADF866
:1013E000000069460348FFF7E5FC38BD0002300005
:1013F000000C01400008014038B504462046FFF7C4
:10140000BBFF4FF480506B4908601420FFF718FCB5
:10141000362000F06FFB7820FFF712FC002000F070
:101420005DFB3A2000F066FB052000F057FBB22080
:1014300000F060FB0C2000F051FB0C2000F04EFB94
:10144000002000F04BFB332000F048FB332000F07D
:1014500045FBB72000F04EFB352000F03FFBBB20E2
:1014600000F048FB192000F039FBC02000F042FBDF
:101470002C2000F033FBC22000F03CFB012000F0E8
:101480002DFBC32000F036FB122000F027FBC42008
:1014900000F030FB202000F021FBC62000F02AFBEA
:1014A0000F2000F01BFBD02000F024FBA42000F054
:1014B00015FBA12000F012FBE02000F01BFBD02068
:1014C00000F00CFB042000F009FB0D2000F006FBEF
:1014D000112000F003FB132000F000FB2B2000F094
:1014E000FDFA3F2000F0FAFA542000F0F7FA4C2001
:1014F00000F0F4FA182000F0F1FA0D2000F0EEFAF6
:101500000B2000F0EBFA1F2000F0E8FA232000F097
:10151000E5FAE12000F0EEFAD02000F0DFFA042036
:1015200000F0DCFA0C2000F0D9FA112000F0D6FA15
:10153000132000F0D3FA2C2000F0D0FA3F2000F066
:10154000CDFA442000F0CAFA512000F0C7FA2F204B
:1015500000F0C4FA1F2000F0C1FA1F2000F0BEFA0C
:10156000202000F0BBFA232000F0B8FA212000F080
:10157000C1FA112000F0BEFA292000F0BBFA782051
:10158000FFF75EFB0020F0231A4601460090FFF7AC
:10159000CEFE09480949C860094888600948486082
:1015A00009480860094888610948C86109484861D4
:1015B00038BD0000140C01407F110008E01C002021
:1015C0001D120008C91200082F1300081117000887
:1015D000E91900084F1A00082DE9FF4F07468A460F
:1015E00090469B460E9D002002900097284605EBF2
:1015F000D071C1F347042046E21704EB5272D210B7
:101600002146E31704EB5373DB10A4EBC3030BB1C8
:10161000012300E000231A446A4392B20192A8F128
:10162000200000F0FF080AEB0500401E83B23819C5
:10163000401E82B251463846FFF786FD00265BE029
:10164000102D05D12F4800EB0810805D039013E0AA
:10165000182D07D108EB48002B4901EB0010805DE5
:10166000039009E0202D05D1284800EB8810805D0B
:10167000039001E0BDE8FF8F4FF0000936E00F98BE
:10168000C8B9012000FA09F00399084018B158467A
:1016900000F014FA02E00D9800F010FA0298401CD5
:1016A000C0B20290029890FBF4F104FB1100C8B99B
:1016B000002002901DE0012000FA09F00399084083
:1016C00020B15A4651463846FFF7FEFD781C87B2D6
:1016D0000098381AA04205D1009F0AF101001FFAB4
:1016E00080FA06E009F1010000F0FF09B9F1080FE6
:1016F000C5DB00BF701C86B201988642A0DB00BF2C
:10170000B8E70000DC5B0008CC6100089C730008AF
:101710002DE9FE470646894615469A46DDE90C48FE
:101720000B9F1CE0182C09D153462A4649463046E7
:10173000CDE90148009700F017F80DE0202C09D101
:1017400053462A4649463046CDE90148009700F005
:10175000AFF801E0BDE8FE87AD1C301986B22878ED
:101760000028DFD100BFF5E72DE9FF4F0646894687
:1017700092469B460E9C0020039000962046E2175E
:1017800004EB5272D2102146E31704EB5373DB10C3
:10179000A4EBC3030BB1012300E000231A4462430E
:1017A00092B2019205200290002579E005EB8500B8
:1017B00000EB45103D4911F810009AF800108842DE
:1017C0006BD105EB850000EB4510384901EB40007B
:1017D00040789AF8011088425FD109EB0400401E5E
:1017E00083B23019401E82B249463046FFF7ACFC46
:1017F00000274FE04FF0000846E00F9808BB05EBCC
:10180000850000EB4510294901EB4000801CC05DBC
:10181000012101FA08F1084018B1584600F04EF9CC
:1018200002E00D9800F04AF90398401CC0B2039002
:10183000039890FBF4F104FB110008BB0020039017
:1018400025E005EB850000EB4510184901EB400051
:10185000801CC05D012101FA08F1084020B15A4600
:1018600049463046FFF730FD701C86B20098301AAA
:10187000A04205D1009E09F101001FFA80F906E09F
:1018800008F1010000F0FF08B8F1080FB5DB00BF58
:10189000781CC7B201988742ACDB00BF681C85B2D8
:1018A0000298854282DBBDE8FF8F00005C8B000858
:1018B0002DE9FF4F0646894692469B460E9C002026
:1018C000039000962046E21704EB5272D210214694
:1018D000E31704EB5373DB10A4EBC3030BB1012339
:1018E00000E000231A44624392B201920520029064
:1018F000002571E005EB85103A4911F810009AF8BF
:101900000010884265D105EB8510364901EB400097
:1019100040789AF8011088425BD109EB0400401E20
:1019200083B23019401E82B249463046FFF70CFCA4
:1019300000274BE04FF0000842E00F98F8B905EBA4
:101940008510284901EB4000801CC05D012101FA8F
:1019500008F1084018B1584600F0B0F802E00D98C0
:1019600000F0ACF80398401CC0B20390039890FBC1
:10197000F4F104FB1100F8B90020039023E005EB1B
:101980008510184901EB4000801CC05D012101FA5F
:1019900008F1084020B15A4649463046FFF794FC0A
:1019A000701C86B20098301AA04205D1009E09F141
:1019B00001001FFA80F906E008F1010000F0FF08BD
:1019C000B8F1080FB9DB00BF781CC7B20198874295
:1019D000B0DB00BF681C85B2029885428ADBBDE897
:1019E000FF8F0000CE8C00082DE9F04F0746884697
:1019F00015461E46DDF82490002408EB0600401E24
:101A000083B27819401E82B241463846FFF79CFBEC
:101A1000A24618E04FF0000B0FE019F8140000F098
:101A20005DF8012101EB440119F8010000F056F8BE
:101A3000641C0BF101001FFA80FBB345EDDB0AF1DA
:101A400001001FFA80FAAA45E4DBBDE8F08F2DE91A
:101A5000FE4305460F4616469846DDE90A94102CCB
:101A600003D0182C01D0202C0FD1204604EBD071CC
:101A7000491069438DB207FB04F087B2F02D00DDF9
:101A8000F025F02F03DDF02701E0BDE8FE8310E034
:101A90000020CDE90094029032784346394628462A
:101AA000FFF79AFD204604EBD07105EB61018DB282
:101AB000761C30780028EBD100BFE6E710B504466D
:101AC0004FF4806004490860201200F01FF8E0B273
:101AD00000F01CF810BD00001008014010B50446CD
:101AE0004FF4806002490860204600F00FF810BDF6
:101AF0001008014010B504464FF4806002490860A8
:101B0000204600F003F810BD140801404FF4805245
:101B1000124B1A60002118E04FF400520F4B1A606C
:101B200000F0800222B14FF400421B1F1A6003E054
:101B30004FF40042094B1A604FF40052074B1B1F31
:101B40001A604206100E4A1CD1B20829E4DB4FF499
:101B50008052024B1B1F1A6070470000140C01409A
:101B600000BFFEE71CB5FEF7EFFE00F0A7F83C480B
:101B7000016A012088473A4801224FF4E131836825
:101B800003209847364801210269102090473548C4
:101B90000168012088473448009034483C231A46A5
:101BA0000021C469B420A04710200021CDE9001015
:101BB0002E484FF61F032EA244691620A047182076
:101BC0000021CDE9001029484FF4784329A2446947
:101BD0000520A04710200021CDE9001023484FF434
:101BE000784327A20E2144691D20A0471A232D22E5
:101BF000244925A0FEF7F2FF10200021CDE90010B6
:101C00001A481F2321A2022144690020A047102066
:101C10000021CDE90010154840F2FF7320A20321F6
:101C200044690020A04710200021CDE900100F4892
:101C30004FF6FF73134A042144690220A0471E2374
:101C40000022104910A0FEF7C9FF0120FFF758FA43
:101C50000120FEF74DFE1848416B012088471CBD4E
:101C6000701C002044000020BC3F0008001D002024
:101C700047440000436176656E2050726F0000009B
:101C80003100000070000020313233002D3E204D25
:101C90004355203A2032362E3130204320000000B8
:101CA0002D3E2054494D453A2030303A30303A30BC
:101CB0003020532000000000981C002000B503488D
:101CC0000349086000F006F800BD0000F9130008A1
:101CD000440000200848094908600948486009484C
:101CE00088600948C860094808610948486109488E
:101CF00088610948C86170472F130008001D002043
:101D0000C91200081D1200087F110008E512000822
:101D10004F1A000811170008E91900087047000061
:101D200070B5002100230F22C47804B3154C246839
:101D300004F4E064C4F5E064210AC1F10403CA407C
:101D4000447804FA03F184781440214309010E4CCD
:101D50000678A155047804F01F050124AC400578ED
:101D60006D11AD0005F1E025C5F8004109E00478EA
:101D700004F01F050124AC40044D0678761145F8A7
:101D8000264070BD0CED00E000E400E080E100E0E2
:101D900002490143024A1160704700000000FA0541
:101DA0000CED00E02DE9F04104460D4616461F46B5
:101DB000042C05D13A463146284600F083FB06E064
:101DC000082C04D13A463146284600F0F1FBBDE824
:101DD000F081704701460020034A506820F44040DB
:101DE00008435060704700000010024029B1064AC5
:101DF000D2690243044BDA6104E0034AD2698243A8
:101E0000014BDA61704700000010024029B1064A18
:101E100012690243044B1A6104E0034A12698243C7
:101E2000014B1A61704700000010024029B1064AB8
:101E300092690243044B9A6104E0034A9269824327
:101E4000014B9A61704700000010024029B1064A18
:101E5000D2680243044BDA6004E0034AD26882434A
:101E6000014BDA60704700000010024030B50021DD
:101E70000022002400232D4D6D6805F00C0121B1D6
:101E8000042905D0082923D105E0294D056022E069
:101E9000274D05601FE0254D6D6805F47012234D38
:101EA0006D6805F48034022505EB92421CB9214D82
:101EB000554305600BE01D4D6D6805F400351DB1FF
:101EC0001C4D5543056002E0194D5543056002E085
:101ED000174D056000BF00BF144D6D6805F0F0019F
:101EE0000909154D6B5C0568DD4045600F4D6D6857
:101EF00005F4E061090A104D6B5C4568DD408560C2
:101F00000A4D6D6805F46051C90A0B4D6B5C45685C
:101F1000DD40C560054D6D6805F44041890B074DF6
:101F20006B5CC568B5FBF3F5056130BD0010024080
:101F300000127A0000093D005C0000206C000020C7
:101F40002DE9FC471020FEF789FC8246504601F03F
:101F500007FE06460E4A0F4B01F00CFD04460E4AE2
:101F60000E4B01F03FFA804600220D4B01F086F93E
:101F7000CDE9000101F050F982460021504601F000
:101F80001DFF01D28AF0004A5046BDE8FC870000E0
:101F9000E17A14AE47E1F63F85EB51B81E85DB3F91
:101FA0000000394038B5044601210846FFF73EFFDE
:101FB00001211F48FEF78AFF44B300BF21460820D5
:101FC000FFF734FF4FF43040ADF8000003208DF8E8
:101FD000020010208DF8030069461648FEF7EAFE5D
:101FE0004FF48040ADF8000048208DF803006946AA
:101FF0001048FEF7DFFE00BF4FF400400D491031DE
:10200000086080100860401008600CE000BF4FF4CA
:102010007040ADF8000000208DF8030069460548C7
:10202000FEF7C8FE00BF04480449086038BD000040
:1020300000023000000C0140412000083C0000205C
:102040002DE9F041074688460025802630022349C5
:102050000860801008604010091D08604046FEF7C7
:10206000CDFD00242CE04FF400501C49091D0860F0
:1020700007FA04F03040B04204D14FF40040091F89
:10208000086004E04FF400401449091D0860404610
:10209000FEF7B4FD4FF40050104908600F480838AF
:1020A000006800F4804018B146FA04F0054302E0ED
:1020B0000020204105434046FEF7A0FD601CC4B24D
:1020C000082CD0DB4FF40040044908608010086001
:1020D000401008602846BDE8F0810000100C014067
:1020E00030B503460C461546002207E0184600F0BE
:1020F00008F824F812009B1C501C82B2AA42F5DB9F
:1021000030BD0146088870472DE9F05F80468A4659
:102110001746B8F1006F02D33348804501D3BDE8BC
:10212000F09FFEF711FEA8F1006B4FEA9B25CBF361
:102130004809C9F50074A74200DC3C464DE04FF069
:10214000006101EB85208A142849FFF7C9FF0026AA
:102150000BE009EB0600254931F810004FF6FF713E
:10216000884200D003E0701C86B2A642F1DB00BFBB
:10217000A6421BDA4FF0006101EB8520FEF77AFDE5
:10218000002608E03AF8160006EB0901174A22F883
:102190001100701C86B2A642F4DB4FF0006101EB27
:1021A00085208A14114900F023F804E022465146A4
:1021B000404600F01DF8A74200D10FE06D1C4FF023
:1021C00000090AEB440AA044381B87B2B7F5007F28
:1021D00002DD4FF4007400E03C46B0E700BFFEF7BC
:1021E00089FD00BF9BE70000000002086018002086
:1021F0002DE9F04105460E461746002407E036F863
:1022000014102846FEF780FDAD1C601C84B2BC4251
:10221000F5DBBDE8F081704710B500F001F810BDA6
:102220000CB50020019000903348006840F48030E5
:102230003149086000BF3048006800F40030009069
:102240000198401C0190009818B90198B0F57F4F93
:10225000F1D12948006800F4003010B1012000904D
:1022600001E0002000900098012843D12348006835
:1022700040F01000214908600846006820F0030083
:1022800008600846006840F0020008601A4840688C
:10229000194948600846406848600846406840F46C
:1022A000806048600846406820F47C10486008461A
:1022B000406840F4E81048600846006840F08070CC
:1022C000086000BF0C48006800F000700028F9D0DA
:1022D0000948406820F00300074948600846406804
:1022E00040F00200486000BF0348406800F00C0066
:1022F0000828F9D10CBD0000001002400020024067
:1023000000B50548007820B104480068401C034926
:10231000086000F04FF800BD2C00002028000020CD
:1023200070B5034653B31E4800681E4AB0FBF2F175
:10233000B1F1807F01D301201DE021F07F40401EDC
:102340004FF0E022506150170F22002807DA1407DF
:10235000260E154C00F00F052D1F665503E01407DF
:10236000250E124C255400BF00204FF0E022906152
:1023700007201061002090B100BFFEE700BF0A48AF
:102380000C38006800F4E06009490843001D064964
:102390000C390860BFF34F8F00BF00BFFEE770BD70
:1023A00048000020A086010018ED00E000E400E0F5
:1023B0000000FA0517484068401C16494860084666
:1023C00040681549884224DD0120124948600846CA
:1023D0008068401C886008468078401C88700846E9
:1023E00080783B2815DD0020887008464078401C26
:1023F0004870084640783B280BDD002048700846AE
:102400000078401C087008460078172801DD00207D
:10241000087070471C000020A086010010B513480A
:10242000006840F001001149086008464068104902
:1024300008400E494860084600680E4908400B49AC
:1024400008600846006820F480200860084640685C
:1024500020F4FE0048604FF41F008860FFF7DCFEA8
:102460004FF000600449086010BD000000100240F9
:102470000000FFF8FFFFF6FE08ED00E04FF080409F
:10248000008A4FF08040008A20F001004FF0804128
:1024900008827047044800880348008820F0010043
:1024A000014908807047000010040040044800887B
:1024B0000348008820F001000149088070470000AF
:1024C0001008004070B588B005460E4614462146F7
:1024D0000420FFF78BFC01210820FFF7A7FC012156
:1024E0000846FFF7A3FC4FF47070ADF81C001CB158
:1024F00018208DF81F0002E000208DF81F00032037
:102500008DF81E0007A92248FEF754FCADF81450C0
:10251000ADF810600020ADF81600ADF8120004A967
:102520001C4800F045FA7020ADF800000120ADF81D
:1025300002000220ADF808006946164800F0DCF8F9
:102540000821144800F024F96946124800F02AF9DD
:102550000821104800F078F969460E4800F082F929
:1025600008210C4800F0CEF969460A4800F0D4F979
:102570000821084800F00EFA00220121054800F069
:10258000B2F82146034800F093F808B070BD00008F
:10259000000C0140000800400448008803480088FF
:1025A00020F001000149088070470000100C004035
:1025B00070B588B005460E46144621464FF40050CB
:1025C000FFF734FC01211020FFF730FC0121084601
:1025D000FFF72CFC4FF47070ADF81C001CB11820F4
:1025E0008DF81F0002E000208DF81F0003208DF8F9
:1025F0001E0007A92648FEF7DDFBADF81450ADF824
:1026000010600020ADF81600ADF812008DF818002B
:1026100004A9204800F0CCF97020ADF8000001209A
:10262000ADF802000220ADF808006946194800F034
:1026300063F80821174800F0ABF86946154800F028
:10264000B1F80821134800F0FFF86946114800F07E
:1026500009F908210F4800F055F969460D4800F0C6
:102660005BF908210B4800F095F90121094800F0B9
:102670002BF80121074800F00FF80022012105483E
:1026800000F031F82146034800F012F808B070BDA0
:10269000001001400034014021B1028842F0800264
:1026A000028004E002884FF67F731A400280704770
:1026B00021B1028842F00102028004E002884FF654
:1026C000FE731A400280704731B1B0F8442042F4E2
:1026D0000042A0F8442005E0B0F84420C2F30E0206
:1026E000A0F8442070471AB183890B43838102E02C
:1026F00083898B438381704770B5002400220023B7
:10270000058C4FF6FE7635400584028C8388048B59
:102710004FF68F752C40B51E2C400D882C43751E2E
:102720002A400D892A434D882A43144DA8420BD0D4
:10273000134DA84208D0134DA84205D0124DA8420F
:1027400002D0124DA84213D14FF6F7752A404D8999
:102750002A434FF6FB752A408D882A434FF6FF65C2
:102760002B404FF6FF552B408D892B43CD892B43B2
:1027700083800483CD888586028470BD002C01404F
:102780000034014000400140004401400048014045
:102790000A460021018B4FF6F7731940114301835C
:1027A0007047000070B5002400220023058C4FF60E
:1027B000EF7635400584028C8388048B48F6FF75DC
:1027C0002C404FF6FF452C400D884FF6FF7606EA69
:1027D00005252C434FF6DF752A400D8906EA0515BD
:1027E0002A434D8806EA05152A43154DA84202D012
:1027F000144DA8421DD14FF67F752A404D894FF6E2
:10280000FF7606EA05152A434FF6BF752A408D88E4
:1028100006EA05152A434FF6FF352B404FF2FF75A8
:102820002B408D8906EA85052B43CD8906EA85056F
:102830002B4383800483CD880587028470BD00000C
:10284000002C0140003401400A460021018B4FF268
:10285000FF7319404FF6FF7303EA02231943018304
:102860007047000070B5002400220023058C4FF64D
:10287000FF6635400584028C8388848B4FF68F7504
:102880002C404FF6FC752C400D882C434FF6FF551D
:102890002A400D894FF6FF7606EA05252A434D8822
:1028A00006EA05252A43154DA84202D0144DA84238
:1028B0001DD14FF2FF752A404D894FF6FF7606EA8B
:1028C00005252A434FF6FF352A408D8806EA05255F
:1028D0002A434EF6FF752B404DF6FF752B408D8930
:1028E00006EA05152B43CD8906EA05152B4383809F
:1028F0008483CD888587028470BD0000002C014050
:10290000003401400A460021818B4FF6F7731940CD
:10291000114381837047000070B50022002300241A
:10292000058C4EF6FF7635400584038C8488828BB7
:1029300048F6FF752A404FF6FF452A400D884FF6AE
:10294000FF7606EA05252A434DF6FF752B400D89D3
:1029500006EA05352B434D8806EA05352B430B4D1A
:10296000A84202D00A4DA84208D14BF6FF752C4070
:102970008D894FF6FF7606EA85152C438480828385
:10298000CD88A0F84050038470BD0000002C0140A9
:10299000003401400A460021818B4FF2FF73194039
:1029A0004FF6FF7303EA0223194381837047000047
:1029B000002202881D4B98420ED01D4B98420BD02E
:1029C000B0F1804F08D01B4B984205D01A4B98426B
:1029D00002D01A4B984204D14FF68F731A404B889D
:1029E0001A43174B984207D0164B984204D04FF623
:1029F000FF431A40CB881A4302808B8883850B885B
:102A000003850A4B98420BD0094B984208D00E4BD5
:102A1000984205D00D4B984202D00D4B984201D1FF
:102A20000B7A03860123838270470000002C01404B
:102A3000003401400004004000080040000C004049
:102A400000100040001400400040014000440140DC
:102A50000048014013B50446012201A92046FFF7B2
:102A600053FB1CBD10B540F22551094800F0D1F8C8
:102A700060B140F22551064800F05BF8044800F0D0
:102A800083F9C4B221460348FEF768FA10BD00007E
:102A9000004C0040901300202DE9F04107460D4600
:102AA000144626464FF00008B4F5966F02DD00206C
:102AB000BDE8F08111E0404608F10108295C384684
:102AC00000F067F900BF4021384600F095F8002873
:102AD000F9D04021384600F02CF8301EA6F101064E
:102AE000E9D10120E4E72DE9F04106460C462046F5
:102AF000FDF78FFC05460027B5F5966F01DDBDE8B3
:102B0000F08110E038467F1C215C304600F041F92E
:102B100000BF4021304600F06FF80028F9D0402176
:102B2000304600F006F8281EA5F10105EAD100BFE5
:102B3000E5E701F40072B2F5007F00D100BFCA439F
:102B40000280704721B1828942F40052828104E000
:102B500082894DF6FF731A408281704710B5044692
:102B60002048844209D101218803FFF76FF9002131
:102B70004FF48040FFF76AF932E01B48844209D1E4
:102B800001214804FFF742F900214FF40030FFF71C
:102B90003DF925E01548844209D101218804FFF759
:102BA00035F900214FF48020FFF730F918E0104884
:102BB000844209D10121C804FFF728F900214FF40C
:102BC0000020FFF723F90BE00A48844208D10121D5
:102BD0000805FFF71BF900214FF48010FFF716F9E5
:102BE00010BD000000380140004400400048004093
:102BF000004C00400050004002460020B1F5007F2C
:102C000000D100BF13880B400BB1012000E0002071
:102C1000704770B50246002400230025002040F6CE
:102C20006A16B14200D100BFC1F3421501F01F0383
:102C3000012606FA03F3012D02D19689334006E0FE
:102C4000022D02D1168A334001E0968A33400C12DD
:102C5000012606FA04F41688344013B10CB10120A1
:102C600000E0002070BDF0B50346002400260025DA
:102C7000002040F66A17B94200D100BF1846C1F3E0
:102C8000421401F01F06012707FA06F5012C01D1B5
:102C90000C3004E0022C01D1103000E014301AB1E5
:102CA00007682F43076002E00768AF430760F0BD85
:102CB0002DE9F04786B005460E460024A24600BF27
:102CC000A1460027B08900B100BF2F462C8A4CF6E0
:102CD000FF700440F08804432C82AC894EF6F31058
:102CE0000440B08831890843718908430443AC81AA
:102CF000AC8A4FF6FF400440B0890443AC8201A87F
:102D0000FFF7B4F81F48874202D1DDF810A001E0B8
:102D1000DDF80CA0A88900F4004040B10AEBCA001D
:102D200000EB0A1031684900B0FBF1F807E00AEB4C
:102D3000CA0000EB0A1031688900B0FBF1F864208A
:102D4000B8FBF0F004012009642101FB1089A88977
:102D500000F4004040B1322000EBC900B0FBF1F0BC
:102D600000F00700044308E0322000EB0910642162
:102D7000B0FBF1F000F00F0004432C8106B0BDE879
:102D8000F08700000038014001468888C0F3080041
:102D90007047C1F3080282807047000070B586B0AA
:102DA00004460D4616464FF4A060FEF7F1FF0121E0
:102DB0000846FFF73BF8012C4FD101210820FFF70F
:102DC00035F83146A003FFF731F801210420FEF762
:102DD0007DF8C748FFF7C2FE4020ADF8140003207D
:102DE0008DF8160018208DF8170005A9C148FDF7C9
:102DF000E1FF8020ADF8140048208DF8170005A9E8
:102E0000BC48FDF7D7FF01950020ADF810000C205D
:102E1000ADF80E000020ADF80C00ADF80A00ADF8DA
:102E2000080001A9B248FFF743FF012240F22551F3
:102E3000AF48FFF718FF3146AD48FFF783FE252066
:102E40008DF8000001208DF801008DF802008DF84A
:102E500003006846FEF764FF47E1022C4CD10121D4
:102E60000420FEF7E3FF31462004FEF7BFFF0420F5
:102E7000ADF8140018208DF8170003208DF8160007
:102E800005A99D48FDF796FF0820ADF81400042021
:102E90008DF8170005A99848FDF78CFF01950020D3
:102EA000ADF80800ADF80A00ADF80C00ADF8100060
:102EB0000C20ADF80E0001A99048FFF7F9FE4FF481
:102EC000A060FEF765FF26208DF8000000208DF839
:102ED00001008DF8020001208DF803006846FEF71E
:102EE0001FFF012240F225518448FFF7BCFE314606
:102EF0008248FFF727FEF8E0032C54D1012110206F
:102F0000FEF794FF31464FF48020FEF76FFF01215A
:102F10007B48FDF7DBFF4FF48060ADF8140018200C
:102F20008DF8170003208DF8160005A97548FDF7E8
:102F300041FF4FF40060ADF8140004208DF8170035
:102F400005A97048FDF736FF01950020ADF808008F
:102F5000ADF80A00ADF80C00ADF810000C20ADF88B
:102F60000E0001A96848FFF7A3FE4FF4A060FEF72A
:102F70000FFF27208DF8000001208DF801000220AE
:102F80008DF8020001208DF803006846FEF7C8FEA8
:102F9000012240F225515C48FFF765FE31465A4850
:102FA000FFF7D0FDA1E0042C4FD101211020FEF746
:102FB0003DFF31466004FEF719FF2002ADF8140012
:102FC00018208DF8170003208DF8160005A94D482C
:102FD000FDF7F0FE6002ADF8140004208DF8170034
:102FE00005A94848FDF7E6FE4FF416500190002071
:102FF000ADF80800ADF80A00ADF80C00ADF810000F
:103000000C20ADF80E0001A94048FFF751FE4FF427
:10301000A060FEF7BDFE34208DF8000001208DF881
:10302000010003208DF8020001208DF8030068469E
:10303000FEF776FE012240F225513448FFF713FED9
:1030400031463248FFF77EFD4FE0052C4BD1012180
:103050003020FEF7EBFE31464FF48010FEF7C6FE3F
:103060004FF48050ADF8140018208DF8170003209D
:103070008DF8160005A92348FDF79CFE0420ADF845
:1030800014008DF8170005A92148FDF793FE01955E
:103090000020ADF810000C20ADF80E000020ADF8B7
:1030A0000C00ADF80A00ADF8080001A91948FFF7B7
:1030B000FFFD35208DF8000001208DF80100022071
:1030C0008DF8020001208DF803006846FEF728FE07
:1030D000012240F225510F48FFF7C5FD31460D484A
:1030E000FFF730FD01E006B070BD00BFFBE7000058
:1030F00000380140000C014000080140004400403D
:10310000100014000010014000480040004C004036
:10311000001401400050004000BFFEE730380A288C
:1031200001D2012070470020704700001CB5FEF757
:1031300019FD48E0244880780090234843780278BD
:1031400022A12948FDF766F810200021CDE90010E2
:10315000264840F2FF73244A032144690020A04717
:103160001E230022204922A0FDF738FD2148806857
:1031700000F400502049086008460068A0B901200A
:10318000FDF7A8FB1D481EA182692048904710202A
:103190000021CDE90010154840F2FF731CA2032165
:1031A00044691520A0470EE00020FDF793FB102096
:1031B0000021CDE900100D4840F2FF7315A2032154
:1031C00044691520A047B5E71C0000202D3E20547F
:1031D000494D453A202532643A2532643A25326415
:1031E000205320200000000070000020001D00205F
:1031F000313233000010014018000020981C0020DC
:103200004B4559202D4C20210D0A0000004800405C
:10321000302000003120000021F00042A2F1605275
:10322000B2F5801F01F0004328BFD2F17F6C0BD9AB
:103230005FEA001C43EAC20242EB507018BF7047BD
:1032400028BF20F001007047B2F5801FBCBF1846B0
:1032500070474FEA410C1CF5001F02D2084600F0EF
:10326000A8BE70B500F0FCFA00000089FFF7F6BFB9
:103270004FF00040A0F580007047000010B591EAC3
:10328000030F48BF83F0004300F18883841A71EB79
:10329000030C05D2121943EB0C03001B61EB0C016C
:1032A000DFF824E14FEA1154A4EB135C1EEA430F4C
:1032B00018BF9EEA445F73D023EA0E03DCF1200EB0
:1032C00021EA045143F4801332D322FA0CFE10EBAE
:1032D0000E0023FA0CFE41EB0E01CCF1200E03FA96
:1032E0000EFE10EB0E0051F10001B1F5801FCCF184
:1032F000200E32D201EB045112FA0EF2BDE810405A
:1033000058BF7047401C38BF5FEA420218BF704781
:10331000002814BF20F0010041F100014FEA4103F1
:1033200013F5001F38BF7047A1F1C04100F0E6BAA5
:10333000012A43EB0302ACF1200CDCF11F0E32BF7B
:103340004FF0000E23FA0CF310EB030041EB045195
:10335000B4EB115FD0D0A1EB045101F58011490805
:103360005FEA300001EB04510ED350F1000038BF8A
:1033700012FA0EFE08D1BDE81040C9E7401C38BF64
:103380005FEA4202CAD1C3E7BDE810404FEA4103F9
:1033900013F5001F38BF7047A1F1C04100F0AEBA6D
:1033A0009EEA445F08D011EA5E0FBDE8104004BFFA
:1033B00001F0004100207047BDE8104070B500F0FA
:1033C0004FFA00BF64FBBE3E0000E0FF491058BF4B
:1033D000C1F140415B1058BFC3F140438B42EFF352
:1033E000008070472DE9C04130B4DFF8A0C23CEA4C
:1033F000111418BF3CEA131400F0EC8081EA0305B5
:103400001CEA111444EAD57418BF1CEA131500F025
:10341000C780A4EB05044FF0004545EAC12145EA09
:10342000C32341EA505143EA525304F17F74994255
:1034300004F500344FEAC0204FEAC22208BF904290
:1034400000F09C804FEA13650FF24016765D4FEA5C
:10345000134506FB05F7C7F1807706FB07F74FEA30
:10346000D737A7FB03687642C8F58038A7FB06CE9E
:1034700038BFA8F1010807FB08E64FF0000EA6FBD5
:10348000028CE6FB03CEDCF1000CCEF1004E38BF1F
:10349000AEF1010EA6FB0C584FF000074FF00005EF
:1034A000E6FB0E87A1FB08C6A0FB07CE16EB0E06B7
:1034B00045F10005E1FB076515F1E04E7EBFA4F57F
:1034C00080345FEA46066D4116F1800745F100053C
:1034D0004FEA17274FEA066647EA0567A6F1DE4678
:1034E000B6F1805F4FEA15251FD9384624F0010C4C
:1034F00005EBC471BCF1FE6F01EB0C1102D8F0BCFE
:10350000BDE8008124425CBF01F5801E9EEAC47FB5
:1035100002D4F0BCBDE80081244238D4F0BCA1F153
:10352000C041BDE8004100F0E9B94FEAD22242EAC9
:1035300043524FEAD323A7FB02864FEAD02040EA4A
:10354000415007FB03661EEA0E0F4FEAD12105FB2F
:10355000026658BFA6EB0056B6EB00564FEA520E75
:103560004EEAC37E18EB0E0E56EB530EBDD518EB8C
:1035700002085E417F1C55F10005B6E74FF4801547
:103580004FF000074FF000064FF00008ADE7F0BC29
:103590004FF0000001F1C04101F00041BDE80081A1
:1035A00011EA0C1F0CEA131500D00CE013EA0C1FF3
:1035B00000F025804FF00000F0BC81EA030101F02B
:1035C0000041BDE80081F0BCBDE8004181EA030193
:1035D00000F094B9F0BCBDE8004170B500F040F9CE
:1035E000097EFC3E00F007B881EA03014FF00000BD
:1035F00001F00041704781EA030100F07FB9F0BC9F
:10360000BDE800414FF0000021497047FFFDFBF984
:10361000F7F5F4F2F0EEEDEBE9E8E6E4E3E1E0DE05
:10362000DDDBDAD8D7D5D4D3D1D0CFCDCCCBCAC877
:10363000C7C6C5C4C2C1C0BFBEBDBCBBBAB9B8B79E
:10364000B6B5B4B3B2B1B0AFAEADACABAAA9A8A891
:10365000A7A6A5A4A3A3A2A1A09F9F9E9D9C9C9B5F
:103660009A9999989797969595949393929191900A
:103670008F8F8E8E8D8C8C8B8B8A8989888887879B
:103680008685858484838382828181800000FF0710
:103690000000F87F51EA030C17D41CF5801F58BFB7
:1036A000BCF5801F00F10680994218BF704708BF23
:1036B0009042704707D711F5801F58BF13F5801F40
:1036C00019D499427047894270471CF5801F08D56C
:1036D000BCF5801FF7D58B4218BF704708BF8242E8
:1036E00070474FF4001C1CEB410F38BF1CEB430F1D
:1036F00001D28B42704770B500F0B2F892244900B5
:103700004FF000514FF08053FFF760BEDFF848C123
:1037100070B51CEA111E1EBF1CEA13159EEA0C0FA1
:1037200095EA0C0F00F06F8081EA030423EA4C1342
:103730004EEAD47E21EA4C1141F4801143F4801307
:10374000AE44A1FB024CA0FB0365AEF17F7E3619AF
:1037500055EB0C05A1FB034C4CF10003A0FB021C34
:1037600016EB0C06654153F10003094218BF46F001
:10377000010613F4007F0BD14FEA03314FEA053005
:10378000340341EA155140EA16506FF003020AE093
:103790004FEAC3214FEAC520F40241EA555140EAFD
:1037A00056506FF0020202EB2E4201EB025585EA01
:1037B000CE710AD05FEA440C18BF24F0004450F1E7
:1037C000000041F1000120EAD47040F2FE7C624525
:1037D00000D270BDA84214BF4FF080444FF0404467
:1037E000002E08BF0024BEF1806FA8BFA1F1C04128
:1037F000BDE8704080F282804FF0000001F1C041CE
:1038000001F0004170479EEA0C0F0CEA131518BF37
:1038100095EA0C0F06D04FF0000081EA030E0EF07F
:10382000004170BD00F01CF88900013E00F007B8AF
:1038300000F009B84FEA430C5FEA5C5C08D081EA0B
:10384000030100F05BB84FEA410C5FEA5C5CF6D123
:103850004FF00000014970470000FF070000F87FAB
:103860000EF1020E2EF0030E5EF8046B364205D404
:10387000012A43EB030515F5001F12D8012841EB7F
:10388000010C1CF5001F0CD80ED14FEAD17C15F5A8
:10389000001F0CEB4C0C0CF1020C08BF4CEBD37C62
:1038A00004E04FF0080C01E04FEAD37C0CEB4C0530
:1038B00026FA05F606F00706B6F1040C06D20EEB62
:1038C000860CBDE870404CF0010C6047DFE80CF05E
:1038D000090B02024FF000414FF00000A1F500215A
:1038E00070BD19461046012851EB010418BFD4F5EC
:1038F000001484BF002001F0004170BD0808A0F54D
:1039000000114FEA3101704753EA010C17D41CF53E
:10391000801F58BFBCF5801F00F106808B4218BF86
:10392000704708BF8242704707D713F5801F58BF02
:1039300011F5801F19D48B4270479B4270471CF5CC
:10394000801F08D5BCF5801FF7D5994218BF704776
:1039500008BF904270474FF4001C1CEB430F38BF68
:103960001CEB410F01D2994270470FB40CBC03BC51
:10397000FFF7C1BE91EA030F10B581F000413FF59A
:1039800085AC83F0004300F009B8000010B591EA5F
:10399000030F48BF83F000433FF578AC841A71EB06
:1039A000030C07D212198CF0004C43EB0C03001BE4
:1039B00061EB0C01DFF8A4E14FEA1154A4EB135CB6
:1039C0001EEA430F18BF9EEA445F00F0B08023EA6E
:1039D0006E03524221EA0451C3EB6E0338BF5B1EF3
:1039E000DCF1200E25D322FA0CFE10EB0E0043FA78
:1039F0000CFE41EB0E01CCF1200E03FA0EFE10EB93
:103A00000E0051F10001CCF1200E29D412FA0EF271
:103A100001EB0451BDE8104058BF7047401C1CBF6B
:103A2000B2F1004F704700280CBF491C20F0010084
:103A3000704712EB020E43EB030218BF4FF0010E6A
:103A40004EEA4202ACF1200CDCF11E0E54D943FACE
:103A50000CFE10EB0E0051F1FF31CCF11E0ED5D54E
:103A60000EF1010E12FA0EFE404141EB010101EB95
:103A7000445C5FEA5C5C10D910EBDE7001EB045132
:103A800038BFBEF1004FBDE8104018BF7047002896
:103A90000CBF491C20F00100704730D24FEAD42CF3
:103AA00011F5001124F400641BD0B1FA81F20B3A35
:103AB000A41AA41ED2F12003914030FA03F3194353
:103AC000904001EBCC71002C01EB0451BDE810409B
:103AD000A8BF704701F1C0414FF0000001F0004164
:103AE0007047B0FA80F310FA03F100D110BDE41A68
:103AF000173C4805C90AE4E701EB045110BD491021
:103B000001EB0451BDE810404FEA300002E04FF0F5
:103B1000000170474A0008BF0042F8D0B2F5001F0C
:103B200028BF704701F000414FF0000070479EEA47
:103B3000445F07D011EA5E0FBDE8104004BF0021CA
:103B400000207047BDE8104070B5FFF789FE00BF48
:103B500040DFF63E83F00041104670470000E0FF72
:103B600043004FEAD30C4FEA3C0C43401FBF4007D1
:103B70000CF1605113F0FE4F70471CF0006F03D141
:103B800000200CF0004170470CF0004343EA5070F5
:103B900010B540EACC0000F0C6F900BF000000926A
:103BA0004FEA0001FFF7AABE4FF000414FF00000BE
:103BB000A1F500217047401058BFC0F140404910A6
:103BC00058BFC1F140418142EFF3008070470000CF
:103BD0004FF47F0C1CEAD0121EBF1CEAD11392EAEC
:103BE0000C0F93EA0C0F00F0858090EA010F48BF9C
:103BF00042F4807240F4000C41F400002CF07F414C
:103C000020F07F4000B58142A2EB03020FF2081CB6
:103C1000ACEB504EC0F100009EF800E04FEA4E0EB3
:103C200000FB0EFC38BF49004FEA2C1C02F5FA02DB
:103C30000CFB0EF34FEACE1E4FEA112C4FEAC121C6
:103C40000EEB635E42EB22420EFB0CFC4FEA1C5370
:103C500000FB03114FEA112C4FEA01310EFB0CFC63
:103C60004FEADC4C00FB0C11C14228BF09184CEB99
:103C700003335DF804EB10EB410143EBC250B2F5A6
:103C80007C0F38BF704729D512F0F00F1CBF00F130
:103C9000C04000F0004070470081828384858687A1
:103CA00088898B8C8D8E8F919293959697999A9CFB
:103CB0009D9FA0A2A3A5A7A8AAACAEB0B2B3B5B76A
:103CC000B9BCBEC0C2C5C7C9CCCED1D4D7D9DCDF40
:103CD000E2E6E9ECF0F3F7FAFE0000004FEA400CF0
:103CE0000CF1807CBCF17E4F28BF7047B0F1C04022
:103CF00000F05FB990EA010F0CEAD11348BF42F41B
:103D00008072624538BF634507D213F47F0F16D027
:103D100080EA010000F00040704710B500F003F9A0
:103D2000097EFC3E00F005B880EA010000F000408A
:103D3000704780EA010000F0004000F03AB912F448
:103D40007F0F04BF0248704780EA010000F031B9DC
:103D50000000C07FC10DD1F19E0206DB4FEA0023B7
:103D600043F0004323FA02F07047004207D54FEAC0
:103D70004001B1F1FE4F02D24FF00000704710B584
:103D800000F0D1F849922480002070476FEA2000AB
:103D900070470000B0FA80F310FA03F2C3F19D03FC
:103DA0000AD0D90501EB1220530638BF704700F145
:103DB000010008BF20F001007047000050EA010C2C
:103DC00000F113801CF5000F58BFBCF5000F01D4A3
:103DD0008842704707D710F5000F58BF11F5000F44
:103DE00015D488427047894270471CF5000F04D5EE
:103DF000BCF5000FF7D5814270474FF0807C1CEB7B
:103E0000400F38BF1CEB410F01D28142704710B503
:103E100000F089F8922449004FF000504FF0805193
:103E2000FFF7C9BE4FF47F0C1CEAD0121EBF1CEA7C
:103E3000D11392EA0C0F93EA0C0F00F0478090EA3E
:103E4000010F48BF42F480724FF0004C4CEA002052
:103E50004CEA012102EB0302A0FB0113A2F50002D0
:103E6000002918BF43F001035B0028BF4FEA33036A
:103E700042EB22425FEA132C4CEBC2502EBFBCEB4C
:103E8000436FB2F57C0F70474FEA036CBCF1004FF3
:103E900008BF20F00100B2F57C0F38BF70470BD58A
:103EA00082F0FF0212F5803FC8BF704700F1C040AA
:103EB000D8BF00F00040704700F5000C5FEA4C0CE2
:103EC00048BF7047B0F1C04000F073B890EA010FEE
:103ED0000CEAD11348BF42F48072624538BF634593
:103EE00004D280EA010000F00040704710B500F0F5
:103EF0001AF800BF8900013E00F007B800F009B8C9
:103F00005FEA410C5FEA1C6C08D080EA010000F017
:103F100050B85FEA400C5FEA1C6CF6D14FF00040ED
:103F2000A0F5800070470EF1020E2EF0030E5EF831
:103F3000044B244204D44FEA4102B2F17F4F11D81E
:103F40004FEA4003B3F17F4F0CD80ED14FEAD07C3B
:103F5000B2F17F4F0CEB4C0C0CF1020C08BF4CEB98
:103F6000D17C04E04FF0080C01E04FEAD17C0CEB6F
:103F70004C0324FA03F404F00704B4F1040C06D251
:103F80000EEB840CBDE810404CF0010C6047DFE8FC
:103F90000CF0070802024FF00040A0F5800010BDB1
:103FA0000846420018BFD2F1807288BF00F000407E
:103FB00010BDFF2141EAD050C0057047000000004D
:103FC00000000000000000000000000000000000F1
:103FD00000000000000000000000000000000000E1
:103FE00000000000000000000000000000000000D1
:103FF00000000000000000000000000000000000C1
:1040000000000000000000000000000000000000B0
:1040100000000000000000000000000000000000A0
:104020000000000000000000000000000000000090
:104030000000000000000000000000000000000080
:104040000000000000000000000000000000000070
:104050000000000000000000000000000000000060
:104060000000000000000000000000000000000050
:104070000000000000000000000000000000000040
:104080000000000000000000000000000000000030
:104090000000000000000000000000000000000020
:1040A0000000000000000000000000000000000010
:1040B0000000000000000000000000000000000000
:1040C00000000000000000000000000000000000F0
:1040D00000000000000000000000000000000000E0
:1040E00000000000000000000000000000000000D0
:1040F00000000000000000000000000000000000C0
:1041000000000000000000000000000000000000AF
:10411000000000000000000000000000000000009F
:10412000000000000000000000000000000000008F
:10413000000000000000000000000000000000007F
:10414000000000000000000000000000000000006F
:10415000FFFF000000000000000000000000000061
:10416000000000000000000000000000000000004F
:10417000000000000000000000000000000000003F
:10418000000000000000000000000000000000002F
:10419000000000000000000000000000000000001F
:1041A000000000000000000000000000000000000F
:1041B00000000000000000000000000000000000FF
:1041C0000000000000000000FFFF000000000000F1
:1041D00000000000000000000000000000000000DF
:1041E0000000000000000000FFFF000000000000D1
:1041F00000000000000000000000000000000000BF
:1042000000000000000000000000000000000000AE
:10421000000000000000000000000000000000009E
:10422000000000000000000000000000000000008E
:104230000000000000000000000000000000FFFF80
:10424000000000000000000000000000000000006E
:10425000000000000000000000000000000000005E
:104260000000FFFF00000000000000000000000050
:10427000000000000000000000000000000000003E
:10428000000000000000000000000000000000002E
:10429000000000000000000000000000000000001E
:1042A000000000000000000000000000000000000E
:1042B000000000000000FFFF000000000000000000
:1042C00000000000000000000000000000000000EE
:1042D00000000000000000000000FFFF00000000E0
:1042E00000000000000000000000000000000000CE
:1042F00000000000000000000000000000000000BE
:1043000000000000000000000000000000000000AD
:10431000000000000000000000000000000000009D
:104320000000000000000000000000000000FFFF8F
:10433000000000000000000000000000000000007D
:10434000000000000000000000000000000000006D
:104350000000FFFF0000000000000000000000005F
:10436000000000000000000000000000000000004D
:10437000000000000000000000000000000000003D
:10438000000000000000000000000000000000002D
:10439000000000000000000000000000000000001D
:1043A000000000000000FFFF00000000000000000F
:1043B00000000000000000000000000000000000FD
:1043C00000000000000000000000FFFF00000000EF
:1043D00000000000000000000000000000000000DD
:1043E00000000000000000000000000000000000CD
:1043F00000000000000000000000000000000000BD
:1044000000000000000000000000000000000000AC
:104410000000000000000000000000000000FFFF9E
:10442000000000000000000000000000000000008C
:10443000000000000000000000000000000000007C
:104440007BEFFFFF00000000000000000000000004
:10445000000000000000000000000000000000005C
:10446000000000000000000000000000000000004C
:10447000000000000000000000000000000000003C
:10448000000000000000000000000000000000002C
:10449000000000000000FFFF84100000000000008A
:1044A000000000000000000000000000000000000C
:1044B0000000000000000000FFFFFFFF0000000000
:1044C00000000000000000000000000000000000EC
:1044D00000000000000000000000000000000000DC
:1044E00000000000000000000000000000000000CC
:1044F00000000000000000000000000000000000BC
:104500000000000000000000000000000000FFFFAD
:10451000FFFF00000000000000000000000000009D
:10452000000000000000000000000000000000008B
:10453000FFFFFFFF0000000000000000000000007F
:10454000000000000000000000000000000000006B
:10455000000000000000000000000000000000005B
:10456000000000000000000000000000000000004B
:10457000000000000000000000000000000000003B
:10458000000000000000FFFFFFFF0000000000002F
:10459000000000000000000000000000000000001B
:1045A0000000000000000000FFFFFFFF000000000F
:1045B00000000000000000000000000000000000FB
:1045C00000000000000000000000000000000000EB
:1045D00000000000000000000000000000000000DB
:1045E00000000000000000000000000000000000CB
:1045F0000000000000000000000000000000FFFFBD
:10460000FFFFFFFFFFFF00000000000000000000B0
:1046100000000000000000000000FFFF000000009C
:10462000FFFFFFFF0000000000000000000000008E
:10463000000000000000000000000000000000007A
:10464000000000000000000000000000000000006A
:10465000000000000000000000000000000000005A
:10466000000000000000000000000000000000004A
:10467000000000000000FFFFFFFFFFFFFFFF000042
:10468000000000000000000000000000000000002A
:10469000FFFFFFFF0000FFFFFFFFFFFF0000000024
:1046A000000000000000000000000000000000000A
:1046B00000000000000000000000000000000000FA
:1046C00000000000000000000000000000000000EA
:1046D00000000000000000000000000000000000DA
:1046E0000000000000000000000000000000FFFFCC
:1046F00000000000000000000000000000000000BA
:104700000000000000000000FFFFFFFFFFFF84101B
:10471000FFFF420800000000000000000000000051
:104720000000000000000000000000000000000089
:104730000000000000000000000000000000000079
:104740000000000000000000000000000000000069
:104750000000000000000000000000000000000059
:10476000000000000000FFFF00000000000000004B
:1047700000000000000000007BEFFFFFFFFFFFFFD5
:10478000FFFFFFFFFFFFFFFFFFFF00000000000033
:104790000000000000000000000000000000000019
:1047A0000000000000000000000000000000000009
:1047B00000000000000000000000000000000000F9
:1047C00000000000000000000000000000000000E9
:1047D0000000000000000000000000000000FFFFDB
:1047E000FFFF0000000000000000000039E7FFFFAD
:1047F000FFFFFFFFFFFFFFFFFFFFFFFFFFFFFFFFC9
:10480000FFFF0000000000000000000000000000AA
:104810000000000000000000000000000000000098
:104820000000000000000000000000000000000088
:104830000000000000000000000000000000000078
:104840000000000000000000000000000000000068
:104850000000000000000000FFFF0000000000005A
:1048600000000000FFFFFFFFFFFFFFFFFFFFFFFF54
:10487000FFFFFFFFFFFFFFFF000000000000000040
:104880000000000000000000000000000000000028
:104890000000000000000000000000000000000018
:1048A0000000000000000000000000000000000008
:1048B00000000000000000000000000000000000F8
:1048C00000000000000000000000000000000000E8
:1048D000FFFF00000000000000000000FFFFFFFFDE
:1048E000FFFFFFFFFFFFFFFFFFFFFFFFFFFFFFFFD8
:1048F00000000000000000000000000000000000B8
:1049000000000000000000000000000000000000A7
:104910000000000000000000000000000000000097
:104920000000000000000000000000000000000087
:104930000000000000000000000000000000000077
:1049400000000000FFFFFFFFFFFF0000000000006D
:104950000000FFFFFFFFFFFFFFFFFFFFFFFFFFFF65
:10496000FFFFFFFFFFFFFFFFFFFF00000000000051
:104970000000000000000000000000000000000037
:104980000000000000000000000000000000000027
:104990000000000000000000000000000000000017
:1049A0000000000000000000000000000000000007
:1049B000000000000000000000000000FFFF0000F9
:1049C0008410FFFFFFFF00000000FFFFFFFFFFFF5D
:1049D000FFFFFFFFFFFFFFFFFFFFFFFFFFFFFFFFE7
:1049E000FFFF0000000000000000000000000000C9
:1049F00000000000000000000000000000000000B7
:104A000000000000000000000000000000000000A6
:104A10000000000000000000000000000000000096
:104A20000000000000000000000000000000000086
:104A300000000000FFFF0000000000000000FFFF7A
:104A4000FFFFFFFFFFFFFFFFFFFFFFFFFFFFFFFF76
:104A5000FFFF000000000000FFFFFFFF000000005C
:104A60000000000000000000000000000000000046
:104A70000000000000000000000000000000000036
:104A80000000000000000000000000000000000026
:104A90000000000000000000000000000000000016
:104AA0000000000000000000000000000000FFFF08
:104AB0000000000000000000FFFFFFFFFFFFFFFFFE
:104AC000FFFFFFFF00000000000000000000FFFFEC
:104AD000FFFF0000BDF70000000000000000000024
:104AE00000000000000000000000000000000000C6
:104AF00000000000000000000000000000000000B6
:104B000000000000000000000000000000000000A5
:104B10000000000000000000000000000000000095
:104B200000000000000000000000000000007BEF1B
:104B3000FFFFFFFFFFFFFFFFFFFFFFFF4208000037
:104B400000000000BDF7000000000000FFFF0000B3
:104B50000000000000000000000000000000000055
:104B60000000000000000000000000000000000045
:104B70000000000000000000000000000000000035
:104B80000000000000000000000000000000000025
:104B90000000000000000000000000000000000015
:104BA00000000000000000000000FFFFFFFFFFFF0B
:104BB000FFFFFFFF000000000000000000000000F9
:104BC0000000FFFFFFFF420800000000000000009F
:104BD00000000000000000000000000000000000D5
:104BE00000000000000000000000000000000000C5
:104BF00000000000000000000000000000000000B5
:104C000000000000000000000000000000000000A4
:104C10000000000000000000000000000000000094
:104C200000000000FFFFFFFFFFFF0000000000008A
:104C3000000000000000000000000000FFFF000076
:104C40000000000000000000000000000000000064
:104C50000000000000000000000000000000000054
:104C60000000000000000000000000000000000044
:104C70000000000000000000000000000000000034
:104C80000000000000000000000000000000000024
:104C9000000000000000000000000000FFFFFFFF18
:104CA0000000000000000000000000000000000004
:104CB00000000000FFFF00000000000000000000F6
:104CC00000000000000000000000000000000000E4
:104CD00000000000000000000000000000000000D4
:104CE00000000000000000000000000000000000C4
:104CF00000000000000000000000000000000000B4
:104D000000000000000000000000000000000000A3
:104D10000000000000000000000000000000000093
:104D2000000000000000000000000000C6180000A5
:104D30000000000000000000000000000000000073
:104D40000000000000000000000000000000000063
:104D50000000000000000000000000000000000053
:104D60000000000000000000000000000000000043
:104F6000FFFFFFFFFFFF0000000000000000000047
:104F700000000000000000000000000000004208E7
:104F80000000000000000000000000000000000021
:104F90000000000000000000000000000000000011
:104FA0000000000000000000000000000000000001
:104FB00000000000000000000000000000000000F1
:104FC00000000000000000000000000000000000E1
:104FD0000000FFFFFFFFFFFFFFFFFFFFFFFFFFFFDF
:104FE000FFFFFFFFFFFFC61800000000FFFFFFFFED
:104FF000FFFFFFFFFFFF0000FFFF000000000000B9
:1050000000000000000000000000000000000000A0
:105010000000000000000000000000000000000090
:105020000000000000000000000000000000000080
:105030000000000000000000000000000000000070
:105040000000000000007BEFFFFFFFFFFFFFFFFFFE
:10505000FFFFFFFFFFFFFFFFFFFFFFFFFFFF00005E
:105060000000FFFF0000FFFFFFFFFFFFFFFFFFFF4C
:10507000FFFFFFFFFFFF0000000000000000000036
:105080000000000000000000000000000000000020
:105090000000000000000000000000000000000010
:1050A0000000000000000000000000000000000000
:1050B0000000000000000000000000000000FFFFF2
:1050C000FFFFFFFFFFFFFFFFFFFFFFFFFFFFFFFFF0
:1050D000FFFFFFFFFFFFFFFF00000000FFFFFFFFDC
:1050E000FFFFFFFFFFFFFFFFFFFFFFFFFFFFFFFFD0
:1050F00000000000000000000000000000000000B0
:10510000000000000000000000000000000000009F
:10511000000000000000000000000000000000008F
:10512000000000000000000000000000000000007F
:1051300000000000FFFFFFFFFFFFFFFFFFFFFFFF7B
:10514000FFFFFFFFFFFFFFFFFFFFFFFFFFFFFFFF6F
:10515000FFFFFFFFFFFFFFFFFFFFFFFFFFFFFFFF5F
:10516000FFFFFFFFFFFFFFFFFFFF00000000000049
:10517000000000000000000000000000000000002F
:10518000000000000000000000000000000000001F
:10519000000000000000000000000000000000000F
:1051A00000000000000000000000FFFFFFFFFFFF05
:1051B000FFFFFFFFFFFFFFFFFFFFFFFF8410000067
:1051C000FFFFFFFFFFFFFFFFFFFFFFFFFFFFFFFFEF
:1051D000FFFFFFFFFFFFFFFFFFFFFFFFFFFFFFFFDF
:1051E000FFFF0000000000000000000000000000C1
:1051F00000000000000000000000000000000000AF
:10520000000000000000000000000000000000009E
:10521000000000000000000000000000000000008E
:105220000000FFFF0000FFFFFFFFFFFFFFFF000088
:105230000000FFFFFFFFFFFFFFFFFFFFFFFFFFFF7C
:10524000FFFFFFFFFFFFFFFFFFFFFFFFFFFF8410D8
:105250000000FFFFFFFFFFFFFFFF00000000000056
:10526000000000000000000000000000000000003E
:10527000000000000000000000000000000000002E
:10528000000000000000000000000000000000001E
:10529000000000000000000000000000FFFFFFFF12
:1052A000FFFFFFFFFFFF0000000000000000000004
:1052B0007BEFFFFFFFFFFFFFFFFFFFFFFFFFFFFF92
:1052C000FFFFFFFF00000000FFFFFFFFFFFFFFFFEA
:1052D000FFFF0000000000000000000000000000D0
:1052E00000000000000000000000000000000000BE
:1052F00000000000000000000000000000000000AE
:10530000000000000000000000000000000000009D
:1053100000000000FFFFFFFFFFFFFFFFFFFFFFFF99
:105320000000000000000000000084100000FFFFEB
:10533000FFFFFFFFFFFFFFFFFFFF00000000000077
:10534000FFFFFFFFFFFFFFFFFFFFFFFF0000000069
:10535000000000000000000000000000000000004D
:10536000000000000000000000000000000000003D
:10537000000000000000000000000000000000002D
:1053800000000000000000000000FFFFFFFFFFFF23
:10539000FFFFFFFFFFFFFFFF000000000000000015
:1053A0000000FFFFFFFFFFFFFFFFFFFFFFFFFFFF0B
:1053B000FFFFFFFF00000000FFFFFFFFFFFFFFFFF9
:1053C000FFFFFFFFBDF7000000000000000000002D
:1053D00000000000000000000000000000000000CD
:1053E00000000000000000000000000000000000BD
:1053F00000000000000000000000000000000000AD
:105400000000FFFFFFFFFFFFFFFFFFFFFFFFFFFFAA
:10541000000000000000000000000000FFFF00008E
:105420007BEFFFFFFFFFFFFFFFFF00000000FFFF1C
:10543000FFFFFFFFFFFFFFFFFFFFFFFFFFFF00007A
:10544000000000000000000000000000000000005C
:10545000000000000000000000000000000000004C
:10546000000000000000000000000000000000003C
:1054700000000000000000000000FFFFFFFFFFFF32
:10548000FFFFFFFFFFFF0000000000000000000022
:1054900000000000FFFF0000FFFFFFFFFFFFFFFF16
:1054A000FFFF00000000FFFFFFFFFFFFFFFFFFFF08
:1054B000FFFFFFFFFFFF00000000000000000000F2
:1054C00000000000000000000000000000000000DC
:1054D00000000000000000000000000000000000CC
:1054E00000000000000000000000000000000000BC
:1054F0007BEFFFFFFFFFFFFFFFFFFFFFFFFF00004E
:10550000000000000000000000000000FFFFFFFF9F
:10551000FFFFFFFFFFFFFFFFFFFF00000000000095
:105520000000FFFFFFFFFFFFFFFFFFFFFFFF000087
:10553000000000000000000000000000000000006B
:10554000000000000000000000000000000000005B
:10555000000000000000000000000000000000004B
:105560000000000000000000FFFFFFFFFFFFFFFF43
:10557000FFFFFFFFFFFF0000000000000000000031
:10558000000000000000000000000000000000001B
:1055900000000000000000007BEFFFFFFFFF42085B
:1055A000FFFFFFFFFFFF0000000000000000000001
:1055B00000000000000000000000000000000000EB
:1055C00000000000000000000000000000000000DB
:1055D00000000000000000000000000000000000CB
:1055E000FFFFFFFFFFFFFFFFFFFFFFFFFFFF0000C9
:1055F0000000000000000000000000000000FFFFAD
:105600000000FFFF000000000000FFFF000000009E
:10561000FFFFFFFFFFFF0000FFFFFFFF0000000094
:10562000000000000000000000000000000000007A
:10563000000000000000000000000000000000006A
:10564000000000000000000000000000000000005A
:10565000FFFFFFFF000000000000FFFFFFFF000052
:10566000FFFFFFFFFFFF0000000000000000000040
:10567000000000000000FFFF0000FFFF000000002E
:105680000000000000000000FFFFFFFFFFFF000020
:10569000000000000000000000000000000000000A
:1056A00000000000000000000000000000000000FA
:1056B00000000000000000000000000000000000EA
:1056C000FFFF420800000000FFFFFFFFFFFFFFFF9A
:1056D0000000000039E7FFFFFFFFFFFFFFFF0000B2
:1056E00000000000000000000000FFFF00000000BC
:1056F000000000008410FFFF00000000FFFF00001A
:10570000FFFFFFFFFFFFFFFF0000000000000000A1
:10571000FFFFFFFFFFFF000000000000000000008F
:105720000000000000000000000000000000000079
:105730000000420800007BEFFFFFFFFFFFFFFFFFBD
:10574000FFFF00000000000000000000FFFFFFFF5F
:10575000FFFFFFFF0000000000000000FFFFFFFF51
:10576000FFFFFFFFFFFFFFFFFFFFFFFFFFFFFFFF49
:10577000FFFFFFFFFFFF000039E7FFFFFFFFFFFF15
:1057800000000000FFFFFFFFFFFFFFFFFFFFFFFF25
:10579000FFFFFFFFFFFF000000000000000000000F
:1057A0000000000000000000FFFFFFFFFFFFFFFF01
:1057B000FFFFFFFFFFFFFFFFFFFF000000000000F3
:1057C00000000000FFFFFFFFFFFF000000000000DF
:1057D00000000000FFFFFFFFFFFFFFFFFFFFFFFFD5
:1057E000FFFFFFFFFFFFFFFFFFFFFFFFFFFFFFFFC9
:1057F0000000FFFFFFFFFFFF000000000000BDF7FB
:10580000FFFFFFFFFFFFFFFFFFFFFFFFFFFFFFFFA8
:105810000000000000000000000000000000000088
:10582000FFFFFFFFFFFFFFFFFFFFFFFFFFFFFFFF88
:10583000FFFFFFFF000000000000FFFFFFFFFFFF72
:10584000FFFF0000000000000000FFFFFFFFFFFF60
:10585000FFFFFFFFFFFFFFFFFFFFFFFFFFFFFFFF58
:10586000FFFFFFFFFFFFFFFF0000FFFFFFFFFFFF46
:10587000FFFF000039E7FFFFFFFFFFFFFFFFFFFF14
:10588000FFFFFFFF0000000000000000000000001C
:105890000000000000000000000000000000000008
:1058A0008410FFFFFFFFFFFFFFFFFFFFFFFFFFFF72
:1058B000FFFFFFFFFFFFFFFF00000000841000005C
:1058C0000000FFFFFFFFFFFFFFFFFFFFFFFFFFFFE6
:1058D000FFFFFFFFFFFFFFFFFFFFFFFFFFFFFFFFD8
:1058E000FFFFFFFFFFFFFFFFFFFFFFFFFFFFFFFFC8
:1058F000FFFFFFFFFFFFFFFF84100000000000001C
:105900000000000000000000000000000000000097
:105910000000000000000000000000000000000087
:10592000000000000000000000008410FFFF42089B
:105930000000000000000000FFFFFFFFFFFFFFFF6F
:10594000FFFFFFFFFFFFFFFFFFFFFFFFFFFFFFFF67
:10595000FFFFFFFFFFFFFFFFFFFFFFFF0000FFFF55
:10596000FFFFFFFF841000000000000000000000A7
:105970000000000000000000000000000000000027
:105980000000000000000000000000000000000017
:105990000000000000000000000000000000000007
:1059A00000000000000000000000FFFF0000FFFFFB
:1059B000FFFFFFFFFFFFFFFFFFFFFFFFFFFFFFFFF7
:1059C000FFFFFFFFFFFFFFFFFFFFFFFFFFFFFFFFE7
:1059D000FFFFFFFF42080000000000000000000081
:1059E00000000000000000000000000000000000B7
:1059F00000000000000000000000000000000000A7
:105A00000000000000000000000000000000000096
:105A10000000000000000000000000000000000086
:105A200000000000FFFFFFFFFFFFFFFFFFFFFFFF82
:105A3000FFFFFFFF00000000000000008410FFFFD8
:105A4000FFFFFFFFFFFFFFFFFFFFFFFF0000000062
:105A50000000000000000000000000000000000046
:105A60000000000000000000000000000000000036
:105A70000000000000000000000000000000000026
:105A80000000000000000000000000000000000016
:105A90000000000000000000000000000000000006
:105AA00000000000000000000000000000000000F6
:105AB00000000000000000000000000000000000E6
:105AC00000000000000000000000000000000000D6
:105AD00000000000000000000000000000000000C6
:105AE00000000000000000000000000000000000B6
:105AF00000000000000000000000000000000000A6
:105B00000000000000000000000000000000000095
:105B10000000000000000000000000000000000085
:105B20000000000000000000000000000000000075
:105B30000000000000000000000000000000000065
:105B40000000000000000000000000000000000055
:105B50000000000000000000000000000000000045
:105B60000000000000000000000000000000000035
:105B70000000000000000000000000000000000025
:105B80000000000000000000000000000000000015
:105B90000000000000000000000000000000000005
:105BA00000000000000000000000000000000000F5
:105BB00000000000000000000000000000000000E5
:105BC00000000000000000000000000000000000D5
:105BD00000000000000000000000000000000000C5
:105BE00000000000000000000000000000000008AD
:105BF00008080808080800001818000000486C246D
:105C0000120000000000000000000000000000245E
:105C100024247F1212127F12121200000000081CAE
:105C20002A2A0A0C1828282A2A1C08080000002200
:105C3000251515152A585454542200000000000C54
:105C40001212120A76252911916E00000006060430
:105C500003000000000000000000000000402010D1
:105C60001008080808080810102040000002040866
:105C700008101010101010080804020000000000A6
:105C800008086B1C1C6B08080000000000000000E6
:105C9000080808087F080808080000000000000045
:105CA00000000000000000000606040300000000E1
:105CB00000000000FE0000000000000000000000E6
:105CC0000000000000000000060600000000804008
