S31508000000B809002049010008F1150008AD110008DB
S31508000010C9150008910C0008B32C00080000000060
S31508000020000000000000000000000000EB1A0008B5
S31508000030610E000800000000A7160008D51B00087E
S3150800004063010008630100086301000863010008F2
S3150800005063010008630100086301000863010008E2
S3150800006063010008630100086301000863010008D2
S3150800007063010008630100086301000863010008C2
S3150800008063010008630100086301000863010008B2
S3150800009063010008630100086301000863010008A2
S315080000A06301000863010008630100086301000892
S315080000B06D1D0008851D00089D1D000863010008C8
S315080000C06301000863010008630100086301000872
S315080000D0630100082929000889290008E929000878
S315080000E06301000863010008630100086301000852
S315080000F06301000863010008630100086301000842
S315080001006301000863010008891E000863010008EE
S3150800011055230008B5230008630100086301000899
S315080001206301000863010008630100086301000811
S31508000130DFF810D000F0A0FB00480047953500080E
S31508000140AFF30080B80900200648804706480047F4
S31508000150FEE7FEE7FEE7FEE7FEE7FEE7FEE7FEE769
S31508000160FEE7FEE70D1D00083101000880EA0102DE
S3150800017010B502F00043400022D04A001FD0010EFD
S3150800018001EB1261C0F35600C2F3560240F40000B8
S3150800019042F40002A0FB022000047F39140400D0B8
S315080001A0401C50EA124001D44000491EC2B20C0657
S315080001B004EBD010401C4008802A02D003E000203F
S315080001C010BD20F00100002900DA0020184310BDF8
S315080001D030B480EA010202F0004530F0004221F016
S315080001E0004013D090B1C30DD40DC2F31601C0F36D
S315080001F01600E41A41F4000140F400027D349142ED
S3150800020001D3641C00E04900002C02DA30BC00204F
S3150800021070474FF400000023914201D3891A034323
S3150800022040084FEA4101F7D151B1914202D14FF04E
S31508000230004105E002D24FF0010101E06FF0010133
S3150800024003EBC450284430BC00F06ABA2DE9FE4FCF
S31508000250804681EA0300C00F0C46009021F0004159
S3150800026023F00045B8EB0200A94105D240462146D5
S3150800027090461C460B46024623F00040104347D0E2
S31508000280270DC7F30A00C3F30A510290401A0190DA
S3150800029040286BDAC3F3130040F4801B009892469B
S315080002A020B10023D2EB030A63EB0B0B01985946E6
S315080002B0C0F14002504600F002FA06460D46504686
S315080002C05946019A00F01AFA10EB08006141002419
S315080002D087EA115284EAE7731A4340D0009A62B358
S315080002E0019A012A4FEA075215DC001B61EB02014D
S315080002F04FF0004202EA0752CDE90042001C41F5E0
S31508000300801132462B4600F051FA03B0BDE8F08F53
S3150800031040462146F9E7001B61EB0201001C41F546
S31508000320801300185B412018A2F5001747EB03015C
S3150800033040EAD570B6196D4111E06D084FEA3606E8
S3150800034045EAC0754FEA0752001B61EB0201001C23
S3150800035041F5801149084FEA3000001951413246EB
S315080003602B4603B0BDE8F04F00F011BA0098012201
S3150800037040000023D0EB020263EBE07300982146AD
S315080003804FEAE074B8EB000061EB0401E9E783F09B
S3150800039000435BE781F0004158E72DE9FE4F81EA0B
S315080003A0030404F0004421F0004100944FF0000BD0
S315080003B023F0004350EA01045ED052EA03045BD0FE
S315080003C0C3F30A54C1F30A552C44A4F2F334019436
S315080003D0A0FB0254C1F3130141F48011C3F31303C4
S315080003E043F4801301FB024400FB034E840A970A78
S315080003F044EA815447EA8357A4FB076802958D0AA5
S3150800040005FB07854FEA932C04FB0C542705029D30
S315080004104FEA065847EA1637B5EB08056EEB070CA0
S31508000420870E920E47EA811742EA8312A7FB02015A
S31508000430B6EB0B0164EB00042B0D43EA0C335E1894
S3150800044044EB1C50DA465146E7FB0201C5F3130498
S315080004504FEA0B3343EA14534FEA0432019C43EA4A
S315080004600603A4F10C040294009CCDE900B400F044
S315080004709DF903B0BDE8F08F00200146F9E72DE9A4
S31508000480F04D81EA030404F0004B21F000451446C0
S315080004904FF0000A23F0004150EA050220D054EA42
S315080004A001021DD0C5F30A570246C5F31303C1F36B
S315080004B01300C1F30A5640F4801543F48013A7EBE2
S315080004C00608101BD64608F2FD3873EB050002D362
S315080004D008F1010801E092185B41B8F1000F03DA50
S315080004E000200146BDE8F08D00204FF48011064635
S315080004F084460EE0171B73EB050705D3121B63EB47
S31508000500050306434CEA010C49084FEA30009218E5
S315080005105B4150EA0107EDD152EA030012D082EAA4
S31508000520040083EA0501084305D0101BAB4106D237
S315080005300122002306E000224FF0004302E06FF09C
S31508000540010253101AEB06004CEB085110EB0A0097
S3150800055041EB0B01BDE8F04D00F019B996230022D6
S31508000560114600F0E6B820F00040C10DC0F31600B1
S3150800057040F400007F2901DA00207047962903DC41
S31508000580C1F19601C840704796398840704700F017
S31508000590004230F000400AD0C10D01F56071C0F389
S315080005A0160042EA0151C20840071143704700206D
S315080005B00146704730B5041E71F1000404DB4FF0A4
S315080005C00044404264EB0101141E73F1000405DB8C
S315080005D01C464FF00043524263EB0403994208BF9E
S315080005E0904230BD01F0004330B421F0004150EA9A
S315080005F0010206D00A0DA2F56072C1F31301002AA2
S3150800060002DC30BC00207047440F44EAC104C10034
S31508000610E01830BC00EBC25000F082B8002801DBBD
S31508000620C0F10040002901DBC1F100418142704759
S3150800063030B50B46014600202022012409E021FAA4
S3150800064002F59D4205D303FA02F5491B04FA02F5A1
S315080006502844151EA2F10102F1DC30BD2DE9F05F38
S315080006600546002092469B46884606468146402413
S315080006701BE0284641464746224600F02FF85346D7
S315080006805A46C01A914110D311461846224600F020
S3150800069016F82D1A67EB01084F462246012000215D
S315080006A000F00DF817EB00094E41201EA4F10104D5
S315080006B0DFDC484631462A464346BDE8F09F202AF5
S315080006C004DB203A00FA02F1002070479140C2F19B
S315080006D0200320FA03F3194390407047202A04DBCD
S315080006E0203A21FA02F00021704721FA02F3D0409D
S315080006F0C2F120029140084319467047202A06DBBA
S31508000700CB17203A41FA02F043EAE07306E041FAD1
S3150800071002F3D040C2F120029140084319467047BF
S315080007200029A8BF7047401C490008BF20F00100F7
S31508000730704710B4B0FA80FC00FA0CF050EA0104D5
S3150800074004BF10BC704749B1CCF1200421FA04F467
S3150800075011FA0CF118BF012121430843A3EB0C0140
S31508000760CB1D4FEA00614FEA102042BF002010BCA3
S31508000770704700EBC35010440029A4BF10BC704753
S31508000780401C490008BF20F0010010BC704710B596
S31508000790141E73F1000408DA401C41F10001921896
S315080007A05B411A4301D120F0010010BD2DE9F04D3F
S315080007B092469B4611B1B1FA81F202E0B0FA80F294
S315080007C020329046FFF77BFF04460F4640EA0A00B0
S315080007D041EA0B0153465A46084313D0114653EAD9
S315080007E0010019D0C8F140025046FFF777FF0546C9
S315080007F00E46504659464246FFF761FF084305D064
S31508000800012004E020463946BDE8F08D0020054366
S3150800081046EAE0762C4337430A986305E40AA0EBD8
S3150800082008000022FD0A44EA47540A3002D500208F
S315080008300146E9E7010510196941DDE9084500198E
S315080008406941BDE8F04DA2E7C1F30A52C1F31301AD
S3150800085040F2FF3341F480119A4202DA0020014641
S31508000860704740F233439A42A2F2334202DC5242C4
S31508000870FFF734BFFFF723BF064C074D06E0E068D5
S3150800088040F0010394E8070098471034AC42F6D3C9
S31508000890FFF752FCC8690008E8690008CA43026005
S315080008A0704721B1826842F00102826003E08268E3
S315080008B022F0010282607047014600208A6802F031
S315080008C004020AB1012000E0002070470246002019
S315080008D013680B400BB1012000E000207047014669
S315080008E000208A6802F008020AB1012000E0002010
S315080008F07047000030B502460020002350680F4CB0
S3150800090020400D790C6844EA05242043506090681D
S315080009100B4C2040D1E902542C434D7944EA450456
S3150800092020439060D06A20F470000C7C641EE4B208
S31508000930234340EA0350D06230BD0000FFFEF0FFBB
S31508000940FDF7F1FFF0B504460D4600200021092DFC
S3150800095011DDE068A5F10A0606EB4607072606FA42
S3150800096007F18843A5F10A0606EB460603FA06F1DF
S315080009700843E0600CE0206905EB4507072606FA00
S3150800098007F1884305EB450603FA06F1084320619B
S31508000990072A0FDA606B561E06EB86071F2606FA2D
S315080009A007F18843561E06EB860605FA06F1084344
S315080009B0606322E00D2A0FDA206BD61F06EB860746
S315080009C01F2606FA07F18843D61F06EB860605FAA0
S315080009D006F10843206310E0E06AA2F10D0606EB73
S315080009E086071F2606FA07F18843A2F10D0606EBCD
S315080009F0860605FA06F10843E062F0BD816841F013
S31508000A0008018160704721B1826842F4A0028260C1
S31508000A1003E0826822F4A00282607047816841F090
S31508000A20040181607047000030B10749096841F444
S31508000A300001054A116005E00349096821F400012F
S31508000A40014A1160704700000824014030B587B09C
S31508000A5004460D464FF4004000F026FE01210846E4
S31508000A6000F04EFE0121042000F04AFE0121480252
S31508000A7000F046FE4FF4A06000F0F4FD2C482D4926
S31508000A8008602D484860042C0AD11020ADF81800DB
S31508000A9000208DF81B0006A9284800F0AFFA14E0DC
S31508000AA0052C0AD12020ADF8180000208DF81B006F
S31508000AB006A9224800F0A2FA07E0102C03D128461E
S31508000AC0FFF7B2FF01E007B030BD002001908DF8B6
S31508000AD0080001208DF809004FF4602003900020DB
S31508000AE0049001208DF8140001A91548FFF702FFAC
S31508000AF0E5B101211248FFF7D4FE1148FFF77EFF42
S31508000B00142000F0C9F900BF0D48FFF7E8FE0028D9
S31508000B10FAD10B48FFF782FF00BF0948FFF7CCFE62
S31508000B200028FAD101210648FFF76DFF00BFCAE782
S31508000B30450B00081400002015180008000801409D
S31508000B40002401402DE9F04704464FF00009072329
S31508000B50012221461748FFF7F5FE01211548FFF740
S31508000B6052FF012000F098F900BF02211148FFF753
S31508000B70ADFE0028F9D002210E48FFF78FFE0D4979
S31508000B804C310868FFF7EAFC81464FF08B4148462E
S31508000B90FFF71EFB8246FFF7FAFC07464FF0663260
S31508000BA0054BFFF7FAFB0546FFF71CFD814648464D
S31508000BB0BDE8F0870024014066660A4000B50A4889
S31508000BC00A4908600A4848600A4888600A4808616D
S31508000BD00A4848610A48C8610A4808620A484862D9
S31508000BE000F014F800BD000045120008600000205F
S31508000BF079180008112400084D0A0008310D00086C
S31508000C0079160008551C0008D10F000816484068D8
S31508000C10164948601448006808601348C068C860E8
S31508000C201148806888601248006808611048416861
S31508000C300E4841610F480D4988610F490B48C1614B
S31508000C400E480068094908620C484168074841622D
S31508000C500B480068054988620A48C8620A49034879
S31508000C6001630A4941637047C000002088000020DC
S31508000C7020000020612800089D2700081400002095
S31508000C801C000020650E0008990E00087D0E00085D
S31508000C9000BFFEE739B1084A1268012383401A43A8
S31508000CA0054B1A6006E0044A1268012383409A43FA
S31508000CB0014B1A60704700000074004030B50022EE
S31508000CC000230A4C226840F6FE748440A243D1E908
S31508000CD000452C438D682C43CD6844EA050303FA86
S31508000CE000F42243014C226030BD0000007400402D
S31508000CF008B500220092054A009200F10802009BFE
S31508000D001A440092009A116008BD00000074004061
S31508000D1008B500220092054A009200F11402009BD1
S31508000D201A440092009A116008BD00000074004041
S31508000D3030B585B004460D461D481E490860012198
S31508000D40042000F0DDFC0121480700F0B9FC002072
S31508000D500190029003900220049000208DF8030071
S31508000D6003208DF802007CB91020ADF80000694612
S31508000D70114800F043F901A90020FFF79FFF294613
S31508000D800020FFF787FF10E0102C0ED12020ADF8C9
S31508000D9000006946084800F031F901A91020FFF75C
S31508000DA08DFF29461020FFF775FF05B030BD0000FE
S31508000DB0BD0D00081C000020000801402DE9F05F69
S31508000DC004468946CA465046FFF7E1FB05464FF0FA
S31508000DD066321B4BFFF7EEFB04D300215046FFF7A4
S31508000DE01DFC01D24FF000094FF08B415046FFF72A
S31508000DF0BDF98346FFF7CBFB07464FF06632104B2B
S31508000E00FFF73DFB0546FFF7EDFB824644B9504622
S31508000E10FFF7A9FB85B229460020FFF769FF0DE019
S31508000E20102C08D15046FFF79EFB85B229460020B4
S31508000E30FFF76EFF02E00020BDE8F09F4846FBE79B
S31508000E4066660A4030B50446002006E0462A02D106
S31508000E50255C0D5400E00A54401C9842F6DB30BD70
S31508000E60704700000021044A116000BF0249096862
S31508000E708142FBD3704700003400002030B5044699
S31508000E80254603E04FF47A7000F006F8281EA5F10F
S31508000E900105F7D130BD0000014607E00022064BE8
S31508000EA01A6000BF044A1268642AFBD30A1EA1F11D
S31508000EB00101F3D1704700003400002030B5044624
S31508000EC004254FF4302000F06FF80546042D17D19D
S31508000ED00C48006940F002000A4908610846446166
S31508000EE0006940F0400008614FF4302000F05CF8DB
S31508000EF005460448006941F6FD7108400149086144
S31508000F00284630BD0020024004200B49C96801F07C
S31508000F10010109B101200EE00749C96801F0040181
S31508000F2009B1022007E00449C96801F0100109B1B6
S31508000F30032000E0042070470020024003480069AF
S31508000F4040F0800001490861704700000020024017
S31508000F5070B504460D460426F00200F025F806464C
S31508000F60042E11D10948006940F0010007490861BB
S31508000F702580F00200F018F806460448006941F694
S31508000F80FE71084001490861304670BD00200240E4
S31508000F90024803494860034848607047230167458B
S31508000FA000200240AB89EFCD00B502460423FFF7C7
S31508000FB0ABFF034603E0FFF7A7FF0346521E012BCC
S31508000FC001D1002AF7D102B90523184600BD000051
S31508000FD040B10549054A11600549916005495160C6
S31508000FE00549D16070470000D7190008DC000020C9
S31508000FF0B5190008DD190008452300082DE9F04158
S31508001000024600250026002000230024002791F828
S3150800101003C00CF00F0591F803C00CF0100CBCF1DE
S31508001020000F03D091F802C04CEA050591F800C0FC
S31508001030BCF1000F31D0146800202BE04FF0010CF2
S315080010400CFA00F3B1F800C00CEA03069E4220D160
S3150800105083004FF00F0C0CFA03F7BC4305FA03FCA8
S315080010604CEA040491F803C0BCF1280F06D14FF0EE
S31508001070010C0CFA00FCC2F814C00AE091F803C08F
S31508001080BCF1480F05D14FF0010C0CFA00FCC2F870
S3150800109010C0401C0828D1D31460B1F800C0BCF1B8
S315080010A0FF0F34DD546800202EE000F1080C4FF0E5
S315080010B0010808FA0CF3B1F800C00CEA03069E42D0
S315080010C021D183004FF00F0C0CFA03F7BC4305FA45
S315080010D003FC4CEA040491F803C0BCF1280F05D1BF
S315080010E000F1080C08FA0CF8C2F8148091F803C04D
S315080010F0BCF1480F07D100F1080C4FF0010808FAB7
S315080011000CF8C2F81080401C0828CED35460BDE8FD
S31508001110F0810000F0B50A460023002400210025CE
S3150800112000F00046B6F1004F02D11D4EF16901E00C
S315080011301B4E7168C0F3034583B200F44016B6F53A
S31508001140401F08D121F07061154E766826F070664A
S31508001150134F7E6012E000F48016B6F5801F06D1A4
S31508001160032606FA05F4A14341F0706106E0460D30
S31508001170360103FA06F6B14341F0706122B1460D15
S31508001180360103FA06F6314300F00046B6F1004F81
S3150800119002D1034EF16101E0014E7160F0BD00001D
S315080011A000000140416170470161704700BFFEE7DA
S315080011B070B505464FF400600F4908602846FFF7EA
S315080011C051FE4FF480600C4908602846FFF74AFE36
S315080011D009480838006800F4006008B1012400E0F6
S315080011E000244FF480600449091D08602846FFF76B
S315080011F039FE204670BD0000100C014070B505464A
S315080012000C4625B94FF400600D49086004E04FF418
S3150800121000600B49091F08602046FFF723FE4FF4BC
S3150800122080600749091F08602046FFF71BFE4FF438
S315080012308060034908602046FFF714FE70BD000071
S31508001240140C014038B504462146082000F058FA27
S31508001250BCB100BF4FF44060ADF8000003208DF824
S31508001260020018208DF8030069460F48FFF7C6FEEE
S3150800127000BF4FF480600C491031086040000860D8
S315080012800CE000BF4FF44060ADF8000000208DF878
S31508001290030069460448FFF7B1FE00BF0348044946
S315080012A048600448086038BD000C0140B9120008BF
S315080012B0C0000020F51200082DE9F04107460D464A
S315080012C008260EE02846FFF773FF20B16006040ED5
S315080012D044F0010403E06006040E04F0FE04701EE8
S315080012E0C6B2002EEED129463846FFF787FF2046BC
S315080012F0BDE8F0812DE9F04104460D4608260DE0CB
S3150800130004F0800008B1012700E000272946384686
S31508001310FFF774FF6006040E701EC6B2002EEFD1EA
S315080013202846FFF745FF80464046BDE8F0812DE98F
S31508001330F04107460C4615461E462A2000F006F9D7
S31508001340384600F0F3F8284600F0F0F82B2000F0B5
S31508001350FDF8204600F0EAF8304600F0E7F82C20C1
S3150800136000F0F4F8BDE8F08170B504460D4616465F
S315080013702B46224629462046FFF7D9FF304600F07D
S31508001380D5F870BD2DE9FF5F07468A4690469B460D
S315080013900F9D002002900097284605EBD071C1F3F7
S315080013A047042046E21704EB5272D2102146E3178F
S315080013B004EB5373DB10A4EBC3030BB1012300E06A
S315080013C000231A446A4392B20192A8F1200000F061
S315080013D0FF080AEB0500401E83B23819401E82B288
S315080013E051463846FFF7A3FF00265BE0102D05D1CE
S315080013F02F4800EB0810805D039013E0182D07D1E5
S3150800140008EB48002B4901EB0010805D039009E0CA
S31508001410202D05D1284800EB8810805D039001E057
S31508001420BDE8FF9F4FF0000936E01098C8B90120C3
S3150800143000FA09F00399084018B1584600F076F802
S3150800144002E00E9800F072F80298401CC0B20290B2
S31508001450029890FBF4F104FB1100C8B90020029031
S315080014601DE0012000FA09F00399084020B15A4608
S3150800147051463846FFF778FF781C87B20098381A25
S31508001480A04205D1009F0AF101001FFA80FA06E082
S3150800149009F1010000F0FF09B9F1080FC5DB00BF2B
S315080014A0701C86B201988642A0DB00BFB8E7000030
S315080014B04C3600083C3C00080C4E00082DE9FE435B
S315080014C005460F4616469846DDE90A94102C03D0C1
S315080014D0182C01D0202C0FD1204604EBD0714910CE
S315080014E069438DB207FB04F087B2F02D00DDF025C5
S315080014F0F02F03DDF02701E0BDE8FE8310E00020B1
S31508001500CDE9009402903278434639462846FFF7DB
S3150800151039FF204604EBD07105EB61018DB2761CCC
S3150800152030780028EBD100BFE6E7000010B5044686
S315080015304FF480610448FFF737FE201200F014F8D4
S31508001540E0B200F011F810BD0008014010B50446DD
S315080015504FF480610348FFF725FE204600F004F8A3
S3150800156010BD00000008014070B504464FF48051D4
S315080015701448FFF717FE00251BE04FF400511148E9
S31508001580FFF710FE04F0800028B14FF400410D4823
S31508001590FFF70AFE04E04FF400410A48FFF702FE8F
S315080015A04FF400510748FFF7FFFD6006040E681C5C
S315080015B0C5B2082DE1DB4FF480510248FFF7F4FD70
S315080015C070BD0000000C014000BFFEE710B5FFF734
S315080015D0F5FA054801680120884704480C21026885
S315080015E06120904710BD00006000002088000020A0
S315080015F07047000070B5002100230F22C47804B399
S31508001600154C246804F4E064C4F5E064210AC1F1C9
S315080016100403CA40447804FA03F184781440214349
S3150800162009010E4C0678A155047804F01F0501241B
S31508001630AC4005786D11AD0005F1E025C5F800410F
S3150800164009E0047804F01F050124AC40044D06782F
S31508001650761145F8264070BD0CED00E000E400E088
S3150800166080E100E002490143024A11607047000028
S315080016700000FA050CED00E02DE9F04104460D46A0
S3150800168016461F46042C05D13A463146284600F030
S3150800169091FB06E0082C04D13A463146284600F06C
S315080016A0FFFBBDE8F081704701460020034A5068F9
S315080016B020F4404008435060704700000010024084
S315080016C029B1064AD2690243044BDA6104E0034AA7
S315080016D0D2698243014BDA6170470000001002406C
S315080016E029B1064A12690243044B1A6104E0034A07
S315080016F012698243014B1A617047000000100240CC
S3150800170029B1064A92690243044B9A6104E0034AE6
S3150800171092698243014B9A617047000000100240AB
S3150800172029B1064AD2680243044BDA6004E0034A48
S31508001730D2688243014BDA6070470000001002400D
S3150800174030B500210022002400232D4D6D6805F0D8
S315080017500C0121B1042905D0082923D105E0294D1A
S31508001760056022E0274D05601FE0254D6D6805F4EC
S315080017707012234D6D6805F48034022505EB9242FC
S315080017801CB9214D554305600BE01D4D6D6805F4E8
S3150800179000351DB11C4D5543056002E0194D5543F2
S315080017A0056002E0174D056000BF00BF144D6D6867
S315080017B005F0F0010909154D6B5C0568DD404560CB
S315080017C00F4D6D6805F4E061090A104D6B5C4568BC
S315080017D0DD4085600A4D6D6805F46051C90A0B4DF8
S315080017E06B5C4568DD40C560054D6D6805F4404194
S315080017F0890B074D6B5CC568B5FBF3F5056130BD14
S315080018000010024000127A0000093D004000002046
S31508001810500000202DE9FC471020FFF793F9824677
S315080018205046FEF7B4FE06460E4A0F4BFEF7B2FDCB
S3150800183004460E4A0E4BFEF722FE804600220D4B4A
S31508001840FEF704FDCDE90001FEF7CCFE8246002135
S315080018505046FEF7E3FE01D28AF0004A5046BDE83C
S31508001860FC870000E17A14AE47E1F63F85EB51B8F4
S315080018701E85DB3F0000394038B50446012108467D
S31508001880FFF73EFF01211F48FFF744FC21460820C9
S31508001890FFF736FF24B300BF4FF43040ADF8000021
S315080018A003208DF8020010208DF8030069461648BB
S315080018B0FFF7A4FB4FF48040ADF8000048208DF8F0
S315080018C0030069461048FFF799FB00BF4FF4004034
S315080018D00D491031086080100860401008600CE05F
S315080018E000BF4FF47040ADF8000000208DF80300EB
S315080018F069460548FFF782FB00BF044804490860AB
S3150800190038BD000000023000000C0140151900081F
S31508001910200000202DE9F04107468846002580264C
S31508001920300223490860801008604010091D0860CD
S315080019304046FFF797FA00242CE04FF400501C4964
S31508001940091D086007FA04F03040B04204D14FF48C
S315080019500040091F086004E04FF400401449091DBF
S3150800196008604046FFF77EFA4FF4005010490860B9
S315080019700F480838006800F4804018B146FA04F0A9
S31508001980054302E00020204105434046FFF76AFA76
S31508001990601CC4B2082CD0DB4FF400400449086030
S315080019A080100860401008602846BDE8F0810000F5
S315080019B0100C014030B503460C461546002207E0D8
S315080019C0184600F008F824F812009B1C501C82B236
S315080019D0AA42F5DB30BD0146088870472DE9F05F5D
S315080019E080468A461746B8F1006F02D333488045C9
S315080019F001D3BDE8F09FFFF7CBFAA8F1006B4FEAD9
S31508001A009B25CBF34809C9F50074A74200DC3C4680
S31508001A104DE04FF0006101EB85208A142849FFF755
S31508001A20C9FF00260BE009EB0600254931F810002E
S31508001A304FF6FF71884200D003E0701C86B2A642BA
S31508001A40F1DB00BFA6421BDA4FF0006101EB8520EF
S31508001A50FFF734FA002608E03AF8160006EB090103
S31508001A60174A22F81100701C86B2A642F4DB4FF022
S31508001A70006101EB85208A14114900F023F804E07F
S31508001A8022465146404600F01DF8A74200D10FE015
S31508001A906D1C4FF000090AEB440AA044381B87B2B4
S31508001AA0B7F5007F02DD4FF4007400E03C46B0E76E
S31508001AB000BFFFF743FA00BF9BE7000000000208DB
S31508001AC0EC0000202DE9F04105460E461746002495
S31508001AD007E036F814102846FFF73AFAAD1C601CE2
S31508001AE084B2BC42F5DBBDE8F081704710B500F062
S31508001AF001F810BD0CB5002001900090334800682D
S31508001B0040F480303149086000BF3048006800F46E
S31508001B10003000900198401C0190009818B901986F
S31508001B20B0F57F4FF1D12948006800F4003010B1B4
S31508001B300120009001E0002000900098012843D180
S31508001B402348006840F010002149086008460068EC
S31508001B5020F0030008600846006840F002000860AC
S31508001B601A48406819494860084640684860084667
S31508001B70406840F4806048600846406820F47C105D
S31508001B8048600846406840F4E8104860084600681F
S31508001B9040F08070086000BF0C48006800F00070D4
S31508001BA00028F9D00948406820F003000749486032
S31508001BB00846406840F00200486000BF0348406895
S31508001BC000F00C000828F9D10CBD000000100240F6
S31508001BD00020024000B504480068401C024908601D
S31508001BE000F004F800BD00003400002017488068A3
S31508001BF0401C16498860084680681549884224D9D9
S31508001C0001201249886008464068401C486008461A
S31508001C108078401C8870084680783B2815DD0020AF
S31508001C20887008464078401C4870084640783B282B
S31508001C300BDD0020487008460078401C08700846EE
S31508001C400078172801DD002008707047280000205A
S31508001C50A086010070B50346002B32D022480068E2
S31508001C60224AB0FBF2F1B1F1807F01D301201DE0D9
S31508001C7021F07F40401E4FF0E022506150170F229E
S31508001C80002807DA1407260E194C00F00F052D1F39
S31508001C90665503E01407250E164C255400BF002090
S31508001CA04FF0E022906107201061002008B100BFC4
S31508001CB0FEE71148114908601148486011488860D4
S31508001CC010E000BF0A480C38006800F4E0600E49CE
S31508001CD00843001D06490C390860BFF34F8F00BF43
S31508001CE000BFFEE770BD000000000020A0860100CE
S31508001CF018ED00E000E400E0650E0008D0000020C2
S31508001D00990E00087D0E00080000FA0510B5134864
S31508001D10006840F00100114908600846406810490B
S31508001D2008400E494860084600680E4908400B49B5
S31508001D3008600846006820F4802008600846406865
S31508001D4020F4FE0048604FF41F008860FFF7CEFEBF
S31508001D504FF000600449086010BD00000010024002
S31508001D600000FFF8FFFFF6FE08ED00E04FF08040A8
S31508001D70008A4FF08040008A20F001004FF0804131
S31508001D8008827047044800880348008820F001004C
S31508001D900149088070470000100400400448008884
S31508001DA00348008820F001000149088070470000B8
S31508001DB01008004070B588B005460E461446214600
S31508001DC00420FFF77DFC01210820FFF799FC01217B
S31508001DD00846FFF795FC4FF47070ADF81C001CB16F
S31508001DE018208DF81F0002E000208DF81F00032040
S31508001DF08DF81E0007A92248FFF700F9ADF8145020
S31508001E00ADF810600020ADF81600ADF8120004A970
S31508001E101C4800F045FA7020ADF800000120ADF826
S31508001E2002000220ADF808006946164800F0DCF802
S31508001E300821144800F024F96946124800F02AF9E6
S31508001E400821104800F078F969460E4800F082F932
S31508001E5008210C4800F0CEF969460A4800F0D4F982
S31508001E600821084800F00EFA00220121054800F072
S31508001E70B2F82146034800F093F808B070BD000098
S31508001E80000C014000080040044800880348008808
S31508001E9020F001000149088070470000100C00403E
S31508001EA070B588B005460E46144621464FF40050D4
S31508001EB0FFF726FC01211020FFF722FC0121084626
S31508001EC0FFF71EFC4FF47070ADF81C001CB118200B
S31508001ED08DF81F0002E000208DF81F0003208DF802
S31508001EE01E0007A92648FFF789F8ADF81450ADF883
S31508001EF010600020ADF81600ADF812008DF8180035
S31508001F0004A9204800F0CCF97020ADF800000120A3
S31508001F10ADF802000220ADF808006946194800F03D
S31508001F2063F80821174800F0ABF86946154800F031
S31508001F30B1F80821134800F0FFF86946114800F087
S31508001F4009F908210F4800F055F969460D4800F0CF
S31508001F505BF908210B4800F095F90121094800F0C2
S31508001F602BF80121074800F00FF800220121054847
S31508001F7000F031F82146034800F012F808B070BDA9
S31508001F80001001400034014021B1028842F080026D
S31508001F90028004E002884FF67F731A400280704779
S31508001FA021B1028842F00102028004E002884FF65D
S31508001FB0FE731A400280704731B1B0F8442042F4EB
S31508001FC00042A0F8442005E0B0F84420C2F30E020F
S31508001FD0A0F8442070471AB183890B43838102E035
S31508001FE083898B438381704770B5002400220023C0
S31508001FF0058C4FF6FE7635400584028C8388048B63
S315080020004FF68F752C40B51E2C400D882C43751E37
S315080020102A400D892A434D882A43144DA8420BD0DD
S31508002020134DA84208D0134DA84205D0124DA84218
S3150800203002D0124DA84213D14FF6F7752A404D89A2
S315080020402A434FF6FB752A408D882A434FF6FF65CB
S315080020502B404FF6FF552B408D892B43CD892B43BB
S3150800206083800483CD888586028470BD002C014058
S31508002070003401400040014000440140004801404E
S315080020800A460021018B4FF6F77319401143018365
S315080020907047000070B5002400220023058C4FF617
S315080020A0EF7635400584028C8388048B48F6FF75E5
S315080020B02C404FF6FF452C400D884FF6FF7606EA72
S315080020C005252C434FF6DF752A400D8906EA0515C6
S315080020D02A434D8806EA05152A43154DA84202D01B
S315080020E0144DA8421DD14FF67F752A404D894FF6EB
S315080020F0FF7606EA05152A434FF6BF752A408D88EE
S3150800210006EA05152A434FF6FF352B404FF2FF75B1
S315080021102B408D8906EA85052B43CD8906EA850578
S315080021202B4383800483CD880587028470BD000015
S31508002130002C0140003401400A460021018B4FF271
S31508002140FF7319404FF6FF7303EA0223194301830D
S315080021507047000070B5002400220023058C4FF656
S31508002160FF6635400584028C8388848B4FF68F750D
S315080021702C404FF6FC752C400D882C434FF6FF5526
S315080021802A400D894FF6FF7606EA05252A434D882B
S3150800219006EA05252A43154DA84202D0144DA84241
S315080021A01DD14FF2FF752A404D894FF6FF7606EA94
S315080021B005252A434FF6FF352A408D8806EA052568
S315080021C02A434EF6FF752B404DF6FF752B408D8939
S315080021D006EA05152B43CD8906EA05152B438380A8
S315080021E08483CD888587028470BD0000002C014059
S315080021F0003401400A460021818B4FF6F7731940D7
S31508002200114381837047000070B500220023002423
S31508002210058C4EF6FF7635400584038C8488828BC0
S3150800222048F6FF752A404FF6FF452A400D884FF6B7
S31508002230FF7606EA05252A434DF6FF752B400D89DC
S3150800224006EA05352B434D8806EA05352B430B4D23
S31508002250A84202D00A4DA84208D14BF6FF752C4079
S315080022608D894FF6FF7606EA85152C43848082838E
S31508002270CD88A0F84050038470BD0000002C0140B2
S31508002280003401400A460021818B4FF2FF73194042
S315080022904FF6FF7303EA0223194381837047000050
S315080022A0002202881D4B98420ED01D4B98420BD037
S315080022B0B0F1804F08D01B4B984205D01A4B984274
S315080022C002D01A4B984204D14FF68F731A404B88A6
S315080022D01A43174B984207D0164B984204D04FF62C
S315080022E0FF431A40CB881A4302808B8883850B8864
S315080022F003850A4B98420BD0094B984208D00E4BDF
S31508002300984205D00D4B984202D00D4B984201D108
S315080023100B7A03860123838270470000002C014054
S31508002320003401400004004000080040000C004052
S3150800233000100040001400400040014000440140E5
S315080023400048014013B50446012201A92046FFF7BB
S3150800235045FB1CBD10B540F22551144800F0E5FBBD
S3150800236010B340F22551114800F06EFB104890F862
S315080023709400C8B90D4800F093FCC4B20C4890F814
S315080023809A1090F89A00401CC2B2094880F89A2020
S31508002390603044540CB17D2C06D10121044880F8E4
S315080023A09410002180F89A1010BD0000004C0040DF
S315080023B0EC04002010B540F22551134800F0B5FB97
S315080023C008B340F22551104800F03EFB0F4890F83C
S315080023D09500C0B90C4800F063FCC4B20B4890F8ED
S315080023E09B1090F89B00401CC2B2084880F89B20BE
S315080023F0783044547D2C06D10121783880F8951020
S31508002400002180F89B1010BD00500040EC0400200D
S3150800241070B586B004460D4616464FF4A060FFF721
S3150800242021F901210846FFF76BF9CF48CF494860E3
S31508002430CF480860012C4FD101210820FFF760F929
S315080024403146A003FFF75CF901210420FEF762FE7E
S31508002450C84800F00FFB4020ADF8140003208DF8A3
S31508002460160018208DF8170005A9C348FEF7C6FD03
S315080024708020ADF8140048208DF8170005A9BE483D
S31508002480FEF7BCFD01950020ADF810000C20ADF854
S315080024900E000020ADF80C00ADF80A00ADF80800F3
S315080024A001A9B44800F090FB012240F22551B14839
S315080024B000F065FB3146AF4800F0CFFA25208DF8CD
S315080024C0000001208DF801008DF802008DF8030048
S315080024D06846FFF78FF844E1022C4CD1012104200D
S315080024E0FFF70EF931462004FFF7EAF80420ADF8A5
S315080024F0140018208DF8170003208DF8160005A97A
S315080025009E48FEF77BFD0820ADF8140004208DF8E0
S31508002510170005A99948FEF771FD01950020ADF849
S315080025200800ADF80A00ADF80C00ADF810000C2054
S31508002530ADF80E0001A9924800F046FB4FF4A060E2
S31508002540FFF790F826208DF8000000208DF801008E
S315080025508DF8020001208DF803006846FFF74AF857
S31508002560012240F22551864800F009FB314684488D
S3150800257000F073FAF5E0032C54D101211020FFF77F
S31508002580BFF831464FF48020FFF79AF801217D48BD
S31508002590FEF7C0FD4FF48060ADF8140018208DF8E2
S315080025A0170003208DF8160005A97748FEF726FDC3
S315080025B04FF40060ADF8140004208DF8170005A943
S315080025C07148FEF71BFD01950020ADF80800ADF82F
S315080025D00A00ADF80C00ADF810000C20ADF80E009E
S315080025E001A96A4800F0F0FA4FF4A060FFF73AF83C
S315080025F027208DF8000001208DF8010002208DF8B3
S31508002600020001208DF803006846FEF7F3FF012259
S3150800261040F225515D4800F0B2FA31465B4800F0B9
S315080026201CFA9EE0042C4FD101211020FFF768F810
S3150800263031466004FFF744F82002ADF8140018206C
S315080026408DF8170003208DF8160005A94E48FEF7E9
S31508002650D5FC6002ADF8140004208DF8170005A912
S315080026604948FEF7CBFC4FF4165001900020ADF810
S315080026700800ADF80A00ADF80C00ADF810000C2003
S31508002680ADF80E0001A9424800F09EFA4FF4A0608A
S31508002690FEF7E8FF34208DF8000001208DF80100D0
S315080026A003208DF8020001208DF803006846FEF726
S315080026B0A1FF012240F22551354800F060FA314663
S315080026C0334800F0CAF94CE0052C4AD101213020E4
S315080026D0FFF716F831464FF48010FEF7F1FF4FF476
S315080026E08050ADF8140018208DF8170003208DF8D7
S315080026F0160005A92448FEF781FC0420ADF814004D
S315080027008DF8170005A92348FEF778FC01950020E7
S31508002710ADF810000C20ADF80E000020ADF80C0046
S31508002720ADF80A00ADF8080001A91B4800F04CFAFC
S3150800273035208DF8000001208DF8010002208DF863
S31508002740020001208DF803006846FEF753FF0122B8
S3150800275040F22551104800F012FA31460E4800F0B2
S315080027607CF906B070BD00009D27000838000020DF
S315080027706128000800380140000C014000080140AB
S3150800278000440040100014000010014000480040BA
S31508002790004C004000140140005000402DE9F04173
S315080027A006460C4617460025642F01DDBDE8F08174
S315080027B045E0062E40D2DFE806F03F030F1B27331D
S315080027C000BF8021214800F0A3F90028F9D0615DF7
S315080027D01E4800F06AFA30E000BF80211C4800F06D
S315080027E097F90028F9D0615D194800F05EFA24E0EF
S315080027F000BF8021174800F08BF90028F9D0615DE9
S31508002800144800F052FA18E000BF8021124800F080
S315080028107FF90028F9D0615D0F4800F046FA0CE010
S3150800282000BF40210D4800F073F90028F9D0615D1A
S315080028300A4800F03AFA00E000BF00BF6D1C381ED7
S31508002840A7F10101CFB2B4D100BFAFE7003801400C
S315080028500044004000480040004C00400050004042
S3150800286070B506460D4600244DE0062E40D2DFE838
S3150800287006F03F030F1B273300BF8021254800F0D1
S3150800288047F90028F9D0295D224800F00EFA30E011
S3150800289000BF8021204800F03BF90028F9D0295DC7
S315080028A01D4800F002FA24E000BF80211B4800F012
S315080028B02FF90028F9D0295D184800F0F6F918E034
S315080028C000BF8021164800F023F90028F9D0295DB9
S315080028D0134800F0EAF90CE000BF4021114800F067
S315080028E017F90028F9D0295D0E4800F0DEF900E056
S315080028F000BF00BF285D08B1285D00B970BD642C13
S3150800290000DDFBE7641CC4F11E000028ADD100BF42
S31508002910F4E7000000380140004400400048004049
S31508002920004C00400050004010B540F225511448B4
S3150800293000F0FBF8012822D140F22551104800F09A
S3150800294083F8104890F89100C8B90D4800F0A8F926
S31508002950C4B20C4890F8971090F89700401CC2B281
S31508002960084880F89720183044540CB17D2C06D1BD
S315080029700121044880F89110002180F8971010BDB5
S3150800298000380140EC04002010B540F225511448E7
S3150800299000F0CBF810B340F22551114800F054F876
S315080029A0104890F89200C8B90D4800F079F9C4B2F9
S315080029B00C4890F8981090F89800401CC2B2094844
S315080029C080F89820303044540CB17D2C06D1012172
S315080029D0044880F89210002180F8981010BD000075
S315080029E000440040EC04002010B540F2255114487C
S315080029F000F09BF8012822D140F22551104800F03A
S31508002A0023F8104890F89300C8B90D4800F048F923
S31508002A10C4B20C4890F8991090F89900401CC2B2BC
S31508002A20084880F89920483044540CB17D2C06D1CA
S31508002A300121044880F89310002180F8991010BDF0
S31508002A4000480040EC04002001F40072B2F5007F53
S31508002A5000D100BFCA430280704721B1828942F47F
S31508002A600052828104E082894DF6FF731A40828102
S31508002A707047000010B504462048844209D1012158
S31508002A808803FEF74DFE00214FF48040FEF748FE0E
S31508002A9032E01B48844209D101214804FEF720FE92
S31508002AA000214FF40030FEF71BFE25E0154884424E
S31508002AB009D101218804FEF713FE00214FF4802076
S31508002AC0FEF70EFE18E01048844209D10121C80419
S31508002AD0FEF706FE00214FF40020FEF701FE0BE08C
S31508002AE00A48844208D101210805FEF7F9FD0021AC
S31508002AF04FF48010FEF7F4FD10BD000000380140C9
S31508002B000044004000480040004C0040005000408F
S31508002B1002460020B1F5007F00D100BF13880B40A4
S31508002B200BB1012000E00020704770B50246002472
S31508002B3000230025002040F66A16B14200D100BFE6
S31508002B40C1F3421501F01F03012606FA03F3012D0E
S31508002B5002D19689334006E0022D02D1168A334007
S31508002B6001E0968A33400C12012606FA04F4168808
S31508002B70344013B10CB1012000E0002070BDF0B55F
S31508002B800346002400260025002040F66A17B942AD
S31508002B9000D100BF1846C1F3421401F01F060127F1
S31508002BA007FA06F5012C01D10C3004E0022C01D1FC
S31508002BB0103000E014301AB107682F43076002E0AE
S31508002BC00768AF430760F0BD2DE9F04786B00546B4
S31508002BD00E460024A24600BFA1460027B08900B1D0
S31508002BE000BF2F462C8A4CF6FF700440F088044339
S31508002BF02C82AC894EF6F3100440B088318908431C
S31508002C00718908430443AC81AC8A4FF6FF400440FF
S31508002C10B0890443AC8201A8FEF792FD1F4887429B
S31508002C2002D1DDF810A001E0DDF80CA0A88900F4B7
S31508002C30004040B10AEBCA0000EB0A1031684900AF
S31508002C40B0FBF1F807E00AEBCA0000EB0A1031689E
S31508002C508900B0FBF1F86420B8FBF0F00401200904
S31508002C60642101FB1089A88900F4004040B1322094
S31508002C7000EBC900B0FBF1F000F00700044308E0E0
S31508002C80322000EB09106421B0FBF1F000F00F00D0
S31508002C9004432C8106B0BDE8F087000000380140E7
S31508002CA001468888C0F308007047C1F3080282808D
S31508002CB0704700BFFEE700000FB4084B10B504A923
S31508002CC002AA039800F0DEF8044602A9002000F0E4
S31508002CD05CFC204610BC5DF814FB00008B35000830
S31508002CE002E008C8121F08C1002AFAD170477047C7
S31508002CF0002001E001C1121F002AFBD17047000025
S31508002D002DE9FF5F82B00021DDE90430020DDDF810
S31508002D1040B0034318D044F61050A2F2FF324243A3
S31508002D201514119801281FD0A5EB0B00401C5FEA6B
S31508002D30000A4FF000064E4FDFF83891B04650466D
S31508002D4015D5CAF1000413E0119801244AA30128F5
S31508002D5001D16FEA0B010298119AC0E90031C0E966
S31508002D60024206B0BDE8F09FCBF10000DFE704465B
S31508002D700021404A491842EB0450CDE9001012E000
S31508002D80E00707D032463B4640464946FDF705FB75
S31508002D908046894632463B4610461946FDF7FDFAF7
S31508002DA006460F466410002CEAD1DDE90401DDE988
S31508002DB00023BAF1000F06DAFDF7EFFA42464B4652
S31508002DC0FDF7EBFA05E0FDF75AFB42464B46FDF7E1
S31508002DD056FB04460E460022284BFDF7EBFB03D8AC
S31508002DE04FF0FF30014607E00022254B20463146CA
S31508002DF0FDF72CFAFDF728FD102409E0002C0ADB64
S31508002E000A220023FDF72AFC039B30321A55641E5A
S31508002E1050EA0102F2D1641C039AC4F11103144466
S31508002E20119A012A03D0012208430DD10AE008436A
S31508002E3004D000204FF0110B119072E7A3EB0B059D
S31508002E406D1E0DE05B4504DD4FF0000205F101053E
S31508002E5004E003DA4FF00002A5F10105002AECD0E0
S31508002E6002981199C0E90231C0E9004579E70000E6
S31508002E70000014400000F03F300000000000F0435E
S31508002E800000E03F2DE9FF4F95B09A468846064672
S31508002E900025EEE1252877D100242746F94A0121A5
S31508002EA0039400E0044316F8013F203B01FA03F0BF
S31508002EB01042F7D130782A2811D06FF02F033078D6
S31508002EC0A0F13002092A16D8039A44F0020402EB4C
S31508002ED0820203EB42021044761C0390EFE758F88F
S31508002EE0042B0392002A03DA504244F40054039058
S31508002EF044F00204761C30782E2816D116F8010FF5
S31508002F0044F004042A280DD06FF02F023078A0F17F
S31508002F103003092B09D807EB870302EB4303C718CD
S31508002F20761CF3E758F8047B761C30786C280FD0AB
S31508002F3006DC4C2817D068280DD06A2814D104E07E
S31508002F40742810D07A280FD10DE044F400140AE052
S31508002F5044F4801401E044F440147278824202D1A9
S31508002F6004F58014761C761C307866280BD013DCA2
S31508002F70582877D009DC002875D04528F6D0462889
S31508002F80F4D047281AD193E118E0632835D064288D
S31508002F9079D0652812D18BE1702873D008DC6728B0
S31508002FA0F1D069286FD06E280DD06F2806D1ACE015
S31508002FB073282CD0752874D0782853D05246179980
S31508002FC090476D1C54E1C4F30250022809D0032827
S31508002FD00DD0D8F8001004280DD00D6008F10408AB
S31508002FE046E1D8F80010EA17C1E90052F6E7D8F822
S31508002FF000100D80F2E70D70F0E718F8041B8DF845
S31508003000001000208DF80100EB46012003E058F877
S3150800301004BB4FF0FF3061074FF0000102D40DE00A
S3150800302009F101018946B9420FDA8145F8DB1BF837
S3150800303009100029F4D108E009F101018946814205
S31508003040FADB1BF809100029F6D103985346A0EBC2
S31508003050090721463846179A00F080FA284400EBFB
S31508003060090507E044E008E10DE01BF8010B5246AC
S3150800307017999047B9F10109F7D2534621463846C0
S31508003080179AF2E039E00A21C4F302524FF0000B16
S315080030900091022A06D058F8040BC117032A09D052
S315080030A00AE023E008F1070020F00702F2E802012F
S315080030B0904605E000B2C117042A01D140B2C117F3
S315080030C0002906DA0A460021404261EB02012D2258
S315080030D002E0220504D52B228DF80420012203E004
S315080030E0E20701D02022F7E7914657E00A2100E0DF
S315080030F010214FF0000B00910BE010214FF0000B50
S3150800310044F004040827009103E008204FF0000B60
S315080031100090C4F30252022A05D058F8040B002185
S31508003120032A08D008E008F1070020F00702F2E8B1
S315080031300201904603E080B2042A00D1C0B24FF0E3
S31508003140000922072AD53278702A07D0DDF800C090
S315080031508CF0100C5CEA0B0C05D00EE040228DF8C2
S315080031600420012208E050EA010306D030238DF836
S3150800317004308DF8052002229146009B83F008034F
S3150800318053EA0B030AD150EA010201D1620705D5B9
S3150800319030228DF804204FF001097F1E3278582A14
S315080031A004D039A20C920CAA02920BE03BA2F9E7D2
S315080031B05B46009AFDF752FA0C9B9B5C029A521EDC
S315080031C00292137050EA0102F2D1029804A9081A71
S315080031D000F1200B600702D524F4803400E00127B3
S315080031E05F4502DDA7EB0B0000E0002000EB0B01BA
S315080031F0009003984944401A0390E00306D45346C6
S315080032002146179A039800F0A9F90544002706E015
S3150800321001A85246C05D179990476D1C7F1C4F4503
S31508003220F6DBE0030CD553462146179A039800F0BF
S3150800323095F9054404E030205246179990476D1CCD
S315080032400099481E00900029F5DC08E002980299CA
S3150800325052460078491C0291179990476D1CBBF19C
S315080032600001ABF1010BF1DC5BE100F065F9054407
S31508003270761C307800287FF40DAE19B02846BDE8D4
S31508003280F08F0000092801003031323334353637E3
S315080032903839616263646566000000003031323394
S315080032A03435363738394142434445460000000034
S315080032B0600700D4062708F1070020F00700F0E8A9
S315080032C00223804603F0004C5FEA0C0001D097A069
S315080032D009E0200501D596A005E0E00701D095A0F4
S315080032E001E0AFF24C001390307823F000436528D4
S315080032F00CD006DC452809D046281DD047287FD1A2
S315080033003BE0662818D067287AD136E00021112FCD
S3150800331001DB112000E0781CCDE9000104A90CA806
S31508003320FFF7EEFCDDE90D010C9A4FF0000B07F1F3
S315080033300109109200914EE04FF000400097CDE948
S31508003340011004A90CA8FFF7DBFCDDE90D020C9BB4
S315080033500F994FF0000B91461093009211B9791C02
S3150800336000EB0109B7EB090003D4C0F1FF3B07F1F5
S315080033700109A9EB0700019042E0012F00DA0127B5
S315080033800021112F01DD112000E03846CDE90001AA
S3150800339004A90CA8FFF7B4FCDDE90D010C9A00910D
S315080033A04FF0000BB946109221070FD4009A4A45F0
S315080033B003DA914601E0A9F10109B9F1010F05DD2A
S315080033C0109AA9F10101515C3029F4D0B84202DA09
S315080033D010F1040F03DA0121CDE9011010E00028ED
S315080033E003DC8344A9EB000102E0411C494500DDEA
S315080033F08946A0EB0B00401C01904FF0004002905C
S31508003400200705D40198484502DB4FF0FF300190AC
S3150800341000208DF84B0002980DF14B07B0F1004FD4
S3150800342025D002200C902B200D90029800280CDA4B
S31508003430404202902D200D9007E00A210298FDF7E0
S31508003440F7F83031029007F8011D0C99481E0C90C8
S315080034500029F2DC02980028EFD1791E0D98087031
S31508003460307800F0200040F0450007F8020D11A85A
S31508003470C01BC01D02901398007800B1012000EB14
S315080034800901019801EBE071029801440398401A7A
S31508003490401E0390E00306D453462146179A039824
S315080034A000F05CF805441398007818B1524617994D
S315080034B090476D1CE00323D553462146179A039877
S315080034C000F04CF805441BE0BBF1000F07DB009841
S315080034D0584504DD1098179910F80B0001E0179964
S315080034E030205246904701980BF1010B401E05F11A
S315080034F00105019004D12E205246179990476D1C5C
S31508003500B9F10001A9F10109DEDC05E017F8010BA4
S315080035105246179990476D1C0299481E0290002939
S31508003520F4DC53462146179A03989EE62D000000C0
S315080035302B000000200000002DE9F041044600257C
S315080035401E461746880404D405E039462020B047AD
S315080035506D1C641EF9D52846BDE8F0812DE9F041B9
S31508003560044600251E469046C80301D5302700E0CC
S315080035702027880404D505E041463846B0476D1C27
S31508003580641EF9D52846BDE8F0810A68531C0B600D
S31508003590107070471CB5FEF719F839E0FEF73AF9CE
S315080035A01C49086008460068FCF7F1FF04462246F5
S315080035B00B4619A11C48FFF77FFB102000214FF688
S315080035C0FF73194ACDE9001002210846FDF776FF78
S315080035D010230022144915A0FDF734FC14488078FE
S315080035E0009013484378027812A11748FFF764FB46
S315080035F0102000211F23144ACDE900100E210820AF
S31508003600FDF75CFF1E2300220F4908A0FDF71AFCF0
S31508003610C4E700005C0000204D43553A20252E32B1
S315080036206620432000000000880500203132330060
S315080036302800002054696D653A202532643A2532FF
S31508003640643A253264202000980500200000000016
S315080036500000000000000000000000000000000854
S3150800366008080808080800001818000000486C2414
S315080036701200000000000000000000000000002406
S3150800368024247F1212127F12121200000000081C56
S315080036902A2A0A0C1828282A2A1C080800000022A8
S315080036A0251515152A585454542200000000000CFC
S315080036B01212120A76252911916E000000060604D8
S315080036C00300000000000000000000000040201079
S315080036D0100808080808081010204000000204080E
S315080036E0081010101010100808040200000000004E
S315080036F008086B1C1C6B080800000000000000008E
S31508003700080808087F0808080800000000000000EC
S315080037100000000000000000060604030000000088
S3150800372000000000FE00000000000000000000008D
S3150800373000000000000000000606000000008040AF
S315080037404020201010080804040202000000001897
S315080037502442424242424242241800000000000825
S315080037600E08080808080808083E00000000003C83
S315080037704242422020100804427E00000000003C1D
S315080037804242201820404042221C0000000000202F
S315080037903028242422227E20207800000000007E83
S315080037A00202021A26404042221C0000000000388D
S315080037B02402021A26424242241800000000007E13
S315080037C02222101008080808080800000000003C1B
S315080037D04242422418244242423C0000000000189B
S315080037E02442424264584040241C00000000000065
S315080037F0000018180000000018180000000000005B
S31508003800000000080000000000080804000000404E
S3150800381020100804020408102040000000000000E0
S3150800382000007F0000007F0000000000000000028A
S315080038300408102040201008040200000000003C84
S315080038404242464020101000181800000000001CD4
S31508003850225A555555552D42221C000000000008D5
S3150800386008181414243C224242E700000000001FF6
S315080038702222221E22424242221F00000000007C11
S315080038804242010101010142221C00000000001F02
S315080038902242424242424242221F00000000003FAA
S315080038A04212121E12120242423F00000000003F5E
S315080038B04212121E12120202020700000000003C09
S315080038C02222010101712122221C0000000000E7CA
S315080038D0424242427E42424242E700000000003E27
S315080038E00808080808080808083E00000000007CC8
S315080038F010101010101010101010110F0000007783
S3150800390022120A0E0A12122222770000000000076D
S315080039100202020202020202427F00000000007751
S31508003920363636362A2A2A2A2A6B0000000000E391
S3150800393046464A4A52525262624700000000001C3C
S315080039402241414141414141221C00000000003F03
S31508003950424242423E020202020700000000001CE8
S315080039602241414141414D53321C60000000003F55
S315080039704242423E1212222242C700000000007C48
S315080039804242020418204042423E00000000007FE6
S315080039904908080808080808081C0000000000E78D
S315080039A04242424242424242423C0000000000E794
S315080039B04242222424141418080800000000006B50
S315080039C0494949495555362222220000000000E798
S315080039D0422424181818242442E70000000000771F
S315080039E02222141408080808081C00000000007E9B
S315080039F02120101008040442423F000000780808FD
S31508003A0008080808080808080808780000000202DC
S31508003A10040408080810102020204040001E10103A
S31508003A20101010101010101010101E00003844004E
S31508003A300000000000000000000000000000000078
S31508003A400000000000000000000000FF000608005B
S31508003A500000000000000000000000000000000058
S31508003A600000003C4278444242FC0000000000038B
S31508003A700202021A26424242261A000000000000EC
S31508003A8000000038440202024438000000000060CA
S31508003A90404040784442424264D80000000000009A
S31508003AA00000003C427E0202423C0000000000F09A
S31508003AB08808087E08080808083E0000000000007C
S31508003AC00000007C22221C023C42423C000000030B
S31508003AD00202023A4642424242E700000000000C57
S31508003AE00C00000E08080808083E00000000003018
S31508003AF030000038202020202020221E000000034D
S31508003B0002020272120A1612227700000000000E44
S31508003B100808080808080808083E00000000000011
S31508003B200000007F9292929292B700000000000077
S31508003B300000003B4642424242E700000000000007
S31508003B400000003C42424242423C000000000000A5
S31508003B500000001B26424242221E02070000000007
S31508003B600000007844424242447840E000000000E9
S31508003B70000000774C040404041F00000000000045
S31508003B800000007C42023C40423E0000000000006B
S31508003B900008083E08080808083000000000000071
S31508003BA0000000634242424262DC0000000000005E
S31508003BB0000000E742242414080800000000000062
S31508003BC0000000EB4949555522220000000000007C
S31508003BD00000007624181818246E00000000000063
S31508003BE0000000E742242414180808070000000013
S31508003BF00000007E22100808447E000000C0202035
S31508003C0020202010202020202020C0001010101076
S31508003C1010101010101010101010101000060808C0
S31508003C200808081008080808080806000C32C20028
S31508003C300000000000000000000000000000000076
S31508003C400000000000000000000000000000000066
S31508003C500000000000000000000000000000000056
S31508003C600000000000000000000000000000000046
S31508003C7000000000600060006000600060006000F6
S31508003C806000400020002000200000000000000026
S31508003C9060006000600000000000000000000000F6
S31508003CA060066006300398018800440000000000A2
S31508003CB000000000000000000000000000000000F6
S31508003CC000000000000000000000000000000000E6
S31508003CD0000000001002100210021002FE07FE0784
S31508003CE008020801080108010801FE07FE07040189
S31508003CF004010401040100000000000000000000A7
S31508003D00000040004000F00158034C03CC034C006F
S31508003D1058007000E000C001C00140034C035C037A
S31508003D204C034801F000400040000000000000007D
S31508003D30000000000E010A01910091009100510057
S31508003D4051003A00AE03A002500450044804480447
S31508003D5048048402840300000000000000000000FC
S31508003D600000000038006C006C006C006C006C00F1
S31508003D702C0098071C011A01330133016301E30083
S31508003D80C308C6093C070000000000000000000048
S31508003D900C001C00100010000800040000000000C1
S31508003DA00000000000000000000000000000000005
S31508003DB000000000000000000000000000000000F5
S31508003DC0000400020001800080004000400020003E
S31508003DD02000200020002000200020004000400095
S31508003DE080008000000100020004000000000000BE
S31508003DF00200040008001000100020002000400007
S31508003E0040004000400040004000400020002000E4
S31508003E101000100008000400020000000000000066
S31508003E2000000000000000004000C0004000460CF2
S31508003E304E0FD001F0015E0F460C400040004000D6
S31508003E400000000000000000000000000000000064
S31508003E500000000000000000000040004000400094
S31508003E6040004000FE0F4000400040004000400077
S31508003E700000000000000000000000000000000034
S31508003E800000000000000000000000000000000024
S31508003E900000000000000000000000000000000014
S31508003EA00C001C00100010000800040000000000B0
S31508003EB000000000000000000000000000000000F4
S31508003EC000000000FE0700000000000000000000DF
S31508003ED000000000000000000000000000000000D4
S31508003EE000000000000000000000000000000000C4
S31508003EF000000000000000000000000000000000B4
S31508003F001C001C001C00000000000000000000004F
S31508003F100004000600020003000100018000800082
S31508003F20400040006000200020001000100008003B
S31508003F3008000C0004000600020000000000000053
S31508003F40000000000000F00098010C030C030606B0
S31508003F5006060606060606060606060606060C03F0
S31508003F600C039801F00000000000000000000000AB
S31508003F7000000000000040007C0060006000600057
S31508003F806000600060006000600060006000600023
S31508003F9060006000FC030000000000000000000054
S31508003FA0000000000000F80084010203060306036F
S31508003FB0000300018001C000600020001000080214
S31508003FC004020602FE0300000000000000000000D4
S31508003FD00000000000007800C60086018601800106
S31508003FE08001C00070008001000100030003060381
S31508003FF006038601F800000000000000000000002B
S3150800400000000000000080018001C001A001A0019D
S3150800401090018801880184018201FE0F80018001D8
S3150800402080018001E0070000000000000000000099
S31508004030000000000000FC03040004000400040063
S315080040400400F4008C0104030003000306030603BE
S3150800405082018401F8000000000000000000000052
S31508004060000000000000E00118030C030C00040027
S315080040700600E60116030E060606060606060406EA
S315080040800C021803F0000000000000000000000009
S31508004090000000000000F8070C06040204010001F5
S315080040A00001800080004000400040006000600081
S315080040B060006000600000000000000000000000D2
S315080040C0000000000000F8010C03060606060606B6
S315080040D00C021C03F000C8010C03060606060606B9
S315080040E006060C03F00100000000000000000000B6
S315080040F0000000000000F0000C010C030602060692
S315080041000606060606078C06780600060003000360
S315080041100C018C017800000000000000000000007F
S315080041200000000000000000000000000000000081
S31508004130E000E000E00000000000000000000000D1
S31508004140E000E000E00000000000000000000000C1
S315080041500000000000000000000000000000000051
S315080041606000600000000000000000000000000081
S3150800417000006000600040002000200000000000F1
S31508004180000000000004000200018000400020003A
S3150800419010000800040008001000200040008000FD
S315080041A000010002000400000000000000000000FA
S315080041B000000000000000000000000000000000F1
S315080041C0FE07000000000000FE07000000000000D7
S315080041D000000000000000000000000000000000D1
S315080041E000000000040008001000200040008000C5
S315080041F000010002000400020001800040002000C7
S315080042001000080004000000000000000000000084
S31508004210000000000000E0031806040C040C0C0C57
S315080042200C0C000780014000400040000000000020
S31508004230E000E000E00000000000000000000000D0
S3150800424000000000E00018030C02CC0564056605B2
S31508004250A605B604B604B604B604B602E4010C0410
S315080042600C021803F0000000000000000000000027
S31508004270000000000000600060005000D0009000C0
S315080042809000880088010801F80104030403040269
S31508004290020202060F0F00000000000000000000E6
S315080042A0000000000000FE008C030C030C030C0346
S315080042B00C038C01FC000C030C020C060C060C0605
S315080042C00C060C03FE0100000000000000000000C0
S315080042D0000000000000E00318030C060C040404A8
S315080042E006000600060006000600060006040C0482
S315080042F00C021803F0000000000000000000000097
S315080043000000000000007F008C010C030C030C0663
S315080043100C060C060C060C060C060C060C060C0302
S315080043200C038C017F000000000000000000000064
S31508004330000000000000FF0306030604060406004A
S3150800434086008600FE0086008600860006000604B3
S3150800435006040602FF03000000000000000000003B
S31508004360000000000000FF0306030604060406001A
S3150800437086008600FE008600860086000600060087
S31508004380060006001F0000000000000000000000F4
S31508004390000000000000F00018010C020C020402E4
S315080043A00600060006000600C60F060306030C03F1
S315080043B00C031803F00000000000000000000000D5
S315080043C00000000000000F0F060606060606060691
S315080043D006060606FE070606060606060606060676
S315080043E0060606060F0F0000000000000000000089
S315080043F0000000000000FC03600060006000600030
S31508004400600060006000600060006000600060009E
S3150800441060006000FC0300000000000000000000CF
S31508004420000000000000F807C000C000C000C0007F
S31508004430C000C000C000C000C000C000C000C0006E
S31508004440C000C000C000C60066003C0000000000B6
S31508004450000000000000CF038601C60046002600C3
S31508004460160036002E006E004600C600860086013D
S31508004470060106038F070000000000000000000088
S315080044800000000000001F000600060006000600E7
S3150800449006000600060006000600060006000604DA
S315080044A006040602FF0300000000000000000000EA
S315080044B00000000000000707860386038E038E03AC
S315080044C04E034E034A035A035A033A03320332038E
S315080044D032031203870700000000000000000000F6
S315080044E00000000000008E0F0C021C021C023402A1
S315080044F03402640264024402C4028402840384030C
S31508004500040304031F02000000000000000000006E
S31508004510000000000000F00098010C030C020606DB
S3150800452006060606060606060606060606060C021B
S315080045300C039801F00000000000000000000000D5
S31508004540000000000000FF00060306060606060631
S31508004550060606068603FE00060006000600060096
S31508004560060006001F000000000000000000000012
S31508004570000000000000F00098010C030C0206067B
S3150800458006060606060606060606060676064C020B
S31508004590CC039801F000800700030000000000002B
S315080045A0000000000000FF010603060606060606D0
S315080045B006060603FE004600C600860086010603B8
S315080045C0060306060F0E00000000000000000000AB
S315080045D0000000000000F8020C03060206020600AE
S315080045E00E003C00F800E0038003000702060206FE
S315080045F006060C03F00100000000000000000000A1
S31508004600000000000000FE076204610861086000FF
S31508004610600060006000600060006000600060008C
S3150800462060006000F80100000000000000000000C3
S315080046300000000000001E070C020C020C020C020F
S315080046400C020C020C020C020C020C020C020C02EC
S315080046500C021801F0000000000000000000000035
S315080046600000000000000F070602040104010C0107
S315080046700C018800880098009800500050007000CF
S3150800468030002000200000000000000000000000AC
S31508004690000000000000F70E6204420446044604C7
S315080046A064026402E402E4029C029C0198019801F7
S315080046B08801880088000000000000000000000053
S315080046C00000000000009E070C0108011801900078
S315080046D0B0006000200060006000D00090008801F3
S315080046E0080104038E070000000000000000000017
S315080046F00000000000000F0F060404020C02080167
S315080047001801B800B000700060006000600060002A
S3150800471060006000F80100000000000000000000D2
S31508004720000000000000FC070C02060302018001DD
S3150800473080004000400020002000100018000804F7
S315080047400C040402FE030000000000000000000044
S31508004750E003200020002000200020002000200088
S31508004760200020002000200020002000200020003B
S315080047702000200020002000E003000000000000C8
S3150800478000000000040004000800080010001000E3
S3150800479010002000200040004000C000800080007B
S315080047A000010001000200020002000400000000EF
S315080047B07C004000400040004000400040004000AF
S315080047C040004000400040004000400040004000DB
S315080047D040004000400040007C00000000006000EF
S315080047E09000080100000000000000000000000022
S315080047F000000000000000000000000000000000AB
S31508004800000000000000000000000000000000009A
S31508004810000000000000000000000000000000008A
S31508004820000000000000000000000000000000007A
S3150800483000000000000000000000FF0F000000005C
S3150800484018006000000000000000000000000000E2
S31508004850000000000000000000000000000000004A
S31508004860000000000000000000000000000000003A
S31508004870000000000000000000000000000000002A
S31508004880F0010C030C030003E0031C030E030603EC
S3150800489006038E0B7C0E00000000000000000000DE
S315080048A00000000008000E000C000C000C000C00B4
S315080048B0CC013C031C060C060C060C060C060C0662
S315080048C00C021C03E40100000000000000000000C8
S315080048D000000000000000000000000000000000CA
S315080048E0F0008C018C01860106000600060006020F
S315080048F00C020C01F000000000000000000000009F
S31508004900000000000002C0030003000300030003C8
S3150800491078038C030C030603060306030603060343
S3150800492004038C0778010000000000000000000066
S315080049300000000000000000000000000000000069
S31508004940E001180308020C060C06FC070C000C0014
S3150800495018041802E0010000000000000000000032
S31508004960000000000000C00360063006300030007A
S31508004970FE013000300030003000300030003000DA
S3150800498030003000FC0100000000000000000000BC
S315080049900000000000000000000000000000000009
S315080049A0F007D8068C018C018C019801F8000C00E0
S315080049B0FC00CC03060306038E03F8000000000083
S315080049C00000000008000E000C000C000C000C0093
S315080049D0EC011C030C030C030C030C030C030C0363
S315080049E00C030C039E0700000000000000000000F6
S315080049F000000000000060006000000000004000A9
S31508004A007C0060006000600060006000600060007C
S31508004A1060006000FC0300000000000000000000C9
S31508004A20000000000000C001C001000000000001F5
S31508004A30F0018001800180018001800180018001F0
S31508004A408001800180018001CC007C00000000000C
S31508004A500000000008000E000C000C000C000C0002
S31508004A608C038C008C004C006C005C008C008C0164
S31508004A700C010C039E070000000000000000000067
S31508004A800000000040007C006000600060006000DC
S31508004A906000600060006000600060006000600008
S31508004AA060006000FC030000000000000000000039
S31508004AB000000000000000000000000000000000E8
S31508004AC03707EE066606660666066606660666061E
S31508004AD066066606FF0F00000000000000000000E2
S31508004AE000000000000000000000000000000000B8
S31508004AF0EE011C030C030C030C030C030C030C0340
S31508004B000C030C039E0700000000000000000000D4
S31508004B100000000000000000000000000000000087
S31508004B20F00098010C0306060606060606060606A3
S31508004B300C030C03F0000000000000000000000059
S31508004B400000000000000000000000000000000057
S31508004B50EE011C030C060C060C060C060C060C06CD
S31508004B600C031C03EC010C000C003E0000000000C6
S31508004B700000000000000000000000000000000027
S31508004B8078028C030C0306030603060306030603D2
S31508004B9004038C03780300030003C0070000000029
S31508004BA000000000000000000000000000000000F7
S31508004BB09F03580638061800180018001800180031
S31508004BC018001800FF0000000000000000000000A8
S31508004BD000000000000000000000000000000000C7
S31508004BE0F0031C030C020C023800F000C003040397
S31508004BF004038C03FC010000000000000000000014
S31508004C0000000000000000002000200030003000F6
S31508004C10FE01300030003000300030003000300037
S31508004C2030023002E0010000000000000000000031
S31508004C30000000000000000000000000000008025C
S31508004C408E030C030C030C030C030C030C030C035C
S31508004C500C039C077801000000000000000000001B
S31508004C600000000000000000000000000000000036
S31508004C701E070C020801080118019000B000B000D8
S31508004C806000600020000000000000000000000036
S31508004C900000000000000000000000000000000006
S31508004CA0F70E6204460464026402EC029C01980151
S31508004CB098019801080000000000000000000000AC
S31508004CC000000000000000000000000000000000D6
S31508004CD0BC0718011001B00060006000E0009000F9
S31508004CE0080108039E0700000000000000000000FD
S31508004CF000000000000000000000000000000000A6
S31508004D009E0708010801080190009000B0006000A5
S31508004D10600060002000200024001C000000000045
S31508004D200000000000000000000000000000000075
S31508004D30FC018401C4004400600020003000180211
S31508004D4008020C03FC01000000000000000000003F
S31508004D5000038000800080008000800080008000C2
S31508004D608000400020004000800080008000800015
S31508004D7080008000800080000003000040004000A2
S31508004D804000400040004000400040004000400015
S31508004D904000400040004000400040004000400005
S31508004DA04000400040004000400040000000000075
S31508004DB00C00100010001000100010001000100069
S31508004DC01000200040002000100010001000100005
S31508004DD010001000100010000C00000000001C005D
S31508004DE02204C20480030000000000000000000046
S31508004DF000000000000000000000000000000000A5
S31508004E000000000000000000000000000000000094
S31508004E100000000000000000000000000000000084
S31508004E200000000000000000000000000000000074
S31508004E300000000000000000000000000000000064
S31508004E400000000000000000000000000000000054
S31508004E50000000000000C001C001C001C001C0017F
S31508004E60C001C001800080008000800080008000B2
S31508004E70800000000000000000008001C003C0039D
S31508004E808001000000000000000000000000000093
S31508004E900000E01CE01CF01E700E3807180308011D
S31508004EA08400000000000000000000000000000070
S31508004EB000000000000000000000000000000000E4
S31508004EC000000000000000000000000000000000D4
S31508004ED00000000000000000201020102010201004
S31508004EE02010FE7FFE7F1008100810081008100812
S31508004EF010081008FE7FFE7F08040804080408044A
S31508004F000804000000000000000000000000000087
S31508004F100000000000010001C007601910311831B7
S31508004F201839183938017001E001C0038007000FED
S31508004F30001D003900311C311C310C310C11180DC3
S31508004F40E007000100010001000000000000000069
S31508004F5000000000000000001C1036186308630CEF
S31508004F6063046304630263026301361D9C3780226F
S31508004F7080634063406320632063306310221836E1
S31508004F80081C0000000000000000000000000000EF
S31508004F900000000000000000F00098018C018C0160
S31508004FA08C018C018C00CC007800183E1C08360851
S31508004FB0320863046304C304C303834306438E268B
S31508004FC0781C00000000000000000000000000003F
S31508004FD000001C003C003C003000300010000C00B3
S31508004FE006000000000000000000000000000000AD
S31508004FF000000000000000000000000000000000A3
S315080050000000000000000000000000000000000092
S3150800501000000040002000100008000C00040006F4
S3150800502000030003000380018001800180018001E4
S3150800503080018001800100030003000300060006CA
S31508005040000C0008001000200040000000000000CE
S315080050500000020004000800100030002000600074
S31508005060C000C000C000800180018001800180016D
S31508005070800180018001C000C000C000600060009F
S3150800508030001000080004000200000000000000C4
S31508005090000000000000000000000000000180037E
S315080050A0800300011C713C79783DC0070001C007E8
S315080050B0783D3C791C710001800380038001000063
S315080050C000000000000000000000000000000000D2
S315080050D000000000000000000000000000000001C1
S315080050E0000100010001000100010001FC7F000130
S315080050F0000100010001000100010001000000009C
S315080051000000000000000000000000000000000091
S315080051100000000000000000000000000000000081
S315080051200000000000000000000000000000000071
S315080051300000000000000000000000001C003C0009
S315080051403C003000300010000C0006000000000093
S315080051500000000000000000000000000000000041
S31508005160000000000000000000000000FE7F0000B4
S315080051700000000000000000000000000000000021
S315080051800000000000000000000000000000000011
S315080051900000000000000000000000000000000001
S315080051A000000000000000000000000000000000F1
S315080051B00000000000000000000018003C003C0051
S315080051C018000000000000000000000000000000B9
S315080051D000000040006000200030001000180008A1
S315080051E0000C000400060002000300018001800094
S315080051F0C0004000600020003000100018000800C1
S315080052000C00040006000200000000000000000078
S315080052100000000000000000C007600C30181830BD
S31508005220183018200C600C600C600C600C600C6068
S315080052300C600C600C601820183018303018600CA0
S31508005240C007000000000000000000000000000089
S31508005250000000000000000000018001F801800144
S315080052608001800180018001800180018001800128
S315080052708001800180018001800180018001C003D6
S31508005280F81F0000000000000000000000000000F9
S315080052900000000000000000E007101C0818043099
S315080052A004300C300C3000300018000800040002EE
S315080052B00001800040002020102008200430FC1F38
S315080052C0FC1F0000000000000000000000000000B5
S315080052D00000000000000000E003180E0C0C0C187B
S315080052E00C180C180018000C0006C003000E001855
S315080052F00010003000300C300C300C100C18180C54
S31508005300E0030000000000000000000000000000AC
S315080053100000000000000000000C000E000E000F48
S31508005320800E800E400E600E200E100E100E080E17
S31508005330040E040EFE7F000E000E000E000E000E78
S31508005340000EC07F00000000000000000000000002
S315080053500000000000000000F03FF03F10001000C1
S31508005360100008000800C807280C18180810003094
S315080053700030003000300C300C3004180418080CCB
S31508005380F00300000000000000000000000000001C
S315080053900000000000000000800FC0102030103010
S315080053A01800180008000C008C0F6C183C301C60A4
S315080053B00C600C600C600C601860182030306018A7
S315080053C0C007000000000000000000000000000008
S315080053D00000000000000000F83FF83F1C100C0811
S315080053E00408040400040002000200010001000190
S315080053F0800080008000C000C000C000C000C0005F
S31508005400C0000000000000000000000000000000CE
S315080054100000000000000000E007300C18180C30EF
S315080054200C300C301C3038187008E007B007180E1E
S315080054300C1C063806300630063006300C18180CD8
S31508005440E00300000000000000000000000000006B
S315080054500000000000000000E00318040C080C1807
S315080054600610063006300630063006380C3C18366C
S31508005470F03100300018001800180C0C0C060C034C
S31508005480F00100000000000000000000000000001D
S3150800549000000000000000000000000000000000FE
S315080054A00000000000008001C003C0038001000066
S315080054B0000000000000000000008001C003C003D7
S315080054C0800100000000000000000000000000004D
S315080054D000000000000000000000000000000000BE
S315080054E0000000000000C000C0000000000000002E
S315080054F00000000000000000000000000000C000DE
S31508005500C00080008000400040000000000000004D
