:020000040800F2
:10000000580400209D010008850B000879020008B3
:10001000150B000819020008850F000800000000F9
:10002000000000000000000000000000DB0D0008E0
:1000300059020008000000005D0C00082B0E0008AB
:10004000B7010008B7010008B7010008B7010008B0
:10005000B7010008B7010008B7010008B7010008A0
:10006000B7010008B7010008B7010008B701000890
:10007000B7010008B7010008B7010008B701000880
:10008000B7010008B7010008B7010008B701000870
:10009000B7010008B7010008B7010008B701000860
:1000A000B7010008B7010008B7010008B701000850
:1000B000B7010008B7010008B7010008B701000840
:1000C000B7010008B7010008B7010008610C00087B
:1000D000B7010008B7010008B7010008B701000820
:1000E000B7010008B7010008B7010008B701000810
:1000F000B7010008B7010008B7010008B701000800
:10010000B7010008B7010008B7010008B7010008EF
:10011000B7010008B7010008B7010008B7010008DF
:10012000B7010008B7010008B7010008B7010008CF
:10013000B7010008B7010008B7010008B7010008BF
:1001400000000000000000000000000000000000AF
:10015000B7010008B7010008B7010008B70100089F
:10016000B7010008B7010008B7010008B70100088F
:10017000B7010008B7010008B7010008B70100087F
:10018000B7010008DFF810D000F01AF80048004767
:10019000CD140008AFF300805804002006488047C3
:1001A00006480047FEE7FEE7FEE7FEE7FEE7FEE75C
:1001B000FEE7FEE7FEE7FEE72D0E000885010008DA
:1001C000064C074D06E0E06840F0010394E80700A4
:1001D00098471034AC42F6D3FFF7D8FF304B0008F5
:1001E000504B00080648074908600748486007491F
:1001F000044881600649C1600648024908617047A9
:1002000035020008440000207D020008DD0D0008D2
:10021000890B00085D02000800BFFEE7024682EA83
:100220002120034B33F8100080EA012080B2704790
:10023000F648000870B504460D46002605E0207813
:100240003146FFF7EBFF0646641C281EA5F10101AD
:100250008DB2F4D1304670BD7047704730B503465B
:10026000002005E00446401C1C5D8C4200D130BDDE
:100270009042F7D30020FAE700BFFEE703B59DF8F0
:1002800002109DF80120C2EB021201EB82019DF8E1
:100290000020C2EB4213C3EB022201EB021004491F
:1002A000884201DA014600E0014908460CBD000021
:1002B000805101002DE9F04107460C4615461E46C7
:1002C00035480078A8B92A2000F0BCFB384600F079
:1002D000D3FB284600F0D0FB2B2000F0B3FB2046D8
:1002E00000F0CAFB304600F0C7FB2C2000F0AAFB50
:1002F00050E029480078012819D12A2000F0A2FBFB
:10030000384600F0B9FB284600F0B6FB2B2000F081
:1003100099FB04F1500188B200F0AEFB06F15001E8
:1003200088B200F0A9FB2C2000F08CFB32E01A48C8
:100330000078022815D12A2000F084FB384600F00E
:100340009BFB284600F098FB2B2000F07BFB20460F
:1003500000F092FB304600F08FFB2C2000F072FB87
:1003600018E02A2000F06EFB07F1500188B200F07F
:1003700083FB05F1500188B200F07EFB2B2000F0DA
:1003800061FB204600F078FB304600F075FB2C2026
:1003900000F058FBBDE8F0810C000020002106E0D1
:1003A00042F2107200BF531E1A1EFCDC491C81422F
:1003B000F6DB70472DE9F04706460F469046994612
:1003C0000025444641E07A1B91B2321B90B24A4666
:1003D00000F095F87A1B91B2321990B24A4600F0BB
:1003E0008EF83A1991B2721B90B24A4600F087F823
:1003F0003A1B91B2721B90B24A4600F080F87A190B
:1004000091B2321990B24A4600F079F83A1B91B293
:10041000721990B24A4600F072F83A1991B2721904
:1004200090B24A4600F06BF87A1991B2321B90B242
:100430004A4600F064F86D1C05FB05F004FB04015E
:1004400008FB08F0814200DD641EA542BBDDBDE86B
:10045000F0872DE9FF4F85B081468A460020039042
:1004600083460798A0EB09050898A0EB0A06CDF88B
:100470000890CDF804A0002D01DD012705E00DB99D
:10048000002702E04FF0FF376D42002E02DD4FF0F3
:10049000010806E016B94FF0000802E04FF0FF38FF
:1004A0007642B54201DD2C4600E03446002004903F
:1004B0001EE0019A91B2029A90B2129A00F01FF8CF
:1004C000039828440390B3440398A04205DD0398A1
:1004D000001B0390029838440290A34504DDABEB67
:1004E000040B0198404401900498401C80B2049091
:1004F000611C04988842DCDB09B0BDE8F08F70B560
:1005000004460D4616462B46224629462046FFF74E
:10051000D1FE304600F0B0FA70BD2DE9F843054633
:100520000E4617469846089C33463A4631462846BA
:100530000094FFF78EFF43462A4631462846009432
:10054000FFF787FF43463A46414628460094FFF7A7
:1005500080FF43463A46314638460094FFF779FF1C
:10056000BDE8F8832DE9F04706460F4614461D46C0
:10057000DDF82090A01BE91B00FB01F8681E83B288
:10058000601E82B239463046FFF794FE04E04846CA
:1005900000F072FAA8F10108B8F1000FF7DCBDE82D
:1005A000F08700001CB504469CB101210E4800F004
:1005B0005DFE4FF48060009010208DF80600002052
:1005C0008DF8040004208DF8050001208DF8070047
:1005D00005E04FF48060009000208DF80600694629
:1005E000024800F0F8FE1CBD02000C0000080140AB
:1005F00038B504462046FFF7D5FF204600F0E0FB63
:10060000C820FFF7CBFE112000F01CFA1420FFF7E2
:10061000C5FE362000F016FA3220FFF7BFFE6A480A
:10062000007820B1012806D002280CD107E0002074
:1006300000F033FA0BE0C02000F02FFA07E0702042
:1006400000F02BFA03E0A02000F027FA00BF00BF63
:100650003A2000F0F7F9052000F01FFAB22000F070
:10066000F1F90C2000F019FA0C2000F016FA002025
:1006700000F013FA332000F010FA332000F00DFAE6
:10068000B72000F0DFF9352000F007FABB2000F0BA
:10069000D9F9192000F001FAC02000F0D3F92C207C
:1006A00000F0FBF9C22000F0CDF9012000F0F5F9CF
:1006B000C32000F0C7F9122000F0EFF9C42000F0C9
:1006C000C1F9202000F0E9F9C62000F0BBF90F20A5
:1006D00000F0E3F9D02000F0B5F9A42000F0DDF936
:1006E000A12000F0DAF9E02000F0ACF9D02000F011
:1006F000D4F9042000F0D1F90D2000F0CEF911203A
:1007000000F0CBF9132000F0C8F92B2000F0C5F958
:100710003F2000F0C2F9542000F0BFF94C2000F057
:10072000BCF9182000F0B9F90D2000F0B6F90B2043
:1007300000F0B3F91F2000F0B0F9232000F0ADF96C
:10074000E12000F07FF9D02000F0A7F9042000F0AC
:10075000A4F90C2000F0A1F9112000F09EF913205B
:1007600000F09BF92C2000F098F93F2000F095F95B
:10077000442000F092F9512000F08FF92F2000F072
:100780008CF91F2000F089F91F2000F086F9202045
:1007900000F083F9232000F080F9212000F052F9C5
:1007A000112000F04FF9292000F04CF9C820FFF784
:1007B000F5FD06480088F0231A46002100900846FF
:1007C000FFF7D0FE38BD00000C0000200A0000201A
:1007D0002DE9FF5F07468A4690469B460F9D002005
:1007E00002900097284605EBD071C1F347042046DC
:1007F000E21704EB5272D2102146E31704EB537355
:10080000DB10A4EBC3030BB1012300E000231A4467
:100810006A4392B20192A8F1200000F0FF080AEBAF
:100820000500401E83B23819401E82B25146384638
:10083000FFF740FD00265BE0102D05D12F4800EBAF
:100840000810805D039013E0182D07D108EB4800D5
:100850002B4901EB0010805D039009E0202D05D1AC
:10086000284800EB8810805D039001E0BDE8FF9F01
:100870004FF0000936E01098C8B9012000FA09F0DD
:100880000399084018B1584600F0F6F802E00E98B7
:1008900000F0F2F80298401CC0B20290029890FB5F
:1008A000F4F104FB1100C8B9002002901DE0012002
:1008B00000FA09F00399084020B15A4651463846DB
:1008C000FFF71DFE781C87B20098381AA04205D1A8
:1008D000009F0AF101001FFA80FA06E009F1010009
:1008E00000F0FF09B9F1080FC5DB00BF701C86B22C
:1008F00001988642A0DB00BFB8E700007619000827
:10090000661F0008363100082DE9FE470646894675
:1009100015469A46DDE90C480B9F1CE0182C09D1BE
:1009200053462A4649463046CDE90148009700F033
:1009300017F80DE0202C09D153462A464946304687
:10094000CDE90148009700F00FF801E0BDE8FE870F
:10095000AD1C301986B228780028DFD100BFF5E73A
:1009600070B504AC70CC70BD70B504AC70CC70BD0B
:100970002DE9F05F0746884615461E46DDF82890AB
:10098000002408EB0600401E83B27819401E82B294
:1009900041463846FFF78EFCA24618E04FF0000BA8
:1009A0000FE019F8140000F078F8012101EB440180
:1009B00019F8010000F071F8641C0BF101001FFA36
:1009C00080FBB345EDDB0AF101001FFA80FAAA456E
:1009D000E4DBBDE8F09F2DE9FE4305460F461646D1
:1009E0009846DDE90A94102C03D0182C01D0202C55
:1009F0000FD1204604EBD071491069438DB207FB3B
:100A000004F087B2F02D00DDF025F02F03DDF02794
:100A100001E0BDE8FE8310E00020CDE900940290E3
:100A20003278434639462846FFF7D2FE204604EB8B
:100A3000D07105EB61018DB2761C30780028EBD1C6
:100A400000BFE6E710B504460121084600F074F93E
:100A50004FF4806007490860204600F02CF84FF4FE
:100A600080600449091F08600021012000F064F93A
:100A700010BD00001408014010B5044601210846CD
:100A800000F05AF9201200F016F8E0B200F013F866
:100A90000021012000F050F910BD10B504460121DD
:100AA000084600F049F9204600F005F80021012031
:100AB00000F042F910BD10B50446204600F05AF986
:100AC00010BD000010B500F08EFD00F025F8FFF716
:100AD00089FB094841680120884701214FF4E13032
:100AE00000F0DCF9054C00BF201EA4F10104FBD18D
:100AF00003A000F049FA10BD1000002040420F0092
:100B0000686F6C6C6520776F726C642021200D0A11
:100B10000000000000BFFEE710B500F009F8024831
:100B20000249486010BD0000F105000810000020D7
:100B30000A480B4908600B4848600B490848816027
:100B40000A49C1600A4901610A4941610A49816152
:100B50000A49C1610A490162704700005B0200084E
:100B60002000002065050008FF0400085304000869
:100B7000B50300081B050008D7090008090900088B
:100B800071090008704700003CB50446D4E9001024
:100B90000968884206D020680068606000202072E2
:100BA000607255E0207A40B9012020720020607206
:100BB000E16903C9C4E905014AE000200090019001
:100BC0000025D4E90501FFF759FB0090E269D2E95D
:100BD0000001FFF753FB0190DDE90001884203DDCE
:100BE0001C49019808440190DDE90010401A00906A
:100BF000D4E90301FFF742FB0190E0694168A06975
:100C0000814209D20098401E00901349A069081A39
:100C1000E1694968451803E0E0694168A0690D1A77
:100C20002069A84202D90098401E0090DDE9000129
:100C3000401A0AD470206072A07A08B9012000E03E
:100C40000020A0720020207201E00020607200BF2E
:100C5000607A3CBD8051010040420F0070470000A7
:100C600010B502210B4800F0ADFC012810D1802105
:100C7000084800F0A7FC58B900228021054800F080
:100C8000A9FC0021012000F057F80120024908804A
:100C900010BD000000300140080000201CB50446D3
:100CA000684600F08DFB9CB30121214800F0BCFA9E
:100CB00001214FF4C01000F0B7FA4FF480500090BB
:100CC00001208DF8070000208DF8040010208DF819
:100CD000060004208DF805006946164800F07BFBED
:100CE0004FF42040009010208DF80600694611480E
:100CF00000F071FB4FF48040009000208DF806005A
:100D000018208DF8050069460A4800F064FB0DE0E4
:100D1000FFE74FF47040009003208DF80600042098
:100D20008DF805006946034800F055FB1CBD000026
:100D300003001800000C014020B1012807D0022850
:100D400012D110E04FF48052094B1A600DE029B126
:100D50004FF48052064B1B1D1A6003E04FF4805283
:100D6000034B1A6001E000E000BF00BF70470000C5
:100D7000100C014010B50246002017E04FF400535C
:100D80000E4C236002FA00F303F0800121B14FF40E
:100D90000043241F236003E04FF40043074C23600B
:100DA0004FF40053054C241F2360401C0828E5DB4A
:100DB0004FF40040014B1B1F186010BD140C014084
:100DC00070B50446002504B101252846FFF766FFEB
:100DD00000210120FFF7B0FF70BD70471CB502462F
:100DE0004FF4616391FBF3F0182801DA034600E049
:100DF0001823DBB28DF800304FF4616391FBF3F4FC
:100E000003FB14133C2493FBF4F0C3B28DF80130C0
:100E10003C2391FBF3F403FB1410C3B28DF80230B2
:100E2000DDE90034C2E900341CBD70471848006891
:100E300040F47000164908601648006820F0010070
:100E4000401C1449086000BF12480068C0F340000D
:100E50000028F9D00F48406820F003000D49486091
:100E600000BF0C484068C0F381000028F9D1094850
:100E70000068094908400749086000204860086385
:100E80004FF41F008860C80301498039086070472B
:100E900088ED00E000100240FFFFF2FE7CB5044642
:100EA0000D4600263048314908600846006800F0C9
:100EB000E3FC05B1012631462D4800F0B5F90121CA
:100EC0004FF4C01000F0B0F901212A4800F0ACF94D
:100ED0000121294800F0D4FA684600F071FA4FF475
:100EE0008060009001208DF8070000208DF804003C
:100EF00008208DF8060004208DF8050069461F487B
:100F000000F069FA4FF40060009000208DF80600B0
:100F100018208DF805006946184800F05CFA072093
:100F200000F03CFB03220021272000F0D3FA00232D
:100F30001A4621460D48006800F018FC01210B48B4
:100F4000006800F013FD00210848006800F06DFC07
:100F500001220B490548006800F04CFC01210348C0
:100F6000006800F0F5FB7CBD004800400000002058
:100F700012001C00040018000104182C001001408D
:100F800005000C0000BFFEE7014A024900F013B85B
:100F9000991300081C00002002E008C8121F08C1B5
:100FA000002AFAD170477047002001E001C1121FEA
:100FB000002AFBD170472DE9F04116460F46044642
:100FC000002503E03946B047641C6D1C20780028DA
:100FD000F8D12846BDE8F0810349496860F307115C
:100FE000014A5160704700000010024003494968FF
:100FF00060F30A21014A516070470000001002406E
:101000000349496860F3CD21014A516070470000EF
:1010100000100240012807D10749496D21F0300135
:101020003031054A516505E00349496D21F0300131
:10103000014A51657047000000100240052827D280
:10104000DFE800F0030A11181F00134A126861F369
:101050000002114B1A601CE00F4A126861F3104243
:101060000D4B1A6015E00C4A126861F318620A4BC6
:101070001A600EE0084A126A61F30002064B1A6217
:1010800007E0054A526A61F30002034B5A6200E02E
:1010900000BF00BF70470000001002402DE9F04182
:1010A000014600270022002590460023002400F07E
:1010B0006BF9064626B1012E12D0022E43D112E062
:1010C0003948406DC0F3402038B13748006BC0F359
:1010D000406010B13548086001E03548086035E0EF
:1010E0003348086032E030484068C0F300482E487A
:1010F0004068C0F383422C484068C0F341750DB985
:101100000F2A03D12801401C024400E0921CB8F1D0
:10111000000F03D127485043086013E0224840687D
:10112000C0F3404058B12048406DC0F30137B81CAF
:10113000DFF87CC0BCFBF0F05043086002E01C48C4
:101140005043086002E01A48086000BF00BF16481C
:101150004068C0F303131848C45C0868E040486066
:1011600011484068C0F302231448C45C4868E0405A
:10117000C8600D484068C0F3C2231148C45C486889
:10118000E040886008484068C0F300730648406843
:10119000C0F3813040EA83030A48C45C8868B0FB2E
:1011A000F4F00861BDE8F08100100240006CDC0240
:1011B00000127A0000093D00F64A0008064B0008BC
:1011C0000E4B0008164B000810B501460020094BD5
:1011D00003EB1142126801F01F040123A3401A40DF
:1011E00001F01F040123A3409A4200D000E0012037
:1011F00010BD00000010024030B50024002500E0C2
:10120000641C1120FFF7E0FF012802D0B4F5405F15
:10121000F6D31120FFF7D8FF012801D0002500E008
:101220000125284630BD000010B501290DD10E4B17
:1012300003EB1042126800F01F040123A3401A437D
:10124000094C04EB10431A600CE0074B03EB10420F
:10125000126800F01F040123A3409A43024C04EBE0
:1012600010431A6010BD00000010024010B50129A3
:101270000DD10E4B03EB1042126800F01F04012346
:10128000A3401A43094C04EB10431A600CE0074BCF
:1012900003EB1042126800F01F040123A3409A439D
:1012A000024C04EB10431A6010BD00000010024015
:1012B00010B530B9184B5B6823F48033164C63606B
:1012C00017E0154B5B6823F4803303F58033124C31
:1012D0006360012805D123465B6823F40033636013
:1012E00007E00D4B5B6823F4003303F500330A4C31
:1012F0006360094B5B6861F39543074C63600C09BD
:10130000054B5B6864F35E73034C636023465B6864
:1013100062F3DF73636010BD001002401348006881
:1013200020F00100401C1149086000BF0F48006810
:10133000C0F340000028F9D00C48406820F00300BA
:101340000A49486000BF09484068C0F3810000288E
:10135000F9D10648006806490840044908600020A1
:10136000486008634FF41F00886070470010024017
:10137000FFFFF2FE0349496860F30101014A516031
:10138000704700000010024002484068C0F381002E
:10139000704700000010024070B504460D4600BFC3
:1013A00040210648006800F0D8F90028F8D0E1B2E2
:1013B0000248006800F0C8F9204670BD0000002017
:1013C0004FF6FF71016000218171017104214171AB
:1013D0000121C1717047F0B50A461588ABB2957905
:1013E000032D01D100241AE0957965B9557905F0EE
:1013F0000F045579182D01D1036110E05579282D7E
:101400000DD143610BE0957905F00805167906F0DA
:1014100004063543D67906F0030645EA0604DDB234
:10142000A5B1002110E001258D401D405DB105688A
:101430008F000F26BE40B543056005688E0004FA94
:1014400006F635430560491C0829ECD3FF2B15DD52
:101450001B12002110E001258D401D405DB1456843
:101460008F000F26BE40B543456045688E0004FAE4
:1014700006F635434560491C0829ECD3F0BD000051
:10148000F0B50C46104F07EB1062C0F30741C0F3F4
:101490000725C6B2C5F12007A7EB010C4FF0FF37B7
:1014A00007FA0CF3C5F120077F1AFB40CB408B40B5
:1014B00017689F4317602CB106FA01FC176847EACA
:1014C0000C071760F0BD000000000140FFF7FAFABA
:1014D00000BFFEE72DE9F0470B4614464FF0000C25
:1014E00000BF2C4A1268C2F302211D4626460A4656
:1014F000C2F10709B9F1040F02D94FF0040901E064
:10150000C2F10709C84602F10409B9F1070F02D276
:101510004FF0000901E0A2F103094F464FF0010925
:1015200009FA08F9A9F1010909EA050909FA07F90F
:101530004FF0010A0AFA07FAAAF1010A0AEA060AB2
:1015400049EA0A09CC4601466246002904DB150730
:101550002E0E114D6E5407E015072F0E0D4D0C3554
:1015600001F00F06361FAF5500BF014600290DDB05
:1015700000BF00BF01F01F050122AA404D09AD00C8
:1015800005F1E025C5F8002100BF00BF00BFBDE8A0
:10159000F08700000CED00E000E400E000BF00F088
:1015A0000702064B19684FF6FF031940044B0B4323
:1015B00043EA0221014B196000BF70470CED00E0C7
:1015C0000000FA050246002093680B4003B900E0D2
:1015D000012070471AB143680B43436002E043683F
:1015E0008B434360704710B5FFF798FE0121084612
:1015F000FFF724FD00BFFFF7FFFD0028FBD001220D
:1016000013211046FFF754FE01210220FFF716FDBB
:1016100000BF1920FFF7D8FD0128FAD10020FFF7FD
:10162000DBFC0420FFF7ECFC0420FFF7DFFC0120CB
:10163000FFF7F0FC0220FFF79DFE00BFFFF7A4FEBE
:101640000228FBD10020FFF7E5FC00F001F810BDF7
:101650002DE9F0470026002400250027A046A146DA
:10166000FFF792FE8246BAF1000F06D0BAF1010FE1
:1016700015D0BAF1020F46D115E02D48406DC0F3E8
:10168000402040B12A48006BC0F3406018B129489F
:101690002949086002E029482749086037E02748BF
:1016A0002549086033E022484068C0F300472048DD
:1016B0004068C0F383441E484068C0F341750DB9CB
:1016C0000F2C03D12801401C044400E0A41C27B9BE
:1016D0001B4860431849086014E015484068C0F38F
:1016E000404058B11248406DC0F30136B01C134958
:1016F000B1FBF0F060431049086003E00F4860431D
:101700000D49086003E00D480B49086000BF00BFA9
:1017100007484068C0F303180A4810F808900648C4
:10172000006820FA09F004490860BDE8F08700006D
:1017300000100240006CDC021800002000127A0049
:1017400000093D001E4B0008C1F3080242607047CB
:10175000C26861F34D32C2607047024610680840AB
:1017600008B1012070470020FCE700002DE9F0439C
:1017700085B004460F46904699466846FFF78EFCB2
:101780001848844208D01848844205D0174884423B
:1017900002D01748844201D1029E00E0039E06EB6E
:1017A00086004000B0FBF7F50A20B5FBF0F100FB26
:1017B0001150052803D20A20B5FBF0F503E00A20FA
:1017C000B5FBF0F0451CA06865F30F00A060E06871
:1017D00068F30C30E060206969F30D30206105B0DA
:1017E000BDE8F08300380140006001400064014022
:1017F0000068014030B5012A0BD100EB11431B6892
:1018000001F01F050124AC40234300EB1144236089
:101810000AE000EB11431B6801F01F050124AC40F6
:10182000A34300EB1144236030BD41B9C26822F4E8
:101830000072C260C26822F48062C2601AE00129AC
:101840000AD1C26822F40072C260C26822F48062C7
:1018500002F58062C2600DE002290BD1C26822F459
:10186000007202F50072C260C26822F4806202F562
:101870008062C2607047000010B50446324884425E
:1018800008D101213148FFF7F1FC00212F48FFF773
:10189000EDFC58E02E48844208D101218012FFF768
:1018A000E5FC0021A012FFF7E1FC4CE0294884424E
:1018B00008D101218012FFF7D9FC0021A012FFF707
:1018C000D5FC40E02448844208D101218012FFF772
:1018D000CDFC0021A012FFF7C9FC34E01F48844270
:1018E00008D101218012FFF7C1FC0021A012FFF7EF
:1018F000BDFC28E01A4884420AD1012113480A306D
:10190000FFF7B4FC002111480A30FFF7AFFC1AE0E2
:10191000144884420AD101210C480B30FFF7A6FC81
:1019200000210A480B30FFF7A1FC0CE00E4884426E
:1019300009D1012105480C30FFF798FC002103482C
:101940000C30FFF793FC10BD003801400E000C0076
:101950000044004000480040004C0040005000405F
:10196000006001400064014000680140C26861F30A
:10197000C302C260704700000000000000000000C9
:10198000000000000000000000080808080808081F
:1019900000001818000000486C241200000000002D
:1019A0000000000000000000002424247F12121216
:1019B0007F12121200000000081C2A2A0A0C1828A4
:1019C000282A2A1C080800000022251515152A5867
:1019D0005454542200000000000C1212120A762502
:1019E0002911916E000000060604030000000000AB
:1019F000000000000000004020101008080808083F
:101A000008101020400000020408081010101010E8
:101A10001008080402000000000008086B1C1C6B82
:101A200008080000000000000000080808087F08FF
:101A3000080808000000000000000000000000008E
:101A40000000060604030000000000000000FE0085
:101A50000000000000000000000000000000000086
:101A60000000060600000000804040202010100802
:101A700008040402020000000018244242424242CC
:101A8000424224180000000000080E080808080858
:101A90000808083E00000000003C4242422020109E
:101AA0000804427E00000000003C42422018204012
:101AB0004042221C00000000002030282424222262
:101AC0007E20207800000000007E0202021A2640DC
:101AD0004042221C0000000000382402021A264264
:101AE0004242241800000000007E22221010080844
:101AF0000808080800000000003C42424224182464
:101B00004242423C00000000001824424242645815
:101B10004040241C000000000000000018180000D5
:101B2000000018180000000000000000000800007D
:101B3000000000080804000000402010080402040F
:101B40000810204000000000000000007F0000009E
:101B50007F00000000000000000204081020402068
:101B60001008040200000000003C424246402010E1
:101B70001000181800000000001C225A5555555539
:101B80002D42221C00000000000808181414243CF8
:101B9000224242E700000000001F2222221E2242B1
:101BA0004242221F00000000007C4242010101016C
:101BB0000142221C00000000001F22424242424219
:101BC0004242221F00000000003F4212121E121269
:101BD0000242423F00000000003F4212121E121259
:101BE0000202020700000000003C222201010171F4
:101BF0002122221C0000000000E7424242427E42B5
:101C0000424242E700000000003E080808080808B9
:101C10000808083E00000000007C10101010101092
:101C200010101010110F0000007722120A0E0A1275
:101C300012222277000000000007020202020202C4
:101C40000202427F000000000077363636362A2A2C
:101C50002A2A2A6B0000000000E346464A4A5252F4
:101C60005262624700000000001C22414141414194
:101C70004141221C00000000003F424242423E021D
:101C80000202020700000000001C224141414141C4
:101C90004D53321C60000000003F4242423E12128F
:101CA000222242C700000000007C424202041820A9
:101CB0004042423E00000000007F49080808080832
:101CC0000808081C0000000000E74242424242426D
:101CD0004242423C0000000000E742422224241419
:101CE0001418080800000000006B4949494955557F
:101CF000362222220000000000E74224241818188F
:101D0000242442E70000000000772222141408086F
:101D10000808081C00000000007E212010100804A4
:101D20000442423F00000078080808080808080834
:101D300008080808780000000202040408080810D7
:101D4000102020204040001E101010101010101005
:101D5000101010101E0000384400000000000000A9
:101D60000000000000000000000000000000000073
:101D70000000000000FF0006080000000000000056
:101D8000000000000000000000000000003C42785D
:101D9000444242FC0000000000030202021A2642F4
:101DA0004242261A000000000000000000384402F1
:101DB0000202443800000000006040404078444285
:101DC000424264D80000000000000000003C427E57
:101DD0000202423C0000000000F08808087E08086B
:101DE0000808083E0000000000000000007C2222DD
:101DF0001C023C42423C000000030202023A4642FE
:101E0000424242E700000000000C0C00000E0808EF
:101E10000808083E00000000003030000038202094
:101E200020202020221E0000000302020272120A5B
:101E30001612227700000000000E080808080808A3
:101E40000808083E0000000000000000007F929299
:101E5000929292B70000000000000000003B464252
:101E6000424242E70000000000000000003C424205
:101E70004242423C0000000000000000001B2642DD
:101E80004242221E02070000000000000078444287
:101E90004242447840E000000000000000774C041B
:101EA0000404041F0000000000000000007C420247
:101EB0003C40423E0000000000000008083E0808C8
:101EC00008080830000000000000000000634242E3
:101ED000424262DC000000000000000000E74224F3
:101EE00024140808000000000000000000EB49492D
:101EF0005555222200000000000000000076241842
:101F00001818246E000000000000000000E74224C2
:101F1000241418080807000000000000007E2210AA
:101F20000808447E000000C020202020201020202F
:101F300020202020C00010101010101010101010C1
:101F400010101010101000060808080808100808E3
:101F50000808080806000C32C2000000000000005B
:101F60000000000000000000000000000000000071
:101F70000000000000000000000000000000000061
:101F80000000000000000000000000000000000051
:101F900000000000000000000000000000006000E1
:101FA0006000600060006000600060004000200091
:101FB00020002000000000000000600060006000C1
:101FC0000000000000000000000060066006300312
:101FD000980188004400000000000000000000009C
:101FE00000000000000000000000000000000000F1
:101FF00000000000000000000000000000001002CF
:10200000100210021002FE07FE0708020801080174
:1020100008010801FE07FE07040104010401040190
:102020000000000000000000000000004000400030
:10203000F00158034C03CC034C0058007000E00042
:10204000C001C00140034C035C034C034801F00095
:1020500040004000000000000000000000000E01F1
:102060000A01910091009100510051003A00AE0325
:10207000A002500450044804480448048402840325
:102080000000000000000000000000000000380018
:102090006C006C006C006C006C002C0098071C013C
:1020A0001A01330133016301E300C308C6093C0789
:1020B000000000000000000000000C001C001000E8
:1020C00010000800040000000000000000000000F4
:1020D0000000000000000000000000000000000000
:1020E00000000000000000000000000400020001E9
:1020F00080008000400040002000200020002000E0
:1021000020002000200040004000800080000001EE
:1021100000020004000000000000020004000800AB
:10212000100010002000200040004000400040004F
:102130004000400040002000200010001000080077
:102140000400020000000000000000000000000089
:1021500000004000C0004000460C4E0FD001F001CE
:102160005E0F460C400040004000000000000000F0
:10217000000000000000000000000000000000005F
:102180000000000040004000400040004000FE0F02
:1021900040004000400040004000000000000000FF
:1021A000000000000000000000000000000000002F
:1021B000000000000000000000000000000000001F
:1021C000000000000000000000000C001C001000D7
:1021D00010000800040000000000000000000000E3
:1021E0000000000000000000000000000000FE07EA
:1021F00000000000000000000000000000000000DF
:1022000000000000000000000000000000000000CE
:1022100000000000000000000000000000000000BE
:10222000000000000000000000001C001C001C005A
:102230000000000000000000000000040006000292
:1022400000030001000180008000400040006000A9
:102250002000200010001000080008000C000400FE
:102260000600020000000000000000000000000066
:10227000F00098010C030C03060606060606060687
:1022800006060606060606060C030C039801F00077
:10229000000000000000000000000000000000003E
:1022A00040007C0060006000600060006000600032
:1022B0006000600060006000600060006000FC037F
:1022C000000000000000000000000000000000000E
:1022D000F8008401020306030603000300018001E5
:1022E000C000600020001000080204020602FE0385
:1022F00000000000000000000000000000000000DE
:102300007800C6008601860180018001C00070004F
:102310008001000100030003060306038601F800A4
:1023200000000000000000000000000000000000AD
:1023300080018001C001A001A001900188018801F5
:1023400084018201FE0F8001800180018001E0078D
:10235000000000000000000000000000000000007D
:10236000FC0304000400040004000400F4008C01D9
:102370000403000300030603060382018401F8003E
:10238000000000000000000000000000000000004D
:10239000E00118030C030C0004000600E60116031C
:1023A0000E0606060606060604060C021803F000D2
:1023B000000000000000000000000000000000001D
:1023C000F8070C06040204010001000180008000EF
:1023D000400040004000600060006000600060005D
:1023E00000000000000000000000000000000000ED
:1023F000F8010C030606060606060C021C03F00094
:10240000C8010C0306060606060606060C03F001C4
:1024100000000000000000000000000000000000BC
:10242000F0000C010C030602060606060606060767
:102430008C0678060006000300030C018C0178006E
:10244000000000000000000000000000000000008C
:1024500000000000000000000000E000E000E000DC
:1024600000000000000000000000E000E000E000CC
:10247000000000000000000000000000000000005C
:10248000000000000000000000006000600000008C
:10249000000000000000000000000000600060007C
:1024A00040002000200000000000000000000004A8
:1024B000000200018000400020001000080004001D
:1024C000080010002000400080000001000200040D
:1024D00000000000000000000000000000000000FC
:1024E00000000000000000000000FE0700000000E7
:1024F0000000FE07000000000000000000000000D7
:1025000000000000000000000000000000000400C7
:1025100008001000200040008000000100020004BC
:1025200000020001800040002000100008000400AC
:10253000000000000000000000000000000000009B
:10254000E0031806040C040C0C0C0C0C00078001B2
:1025500040004000400000000000E000E000E0001B
:102560000000000000000000000000000000E0008B
:1025700018030C02CC0564056605A605B604B6046E
:10258000B604B604B602E4010C040C021803F00011
:10259000000000000000000000000000000000003B
:1025A000600060005000D00090009000880088011A
:1025B0000801F801040304030402020202060F0FDB
:1025C000000000000000000000000000000000000B
:1025D000FE008C030C030C030C030C038C01FC00A9
:1025E0000C030C020C060C060C060C060C03FE0178
:1025F00000000000000000000000000000000000DB
:10260000E00318030C060C04040406000600060090
:1026100006000600060006040C040C021803F00075
:1026200000000000000000000000000000000000AA
:102630007F008C010C030C030C060C060C060C0628
:102640000C060C060C060C060C030C038C017F0018
:10265000000000000000000000000000000000007A
:10266000FF03060306040604060086008600FE003B
:102670008600860086000600060406040602FF03A4
:10268000000000000000000000000000000000004A
:10269000FF03060306040604060086008600FE000B
:1026A00086008600860006000600060006001F0061
:1026B000000000000000000000000000000000001A
:1026C000F00018010C020C020402060006000600CD
:1026D0000600C60F060306030C030C031803F000E4
:1026E00000000000000000000000000000000000EA
:1026F0000F0F060606060606060606060606FE076F
:1027000006060606060606060606060606060F0F57
:1027100000000000000000000000000000000000B9
:10272000FC0360006000600060006000600060000A
:102730006000600060006000600060006000FC03FA
:102740000000000000000000000000000000000089
:10275000F807C000C000C000C000C000C000C0003A
:10276000C000C000C000C000C000C000C000C00069
:10277000C60066003C0000000000000000000000F1
:10278000CF038601C60046002600160036002E0044
:102790006E004600C60086008601060106038F070C
:1027A0000000000000000000000000000000000029
:1027B0001F000600060006000600060006000600D0
:1027C0000600060006000600060406040602FF03D3
:1027D00000000000000000000000000000000000F9
:1027E0000707860386038E038E034E034E034A03B8
:1027F0005A035A033A0332033203320312038707A0
:1028000000000000000000000000000000000000C8
:102810008E0F0C021C021C02340234026402640299
:102820004402C402840284038403040304031F02D9
:102830000000000000000000000000000000000098
:10284000F00098010C030C020606060606060606B2
:1028500006060606060606060C020C039801F000A2
:102860000000000000000000000000000000000068
:10287000FF0006030606060606060606060686038B
:10288000FE000600060006000600060006001F0007
:102890000000000000000000000000000000000038
:1028A000F00098010C030C02060606060606060652
:1028B00006060606060676064C02CC039801F000D2
:1028C000800700030000000000000000000000007E
:1028D000FF01060306060606060606060603FE00B8
:1028E0004600C600860086010603060306060F0E94
:1028F00000000000000000000000000000000000D8
:10290000F8020C030602060206000E003C00F80066
:10291000E003800300070206020606060C03F0012E
:1029200000000000000000000000000000000000A7
:10293000FE076204610861086000600060006000DA
:102940006000600060006000600060006000F801EE
:102950000000000000000000000000000000000077
:102960001E070C020C020C020C020C020C020C02E0
:102970000C020C020C020C020C020C021801F000FA
:102980000000000000000000000000000000000047
:102990000F070602040104010C010C0188008800E5
:1029A0009800980050005000700030002000200077
:1029B0000000000000000000000000000000000017
:1029C000F70E620442044604460464026402E40210
:1029D000E4029C029C01980198018801880088000B
:1029E00000000000000000000000000000000000E7
:1029F0009E070C01080118019000B0006000200043
:102A000060006000D00090008801080104038E0778
:102A100000000000000000000000000000000000B6
:102A20000F0F060404020C0208011801B800B000E0
:102A30007000600060006000600060006000F801ED
:102A40000000000000000000000000000000000086
:102A5000FC070C02060302018001800040004000D8
:102A6000200020001000180008040C040402FE03DB
:102A700000000000000000000000E0032000200033
:102A80002000200020002000200020002000200046
:102A90002000200020002000200020002000200036
:102AA0002000E0030000000000000000000004001F
:102AB0000400080008001000100010002000200092
:102AC00040004000C00080008000000100010002C2
:102AD000000200020004000000007C0040004000F2
:102AE00040004000400040004000400040004000E6
:102AF00040004000400040004000400040004000D6
:102B000040007C0000000000600090000801000010
:102B100000000000000000000000000000000000B5
:102B200000000000000000000000000000000000A5
:102B30000000000000000000000000000000000095
:102B40000000000000000000000000000000000085
:102B50000000000000000000000000000000000075
:102B600000000000FF0F00000000180060000000DF
:102B70000000000000000000000000000000000055
:102B80000000000000000000000000000000000045
:102B90000000000000000000000000000000000035
:102BA00000000000000000000000F0010C030C0316
:102BB0000003E0031C030E03060306038E0B7C0ECA
:102BC00000000000000000000000000000000800FD
:102BD0000E000C000C000C000C00CC013C031C0689
:102BE0000C060C060C060C060C060C021C03E40179
:102BF00000000000000000000000000000000000D5
:102C000000000000000000000000F0008C018C01BA
:102C1000860106000600060006020C020C01F00008
:102C200000000000000000000000000000000002A2
:102C3000C003000300030003000378038C030C03AC
:102C40000603060306030603060304038C07780144
:102C50000000000000000000000000000000000074
:102C600000000000000000000000E001180308025E
:102C70000C060C06FC070C000C0018041802E001FE
:102C80000000000000000000000000000000000044
:102C9000C0036006300630003000FE013000300016
:102CA0003000300030003000300030003000FC01D7
:102CB0000000000000000000000000000000000014
:102CC00000000000000000000000F007D8068C01A2
:102CD0008C018C019801F8000C00FC00CC03060369
:102CE00006038E03F800000000000000000008004A
:102CF0000E000C000C000C000C00EC011C030C037B
:102D00000C030C030C030C030C030C030C039E07B5
:102D100000000000000000000000000000000000B3
:102D2000600060000000000040007C006000600067
:102D30006000600060006000600060006000FC03F4
:102D40000000000000000000000000000000000083
:102D5000C001C001000000000001F00180018001FD
:102D6000800180018001800180018001800180015B
:102D70008001CC007C000000000000000000080082
:102D80000E000C000C000C000C008C038C008C005E
:102D90004C006C005C008C008C010C010C039E0745
:102DA00000000000000000000000000000004000E3
:102DB0007C006000600060006000600060006000F7
:102DC0006000600060006000600060006000FC0364
:102DD00000000000000000000000000000000000F3
:102DE000000000000000000000003707EE06660645
:102DF0006606660666066606660666066606FF0FD1
:102E000000000000000000000000000000000000C2
:102E100000000000000000000000EE011C030C0395
:102E20000C030C030C030C030C030C030C039E0794
:102E30000000000000000000000000000000000092
:102E400000000000000000000000F00098010C03EA
:102E5000060606060606060606060C030C03F00028
:102E60000000000000000000000000000000000062
:102E700000000000000000000000EE011C030C0632
:102E80000C060C060C060C060C060C031C03EC01CD
:102E90000C000C003E0000000000000000000000DC
:102EA0000000000000000000000078028C030C030A
:102EB0000603060306030603060304038C037803D4
:102EC00000030003C0070000000000000000000035
:102ED000000000000000000000009F0358063806B4
:102EE0001800180018001800180018001800FF003B
:102EF00000000000000000000000000000000000D2
:102F000000000000000000000000F0031C030C02A1
:102F10000C023800F000C003040304038C03FC011E
:102F200000000000000000000000000000000000A1
:102F300000002000200030003000FE013000300092
:102F40003000300030003000300030023002E0014C
:102F50000000000000000000000000000000000071
:102F6000000000000000000008028E030C030C03A8
:102F70000C030C030C030C030C030C039C077801DB
:102F80000000000000000000000000000000000041
:102F9000000000000000000000001E070C020801F5
:102FA000080118019000B000B0006000600020002F
:102FB0000000000000000000000000000000000011
:102FC00000000000000000000000F70E620446044C
:102FD00064026402EC029C019801980198010800C7
:102FE00000000000000000000000000000000000E1
:102FF00000000000000000000000BC0718011001E4
:10300000B00060006000E0009000080108039E0727
:1030100000000000000000000000000000000000B0
:10302000000000000000000000009E0708010801E9
:10303000080190009000B000600060006000200077
:10304000200024001C000000000000000000000020
:1030500000000000000000000000FC018401C4002A
:103060004400600020003000180208020C03FC013C
:10307000000000000000000000000003800080004D
:1030800080008000800080008000800040002000E0
:103090004000800080008000800080008000800070
:1030A000800000030000400040004000400040005D
:1030B0004000400040004000400040004000400010
:1030C0004000400040004000400040004000400000
:1030D000400040004000000000000C001000100004
:1030E0001000100010001000100010002000400020
:1030F0002000100010001000100010001000100040
:1031000010000C00000000001C002204C204800318
:1031100000000000000000000000000000000000AF
:10312000000000000000000000000000000000009F
:10313000000000000000000000000000000000008F
:10314000000000000000000000000000000000007F
:10315000000000000000000000000000000000006F
:10316000000000000000000000000000000000005F
:10317000000000000000000000000000000000004F
:10318000C001C001C001C001C001C001C001800078
:10319000800080008000800080008000000000002F
:1031A000000000008001C003C00380010000000097
:1031B000000000000000000000000000E01CE01C17
:1031C000F01E700E3807180308018400000000008C
:1031D00000000000000000000000000000000000EF
:1031E00000000000000000000000000000000000DF
:1031F00000000000000000000000000000000000CF
:10320000000020102010201020102010FE7FFE7FD4
:103210001008100810081008100810081008FE7F89
:10322000FE7F0804080408040804080400000000E5
:10323000000000000000000000000000000000018D
:103240000001C007601910311831183918393801D8
:103250007001E001C0038007000F001D003900313C
:103260001C311C310C310C11180DE007000100015C
:10327000000100000000000000000000000000004D
:1032800000001C1036186308630C630463046302B7
:1032900063026301361D9C37802280634063406374
:1032A00020632063306310221836081C00000000E1
:1032B000000000000000000000000000000000000E
:1032C0000000F00098018C018C018C018C018C00B5
:1032D000CC007800183E1C083608320863046304EA
:1032E000C304C303834306438E26781C00000000FA
:1032F0000000000000000000000000001C003C0076
:103300003C003000300010000C00060000000000FF
:1033100000000000000000000000000000000000AD
:10332000000000000000000000000000000000009D
:10333000000000000000000000000000004000202D
:1033400000100008000C0004000600030003000346
:103350008001800180018001800180018001800165
:1033600000030003000300060006000C0008001024
:1033700000200040000000000000000002000400E7
:1033800008001000300020006000C000C000C00035
:103390008001800180018001800180018001800125
:1033A000C000C000C00060006000300010000800D5
:1033B0000400020000000000000000000000000007
:1033C00000000000000000018003800300011C7168
:1033D0003C79783DC0070001C007783D3C791C71FD
:1033E0000001800380038001000000000000000055
:1033F00000000000000000000000000000000000CD
:1034000000000000000000000001000100010001B8
:10341000000100010001FC7F00010001000100012A
:103420000001000100010000000000000000000099
:10343000000000000000000000000000000000008C
:10344000000000000000000000000000000000007C
:10345000000000000000000000000000000000006C
:103460000000000000001C003C003C003000300068
:1034700010000C000600000000000000000000002A
:10348000000000000000000000000000000000003C
:10349000000000000000FE7F0000000000000000AF
:1034A000000000000000000000000000000000001C
:1034B000000000000000000000000000000000000C
:1034C00000000000000000000000000000000000FC
:1034D00000000000000000000000000000000000EC
:1034E0000000000018003C003C0018000000000034
:1034F000000000000000000000000000004000602C
:1035000000200030001000180008000C0004000625
:1035100000020003000180018000C0004000600044
:10352000200030001000180008000C000400060005
:103530000200000000000000000000000000000089
:103540000000C007600C30181830183018200C60CC
:103550000C600C600C600C600C600C600C600C600B
:103560001820183018303018600CC0070000000018
:10357000000000000000000000000000000000004B
:10358000000000018001F8018001800180018001BC
:103590008001800180018001800180018001800123
:1035A0008001800180018001C003F81F000000003D
:1035B000000000000000000000000000000000000B
:1035C0000000E007101C0818043004300C300C30E8
:1035D00000300018000800040002000180004000D4
:1035E0002020102008200430FC1FFC1F00000000D9
:1035F00000000000000000000000000000000000CB
:103600000000E003180E0C0C0C180C180C18001815
:10361000000C0006C003000E00180010003000303F
:103620000C300C300C100C18180CE00300000000DB
:10363000000000000000000000000000000000008A
:103640000000000C000E000E000F800E800E400ED9
:10365000600E200E100E100E080E040E040EFE7FDB
:10366000000E000E000E000E000E000EC07F0000C7
:10367000000000000000000000000000000000004A
:103680000000F03FF03F100010001000080008009C
:10369000C807280C1818081000300030003000301F
:1036A0000C300C3004180418080CF0030000000063
:1036B000000000000000000000000000000000000A
:1036C0000000800FC01020301030180018000800D3
:1036D0000C008C0F6C183C301C600C600C600C6093
:1036E0000C601860182030306018C007000000001F
:1036F00000000000000000000000000000000000CA
:103700000000F83FF83F1C100C08040804040004F3
:103710000002000200010001000180008000800022
:10372000C000C000C000C000C000C0000000000019
:103730000000000000000000000000000000000089
:103740000000E007300C18180C300C300C301C3026
:1037500038187008E007B007180E0C1C0638063041
:103760000630063006300C18180CE003000000008C
:103770000000000000000000000000000000000049
:103780000000E00318040C080C1806100630063080
:103790000630063006380C3C1836F0310030001880
:1037A000001800180C0C0C060C03F00100000000BF
:1037B0000000000000000000000000000000000009
:1037C00000000000000000000000000000000000F9
:1037D0008001C003C0038001000000000000000061
:1037E000000000008001C003C00380010000000051
:1037F00000000000000000000000000000000000C9
:1038000000000000000000000000000000000000B8
:10381000C000C00000000000000000000000000028
:103820000000000000000000C000C0008000800018
:103830004000400000000000000000000000000008
:103840000020001000080004000600038001C000F2
:103850006000300018000C00180030006000C0004C
:103860008001000300060004000800100020000092
:103870000000000000000000000000000000000048
:103880000000000000000000000000000000000038
:10389000FE7F00000000000000000000FE7F00002E
:1038A0000000000000000000000000000000000018
:1038B0000000000000000000000000000000000008
:1038C00004000800100020006000C0008001000318
:1038D0000006000C001800300018000C0006000361
:1038E0008001C000600020001000080004000000FB
:1038F00000000000000000000000000000000000C8
:10390000C0073018083008600C601C601C601C6028
:103910000030001C00060001800080008000800054
:10392000000000008001C003C0038001000000000F
:103930000000000000000000000000000000000087
:103940000000C0076018103018200C2F8C4D864CDA
:10395000C64CC64C664C66446644662666266615AA
:10396000CC1C0C40082018303018C00700000000A4
:103970000000000000000000000000000000000047
:103980000001C001C001C001400160032003200309
:1039900020033006100610061006F80F080C080C5D
:1039A000080C0C0C0418041806181F7C00000000FA
:1039B0000000000000000000000000000000000007
:1039C0000000FE07181C183818301830183018304E
:1039D0001818180CF80718181830182018601860F4
:1039E00018601860186018301818FE0F00000000EA
:1039F00000000000000000000000000000000000C7
:103A00000000C0276038103018200C400C40040023
:103A10000600060006000600060006000600060076
:103A20000C400C400C2018303018C007000000007B
:103A30000000000000000000000000000000000086
:103A40000000FE03180E18181830183018301860CF
:103A500018601860186018601860186018601860A6
:103A60001830183018101818180EFE030000000047
:103A70000000000000000000000000000000000046
:103A80000000FE3F18301820186018401800180871
:103A90001808180CF80F180C180818081800180047
:103AA00018001840184018201830FE3F0000000091
:103AB0000000000000000000000000000000000006
:103AC0000000FE7F1870184018C0188018001810E9
:103AD00018101818F81F18181810181018001800C7
:103AE000180018001800180018007E0000000000E0
:103AF00000000000000000000000000000000000C6
:103B00000000C013701C101018100C200C200400B2
:103B10000600060006000600060006FC0630063019
:103B20000C300C30183018303008C007000000008E
:103B30000000000000000000000000000000000085
:103B400000003F7E0C180C180C180C180C180C18E0
:103B50000C180C180C18FC1F0C180C180C180C184E
:103B60000C180C180C180C180C183F7E00000000E4
:103B70000000000000000000000000000000000045
:103B80000000F81F80018001800180018001800118
:103B9000800180018001800180018001800180011D
:103BA00080018001800180018001F81F0000000079
:103BB0000000000000000000000000000000000005
:103BC0000000E07F00060006000600060006000672
:103BD00000060006000600060006000600060006B5
:103BE00000060006000600060006000600060E0697
:103BF0000E038E01FC000000000000000000000029
:103C000000007E7C181818081804180618021801FD
:103C100098019801D801B803380318071806180E40
:103C2000180C181C1818183018307EFC0000000002
:103C30000000000000000000000000000000000084
:103C400000007E0018001800180018001800180066
:103C500018001800180018001800180018001800A4
:103C600018001840184018201830FE3F00000000CF
:103C70000000000000000000000000000000000044
:103C800000001FF81C381C381C381C3C34343434F9
:103C90003434343674326432643264326431C43160
:103CA000C431C431C430C43084309FFC00000000F3
:103CB0000000000000000000000000000000000004
:103CC00000001F7C1C103C10341034107410641061
:103CD000E410C410C41184118413041304170416CF
:103CE000041E041C041C041C04181F1800000000FF
:103CF00000000000000000000000000000000000C4
:103D00000000C003300C181808100C300C3006608E
:103D10000660066006600660066006600660066073
:103D20000C200C3008101818300CC00300000000E4
:103D30000000000000000000000000000000000083
:103D40000000FE0F1818183018601860186018600E
:103D5000186018301818F80F18001800180018000C
:103D6000180018001800180018007E00000000005D
:103D70000000000000000000000000000000000043
:103D80000000C003300C18180C100C300C2006601A
:103D900006600660066006600660066006600660F3
:103DA000E4612C331C321816300EC007004C007C26
:103DB00000380000000000000000000000000000CB
:103DC0000000FE07181C183818301830183018304A
:103DD0001818180CF807980318031807180618067F
:103DE000180E180C180C181C18187E78000000000B
:103DF00000000000000000000000000000000000C3
:103E00000000E027303818300C200C200C000C008B
:103E100018007800E003800F001E0038007000607A
:103E200004600460086018303818C80F00000000F3
:103E30000000000000000000000000000000000082
:103E40000000FC3F8C21846182418241800180011D
:103E5000800180018001800180018001800180015A
:103E600080018001800180018001E00700000000E6
:103E70000000000000000000000000000000000042
:103E800000003F7C0C100C100C100C100C100C10CF
:103E90000C100C100C100C100C100C100C100C1042
:103EA0000C100C100C1008083804E003000000008F
:103EB0000000000000000000000000000000000002
:103EC00000003EF818201820182030103010301054
:103ED0003010600860086008E00CC004C004C00432
:103EE00080038003800380030001000100000000C4
:103EF00000000000000000000000000000000000C2
:103F00000000DFF38661862186218C210C218C2321
:103F10008C138C138C134C1358125816580E380EE1
:103F2000380E380E300C100410041004000000008D
:103F30000000000000000000000000000000000081
:103F400000007E3E18083808300430047002600219
:103F5000E001C001C001800180034003400720064A
:103F60002006100C100C081808183E7C00000000F9
:103F70000000000000000000000000000000000041
:103F800000007E7C1C10181018083008300C7004DB
:103F900060046002C002C002C00180018001800193
:103FA00080018001800180018001E00700000000A5
:103FB0000000000000000000000000000000000001
:103FC0000000F83F18180818040C040E000600073B
:103FD000000380038001C001C000E00060007000A9
:103FE0003000382018201C100C18FE1F00000000A4
:103FF000000000000000000000000000C03F400082
:1040000040004000400040004000400040004000B0
:1040100040004000400040004000400040004000A0
:104020004000400040004000400040004000400090
:10403000C03F000000000000000000000000000081
:104040000800180018001000300020006000600018
:104050004000C000800080018001000100030002D8
:10406000000600060004000C0008001800180010EC
:10407000003000200000000000000000FC030002EF
:104080000002000200020002000200020002000220
:104090000002000200020002000200020002000210
:1040A0000002000200020002000200020002000200
:1040B000FC03000000000000000000008007C006B4
:1040C00020081010000000000000000000000000A8
:1040D00000000000000000000000000000000000E0
:1040E00000000000000000000000000000000000D0
:1040F00000000000000000000000000000000000C0
:1041000000000000000000000000000000000000AF
:10411000000000000000000000000000000000009F
:10412000000000000000000000000000000000008F
:1041300000000000FFFF0000000000007800C00049
:10414000000100000000000000000000000000006E
:10415000000000000000000000000000000000005F
:10416000000000000000000000000000000000004F
:10417000000000000000000000000000000000003F
:10418000000000000000000000000000000000002F
:10419000F00318060C0C0C0C000C800F700C1C0C9F
:1041A0000C0C060C060C064C0C4FF83800000000F6
:1041B00000000000000000000000000000000000FF
:1041C00010001E0018001800180018001800180031
:1041D000180FD818383038601860186018601860E8
:1041E00018601860182038307818C80700000000E0
:1041F00000000000000000000000000000000000BF
:1042000000000000000000000000000000000000AE
:10421000C007700C181818180C180C000C000C00B3
:104220000C000C20182018103008C00700000000F7
:10423000000000000000000000000000000000007E
:104240000010001E001800180018001800180018B0
:10425000E01B301C181818180C180C180C180C1827
:104260000C180C180818181C307AE009000000001F
:10427000000000000000000000000000000000003E
:10428000000000000000000000000000000000002E
:10429000C007300C181808100C300C30FC3F0C0014
:1042A0000C000C00182018107018C0070000000047
:1042B00000000000000000000000000000000000FE
:1042C0000000003E80C380C0C0C0C000C000C0006D
:1042D000FC1FC000C000C000C000C000C000C00083
:1042E000C000C000C000C000C000F80F0000000007
:1042F00000000000000000000000000000000000BE
:1043000000000000000000000000000000000000AD
:10431000C077306C10181818181818181018300CAE
:10432000F00718001800F00FF03F08700C600C60E8
:104330000C603838E00F00000000000000000000B2
:1043400010001E00180018001800180018001800AF
:10435000980FD818383018301830183018301830F6
:10436000183018301830183018307EFC000000006B
:10437000000000000000000000000000000000003D
:1043800000008003800380030000000000000001A3
:10439000F80180018001800180018001800180019D
:1043A00080018001800180018001F81F0000000071
:1043B00000000000000000000000000000000000FD
:1043C0000000003800380038000000000000001035
:1043D000801F001800180018001800180018001896
:1043E000001800180018001800180018001800180D
:1043F000180C1806F0030000000000000000000088
:1044000010001E00180018001800180018001800EE
:10441000183E180C1806180318019801D801380323
:1044200018071806180C181C18187E7C00000000CD
:10443000000000000000000000000000000000007C
:104440000001F8018001800180018001800180016C
:104450008001800180018001800180018001800154
:1044600080018001800180018001F81F00000000B0
:10447000000000000000000000000000000000003C
:104480000000000000000000000000000000080024
:10449000EE1C9C338C318C318C318C318C318C31D5
:1044A0008C318C318C318C318C31DE7B0000000002
:1044B00000000000000000000000000000000000FC
:1044C00000000000000000000000000000001000DC
:1044D0001E0FD818383018301830183018301830EF
:1044E000183018301830183018307EFC00000000EA
:1044F00000000000000000000000000000000000BC
:1045000000000000000000000000000000000000AB
:10451000C007701C103018300C600C600C600C6010
:104520000C600C60183018303018C0070000000014
:10453000000000000000000000000000000000007B
:10454000000000000000000000000000000010005B
:104550009E0F5818383018201860186018601860BE
:10456000186018601830383078189807180018004C
:10457000180018007E00000000000000000000008D
:10458000000000000000000000000000000000002B
:10459000C023303C183818300C300C300C300C3044
:1045A0000C300C3008301838303CE033003000302C
:1045B0000030003000FC000000000000000000009F
:1045C000000000000000000000000000000060008B
:1045D0007E3C60666061E000E000600060006000BA
:1045E00060006000600060006000FE0700000000E6
:1045F00000000000000000000000000000000000BB
:1046000000000000000000000000000000000000AA
:10461000E02730381830182018007000E003800FB1
:10462000001C043004300C301C18EC0F000000009B
:10463000000000000000000000000000000000007A
:10464000000000000000800080008000C000E0004A
:10465000FC1FC000C000C000C000C000C000C000FF
:10466000C000C000C020C0208011000F000000006A
:10467000000000000000000000000000000000003A
:1046800000000000000000000000000000001020FA
:104690001E3C1830183018301830183018301830C8
:1046A000183018301830183830F4E01300000000CB
:1046B00000000000000000000000000000000000FA
:1046C00000000000000000000000000000000000EA
:1046D0007E3C181818083808300430047002600254
:1046E0006002E001C001C001C000800000000000C5
:1046F00000000000000000000000000000000000BA
:1047000000000000000000000000000000000000A9
:10471000DFF78E630C238C238C2398139813581681
:104720005816700E700E700E200420040000000059
:104730000000000000000000000000000000000079
:104740000000000000000000000000000000000069
:10475000FC3E70087004E004C002C00180038003C6
:1047600040076006200C100C18183E7E0000000068
:104770000000000000000000000000000000000039
:104780000000000000000000000000000000000029
:104790007E7C181818083008300830046004600463
:1047A000C002C002C0028001800180018000800040
:1047B00080004C003C0000000000000000000000F1
:1047C00000000000000000000000000000000000E9
:1047D000FC1F0C0C040E0406000380038001C000C3
:1047E000E0007020302038301C18FC1F0000000052
:1047F0000000000000000000000000000030000881
:104800000004000400040004000400040004000488
:1048100000040004000280010002000400040004FF
:104820000004000400040004000400040004000468
:10483000000800300000000100010001000100013B
:104840000001000100010001000100010001000160
:104850000001000100010001000100010001000150
:104860000001000100010001000100010001000140
:104870000001000100010000000000000C00100019
:104880002000200020002000200020002000200028
:104890002000200040008001400020002000200077
:1048A0002000200020002000200020002000200008
:1048B00010000C00000000003800C40086400261B7
:1048C0000022001C000000000000000000000000AA
:1048D00000000000000000000000000000000000D8
:1048E00000000000000000000000000000000000C8
:1048F00000000000000000002110422063308440CE
:10490000A550C660E770088129914AA16BB18CC19E
:10491000ADD1CEE1EFF13112100273325222B55215
:104920009442F772D662399318837BB35AA3BDD3EE
:104930009CC3FFF3DEE36224433420040114E664E5
:10494000C774A44485546AA54BB528850995EEE53E
:10495000CFF5ACC58DD55336722611163006D776F5
:10496000F6669556B4465BB77AA719973887DFF78E
:10497000FEE79DD7BCC7C448E5588668A7784008BD
:10498000611802282338CCC9EDD98EE9AFF94889DE
:1049900069990AA92BB9F55AD44AB77A966A711A55
:1049A000500A333A122AFDDBDCCBBFFB9EEB799B2E
:1049B000588B3BBB1AABA66C877CE44CC55C222CA5
:1049C000033C600C411CAEED8FFDECCDCDDD2AAD7E
:1049D0000BBD688D499D977EB66ED55EF44E133E35
:1049E000322E511E700E9FFFBEEFDDDFFCCF1BBFCE
:1049F0003AAF599F788F8891A981CAB1EBA10CD1A8
:104A00002DC14EF16FE18010A100C230E3200450AF
:104A1000254046706760B9839893FBA3DAB33DC322
:104A20001CD37FE35EF3B1029012F322D2323542FF
:104A3000145277625672EAB5CBA5A89589856EF5B2
:104A40004FE52CD50DC5E234C324A014810466744F
:104A5000476424540544DBA7FAB79987B8975FE702
:104A60007EF71DC73CD7D326F2369106B01657669F
:104A70007676154634564CD96DC90EF92FE9C8998A
:104A8000E9898AB9ABA94458654806782768C018EF
:104A9000E1088238A3287DCB5CDB3FEB1EFBF98B62
:104AA000D89BBBAB9ABB754A545A376A167AF10A3F
:104AB000D01AB32A923A2EFD0FED6CDD4DCDAABD72
:104AC0008BADE89DC98D267C076C645C454CA23C8F
:104AD000832CE01CC10C1FEF3EFF5DCF7CDF9BAF42
:104AE000BABFD98FF89F176E367E554E745E932EDF
:104AF000B23ED10EF01E00000000000000000102D6
:104B00000304060708090000000001020304000076
:104B100000000102030402040608020C0810000051
:104B2000000000000000010203040607080900005D
:104B3000504B00080000002020000000980F0008E3
:104B4000704B00082000002038040000A80F000867
:104B500000000000003800400100000000000000DC
:104B6000000000000000000000127A0000000000B9
:040000050800018569
:00000001FF
