:020000040800F2
:10000000680C0020F1010008CD30000869230008C9
:10001000052F0008551D00081347000800000000C8
:100020000000000000000000000000003B36000857
:100030002520000800000000833100082537000853
:100040000B0200080B0200080B0200080B0200085C
:100050000B0200080B0200080B0200080B0200084C
:100060000B0200080B0200080B0200080B0200083C
:100070000B0200080B0200080B0200080B0200082C
:100080000B0200080B0200080B0200080B0200081C
:100090000B0200080B0200080B0200080B0200080C
:1000A0000B0200080B0200080B0200080B020008FC
:1000B000BD380008D5380008ED3800080B020008EC
:1000C0000B0200080B0200080B0200080B020008DC
:1000D0000B0200081944000849440008794400084C
:1000E0000B0200080B0200080B0200080B020008BC
:1000F0000B0200080B0200080B0200080B020008AC
:100100000B0200080B020008D93900080B02000896
:10011000A53E0008D53E00080B0200080B020008AF
:100120000B0200080B0200080B0200080B0200087B
:1001300000F002F800F04DF80AA090E8000C8244AC
:100140008344AAF10107DA4501D100F042F8AFF289
:10015000090EBAE80F0013F0010F18BFFB1A43F0A5
:100160000103184748A8000068A80000103A24BFFF
:1001700078C878C1FAD8520724BF30C830C144BF0C
:1001800004680C607047000000230024002500264E
:10019000103A28BF78C1FBD8520728BF30C148BFEA
:1001A0000B607047642900F07F80002070471FB506
:1001B00000F03AFD04000020002104F031FC401C56
:1001C00060600020002104F015FCE0601FBD10B548
:1001D00010BD00F035FA1146FFF7E9FF04F09EFB71
:1001E00000F0D8FC03B4FFF7F2FF03BC00F0BCFF43
:1001F0000948804709480047FEE7FEE7FEE7FEE7BB
:10020000FEE7FEE7FEE7FEE7FEE7FEE704480549F6
:10021000054A064B704700005D38000831010008B0
:1002200068060020680C002068080020680800208C
:100230000FB41CB5074B06AA7B446946009005988D
:1002400000F061F90020694600F070F91CBC5DF80F
:1002500014FB0000F102000070B5044685690068D7
:10026000C10601D5302600E02026C00707D070BDAA
:10027000D4E9012130469047206A401C20626D1E5F
:10028000F6D570BD70B5044685690078C00707D102
:1002900070BDD4E9012120209047206A401C2062D3
:1002A0006D1EF6D570BD00002DE9F0410646002414
:1002B00010687529314616A510D0AFF300800028CC
:1002C00002DA404213A507E031688A0701D512A57A
:1002D00002E0490704D511A5012401E0AFF3008035
:1002E00000210A2206F1240709E0B0FBF2FCB0FB72
:1002F000F2F302FB1C00303078541846491C0028E9
:10030000F3D123462A463046BDE8F04100F09DB8BF
:10031000000000002D0000002B0000002000000065
:100320002DE9F0474FF0000A89460446C0F820A0A6
:100330002046E1688847002876D0252806D0D4E9F1
:1003400001219047206A401C2062F1E7E1682046C5
:1003500000258847C4F81CA006460027C4F818A04A
:100360002A2E09D0304604F056FA38B304EB870839
:10037000303EC8F8186019E059F8041B204604EB19
:1003800087029161E1688847012F064618D1E0692C
:10039000002820DA25F020051DE0D8F8180000EB31
:1003A000800006EB40003038C8F818002046E168AD
:1003B0008847064604F02FFA0028EED1012F0AD014
:1003C0002E2E08D12046E16888477F1C0646022F62
:1003D00045F02005C4DBA069002803DA404245F05F
:1003E0000105A061E80701D025F01005B6B1A6F11E
:1003F0004100192802D8203645F400654A463146A6
:10040000204625604D46FFF7CDFE58B1012806D0A5
:10041000ED1D25F0070000F1080989E704E005F16A
:10042000040985E730468AE7206ABDE8F08770470F
:100430007047704710B500F0D1F8006810BD10B5D6
:10044000044600F0CBF8046010BD2DE9F0470D46DE
:1004500099469246044600F124080168880604D5AE
:10046000E06921F01001216000E00120A84201DDD7
:10047000471B00E00027A1697A1902EB0900081A5E
:10048000A0612078C00602D42046FFF7E5FE0026D2
:1004900008E0D4E901211AF806009047206A401CC0
:1004A000761C20624E45F4DB2078C0060AD5204633
:1004B000FFF7D2FE06E0D4E9012130209047206A00
:1004C000401C2062381EA7F10107F4DC07E0D4E9E4
:1004D000012118F805009047206A401C2062281E60
:1004E000A5F10105F3DC2046FFF7CCFE20780006DD
:1004F00002D50220BDE8F0870120FBE701694A1C14
:1005000002610878704700B58FB0CDE90131002154
:10051000059105497944CDE9031011466846FFF776
:10052000FFFE0FB000BD0000E5FFFFFF0A6802F804
:10053000010B0A60704700000FB4002300B589B0BA
:100540000CA900910B99CB60214B7B440693214B66
:100550007B44079304236FF00042CDE901321E4A29
:100560007A446B4608920246002005F0E8F909B08B
:100570005DF814FB70B506464FF0FF3015460C468B
:10058000324686B00091CDE9010169460020049011
:1005900004A8FFF7D1FF02460498211825B108B13D
:1005A000084600E020462860049800280DD0002A64
:1005B00002DD0098884208D03246081B6946009444
:1005C000CDE9010404A8FFF7B7FF06B070BD000035
:1005D000A9000000C1000000810000000048704731
:1005E0000406002010B5044600F050F80068005DD5
:1005F00000F0010010BD426842B1016811F8013BF2
:1006000023B1521EC0E90012184670470121C16093
:10061000881E704742685AB1C368016843B983684D
:100620008B4205D0491E521CC0E9001200207047C1
:100630004FF0FF307047000000487047040600206C
:100640007546FFF7F9FFAE4605006946534620F0B0
:100650000700854618B020B5FFF7D8FDBDE820405B
:100660004FF000064FF000074FF000084FF0000B6E
:1006700021F00701AC46ACE8C009ACE8C009ACE821
:10068000C009ACE8C0098D467047000010B500F005
:10069000CBFA001D10BD00BF894300002DE9FF4FBC
:1006A00006468BB00878FF2806D0491C2D2805D0B7
:1006B00000244FF0000908E000200CE00124F8E7D6
:1006C00009EB8903491C00EB43090878FF28F7D19F
:1006D00014B1C9F100008146107800252C46AA46C5
:1006E00029462D2801D02B2804D1521C2D2813D0A7
:1006F000002082468B461078FF280FD04FF0000C68
:100700000A21521CA5FB017804FB018105FB0C1199
:10071000C5194BEB0104EEE70120EAE7002108468A
:100720004FF00000BAF1000F02D000EB800040084B
:10073000C0F38157012F01DD4FF0FF370E9955EAC5
:10074000040009EB01080BD04FF0020918F5FA7FFD
:1007500016DA4FEACA70002F706008DD012007E04A
:100760004FEACA70C6E900B00FB0BDE8F08F0020B4
:100770003060FFF733FFC0F800901821084616E0FC
:10078000B8F5FA7F18DD002F02DAF748784401E067
:10079000F6487844D0E90010C6E9001040EACA7073
:1007A0007060FFF71BFFC0F80090142108460FB0DF
:1007B000BDE8F04F05F060B8002108464FF000009A
:1007C000B8F10001099002DAC7F1000200E03A46F0
:1007D00001DAC8F1000106A800F02AFA06AB93E896
:1007E000070003AB83E8070044F23E005BEA040124
:1007F0000090584604D144F21E012C465D460091FB
:10080000210C0904014306D10099240444EA15444B
:100810002D041039009104F07F41014306D1009965
:10082000240244EA15642D020839009104F0704155
:10083000014306D10099240144EA15742D01091FD2
:10084000009104F04041014306D10099A40044EA1C
:100850009574AD00891E009104F00041084304D155
:1008600000986D196441401E00904FF001033A4614
:100870006846B8F1000FCDE9014503A902DD00F09B
:1008800026FF01E000F0F9FEBAF1000F04460D4624
:1008900001D084F00044002108464FF0000009997F
:1008A00040F2FF77484010F00C0F07D124F00040D1
:1008B000284303D0C4F30A50B84212D1FFF78EFE8A
:1008C000C0F80090C4F30A50B8420AD1A84878444E
:1008D000D0E90010C6E9001004F000410843706040
:1008E00042E7C6E900543FE72DE9FF4F1F464FF0AE
:1008F000000A4FF0FF38454691B0D7E90146CDF8E0
:100900003CA000F091F9C0680168405C1090B969A2
:1009100012986D1C8847396A814688470028F6D1AD
:10092000B9F1FF3F0AD0002E24F4D06411DDB9F1F3
:100930002B0F08D0B9F12D0F0BD102E0404615B0B6
:1009400013E744F48064B96912986D1C8847761ED9
:100950008146600504A901D52D2000E02B20002E42
:1009600001F1010B0DF130088DF810003FDDB9F1F8
:10097000690F08D0B9F1490F05D0B9F16E0F02D057
:10098000B9F14E0F1CD13B4601A8009580E85002FA
:10099000DDE912126FF0020004F0D5FFC11CCED1C8
:1009A0000EE0B96912986D1C884781461398761E2F
:1009B00044F4007405600F98401C002E0F9016DD63
:1009C000B9F1300FEDD0B9F1780F02D0B9F1580F6D
:1009D0000DD10F9801280AD13B46CDE90054DDE93D
:1009E0001212001F029604F0ACFFC11CA7D110998F
:1009F00089453ED144F0800406E01399681CAAF1B1
:100A0000010A44F400740860B9696D1C1298761EDE
:100A1000884730288146F0D02BE01099894505D1D0
:100A2000200603D4761E44F0800418E0484603F004
:100A3000F2FE08B3761E0DF123018B4544F40074D9
:100A400008D2A9F130000BF8010B200607D5AAF156
:100A5000010003E0200602D40AF101008246A0054D
:100A600002D51399681C0860B96912986D1C8847F3
:100A70008146002ED1DC53E0002E51DDB9F1650F27
:100A800002D0B9F1450F4BD1A00549D5B9696D1C0C
:100A90001298761E24F440748847002E81460CDD9F
:100AA0002B2804D0B9F12D0F07D144F48074B96913
:100AB00012986D1C8847761E8146E00501D52D21D0
:100AC00000E02B2108F8011BCDF8008021E0761E04
:100AD0000DF13901884544F400740CD2A9F13000BD
:100AE00010F0FF0088F8000002D10099884509D96C
:100AF00008F1010806E0E00501D51E4801E042F2D8
:100B00000F708246B96912986D1C88478146139808
:100B10000560002E04DD484603F07DFE0028D6D196
:100B2000F96912988847FF2053468BF8000088F82F
:100B3000000000200A900B9004AA0CA90AA8FFF755
:100B4000ADFDA00502D46FF00100F8E614F0240F0B
:100B500012D0E0071CD13868DDE90A12031D3B60A2
:100B60000068C0E9001213E044A2000036A20000B1
:100B7000FAA00000F1D8FFFF0AA9684603F0DAFDE9
:100B8000E00705D13868009A011D396000680260ED
:100B90002846D4E610B50446AFF300802046BDE8F1
:100BA0001040FFF71FBB00004FF0013C50F8042B32
:100BB00051F8043B9A4221D1A2EB0C03934313EA70
:100BC000CC1317D150F8042B51F8043B9A4215D19D
:100BD000A2EB0C03934313EACC130BD150F8042B74
:100BE00051F8043B9A4209D1A2EB0C03934313EA58
:100BF000CC13DBD04FF00000704700BFD01A01BA11
:100C0000B1FA81F101F0180122FA01F0CB40C1F1F3
:100C10002001DBB2C0B2C01A2CFA01F3D11A914301
:100C200011EAC311E6D1704700487047240600203E
:100C30002DE9F047814616468AB0354878440DC8FC
:100C40008DE80D0032487844801C03AC0DC884E860
:100C50000D0041F69B300844372190FBF1F290FBE8
:100C6000F1F5A5F1800501FB12041B3C02D564429D
:100C7000012000E00020DFF898A080460027FA4419
:100C8000AAF1BE0A0EE0E0070AD03246684607EB3A
:100C9000470101230AEB810100F004FD8DE8070004
:100CA00064107F1C002CEED1194F7F44AE3F19E039
:100CB000E80715D007EB04100DF1180A90E80E00B4
:100CC0008AE80E00C068F04201D1981908903246B7
:100CD000012306A903A800F0E5FC03AB83E80700A5
:100CE0006D10641C002DE3D14FF0010332466946BC
:100CF000B8F1000F03A802D000F0AAFC01E000F058
:100D0000D1FCC9E90001C9F808200AB0BDE8F087A4
:100D1000549D00002DE9FF4F1F464FF03C0987B05E
:100D20004FF00042DDE9141001F10108DDF858A090
:100D300002EA405003900020059083460546044691
:100D40000490B969461E08988847AAF1010A0290E2
:100D5000BAF1000F3BDD02982E2815D0102100F0CB
:100D60001CFA00282EDB4FF0010B0599014317D028
:100D7000B9F1000F0BDB4A46C11700F0FBF9054340
:100D80000C43A9F1040905E0012004900BE008B12F
:100D900045F0010501200590049820B9361D02E0B8
:100DA000049800B1361FB969089808F1010888470E
:100DB000BBF1000FAAF1010A0290C9D00999C1F84C
:100DC0000080C5E70298702808D0502806D0F9693D
:100DD00008988847BBF1000F14D04FE00020029024
:100DE0000120BBF1000F049009D0B969089808F1FF
:100DF00001088847AAF10109B9F1000F07DCF96978
:100E0000089888476FF001000BB0BDE8F08F2B28E1
:100E100004D02D280CD14FF0FF300490B969089808
:100E200008F101088847A9F10109B9F1000FE6DDD1
:100E3000411CE4D00A2100F0B0F90028DFDB029960
:100E400008F1010801EB810100EB41000290B96952
:100E5000089888470A2100F0A0F9099AA9F1010928
:100E6000B9F1000FC2F8008001DD0028E7DAF96966
:100E7000089888470499029800FB016655EA040027
:100E800004D004F04041090002D006E0039898E045
:100E9000A40044EA9574AD00B61E04F000410800B9
:100EA00002D16D196441761E159810F0240F03D0FD
:100EB0004FF00B095C4803E04FF028096FF07D000C
:100EC0008246564507DAAAEB06018944B9F1410F7B
:100ED00001DD4FF0410901200021A9F1010200F0DC
:100EE00049F9024628400B462140084301D0012120
:100EF00000E00021501E029143F1FF3128402140C3
:100F0000084301D0012000E000200299834651EA05
:100F10000B014FD0002108464FF00000039900F468
:100F2000400039B100EB80004FF4400100EBD0707D
:100F300001EA60008015012802DD4FF0FF3000E07B
:100F400013D0401C36D0029860B3BBF1000F0CD117
:100F50004A460120002100F00DF9284021400843B5
:100F600001D0012000E00020E0B101204A4600212C
:100F700000F000F9034640190A4661412D1A8C41E0
:100F800011D3B9F1400F09DD159810F0240F02D0EC
:100F9000AAF1340603E0AAF1170600E0761C00254A
:100FA0004FF0004406E05B1E42F1FF3220EA0305E9
:100FB00021EA0204CAF10100B04206DA1B49039893
:100FC00008430190002000900EE0039AC4F3D3215F
:100FD000E80A0A43164940EA44500A433146CDE93B
:100FE0000002684603F00CFC159810F0240F0BD09B
:100FF0001598C00715D13868DDE90012031D3B6064
:101000000068C0E900120CE002A8694603F092FBF8
:101010001598C00705D13868029A011D396000682B
:1010200002604046F0E6000002FCFFFF0000F07F97
:101030000000F03F2DE9FF4F92461D4685B04FF06E
:101040000041DDE9124BDDE914727F1E01EA4B50CD
:10105000414940F0FF4940EA0108002122F0200008
:101060004928049102D04E2828D04CE03BA001260C
:1010700007C88DE80700A9690698641C88477F1E89
:10108000014606D41DF8060018B121F02001814266
:101090000BD0E96906988847032E34D0082E32D049
:1010A0006FF0010009B0BDE8F08F761C032E01D06F
:1010B000082EE0D1601CCAF80000DCE7A969069898
:1010C000641C88477F1E2AD420F02000412826D1A6
:1010D000A9690698641C88477F1E20D420F0200050
:1010E0004E281CD1A9690698641C88477F1E48F4C5
:1010F000002849F48009CAF8004001D4282806D005
:10110000E969069888475FEACB7012D022E0A969A6
:101110000698641C88477F1E01D4002803DAE96919
:1011200006988847BCE72928F1D1641CCAF800401A
:10113000E9E71BF0240F07D028680499031D2B60F2
:101140000068C0E9001805E02868021D2A600068F0
:10115000C0F800902046A5E70000F07F494E4649C0
:101160004E4954590000000001491820ABBEFEE76B
:1011700026000200B2F120030AD5C2F1200301FAD1
:1011800002F120FA03F300FA02F041EA030170478A
:1011900000FA03F14FF0000070473A2800D23038CF
:1011A00020F02002412A01D3A2F13700884201D366
:1011B0004FF0FF307047704720F07F4C80EA03000B
:1011C00023F07F47ACEB070303F57C5300F00040AE
:1011D00003F1FF032DE980494FEA154B09B44FEAAB
:1011E000144325EA0B4E24EA03480FF2042606EBCB
:1011F000132749083E785FEA320203FB0667C7F50A
:10120000000707FB06F64FEA54374FEAD64606F1C9
:10121000020607FB066CCCF1005C4FEA1C472CEA87
:10122000074C07FB06F40CFB06F504EB15464FEAEA
:10123000961634BF00204FF000404FEAD13706FB2E
:1012400007FC4FEA1C4C0CFB0BF7D21B03FB0CF703
:1012500061EB07010CFB0EF7B0EB074072EB174296
:101260000CFB08F734BFA2EB0742B2EB074261EB7D
:1012700017414FEA0C444FEA910706FB07FC4FEA7F
:101280001C4C0CFB0BF7B0EBC74072EB573203FB67
:101290000CF734BFA2EBC742B2EBC74261EB573148
:1012A0000CFB0EF7B0EBC70072EB57720CFB08F7A4
:1012B00034BFA2EBC702B2EBC70261EB5771039FC9
:1012C0004FEA816141EA921104EBCC044FEAD13735
:1012D0004FEA826206FB07FC42EA90124FEA806006
:1012E0004FEA1C4C0CFB0BF7D21B03FB0CF761EB1A
:1012F00007010CFB0EF7B0EB074072EB17420CFB3B
:1013000008F734BFA2EB0742B2EB074261EB17418B
:101310004FEA8C554FEA910704EB9C2406FB07FC2F
:101320004FEA1C4C0CFB0BF7B0EBC74072EB57328B
:1013300003FB0CF734BFA2EBC742B2EBC74261EB31
:1013400057310CFB0EF7B0EBC70072EB57720CFB7A
:1013500008F734BFA2EBC702B2EBC70261EB5771CB
:1013600015EB4C254FEA816141EA92114FEA826206
:101370004FEAD13742EA901206FB07FC44F1000421
:101380004FEA80604FEA1C4C0CFB0BF7D21B03FBAF
:101390000CF761EB07010CFB0EF7B0EB074072EBAB
:1013A00017420CFB08F734BFA2EB0742B2EB07422F
:1013B00061EB174115EB1C154FEA813141EA92416F
:1013C0004FEA823242EA90424FEA80304FEA0C768E
:1013D00044F1000448EA03434EEA0B484FF0000E84
:1013E000B2EB080C71EB030724BF624639464EEBA3
:1013F0000E0E4FF0000B0018524149414BEB0B0B06
:10140000B2EB080C71EB03077BF1000B24BF6246C3
:1014100039464EEB0E0E4FF0000B00185241494179
:101420004BEB0B0BB2EB080C71EB03077BF1000BE2
:1014300024BF624639464EEB0E0E51EA020718BF32
:1014400046F0010616EB0E7655F1000254F100014C
:1014500003D5BDE88901BDE80088BDE88901BDE884
:101460000048B619524141EB0101A3F10103704755
:1014700080807F7E7D7C7B7A7978777676757473D1
:10148000727171706F6E6E6D6C6C6B6A6A69686890
:10149000676666656464636362616160605F5F5E26
:1014A0005E5D5D5C5C5B5B5A5A595958585757569C
:1014B0005655555554545353525252515150505001
:1014C0004F4F4F4E4E4D4D4D4C4C4C4B4B4B4A4A53
:1014D0004A49494948484847474747464646454597
:1014E00045444444444343434342424242414141D0
:1014F00046EA0646A3F570534FEA164646EA4256B8
:101500004FEAD22242EA415210B54FEAD121A3F16B
:10151000010300F02FF820F0004000F1020C00F071
:10152000004701EB00501146BCF5006F40EA070090
:1015300000D210BDBAF1000F0AD01CB503B44FF0B1
:1015400004004FF004014FF000000FBCBDE8104054
:101550004FF00001BBF1010FB9BF04484FF0FF315C
:101560000348002140EA070010BD00BFFFFFEF7FE6
:101570000000F07F002B9C4630D477002BD01CB5A8
:101580004FEA370703B44FF010004FF01001BAF1E3
:10159000000F06D0BCF1000FDCBF40F0080040F0A7
:1015A00008014FF000000FBCBDE810400BF1010B2B
:1015B000BBF1010F08BF5FEA170722BF12F101025A
:1015C00011F101014FF0004143F1000300F0004030
:1015D00043EA00007047F9D35708D0E746EA0646C9
:1015E00013F1400F4FEA16461FDD13F1200FDFBF46
:1015F00016430A46002120335B42BED0C3F12007C8
:1016000046EA064602FA07F74FEA164646EA070692
:10161000C3F1200722FA03F201FA07F721FA03F1D6
:101620004FF0000342EA0702A7E746EA020646EA4D
:1016300006464FEA164646EA0106BCBF46EA06469B
:10164000360C4FF000034FF000024FF0000194E71A
:101650002DE9804C9A46934670B491E8380007C84B
:1016600031EA400C48BF34EA430C03D5FFF7A4FD30
:10167000FFF780FFF0BCBDE8008C2DE9804C9A4656
:10168000934670B491E8380007C831EA400C48BF6F
:1016900034EA430C03D5FFF78FFDFFF729FFF0BCB9
:1016A000BDE8008C2DE9804C9A46934670B491E8D1
:1016B000380007C810F0804F08BF13F0804F03D1E7
:1016C00000F01AF8FFF756FFF0BCBDE8008C2DE9DA
:1016D000804C9A46934670B491E8380007C810F0E1
:1016E000804F08BF13F0804F03D100F005F8FFF7DB
:1016F000FFFEF0BCBDE8008C20F07F4780EA0300CD
:1017000023F07F4C07EB0C03A3F57C5300F0004063
:10171000A3F1FE0392F0000F00F0B38095F0000FEC
:1017200000F077802DE901494FEA11404FEA144655
:1017300021EA004800FB06FC24EA064708FB06F6FF
:1017400007FB08F800FB07F718EB06484CEB164CB4
:101750004FEA124B18EB07484FEA15464CEB17407F
:1017600022EA0B4E0BFB06FC25EA06470EFB06F6AB
:1017700007FB0EFE0BFB07F71EEB064E4CEB164C61
:101780004FF000061EEB074E4CEB174B18EB0B0807
:1017900040F1000018EB0E0B58EB000840F1000080
:1017A0008F1A4FF000013CBFC943661B14BFB5EB55
:1017B000040C00213CBFC943F61B4FEA17444EEA14
:1017C0008E0E27EA04454FEA1C4704FB07622CEA09
:1017D000074C05FB07F70CFB05F604FB0CFC16EBAE
:1017E000074642EB174216EB0C4642EB1C421BEB42
:1017F000060658EB0202414146EA9E0601D5BDE8C5
:101800000189B619524141EB0101A3F10103BDE881
:1018100001894FEA14454FEA114724EA054621EAB7
:10182000074C05FB07F406FB07F70CFB06F105FB6D
:101830000CFC11EB074144EB17444FEA124711EB44
:101840000C4144EB1C4422EA074C05FB07F206FB63
:1018500007F70CFB06F605FB0CFC16EB074642EB04
:10186000174216EB0C4642EB1C456A1854F1000176
:1018700048BF7047B619524141EB0101A3F1010382
:10188000704795F0000F37D04FEA11424FEA1447E6
:1018900021EA024624EA074C02FB07F106FB07F7A0
:1018A0000CFB06F402FB0CFC14EB074441EB174164
:1018B0004FEA154714EB0C4441EB1C4125EA074C59
:1018C00002FB07F506FB07F70CFB06F602FB0CFC18
:1018D00016EB074645EB174516EB0C4645EB1C424D
:1018E000121951F1000148BF7047B619524141EB3E
:1018F0000101A3F1010370474FEA14454FEA114774
:1019000024EA054621EA074C05FB07F106FB07F729
:101910000CFB06F24FF0000605FB0CFC12EB074235
:1019200041EB174112EB0C4251EB1C4148BF704791
:10193000921841EB0101A3F101037047CA43026011
:10194000704721B1826842F00102826003E0826840
:1019500022F0010282607047014600208A6802F08E
:1019600004020AB1012000E0002070470246002076
:1019700013680B400BB1012000E0002070470146C6
:1019800000208A6802F008020AB1012000E000206D
:101990007047000030B502460020002350680F4C0D
:1019A00020400D790C6844EA05242043506090687B
:1019B0000B4C2040D1E902542C434D7944EA4504B4
:1019C00020439060D06A20F470000C7C641EE4B266
:1019D000234340EA0350D06230BD0000FFFEF0FF19
:1019E000FDF7F1FFF0B504460D4600200021092D5A
:1019F00011DDE068A5F10A0606EB4607072606FAA0
:101A000007F18843A5F10A0606EB460603FA06F13C
:101A10000843E0600CE0206905EB4507072606FA5D
:101A200007F1884305EB450603FA06F108432061F8
:101A3000072A0FDA606B561E06EB86071F2606FA8A
:101A400007F18843561E06EB860605FA06F10843A1
:101A5000606322E00D2A0FDA206BD61F06EB8607A3
:101A60001F2606FA07F18843D61F06EB860605FAFD
:101A700006F10843206310E0E06AA2F10D0606EBD0
:101A800086071F2606FA07F18843A2F10D0606EB2A
:101A9000860605FA06F10843E062F0BD816841F070
:101AA00008018160704721B1826842F4A00282601F
:101AB00003E0826822F4A00282607047816841F0EE
:101AC000040181607047000030B10749096841F4A2
:101AD0000001054A116005E00349096821F400018D
:101AE000014A1160704700000824014030B587B0FA
:101AF00004460D464FF4004001F044FB0121084626
:101B000001F06CFB0121042001F068FB0121480277
:101B100001F064FB4FF4A06001F012FB2C482D494A
:101B200008602D484860042C0AD11020ADF8180038
:101B300000208DF81B0006A9284800F041FB14E0A6
:101B4000052C0AD12020ADF8180000208DF81B00CC
:101B500006A9224800F034FB07E0102C03D12846E8
:101B6000FFF7B2FF01E007B030BD002001908DF813
:101B7000080001208DF809004FF460200390002038
:101B8000049001208DF8140001A91548FFF702FF09
:101B9000E5B101211248FFF7D4FE1148FFF77EFF9F
:101BA000142000F05BFA00BF0D48FFF7E8FE0028A4
:101BB000FAD10B48FFF782FF00BF0948FFF7CCFEC0
:101BC0000028FAD101210648FFF76DFF00BFCAE7E0
:101BD000E51B000820000020F13200080008014049
:101BE000002401402DE9F04704464FF00009072387
:101BF000012221461748FFF7F5FE01211548FFF79E
:101C000052FF012000F02AFA00BF02211148FFF71D
:101C1000ADFE0028F9D002210E48FFF78FFE0D49D6
:101C20004C31086803F014FD81464FF08B41484663
:101C300003F02CFC824603F0F1FB07464FF06632BE
:101C4000054B03F0C1F9054602F000FF8146484606
:101C5000BDE8F0870024014066660A4000B50A48E6
:101C60000A4908600A4848600A4888600A480861CA
:101C70000A4848610A48C8610A4808620A48486236
:101C800000F014F800BD0000012400084805002001
:101C9000C9330008053F0008ED1A0008F51D0008CB
:101CA00055310008A5370008952100081648174946
:101CB0004860174808601748086117491348C16110
:101CC00016481249886116491048416215480F4963
:101CD0000862154888621548C86215490B480163B7
:101CE000144941631449016414480849886314493C
:101CF0000648C16313494164134901651349C1642E
:101D00001348024988647047752400087005002054
:101D1000B1240008653400089142000855430008CA
:101D2000F1320008E51B0008811E00082920000888
:101D30005D2000084120000805350008273500080F
:101D40002D350008953E0008091F0008811F000876
:101D50000920000800BFFEE739B1084A12680123D4
:101D600083401A43054B1A6006E0044A12680123B7
:101D700083409A43014B1A60704700000074004092
:101D800030B5002200230A4C226840F6FE748440DD
:101D9000A243D1E900452C438D682C43CD6844EA29
:101DA000050303FA00F42243014C226030BD000019
:101DB0000074004008B500220092054A009200F12C
:101DC0000802009B1A440092009A116008BD0000AE
:101DD0000074004008B500220092054A009200F10C
:101DE0001402009B1A440092009A116008BD000082
:101DF0000074004030B585B004460D461D481E49AC
:101E000008600121042001F0E9F90121480701F0EF
:101E1000C5F9002001900290039002200490002058
:101E20008DF8030003208DF802007CB91020ADF876
:101E300000006946114800F0C3F901A90020FFF72E
:101E40009FFF29460020FFF787FF10E0102C0ED1DE
:101E50002020ADF800006946084800F0B1F901A95A
:101E60001020FFF78DFF29461020FFF775FF05B002
:101E700030BD0000811E000828000020000801403D
:101E80002DE9F05F04468946CA46504603F0C6FA7B
:101E900005464FF066321B4B03F094F904D3002142
:101EA000504603F0E9FB01D24FF000094FF08B419F
:101EB000504603F015FC834603F0B0FA07464FF096
:101EC0006632104B02F0B0FE054602F0BFFD8246BE
:101ED00044B9504603F09CFB85B229460020FFF729
:101EE00069FF0DE0102C08D1504603F091FB85B23C
:101EF00029460020FFF76EFF02E00020BDE8F09FBA
:101F00004846FBE766660A402DE9F04786B0804602
:101F10000D469146002700261CE018F806401CB923
:101F2000002006B0BDE8F087AC4200D100257DB9A5
:101F3000392C01DC302C03DA2E2C01D02D2C04D1CD
:101F400002A8C455781CC7B202E0002F00DD03E0F0
:101F5000701CC6B24E45E0DB00BF02A802F062FC76
:101F6000CDE9000102F072FD82461023002202A991
:101F700002A000F049F85046D3E7000031323300A8
:101F800070B503460C46002107E05D5C665CAE421E
:101F900001D0002070BD481CC1B2501E8842F4DC44
:101FA0000846F7E710B50246B1F5FA7F01D93020AF
:101FB00010BD1148806801EBC10303EB01130F4C06
:101FC000A4EB8303984214D20D480068904206D0D7
:101FD000094880680B4B18600948026009E0064810
:101FE0008068084B1B68C01A884202D94FF0FF3046
:101FF000DEE70020DCE7000008000020D07E0100C2
:10200000000000200400002030B50446002006E057
:10201000462A02D1255C0D5400E00A54401C984227
:10202000F6DB30BD704700000021044A116000BF9C
:10203000024909688142FBD3704700001400002068
:1020400030B50446254603E04FF47A7000F006F8F8
:10205000281EA5F10105F7D130BD0000014607E0BB
:102060000022064B1A6000BF044A1268642AFBD3A0
:102070000A1EA1F10101F3D17047000014000020F5
:1020800030B5044604254FF4302000F06FF80546C3
:10209000042D17D10C48006940F002000A4908617C
:1020A00008464461006940F0400008614FF4302068
:1020B00000F05CF805460448006941F6FD710840EF
:1020C00001490861284630BD0020024004200B4928
:1020D000C96801F0010109B101200EE00749C96892
:1020E00001F0040109B1022007E00449C96801F0C8
:1020F000100109B1032000E00420704700200240D5
:102100000348006940F08000014908617047000001
:102110000020024070B504460D460426F00200F08F
:1021200025F80646042E11D10948006940F0010047
:10213000074908612580F00200F018F806460448B7
:10214000006941F6FE71084001490861304670BDE2
:102150000020024002480349486003484860704735
:102160002301674500200240AB89EFCD00B5024650
:102170000423FFF7ABFF034603E0FFF7A7FF034687
:10218000521E012B01D1002AF7D102B905231846AE
:1021900000BD000040B10549054A11600549916044
:1021A000054951600549D160704700002735000896
:1021B00028010020053500082D350008953E00084F
:1021C0002DE9F041024600250026002000230024CE
:1021D000002791F803C00CF00F0591F803C00CF034
:1021E000100CBCF1000F03D091F802C04CEA0505B9
:1021F00091F800C0BCF1000F31D0146800202BE032
:102200004FF0010C0CFA00F3B1F800C00CEA030621
:102210009E4220D183004FF00F0C0CFA03F7BC4311
:1022200005FA03FC4CEA040491F803C0BCF1280F42
:1022300006D14FF0010C0CFA00FCC2F814C00AE001
:1022400091F803C0BCF1480F05D14FF0010C0CFA16
:1022500000FCC2F810C0401C0828D1D31460B1F8AB
:1022600000C0BCF1FF0F34DD546800202EE000F107
:10227000080C4FF0010808FA0CF3B1F800C00CEAA2
:1022800003069E4221D183004FF00F0C0CFA03F796
:10229000BC4305FA03FC4CEA040491F803C0BCF10A
:1022A000280F05D100F1080C08FA0CF8C2F81480C8
:1022B00091F803C0BCF1480F07D100F1080C4FF0B2
:1022C000010808FA0CF8C2F81080401C0828CED388
:1022D0005460BDE8F0810000F0B50A4600230024F8
:1022E0000021002500F00046B6F1004F02D11D4E3E
:1022F000F16901E01B4E7168C0F3034583B200F43D
:102300004016B6F5401F08D121F07061154E766871
:1023100026F07066134F7E6012E000F48016B6F56A
:10232000801F06D1032606FA05F4A14341F070612F
:1023300006E0460D360103FA06F6B14341F070613E
:1023400022B1460D360103FA06F6314300F000468D
:10235000B6F1004F02D1034EF16101E0014E716010
:10236000F0BD00000000014000BFFEE770B505466B
:102370004FF400600F4908602846FFF755FE4FF400
:1023800080600C4908602846FFF74EFE094808386F
:10239000006800F4006008B1012400E000244FF45C
:1023A00080600449091D08602846FFF73DFE20466D
:1023B00070BD0000100C014070B505460C4625B9F3
:1023C0004FF400600D49086004E04FF400600B49D1
:1023D000091F08602046FFF727FE4FF48060074979
:1023E000091F08602046FFF71FFE4FF48060034975
:1023F00008602046FFF718FE70BD0000140C014075
:1024000038B504462146082000F0E8FEBCB100BF04
:102410004FF44060ADF8000003208DF80200182052
:102420008DF8030069460F48FFF7CAFE00BF4FF45E
:1024300080600C4910310860400008600CE000BF6B
:102440004FF44060ADF8000000208DF803006946AD
:102450000448FFF7B5FE00BF03480449486004483C
:10246000086038BD000C01407524000838050020C4
:10247000B12400082DE9F04107460D4608260EE07C
:102480002846FFF773FF20B16006040E44F00104F4
:1024900003E06006040E04F0FE04701EC6B2002EB7
:1024A000EED129463846FFF787FF2046BDE8F08188
:1024B0002DE9F04104460D4608260DE004F08000A9
:1024C00008B1012700E0002729463846FFF774FFCE
:1024D0006006040E701EC6B2002EEFD12846FFF72C
:1024E00045FF80464046BDE8F081F0B507460C4602
:1024F00015461E462A2000F0CFFC384600F0B0FCFE
:10250000284600F0ADFC2B2000F0C6FC204600F071
:10251000A7FC304600F0A4FC2C2000F0BDFCF0BD70
:102520002DE9F04306460F4690469946002544465D
:1025300041E07A1B91B2321B90B24A4600F095F806
:102540007A1B91B2321990B24A4600F08EF83A19CD
:1025500091B2721B90B24A4600F087F83A1B91B2D2
:10256000721B90B24A4600F080F87A1991B2321983
:1025700090B24A4600F079F83A1B91B2721990B2C3
:102580004A4600F072F83A1991B2721990B24A466E
:1025900000F06BF87A1991B2321B90B24A4600F003
:1025A00064F86D1C05FB05F004FB040108FB08F052
:1025B000814200DD641EA542BBDDBDE8F0832DE94C
:1025C000FF4F84B081468A460020029083460698D9
:1025D000A0EB09050798A0EB0A06CDF80490CDF80A
:1025E00000A0002D01DD012705E00DB9002702E064
:1025F0004FF0FF376D42002E02DD4FF0010806E07C
:1026000016B94FF0000802E04FF0FF387642B542AD
:1026100001DD2C4600E03446002003901EE0009AC5
:1026200091B2019A90B2119A00F01FF802982844D2
:102630000290B3440298A04205DD0298001B02906C
:10264000019838440190A34504DDABEB040B0098DE
:10265000404400900398401C80B20390611C039892
:102660008842DCDB08B0BDE8F08F70B504460D464B
:1026700016462B46224629462046FFF736FF3046AF
:1026800000F0EEFB70BD2DE9F84105460E461746F9
:102690009846079C33463A46314628460094FFF751
:1026A0008EFF43462A46314628460094FFF787FFAF
:1026B00043463A46414628460094FFF780FF43468A
:1026C0003A46314638460094FFF779FFBDE8F88175
:1026D0002DE9F04706460F4614461D46DDF820A0BA
:1026E000681E83B2601E82B239463046FFF7FDFE97
:1026F000B8460EE0B14606E0504600F0B1FB09F1E5
:1027000001001FFA80F9A145F6DB08F101001FFA6C
:1027100080F8A845EEDBBDE8F087000038B5044638
:1027200001210C2000F05AFD0121084600F056FD61
:1027300001211748FFF7D0FDB4B14FF43040ADF898
:10274000000010208DF8030003208DF80200694678
:102750001048FFF735FD4FF48060ADF80000694682
:102760000D48FFF72DFD12E04FF43040ADF80000AA
:1027700000208DF8030069460648FFF721FD4FF45D
:102780008060ADF8000069460348FFF719FD38BDC9
:1027900000023000000C01400008014038B504463A
:1027A0002046FFF7BBFF4FF480506B4908601420B0
:1027B000FFF754FC362000F06FFB7820FFF74EFC4B
:1027C000002000F05DFB3A2000F066FB052000F0E1
:1027D00057FBB22000F060FB0C2000F051FB0C20F6
:1027E00000F04EFB002000F04BFB332000F048FBD4
:1027F000332000F045FBB72000F04EFB352000F001
:102800003FFBBB2000F048FB192000F039FBC02043
:1028100000F042FB2C2000F033FBC22000F03CFB18
:10282000012000F02DFBC32000F036FB122000F049
:1028300027FBC42000F030FB202000F021FBC62045
:1028400000F02AFB0F2000F01BFBD02000F024FB3F
:10285000A42000F015FBA12000F012FBE02000F006
:102860001BFBD02000F00CFB042000F009FB0D2026
:1028700000F006FB112000F003FB132000F000FB2A
:102880002B2000F0FDFA3F2000F0FAFA542000F06F
:10289000F7FA4C2000F0F4FA182000F0F1FA0D20BD
:1028A00000F0EEFA0B2000F0EBFA1F2000F0E8FA3F
:1028B000232000F0E5FAE12000F0EEFAD02000F04D
:1028C000DFFA042000F0DCFA0C2000F0D9FA112025
:1028D00000F0D6FA132000F0D3FA2C2000F0D0FA42
:1028E0003F2000F0CDFA442000F0CAFA512000F059
:1028F000C7FA2F2000F0C4FA1F2000F0C1FA1F20F1
:1029000000F0BEFA202000F0BBFA232000F0B8FA55
:10291000212000F0C1FA112000F0BEFA292000F0B9
:10292000BBFA7820FFF79AFB0020F0231A460146F5
:102930000090FFF7CDFE09480949C8600948886042
:102940000948486009480860094888610948C86121
:102950000948486138BD0000140C014021250008D9
:10296000C4050020BF2500086B260008D1260008FA
:10297000B52A00088D2D0008F32D00082DE9FF4F22
:1029800007468A4690469B460E9D0020029000977F
:10299000284605EBD071C1F347042046E21704EB4B
:1029A0005272D2102146E31704EB5373DB10A4EBF1
:1029B000C3030BB1012300E000231A446A4392B21F
:1029C0000192A8F1200000F0FF080AEB0500401E6C
:1029D00083B23819401E82B251463846FFF785FD52
:1029E00000265BE0102D05D12F4800EB0810805D1C
:1029F000039013E0182D07D108EB48002B4901EB99
:102A00000010805D039009E0202D05D1284800EBDF
:102A10008810805D039001E0BDE8FF8F4FF0000952
:102A200036E00F98C8B9012000FA09F00399084070
:102A300018B1584600F014FA02E00D9800F010FAB0
:102A40000298401CC0B20290029890FBF4F104FB83
:102A50001100C8B9002002901DE0012000FA09F021
:102A60000399084020B15A4651463846FFF7FDFD0C
:102A7000781C87B20098381AA04205D1009F0AF14D
:102A800001001FFA80FA06E009F1010000F0FF09D9
:102A9000B9F1080FC5DB00BF701C86B201988642F1
:102AA000A0DB00BFB8E700009A7500088A7B000829
:102AB0005A8D00082DE9FE470646894615469A4676
:102AC000DDE90C480B9F1CE0182C09D153462A461F
:102AD00049463046CDE90148009700F017F80DE06F
:102AE000202C09D153462A4649463046CDE90148B3
:102AF000009700F0AFF801E0BDE8FE87AD1C30198B
:102B000086B228780028DFD100BFF5E72DE9FF4F16
:102B10000646894692469B460E9C002003900096EE
:102B20002046E21704EB5272D2102146E31704EB61
:102B30005373DB10A4EBC3030BB1012300E00023AC
:102B40001A44624392B2019205200290002579E076
:102B500005EB850000EB45103D4911F810009AF88F
:102B6000001088426BD105EB850000EB4510384919
:102B700001EB400040789AF8011088425FD109EBE0
:102B80000400401E83B23019401E82B249463046CE
:102B9000FFF7ABFC00274FE04FF0000846E00F982E
:102BA00008BB05EB850000EB4510294901EB40000F
:102BB000801CC05D012101FA08F1084018B1584697
:102BC00000F04EF902E00D9800F04AF90398401C1D
:102BD000C0B20390039890FBF4F104FB110008BB12
:102BE0000020039025E005EB850000EB4510184917
:102BF00001EB4000801CC05D012101FA08F1084092
:102C000020B15A4649463046FFF72FFD701C86B268
:102C10000098301AA04205D1009E09F101001FFA68
:102C200080F906E008F1010000F0FF08B8F1080F94
:102C3000B5DB00BF781CC7B201988742ACDB00BF90
:102C4000681C85B20298854282DBBDE8FF8F0000D8
:102C50001AA500082DE9FF4F0646894692469B4675
:102C60000E9C0020039000962046E21704EB52725F
:102C7000D2102146E31704EB5373DB10A4EBC3031C
:102C80000BB1012300E000231A44624392B2019287
:102C900005200290002571E005EB85103A4911F8F6
:102CA00010009AF80010884265D105EB851036496E
:102CB00001EB400040789AF8011088425BD109EBA3
:102CC0000400401E83B23019401E82B2494630468D
:102CD000FFF70BFC00274BE04FF0000842E00F9895
:102CE000F8B905EB8510284901EB4000801CC05D58
:102CF000012101FA08F1084018B1584600F0B0F877
:102D000002E00D9800F0ACF80398401CC0B20390AC
:102D1000039890FBF4F104FB1100F8B90020039034
:102D200023E005EB8510184901EB4000801CC05DD5
:102D3000012101FA08F1084020B15A4649463046BF
:102D4000FFF793FC701C86B20098301AA04205D1A0
:102D5000009E09F101001FFA80F906E008F1010068
:102D600000F0FF08B8F1080FB9DB00BF781CC7B24C
:102D700001988742B0DB00BF681C85B2029885428B
:102D80008ADBBDE8FF8F00008CA600082DE9F04F1C
:102D90000746884615461E46DDF82490002408EBB9
:102DA0000600401E83B27819401E82B24146384662
:102DB000FFF79BFBA24618E04FF0000B0FE019F85D
:102DC000140000F05DF8012101EB440119F8010045
:102DD00000F056F8641C0BF101001FFA80FBB345AC
:102DE000EDDB0AF101001FFA80FAAA45E4DBBDE839
:102DF000F08F2DE9FE4305460F4616469846DDE95D
:102E00000A94102C03D0182C01D0202C0FD120466E
:102E100004EBD071491069438DB207FB04F087B20F
:102E2000F02D00DDF025F02F03DDF02701E0BDE8F7
:102E3000FE8310E00020CDE90094029032784346F2
:102E400039462846FFF79AFD204604EBD07105EB82
:102E500061018DB2761C30780028EBD100BFE6E727
:102E600010B504464FF4806004490860201200F059
:102E70001FF8E0B200F01CF810BD0000100801407F
:102E800010B504464FF4806002490860204600F007
:102E90000FF810BD1008014010B504464FF48060D3
:102EA00002490860204600F003F810BD14080140F4
:102EB0004FF48052124B1A60002118E04FF4005278
:102EC0000F4B1A6000F0800222B14FF400421B1F2A
:102ED0001A6003E04FF40042094B1A604FF40052AD
:102EE000074B1B1F1A604206100E4A1CD1B208295C
:102EF000E4DB4FF48052024B1B1F1A607047000046
:102F0000140C014000BFFEE71CB5FEF7A7FE00F061
:102F1000ADF83C48016A012088473A4801224FF445
:102F2000E131836803209847374838A1826903203C
:102F300090473448012102691020904736480168C3
:102F4000012088473548009035483C231A46002127
:102F5000C469B420A04710200021CDE900103048FA
:102F60004FF61F032FA244691620A0471820002106
:102F7000CDE900102A484FF478432BA2446905207C
:102F8000A04710200021CDE9001025484FF47843D8
:102F900028A20E2144691D20A0471A232D2226496C
:102FA00026A0FFF731F810200021CDE900101C48C1
:102FB0001F2323A2022144690020A04710200021E2
:102FC000CDE90010164840F2FF7322A203214469A4
:102FD0000020A04710200021CDE9001010484FF636
:102FE000FF73154A042144690220A0471E230022D2
:102FF000114912A0FFF708F80348416B01208847E8
:103000001CBD000048050020700500207B52656152
:10301000647920217D0A0000340000207A590008DC
:10302000E405002047440000436176656E2050723D
:103030006F000000310000006000002031323300DA
:103040002D3E204D4355203A2032362E313020433C
:10305000200000002D3E2054494D453A2030303AA2
:1030600030303A30302053200000000000B50348D3
:103070000349086000F006F800BD00009D27000825
:103080003400002008480949086009484860094898
:1030900088600948C86009480861094848610948CA
:1030A00088610948C8617047D1260008E4050020FE
:1030B0006B260008BF250008212500088726000888
:1030C000F32D0008B52A00088D2D00087047000078
:1030D00070B5002100230F22C47804B3154C246876
:1030E00004F4E064C4F5E064210AC1F10403CA40B9
:1030F000447804FA03F184781440214309010E4C0A
:103100000678A155047804F01F050124AC40057829
:103110006D11AD0005F1E025C5F8004109E0047826
:1031200004F01F050124AC40044D0678761145F8E3
:10313000264070BD0CED00E000E400E080E100E01E
:1031400002490143024A1160704700000000FA057D
:103150000CED00E02DE9F04104460D4616461F46F1
:10316000042C05D13A463146284600F0CBFB06E058
:10317000082C04D13A463146284600F039FCBDE817
:10318000F081704701460020034A506820F4404017
:1031900008435060704700000010024029B1064A01
:1031A000D2690243044BDA6104E0034AD2698243E4
:1031B000014BDA61704700000010024029B1064A55
:1031C00012690243044B1A6104E0034A1269824304
:1031D000014B1A61704700000010024029B1064AF5
:1031E00092690243044B9A6104E0034A9269824364
:1031F000014B9A61704700000010024029B1064A55
:10320000D2680243044BDA6004E0034AD268824386
:10321000014BDA60704700000010024030B5002119
:103220000022002400232D4D6D6805F00C0121B112
:10323000042905D0082923D105E0294D056022E0A5
:10324000274D05601FE0254D6D6805F47012234D74
:103250006D6805F48034022505EB92421CB9214DBE
:10326000554305600BE01D4D6D6805F400351DB13B
:103270001C4D5543056002E0194D5543056002E0C1
:10328000174D056000BF00BF144D6D6805F0F001DB
:103290000909154D6B5C0568DD4045600F4D6D6893
:1032A00005F4E061090A104D6B5C4568DD408560FE
:1032B0000A4D6D6805F46051C90A0B4D6B5C456899
:1032C000DD40C560054D6D6805F44041890B074D33
:1032D0006B5CC568B5FBF3F5056130BD00100240BD
:1032E00000127A0000093D004C0000205C00002024
:1032F0002DE9FC471020FEF775FC8246504602F08F
:103300008DF806460E4A0F4B01F092FF04460E4A16
:103310000E4B01F089FC804600220D4B01F0C8FBEA
:10332000CDE9000101F092FB82460021504602F0F7
:10333000A3F901D28AF0004A5046BDE8FC8700009C
:10334000E17A14AE47E1F63F85EB51B81E85DB3FCD
:103350000000394070B504460D461948005D70BB49
:103360001748801D015D005D401CC2B21448801DDD
:10337000025504EB4400124A903A02EBC000455457
:103380000DB10A2D05D101210D4801550021801DE7
:1033900001550B48801D005D302810DD01210848D3
:1033A00001550021801D015504EB4400044A903A68
:1033B00002EBC0011823002202A0FEF725FE70BD1B
:1033C0001C0100203132330038B504460121084683
:1033D000FFF704FF01211F48FEF77EFF214608206A
:1033E000FFF7FCFE24B300BF4FF43040ADF80000FF
:1033F00003208DF8020010208DF80300694616485E
:10340000FEF7DEFE4FF48040ADF8000048208DF856
:10341000030069461048FEF7D3FE00BF4FF400409A
:103420000D491031086080100860401008600CE001
:1034300000BF4FF47040ADF8000000208DF803008D
:1034400069460548FEF7BCFE00BF04480449086011
:1034500038BD000000023000000C01406534000857
:103460002C0000202DE9F0410746884600258026E3
:10347000300223490860801008604010091D086070
:103480004046FEF7D1FD00242CE04FF400501C49CB
:10349000091D086007FA04F03040B04204D14FF42F
:1034A0000040091F086004E04FF400401449091D62
:1034B00008604046FEF7B8FD4FF400501049086020
:1034C0000F480838006800F4804018B146FA04F04C
:1034D000054302E00020204105434046FEF7A4FDDD
:1034E000601CC4B2082CD0DB4FF4004004490860D3
:1034F00080100860401008602846BDE8F081000098
:10350000100C014030B503460C461546002207E07A
:10351000184600F008F824F812009B1C501C82B2D8
:10352000AA42F5DB30BD0146088870472DE9F05FFF
:1035300080468A461746B8F1006F02D3334880456B
:1035400001D3BDE8F09FFEF705FEA8F1006B4FEA3E
:103550009B25CBF34809C9F50074A74200DC3C4623
:103560004DE04FF0006101EB85208A142849FFF7F8
:10357000C9FF00260BE009EB0600254931F81000D1
:103580004FF6FF71884200D003E0701C86B2A6425D
:10359000F1DB00BFA6421BDA4FF0006101EB852092
:1035A000FEF76EFD002608E03AF8160006EB09016A
:1035B000174A22F81100701C86B2A642F4DB4FF0C5
:1035C000006101EB85208A14114900F023F804E022
:1035D00022465146404600F01DF8A74200D10FE0B8
:1035E0006D1C4FF000090AEB440AA044381B87B257
:1035F000B7F5007F02DD4FF4007400E03C46B0E711
:1036000000BFFEF77DFD00BF9BE700000000020841
:10361000380100202DE9F04105460E4617460024EA
:1036200007E036F814102846FEF774FDAD1C601C48
:1036300084B2BC42F5DBBDE8F081704710B500F004
:1036400001F810BD0CB500200190009033480068CF
:1036500040F480303149086000BF3048006800F411
:10366000003000900198401C0190009818B9019812
:10367000B0F57F4FF1D12948006800F4003010B157
:103680000120009001E0002000900098012843D123
:103690002348006840F0100021490860084600688F
:1036A00020F0030008600846006840F0020008604F
:1036B0001A4840681949486008464068486008460A
:1036C000406840F4806048600846406820F47C1000
:1036D00048600846406840F4E810486008460068C2
:1036E00040F08070086000BF0C48006800F0007077
:1036F0000028F9D00948406820F0030007494860D5
:103700000846406840F00200486000BF0348406837
:1037100000F00C000828F9D10CBD00000010024098
:103720000020024000B504480068401C02490860BF
:1037300000F004F800BD0000140000201748806865
:10374000401C16498860084680681549884224D97B
:1037500001201249886008464068401C48600846BD
:103760008078401C8870084680783B2815DD002052
:10377000887008464078401C4870084640783B28CE
:103780000BDD0020487008460078401C0870084691
:103790000078172801DD002008707047080000201D
:1037A000A086010070B50346002B32D02248006885
:1037B000224AB0FBF2F1B1F1807F01D301201DE07C
:1037C00021F07F40401E4FF0E022506150170F2241
:1037D000002807DA1407260E194C00F00F052D1FDC
:1037E000665503E01407250E164C255400BF002033
:1037F0004FF0E022906107201061002008B100BF67
:10380000FEE7114811490860114848601148886076
:1038100010E000BF0A480C38006800F4E0600E4970
:103820000843001D06490C390860BFF34F8F00BFE5
:1038300000BFFEE770BD000038000020A086010038
:1038400018ED00E000E400E02920000880000020DE
:103850005D200008412000080000FA0510B513485B
:10386000006840F0010011490860084640681049AE
:1038700008400E494860084600680E4908400B4958
:1038800008600846006820F4802008600846406808
:1038900020F4FE0048604FF41F008860FFF7CEFE62
:1038A0004FF000600449086010BD000000100240A5
:1038B0000000FFF8FFFFF6FE08ED00E04FF080404B
:1038C000008A4FF08040008A20F001004FF08041D4
:1038D00008827047044800880348008820F00100EF
:1038E0000149088070470000100400400448008827
:1038F0000348008820F0010001490880704700005B
:103900001008004070B588B005460E4614462146A2
:103910000420FFF743FC01210820FFF75FFC012191
:103920000846FFF75BFC4FF47070ADF81C001CB14B
:1039300018208DF81F0002E000208DF81F000320E2
:103940008DF81E0007A92248FEF73AFCADF8145086
:10395000ADF810600020ADF81600ADF8120004A913
:103960001C4800F045FA7020ADF800000120ADF8C9
:1039700002000220ADF808006946164800F0DCF8A5
:103980000821144800F024F96946124800F02AF989
:103990000821104800F078F969460E4800F082F9D5
:1039A00008210C4800F0CEF969460A4800F0D4F925
:1039B0000821084800F00EFA00220121054800F015
:1039C000B2F82146034800F093F808B070BD00003B
:1039D000000C0140000800400448008803480088AB
:1039E00020F001000149088070470000100C0040E1
:1039F00070B588B005460E46144621464FF4005077
:103A0000FFF7ECFB01211020FFF7E8FB012108463E
:103A1000FFF7E4FB4FF47070ADF81C001CB11820E8
:103A20008DF81F0002E000208DF81F0003208DF8A4
:103A30001E0007A92648FEF7C3FBADF81450ADF8E9
:103A400010600020ADF81600ADF812008DF81800D7
:103A500004A9204800F0CCF97020ADF80000012046
:103A6000ADF802000220ADF808006946194800F0E0
:103A700063F80821174800F0ABF86946154800F0D4
:103A8000B1F80821134800F0FFF86946114800F02A
:103A900009F908210F4800F055F969460D4800F072
:103AA0005BF908210B4800F095F90121094800F065
:103AB0002BF80121074800F00FF8002201210548EA
:103AC00000F031F82146034800F012F808B070BD4C
:103AD000001001400034014021B1028842F0800210
:103AE000028004E002884FF67F731A40028070471C
:103AF00021B1028842F00102028004E002884FF600
:103B0000FE731A400280704731B1B0F8442042F48D
:103B10000042A0F8442005E0B0F84420C2F30E02B1
:103B2000A0F8442070471AB183890B43838102E0D7
:103B300083898B438381704770B500240022002362
:103B4000058C4FF6FE7635400584028C8388048B05
:103B50004FF68F752C40B51E2C400D882C43751EDA
:103B60002A400D892A434D882A43144DA8420BD080
:103B7000134DA84208D0134DA84205D0124DA842BB
:103B800002D0124DA84213D14FF6F7752A404D8945
:103B90002A434FF6FB752A408D882A434FF6FF656E
:103BA0002B404FF6FF552B408D892B43CD892B435E
:103BB00083800483CD888586028470BD002C0140FB
:103BC00000340140004001400044014000480140F1
:103BD0000A460021018B4FF6F77319401143018308
:103BE0007047000070B5002400220023058C4FF6BA
:103BF000EF7635400584028C8388048B48F6FF7588
:103C00002C404FF6FF452C400D884FF6FF7606EA14
:103C100005252C434FF6DF752A400D8906EA051568
:103C20002A434D8806EA05152A43154DA84202D0BD
:103C3000144DA8421DD14FF67F752A404D894FF68D
:103C4000FF7606EA05152A434FF6BF752A408D8890
:103C500006EA05152A434FF6FF352B404FF2FF7554
:103C60002B408D8906EA85052B43CD8906EA85051B
:103C70002B4383800483CD880587028470BD0000B8
:103C8000002C0140003401400A460021018B4FF214
:103C9000FF7319404FF6FF7303EA022319430183B0
:103CA0007047000070B5002400220023058C4FF6F9
:103CB000FF6635400584028C8388848B4FF68F75B0
:103CC0002C404FF6FC752C400D882C434FF6FF55C9
:103CD0002A400D894FF6FF7606EA05252A434D88CE
:103CE00006EA05252A43154DA84202D0144DA842E4
:103CF0001DD14FF2FF752A404D894FF6FF7606EA37
:103D000005252A434FF6FF352A408D8806EA05250A
:103D10002A434EF6FF752B404DF6FF752B408D89DB
:103D200006EA05152B43CD8906EA05152B4383804A
:103D30008483CD888587028470BD0000002C0140FB
:103D4000003401400A460021818B4FF6F773194079
:103D5000114381837047000070B5002200230024C6
:103D6000058C4EF6FF7635400584038C8488828B63
:103D700048F6FF752A404FF6FF452A400D884FF65A
:103D8000FF7606EA05252A434DF6FF752B400D897F
:103D900006EA05352B434D8806EA05352B430B4DC6
:103DA000A84202D00A4DA84208D14BF6FF752C401C
:103DB0008D894FF6FF7606EA85152C438480828331
:103DC000CD88A0F84050038470BD0000002C014055
:103DD000003401400A460021818B4FF2FF731940E5
:103DE0004FF6FF7303EA02231943818370470000F3
:103DF000002202881D4B98420ED01D4B98420BD0DA
:103E0000B0F1804F08D01B4B984205D01A4B984216
:103E100002D01A4B984204D14FF68F731A404B8848
:103E20001A43174B984207D0164B984204D04FF6CE
:103E3000FF431A40CB881A4302808B8883850B8806
:103E400003850A4B98420BD0094B984208D00E4B81
:103E5000984205D00D4B984202D00D4B984201D1AB
:103E60000B7A03860123838270470000002C0140F7
:103E7000003401400004004000080040000C0040F5
:103E80000010004000140040004001400044014088
:103E90000048014013B50446012201A92046FFF75E
:103EA00045FB1CBD10B540F22551094800F06DFBE3
:103EB00060B140F22551064800F0F6FA044800F0DF
:103EC0001FFCC4B221460420FFF744FA10BD0000D5
:103ED000004C004010B540F22551094800F055FB58
:103EE00060B140F22551064800F0DEFA044800F0C7
:103EF00007FCC4B221460520FFF72CFA10BD0000D4
:103F00000050004070B586B004460D4616464FF48A
:103F1000A060FFF715F901210846FFF75FF9CF48C8
:103F2000CF494860CF480860012C4FD101210820BB
:103F3000FFF754F93146A003FFF750F9012104209F
:103F4000FEF7CAF9C84800F0C5FA4020ADF81400E1
:103F500003208DF8160018208DF8170005A9C34816
:103F6000FEF72EF98020ADF8140048208DF81700D8
:103F700005A9BE48FEF724F901950020ADF8100010
:103F80000C20ADF80E000020ADF80C00ADF80A00D2
:103F9000ADF8080001A9B44800F046FB012240F248
:103FA0002551B14800F01BFB3146AF4800F085FABF
:103FB00025208DF8000001208DF801008DF8020009
:103FC0008DF803006846FFF783F844E1022C4CD1DA
:103FD00001210420FFF702F931462004FFF7DEF843
:103FE0000420ADF8140018208DF8170003208DF878
:103FF000160005A99E48FEF7E3F80820ADF8140066
:1040000004208DF8170005A99948FEF7D9F8019505
:104010000020ADF80800ADF80A00ADF80C00ADF8CE
:1040200010000C20ADF80E0001A9924800F0FCFA37
:104030004FF4A060FFF784F826208DF800000020E0
:104040008DF801008DF8020001208DF8030068460C
:10405000FFF73EF8012240F22551864800F0BFFAF2
:104060003146844800F029FAF5E0032C54D10121AF
:104070001020FFF7B3F831464FF48020FFF78EF899
:1040800001217D48FEF728F94FF48060ADF8140057
:1040900018208DF8170003208DF8160005A9774821
:1040A000FEF78EF84FF40060ADF8140004208DF890
:1040B000170005A97148FEF783F801950020ADF8B7
:1040C0000800ADF80A00ADF80C00ADF810000C20A7
:1040D000ADF80E0001A96A4800F0A6FA4FF4A060FE
:1040E000FFF72EF827208DF8000001208DF8010041
:1040F00002208DF8020001208DF803006846FEF7CB
:10410000E7FF012240F225515D4800F068FA314690
:104110005B4800F0D2F99EE0042C4FD10121102021
:10412000FFF75CF831466004FFF738F82002ADF87D
:10413000140018208DF8170003208DF8160005A92B
:104140004E48FEF73DF86002ADF8140004208DF8EB
:10415000170005A94948FEF733F84FF416500190AF
:104160000020ADF80800ADF80A00ADF80C00ADF87D
:1041700010000C20ADF80E0001A9424800F054FADE
:104180004FF4A060FEF7DCFF34208DF80000012022
:104190008DF8010003208DF8020001208DF8030046
:1041A0006846FEF795FF012240F22551354800F0A0
:1041B00016FA3146334800F080F94CE0052C4AD11C
:1041C00001213020FFF70AF831464FF48010FEF746
:1041D000E5FF4FF48050ADF8140018208DF817005B
:1041E00003208DF8160005A92448FDF7E9FF0420F7
:1041F000ADF814008DF8170005A92348FDF7E0FF7E
:1042000001950020ADF810000C20ADF80E00002044
:10421000ADF80C00ADF80A00ADF8080001A91B4884
:1042200000F002FA35208DF8000001208DF8010021
:1042300002208DF8020001208DF803006846FEF789
:1042400047FF012240F22551104800F0C8F93146DD
:104250000E4800F032F906B070BD0000914200082F
:10426000180000205543000800380140000C0140B0
:1042700000080140004400401000140000100140FC
:1042800000480040004C0040001401400050004035
:104290002DE9F04106460C4617460025642F01DD46
:1042A000BDE8F08145E0062E40D2DFE806F03F038E
:1042B0000F1B273300BF8021214800F059F9002847
:1042C000F9D0615D1E4800F020FA30E000BF802187
:1042D0001C4800F04DF90028F9D0615D194800F044
:1042E00014FA24E000BF8021174800F041F90028AB
:1042F000F9D0615D144800F008FA18E000BF802191
:10430000124800F035F90028F9D0615D0F4800F03F
:10431000FCF90CE000BF40210D4800F029F900280D
:10432000F9D0615D0A4800F0F0F900E000BF00BF7D
:104330006D1C381EA7F10101CFB2B4D100BFAFE7A9
:10434000003801400044004000480040004C00405C
:104350000050004070B506460D4600244BE0062E86
:1043600040D2DFE806F03F030F1B273300BF802158
:10437000244800F0FDF80028F9D0295D214800F01C
:10438000C4F930E000BF80211F4800F0F1F8002898
:10439000F9D0295D1C4800F0B8F924E000BF802165
:1043A0001A4800F0E5F80028F9D0295D174800F018
:1043B000ACF918E000BF8021154800F0D9F80028BA
:1043C000F9D0295D124800F0A0F90CE000BF4021AF
:1043D000104800F0CDF80028F9D0295D0D4800F014
:1043E00094F900E000BF00BF285D10B1285D0A28E5
:1043F00000D170BD641CC4F130000028AFD100BFF3
:10440000F7E7000000380140004400400048004049
:10441000004C00400050004010B540F225510948C2
:1044200000F0B3F801280CD140F22551054800F006
:104430003BF8044800F064F9C4B221460120FEF7BD
:1044400089FF10BD0038014010B540F225510948E0
:1044500000F09BF860B140F22551064800F024F8C6
:10446000044800F04DF9C4B221460220FEF772FF65
:1044700010BD00000044004010B540F2255109482D
:1044800000F083F801280CD140F22551054800F0D6
:104490000BF8044800F034F9C4B221460320FEF7BB
:1044A00059FF10BD0048004001F40072B2F5007FD2
:1044B00000D100BFCA430280704721B1828942F413
:1044C0000052828104E082894DF6FF731A40828196
:1044D0007047000010B504462048844209D10121EC
:1044E0008803FEF78BFE00214FF48040FEF786FE26
:1044F00032E01B48844209D101214804FEF75EFEE8
:1045000000214FF40030FEF759FE25E015488442A3
:1045100009D101218804FEF751FE00214FF48020CB
:10452000FEF74CFE18E01048844209D10121C8046E
:10453000FEF744FE00214FF40020FEF73FFE0BE0A3
:104540000A48844208D101210805FEF737FE002100
:104550004FF48010FEF732FE10BD0000003801401D
:104560000044004000480040004C00400050004023
:1045700002460020B1F5007F00D100BF13880B4038
:104580000BB1012000E00020704770B50246002406
:1045900000230025002040F66A16B14200D100BF7A
:1045A000C1F3421501F01F03012606FA03F3012DA2
:1045B00002D19689334006E0022D02D1168A33409B
:1045C00001E0968A33400C12012606FA04F416889C
:1045D000344013B10CB1012000E0002070BDF0B5F3
:1045E0000346002400260025002040F66A17B94241
:1045F00000D100BF1846C1F3421401F01F06012785
:1046000007FA06F5012C01D10C3004E0022C01D18F
:10461000103000E014301AB107682F43076002E041
:104620000768AF430760F0BD2DE9F04786B0054647
:104630000E460024A24600BFA1460027B08900B163
:1046400000BF2F462C8A4CF6FF700440F0880443CC
:104650002C82AC894EF6F3100440B08831890843AF
:10466000718908430443AC81AC8A4FF6FF40044093
:10467000B0890443AC8201A8FEF7D0FD1F488742F1
:1046800002D1DDF810A001E0DDF80CA0A88900F44B
:10469000004040B10AEBCA0000EB0A103168490043
:1046A000B0FBF1F807E00AEBCA0000EB0A10316832
:1046B0008900B0FBF1F86420B8FBF0F00401200998
:1046C000642101FB1089A88900F4004040B1322028
:1046D00000EBC900B0FBF1F000F00700044308E074
:1046E000322000EB09106421B0FBF1F000F00F0064
:1046F00004432C8106B0BDE8F0870000003801407B
:1047000001468888C0F308007047C1F30802828020
:10471000704700BFFEE740F2013200204FF0E04159
:1047200001F0DFB8024A0020110701F0DAB80000FA
:1047300001FDFFFF10B50446D1E9000100F002F8C9
:10474000206010BDF8B504460D466A4600F080F8BA
:1047500000987E30009000281EDC00221346204680
:10476000294600F0B9FB17D0002140F608004FF0B1
:10477000000006462046294600F068F9044640F647
:10478000080006EA00014FF0000034F0004004BFCA
:104790000220FBF754FE29E00098FF2828DB0021C7
:1047A00008464FF0000000F4400600221346204661
:1047B000294600F007FD8CBF002501250220FBF7EC
:1047C0003EFE4FF0FF4446B1002D0CBF4FF40000F9
:1047D0004FF48000B04218BF084C042108464FF047
:1047E0000000002D04BF84F00040F8BD2046F8BD55
:1047F00020462946BDE8F84000F028B9FFFF7F7F3A
:1048000010B504460A46D4E90003194600F04CF8F6
:10481000C4E9000110BD30380A2801D201207047D8
:104820000020704730B583B00446FBF703FE054611
:104830000020CDE90000024621466846FBF79AFEBB
:104840002846FBF7FCFDDDE9000103B030BD0000A8
:1048500010B5144600222260114A21F00043934211
:10486000A8BF10BD53EA000208BF10BDB3F5801FFA
:10487000A8BF226807DA362201F033F86FF035025C
:1048800021F000432260DFF81CC06FF31E510CEBD7
:1048900023531A4441F0FF5141F00051226010BDF2
:1048A0000000F07F02FCFFFF2DE9F04106460C46B8
:1048B00040F2FF75174635EA14502BD000221346FC
:1048C000304600F009FB25D03A463046214601F03B
:1048D00008F806460C4635EA145010D0002213465C
:1048E000304600F0F9FA15D10220FBF7A8FDFFF7DA
:1048F00019FF0A46214662F31E01BDE8F08102203D
:10490000FBF79DFDFFF707FF0A46214662F31E01F4
:10491000BDE8F08130462146BDE8F0811CB5FEF7C8
:10492000F3FA46E0234890F8990000280CDD21496D
:1049300091F899006421FDF735FB401C20B91E4811
:104940001EA18269032090471A4890F89300A0B1F5
:104950000021184880F89310174816494831826999
:1049600003209047182300221249483116A0FDF772
:104970004BFB1148016B0A2088471448807800904F
:1049800012484378027812A11848FBF751FC102016
:104990000021CDE90010164840F2FF73134A0321AD
:1049A00044690020A0471E230022104906A0FDF7FD
:1049B0002BFBB7E78C0000207005002074696D6543
:1049C000206F76657220210031323300080000200C
:1049D0002D3E2054494D453A202532643A25326413
:1049E0003A2532642053202000000000600000209F
:1049F000E405002010B500290AD00878002807D067
:104A000005487844FCF7D0F8002801D0002010BDFC
:104A10000248784410BD0000DA5F0000D25F000059
:104A200010B500290AD00878002807D00548784436
:104A3000FCF7BAF8002801D0002010BD02487844E5
:104A400010BD0000CA5F0000C25F000021F00042FC
:104A5000A2F16052B2F5801F01F0004328BFD2F1ED
:104A60007F6C0BD95FEA001C43EAC20242EB507034
:104A700018BF704728BF20F001007047B2F5801FB3
:104A8000BCBF184670474FEA410C1CF5001F02D20C
:104A9000084600F0ECBE70B500F040FB0000008955
:104AA000FFF7F6BF4FF00040A0F580007047000010
:104AB00010B591EA030F48BF83F0004300F1CC83A7
:104AC000841A71EB030C05D2121943EB0C03001B83
:104AD00061EB0C01DFF824E14FEA1154A4EB135C05
:104AE0001EEA430F18BF9EEA445F73D023EA0E0309
:104AF000DCF1200E21EA045143F4801332D322FA70
:104B00000CFE10EB0E0023FA0CFE41EB0E01CCF173
:104B1000200E03FA0EFE10EB0E0051F10001B1F56C
:104B2000801FCCF1200E32D201EB045112FA0EF2AA
:104B3000BDE8104058BF7047401C38BF5FEA4202D2
:104B400018BF7047002814BF20F0010041F1000198
:104B50004FEA410313F5001F38BF7047A1F1C04170
:104B600000F02ABB012A43EB0302ACF1200CDCF17C
:104B70001F0E32BF4FF0000E23FA0CF310EB0300B0
:104B800041EB0451B4EB115FD0D0A1EB045101F51E
:104B9000801149085FEA300001EB04510ED350F157
:104BA000000038BF12FA0EFE08D1BDE81040C9E778
:104BB000401C38BF5FEA4202CAD1C3E7BDE81040DB
:104BC0004FEA410313F5001F38BF7047A1F1C04100
:104BD00000F0F2BA9EEA445F08D011EA5E0FBDE829
:104BE000104004BF01F0004100207047BDE81040B4
:104BF00070B500F093FA00BF64FBBE3E0000E0FF1A
:104C000002494FF0000000F03ABE00BF0000F87FFC
:104C1000491058BFC1F140415B1058BFC3F1404338
:104C20008B42EFF3008070472DE9C04130B4DFF8CC
:104C3000A0C23CEA111418BF3CEA131400F0EC8047
:104C400081EA03051CEA111444EAD57418BF1CEA72
:104C5000131500F0C780A4EB05044FF0004545EAAA
:104C6000C12145EAC32341EA505143EA525304F1BA
:104C70007F74994204F500344FEAC0204FEAC22203
:104C800008BF904200F09C804FEA13650FF2401677
:104C9000765D4FEA134506FB05F7C7F1807706FB03
:104CA00007F74FEAD737A7FB03687642C8F5803885
:104CB000A7FB06CE38BFA8F1010807FB08E64FF0B6
:104CC000000EA6FB028CE6FB03CEDCF1000CCEF15D
:104CD000004E38BFAEF1010EA6FB0C584FF0000796
:104CE0004FF00005E6FB0E87A1FB08C6A0FB07CE30
:104CF00016EB0E0645F10005E1FB076515F1E04EE8
:104D00007EBFA4F580345FEA46066D4116F1800748
:104D100045F100054FEA17274FEA066647EA05679F
:104D2000A6F1DE46B6F1805F4FEA15251FD9384659
:104D300024F0010C05EBC471BCF1FE6F01EB0C110A
:104D400002D8F0BCBDE8008124425CBF01F5801EA2
:104D50009EEAC47F02D4F0BCBDE80081244238D46E
:104D6000F0BCA1F1C041BDE8004100F025BA4FEA16
:104D7000D22242EA43524FEAD323A7FB02864FEAEC
:104D8000D02040EA415007FB03661EEA0E0F4FEAAF
:104D9000D12105FB026658BFA6EB0056B6EB0056C4
:104DA0004FEA520E4EEAC37E18EB0E0E56EB530E30
:104DB000BDD518EB02085E417F1C55F10005B6E732
:104DC0004FF480154FF000074FF000064FF0000839
:104DD000ADE7F0BC4FF0000001F1C04101F000412F
:104DE000BDE8008111EA0C1F0CEA131500D00CE09D
:104DF00013EA0C1F00F025804FF00000F0BC81EAA0
:104E0000030101F00041BDE80081F0BCBDE80041B4
:104E100081EA030100F0D0B9F0BCBDE8004170B5F3
:104E200000F07CF9097EFC3E00F007B881EA03013E
:104E30004FF0000001F00041704781EA030100F0EB
:104E4000BBB9F0BCBDE800414FF0000021497047FC
:104E5000FFFDFBF9F7F5F4F2F0EEEDEBE9E8E6E43F
:104E6000E3E1E0DEDDDBDAD8D7D5D4D3D1D0CFCDC6
:104E7000CCCBCAC8C7C6C5C4C2C1C0BFBEBDBCBBFF
:104E8000BAB9B8B7B6B5B4B3B2B1B0AFAEADACABFA
:104E9000AAA9A8A8A7A6A5A4A3A3A2A1A09F9F9ED4
:104EA0009D9C9C9B9A999998979796959594939386
:104EB000929191908F8F8E8E8D8C8C8B8B8A89891D
:104EC00088888787868585848483838282818180A0
:104ED0000000FF070000F87F51EA030C17D41CF50F
:104EE000801F58BFBCF5801F00F10680994218BF93
:104EF000704708BF9042704707D711F5801F58BF11
:104F000013F5801F19D499427047894270471CF5E8
:104F1000801F08D5BCF5801FF7D58B4218BF70479E
:104F200008BF824270474FF4001C1CEB410F38BF92
:104F30001CEB430F01D28B42704770B500F0EEF8C6
:104F4000922449004FF000514FF08053FFF760BEAC
:104F500051EA030C17D41CF5801F58BFBCF5801F05
:104F600000F10680994218BF704708BF9042704711
:104F700007D711F5801F58BF13F5801F19D4994228
:104F80007047894270471CF5801F08D5BCF5801F0B
:104F9000F7D58B4218BF704708BF824270474FF465
:104FA000001C1CEB410F38BF1CEB430F01D28B429E
:104FB000704770B500F0B2F8922449004FF00051EC
:104FC0004FF08053FFF724BEDFF848C170B51CEAEC
:104FD000111E1EBF1CEA13159EEA0C0F95EA0C0F5A
:104FE00000F06F8081EA030423EA4C134EEAD47E7A
:104FF00021EA4C1141F4801143F48013AE44A1FB2B
:10500000024CA0FB0365AEF17F7E361955EB0C0513
:10501000A1FB034C4CF10003A0FB021C16EB0C0699
:10502000654153F10003094218BF46F0010613F42D
:10503000007F0BD14FEA03314FEA0530340341EAD8
:10504000155140EA16506FF003020AE04FEAC321FF
:105050004FEAC520F40241EA555140EA56506FF03C
:10506000020202EB2E4201EB025585EACE710AD014
:105070005FEA440C18BF24F0004450F1000041F1F5
:10508000000120EAD47040F2FE7C624500D270BD7F
:10509000A84214BF4FF080444FF04044002E08BF98
:1050A0000024BEF1806FA8BFA1F1C041BDE87040EF
:1050B00080F282804FF0000001F1C04101F0004118
:1050C00070479EEA0C0F0CEA131518BF95EA0C0FF7
:1050D00006D04FF0000081EA030E0EF0004170BDD3
:1050E00000F01CF88900013E00F007B800F009B894
:1050F0004FEA430C5FEA5C5C08D081EA030100F0F0
:105100005BB84FEA410C5FEA5C5CF6D14FF00000FF
:10511000014970470000FF070000F87F0EF1020E02
:105120002EF0030E5EF8046B364205D4012A43EBE1
:10513000030515F5001F12D8012841EB010C1CF5E1
:10514000001F0CD80ED14FEAD17C15F5001F0CEBD7
:105150004C0C0CF1020C08BF4CEBD37C04E04FF07C
:10516000080C01E04FEAD37C0CEB4C0526FA05F65F
:1051700006F00706B6F1040C06D20EEB860CBDE86D
:1051800070404CF0010C6047DFE80CF0090B0202A4
:105190004FF000414FF00000A1F5002170BD19460D
:1051A0001046012851EB010418BFD4F5001484BF48
:1051B000002001F0004170BD0808A0F500114FEA81
:1051C0003101704753EA010C17D41CF5801F58BFFA
:1051D000BCF5801F00F106808B4218BF704708BFE6
:1051E0008242704707D713F5801F58BF11F5801F03
:1051F00019D48B4270479B4270471CF5801F08D51D
:10520000BCF5801FF7D5994218BF704708BF904280
:1052100070474FF4001C1CEB430F38BF1CEB410FD1
:1052200001D2994270470FB40CBC03BCFFF7C1BE5A
:1052300091EA030F10B581F000413FF541AC83F0D6
:10524000004300F009B8000010B591EA030F48BF11
:1052500083F000433FF534AC841A71EB030C07D2A2
:1052600012198CF0004C43EB0C03001B61EB0C019A
:10527000DFF8A4E14FEA1154A4EB135C1EEA430FDC
:1052800018BF9EEA445F00F0B08023EA6E035242EA
:1052900021EA0451C3EB6E0338BF5B1EDCF1200E24
:1052A00025D322FA0CFE10EB0E0043FA0CFE41EB64
:1052B0000E01CCF1200E03FA0EFE10EB0E0051F1A0
:1052C0000001CCF1200E29D412FA0EF201EB0451A8
:1052D000BDE8104058BF7047401C1CBFB2F1004FE2
:1052E000704700280CBF491C20F00100704712EBEA
:1052F000020E43EB030218BF4FF0010E4EEA4202CA
:10530000ACF1200CDCF11E0E54D943FA0CFE10EB6C
:105310000E0051F1FF31CCF11E0ED5D50EF1010E6C
:1053200012FA0EFE404141EB010101EB445C5FEAE1
:105330005C5C10D910EBDE7001EB045138BFBEF19C
:10534000004FBDE8104018BF704700280CBF491C33
:1053500020F00100704730D24FEAD42C11F5001133
:1053600024F400641BD0B1FA81F20B3AA41AA41EF3
:10537000D2F12003914030FA03F31943904001EB3E
:10538000CC71002C01EB0451BDE81040A8BF704760
:1053900001F1C0414FF0000001F000417047B0FA48
:1053A00080F310FA03F100D110BDE41A173C480550
:1053B000C90AE4E701EB045110BD491001EB0451A7
:1053C000BDE810404FEA300002E04FF000017047A6
:1053D0004A0008BF0042F8D0B2F5001F28BF70474E
:1053E00001F000414FF0000070479EEA445F07D093
:1053F00011EA5E0FBDE8104004BF00210020704795
:10540000BDE8104070B5FFF789FE00BF40DFF63EF3
:1054100083F00041104670470000E0FF43004FEA70
:10542000D30C4FEA3C0C43401FBF40070CF16051C6
:1054300013F0FE4F70471CF0006F03D100200CF0FA
:10544000004170470CF0004343EA507010B540EA49
:10545000CC0000F0C6F900BF000000924FEA000146
:10546000FFF7AABE4FF000414FF00000A1F5002168
:105470007047401058BFC0F14040491058BFC1F1BB
:1054800040418142EFF30080704700004FF47F0CF1
:105490001CEAD0121EBF1CEAD11392EA0C0F93EA49
:1054A0000C0F00F0858090EA010F48BF42F4807233
:1054B00040F4000C41F400002CF07F4120F07F40CC
:1054C00000B58142A2EB03020FF2081CACEB504E78
:1054D000C0F100009EF800E04FEA4E0E00FB0EFC0B
:1054E00038BF49004FEA2C1C02F5FA020CFB0EF300
:1054F0004FEACE1E4FEA112C4FEAC1210EEB635E3C
:1055000042EB22420EFB0CFC4FEA1C5300FB031142
:105510004FEA112C4FEA01310EFB0CFC4FEADC4C38
:1055200000FB0C11C14228BF09184CEB03335DF896
:1055300004EB10EB410143EBC250B2F57C0F38BFD6
:10554000704729D512F0F00F1CBF00F1C04000F0E9
:1055500000407047008182838485868788898B8C90
:105560008D8E8F919293959697999A9C9D9FA0A2CC
:10557000A3A5A7A8AAACAEB0B2B3B5B7B9BCBEC01C
:10558000C2C5C7C9CCCED1D4D7D9DCDFE2E6E9ECBD
:10559000F0F3F7FAFE0000004FEA400C0CF1807CBB
:1055A000BCF17E4F28BF7047B0F1C04000F05FB93A
:1055B00090EA010F0CEAD11348BF42F480726245B1
:1055C00038BF634507D213F47F0F16D080EA01007D
:1055D00000F00040704710B500F003F9097EFC3E72
:1055E00000F005B880EA010000F00040704780EA52
:1055F000010000F0004000F03AB912F47F0F04BF40
:105600000248704780EA010000F031B90000C07F15
:10561000C10DD1F19E0206DB4FEA002343F00043A7
:1056200023FA02F07047004207D54FEA4001B1F17A
:10563000FE4F02D24FF00000704710B500F0D1F8D5
:1056400049922480002070476FEA200070470000D4
:10565000B0FA80F310FA03F2C3F19D030AD0D90522
:1056600001EB1220530638BF704700F1010008BF5C
:1056700020F001007047000050EA010C00F1138097
:105680001CF5000F58BFBCF5000F01D488427047CD
:1056900007D710F5000F58BF11F5000F15D4884239
:1056A0007047894270471CF5000F04D5BCF5000F08
:1056B000F7D5814270474FF0807C1CEB400F38BF1C
:1056C0001CEB410F01D28142704710B500F089F800
:1056D000922449004FF000504FF08051FFF7C9BEAF
:1056E0004FF47F0C1CEAD0121EBF1CEAD11392EAC1
:1056F0000C0F93EA0C0F00F0478090EA010F48BFAF
:1057000042F480724FF0004C4CEA00204CEA012138
:1057100002EB0302A0FB0113A2F50002002918BF4F
:1057200043F001035B0028BF4FEA330342EB224200
:105730005FEA132C4CEBC2502EBFBCEB436FB2F5AB
:105740007C0F70474FEA036CBCF1004F08BF20F09C
:105750000100B2F57C0F38BF70470BD582F0FF0215
:1057600012F5803FC8BF704700F1C040D8BF00F0BD
:105770000040704700F5000C5FEA4C0C48BF7047D2
:10578000B0F1C04000F073B890EA010F0CEAD113F9
:1057900048BF42F48072624538BF634504D280EA54
:1057A000010000F00040704710B500F01AF800BF8B
:1057B0008900013E00F007B800F009B85FEA410C2B
:1057C0005FEA1C6C08D080EA010000F050B85FEA84
:1057D000400C5FEA1C6CF6D14FF00040A0F5800051
:1057E00070470EF1020E2EF0030E5EF8044B2442B9
:1057F00004D44FEA4102B2F17F4F11D84FEA40037F
:10580000B3F17F4F0CD80ED14FEAD07CB2F17F4F6D
:105810000CEB4C0C0CF1020C08BF4CEBD17C04E0FF
:105820004FF0080C01E04FEAD17C0CEB4C0324FA5A
:1058300003F404F00704B4F1040C06D20EEB840C5C
:10584000BDE810404CF0010C6047DFE80CF00708A1
:1058500002024FF00040A0F5800010BD0846420053
:1058600018BFD2F1807288BF00F0004010BDFF2148
:1058700041EAD050C00570474FF0000070470CF06F
:105880000F03092B08BF082000F05F800A2B0BD004
:10589000082B18BF704708BF1CF0400F0AD04FF00C
:1058A00000004FF0000170471CF0400F18BF4FF090
:1058B000004070471CF0100F08D020F0704300F03B
:1058C0007F4242EAD3014FEA4370704700F06040E4
:1058D00021F07F4242EA000201F07F4040EA72700C
:1058E00070474FF0FF0C4CF4E06C1CEA11531CBFE6
:1058F0009CEA030C9445C2BFDA4201EB02517047A7
:10590000002B0DD0BCF1000F0FD0002A01F0004198
:10591000A4BF41F0E04141F07F614FF000007047CB
:1059200001F000414FF00000704750EA01334FF0A2
:105930009B0C18BF4CF0806C7FF462A97047FAF79B
:10594000D3BFFBF7E7B9FBF775BB1CF4801F11D081
:105950001CF4E02F03D06FEACC31490070474FF0C0
:105960004050EFF3008222F0704242EA000282F3DC
:10597000008870474FF000007047000000000000F2
:105980000000000000000000000000000000000017
:105990000000000000000000000000000000000007
:1059A00000000000000000000000000000000000F7
:1059B00000000000000000000000000000000000E7
:1059C00000000000000000000000000000000000D7
:1059D00000000000000000000000000000000000C7
:1059E00000000000000000000000000000000000B7
:1059F00000000000000000000000000000000000A7
:105A00000000000000000000000000000000000096
:105A10000000000000000000000000000000000086
:105A20000000000000000000000000000000000076
:105A30000000000000000000000000000000000066
:105A40000000000000000000000000000000000056
:105A50000000000000000000000000000000000046
:105A60000000000000000000000000000000000036
:105A70000000000000000000000000000000000026
:105A80000000000000000000000000000000000016
:105A90000000000000000000000000000000000006
:105AA00000000000000000000000000000000000F6
:105AB00000000000000000000000000000000000E6
:105AC00000000000000000000000000000000000D6
:105AD00000000000000000000000000000000000C6
