:020000040800F2
:10000000C8070020ED010008D11B00088D1700086B
:10001000A91B00087D150008B32900080000000096
:10002000000000000000000000000000511F000858
:100030009D15000800000000591C00083D20000824
:10004000070200080702000807020008070200086C
:10005000070200080702000807020008070200085C
:10006000070200080702000807020008070200084C
:10007000070200080702000807020008070200083C
:10008000070200080702000807020008070200082C
:10009000070200080702000807020008070200081C
:1000A000070200080702000807020008070200080C
:1000B000B1210008C9210008E12100080702000859
:1000C00007020008070200080702000807020008EC
:1000D0000702000841260008A52600080527000899
:1000E00007020008070200080702000807020008CC
:1000F00007020008070200080702000807020008BC
:100100000702000807020008F9210008070200089A
:1001100011220008712200080702000807020008E7
:10012000070200080702000807020008070200088B
:1001300000F002F800F04AF80AA090E8000C8244AF
:100140008344AAF10107DA4501D100F03FF8AFF28C
:10015000090EBAE80F0013F0010F18BFFB1A43F0A5
:1001600001031847E868000008690000103A24BF3E
:1001700078C878C1FAD8520724BF30C830C144BF0C
:1001800004680C607047000000230024002500264E
:10019000103A28BF78C1FBD8520728BF30C148BFEA
:1001A0000B607047662903F04682642900F07A806C
:1001B000002070471FB500F0C1FB040000200021A3
:1001C00002F070FCE0601FBD10B510BD00F0B6FC81
:1001D0001146FFF7EFFF02F009FC00F0D4FC03B476
:1001E000FFF7F2FF03BC00F017FD0000094880474D
:1001F00009480047FEE7FEE7FEE7FEE7FEE7FEE709
:10020000FEE7FEE7FEE7FEE704480549054A064B20
:10021000704700005121000831010008C80100208A
:10022000C8070020C8030020C80300200FB41CB575
:10023000074B06AA7B4469460090059800F065FBD1
:100240000020694600F074FB1CBC5DF814FB000044
:10025000F906000070B5044685690068C10601D53D
:10026000302600E02026C00707D070BDD4E9012168
:1002700030469047206A401C20626D1EF6D570BD46
:1002800070B5044685690078C00707D170BDD4E910
:10029000012120209047206A401C20626D1EF6D567
:1002A00070BD00002DE9F041064600241068752954
:1002B000314616A510D0AFF30080002802DA404284
:1002C00013A507E031688A0701D512A502E04907A6
:1002D00004D511A5012401E0AFF3008000210A221A
:1002E00006F1240709E0B0FBF2FCB0FBF2F302FBDD
:1002F0001C00303078541846491C0028F3D123469E
:100300002A463046BDE8F04100F092B800000000F7
:100310002D0000002B000000200000002DE9F04718
:100320004FF0000A89460446C0F820A02046E16844
:100330008847002876D0252806D0D4E901219047A7
:10034000206A401C2062F1E7E168204600258847CA
:10035000C4F81CA006460027C4F818A02A2E09D00D
:10036000304602F03CFB38B304EB8708303EC8F857
:10037000186019E059F8041B204604EB87029161CC
:10038000E1688847012F064618D1E069002820DA85
:1003900025F020051DE0D8F8180000EB800006EBE2
:1003A00040003038C8F818002046E1688847064603
:1003B00002F015FB0028EED1012F0AD02E2E08D115
:1003C0002046E16888477F1C0646022F45F020053D
:1003D000C4DBA069002803DA404245F00105A061B2
:1003E000E80701D025F01005B6B1A6F141001928A3
:1003F00002D8203645F400654A463146204625603D
:100400004D46FFF7CFFE58B1012806D0ED1D25F06F
:10041000070000F1080989E704E005F1040985E710
:1004200030468AE7206ABDE8F0877047704770471A
:100430002DE9F0470D4699469246044600F12408FE
:100440000168880604D5E06921F01001216000E010
:100450000120A84201DD471B00E00027A1697A19AD
:1004600002EB0900081AA0612078C00602D42046D9
:10047000FFF7F0FE002608E0D4E901211AF8060093
:100480009047206A401C761C20624E45F4DB2078A1
:10049000C0060AD52046FFF7DDFE06E0D4E90121BB
:1004A00030209047206A401C2062381EA7F10107C7
:1004B000F4DC07E0D4E9012118F805009047206A30
:1004C000401C2062281EA5F10105F3DC2046FFF741
:1004D000D7FE2078000602D50220BDE8F087012073
:1004E000FBE770472DE9FF4F0C461E464FF0FF37E4
:1004F0008BB0D2E90001DDF860800A908A46C1F332
:100500000A5505B93D46002108464FF00000BAF1F2
:10051000000F00F4400005DA00EB80004FF44001CA
:1005200001EA50004FEA9059B9F1010F00DDB946D8
:100530000A9850EA4A000ED044F61050A5F2FF3552
:1005400045432F14B8F1000F1ED07542291E1EDD41
:10055000C9F100021CE0B8F1010F4FF0000001D01A
:10056000302103E0F24305E02154401CB042FBDBA4
:1005700030460022002121540B99C1F80880C1E9BE
:1005800000200FB0BDE8F08FBD1B6D1CDEE74A46B2
:1005900000DA694206A800F05BFA06AB93E80700B0
:1005A00003AB83E8070050460A9900F03CFB8DE856
:1005B0000700A0F500501F3800900398002D0ADDB9
:1005C00042F21F014A460844002303A903906846EB
:1005D00000F0A5FD09E0A0F500504A461F380023B1
:1005E00003A90390684600F0AFFD8DE80700000402
:1005F000000C03D04FF0FF30410800E01046B8F186
:10060000000F03D00022009215461EE0751E05D48F
:1006100000F098F9303262556D1EF9D5B3460122CB
:10062000084302D000227F1C04E02078302801D14A
:1006300000227F1E002A099784D01DE0112D07DAC1
:1006400000F080F9303262556D1C50EA0102F5D19C
:10065000084302D00098C8B10EE00021681E05E0F2
:10066000235C625C63542254401E491C8142F7DBC8
:10067000AB46A81B401E0990002004F80B000B9805
:10068000099AC0F80880C0E9002B7AE711264FF0DC
:10069000000857E72DE9F04F88460446D21D22F0A6
:1006A000070191B0D1E90001CDE90A0102F083F917
:1006B00002460B98C00F01D02D2007E0206881076B
:1006C00001D52B2002E0202101EAC000032A099075
:1006D00001D0072A05DB03464146204600F078F9A1
:1006E0000BE12078800601D5E06900E00620B8F132
:1006F000650F814606D0B8F1660F18D0B8F1670FC4
:1007000070D131E00020B9F1110F009001DB11230D
:1007100001E009F101030AAA01A90CA8FFF7E2FE12
:10072000DDE90C70002609F10105834647E0012050
:100730004B4600904FF000470AAA01A90CA8FFF70A
:10074000D1FEDDE90DB00C995D46002610B909F126
:1007500001000D18B9EB050003D4C0F1FF3609F113
:100760000105A5EB09002BE0B9F1010F01DA4FF00B
:1007700001090020B9F1110F0090484601DD112355
:1007800000E003460AAA01A90CA8FFF7ABFEDDE9C9
:100790000C704D4600268346207800070AD4AB45EE
:1007A00000DA5D4601A8012D04DD411911F8011C94
:1007B000302907D04F4502DA17F1040F04DA01207F
:1007C00082460FE06D1EEEE7002F02DCED1B3E447B
:1007D00003E0781CA84200DD7D1CB81B00F1010A73
:1007E0004FF000472078000703D4AA4501DB4FF003
:1007F000FF3A0021B7F1004F0DF143088DF8431087
:1008000024D002202B23002F01DA7F422D230A213E
:10081000021EA0F1010000DC5FB197FBF1FC97FB29
:10082000F1F201FB1C7C17460CF1300C08F801CDED
:10083000EEE7A8F1010003702188090501D54521E3
:1008400000E06521A0F1010800F8011C09980FA93A
:10085000A1EB0807FF1D00B10120411901EBEA706F
:10086000A1693844081A401EA0612078C00602D44D
:100870002046FFF7EFFC099828B1D4E90121904701
:10088000206A401C20622078C00622D52046FFF74F
:10089000E1FC1EE0002E04DBB34502DD01A8805D13
:1008A00000E03020D4E901219047206A401C2062FA
:1008B000761CAAF101005FEA000A0AD100F03EF8B6
:1008C000C0680168405CD4E901219047206A401C5F
:1008D0002062281EA5F10105DCDC07E0D4E9012136
:1008E00018F8010B9047206A401C2062381EA7F1BF
:1008F0000107F3DC2046FFF7C3FC032011B041E6FB
:1009000001694A1C02610878704700B58FB0CDE9D3
:1009100001310021059105497944CDE903101146C3
:100920006846FFF7FBFC0FB000BD0000E5FFFFFFCE
:100930000A6802F8010B0A6070470000004870471F
:100940008401002030B5B0F10A024FEA900E71F137
:1009500000034EEA817EB0EB0E0061EB91014FEA9D
:10096000101E4EEA017E10EB0E0041EB11114FEA12
:10097000102E4EEA016E10EB0E0041EB11214FEAF2
:10098000104E4EEA014E10EB0E0041EB11414018A3
:1009900041F100014FEAD00040EA41704FEAD10135
:1009A00010EB80054FEA810444EA907444EB0104A3
:1009B0006D1944EB0404521BA3414FF0000348BFE0
:1009C0000A3200D530BD401C41F1000130BD0000AD
:1009D0002DE9F0411F46044603260168072A01F469
:1009E000006004DB08B116A505E016A503E008B118
:1009F00015A500E015A521F010002060A069C01E1B
:100A0000A0610FB1401EA0612046FFF723FC4FB14B
:100A1000D4E9012138469047206A401C2062C01C5E
:100A2000206206E0206AFAE7D4E9012115F8010BFB
:100A30009047761EF8D22046FFF722FCBDE8F081F1
:100A40004E414E006E616E00494E4600696E660072
:100A50002DE9F047814616468AB0354878440DC8DE
:100A60008DE80D0032487844801C03AC0DC884E842
:100A70000D0041F69B300844372190FBF1F290FBCA
:100A8000F1F5A5F1800501FB12041B3C02D564427F
:100A9000012000E00020DFF898A080460027FA44FB
:100AA000AAF1BE0A0EE0E0070AD03246684607EB1C
:100AB000470101230AEB810100F046FB8DE80700A6
:100AC00064107F1C002CEED1194F7F44AE3F19E01B
:100AD000E80715D007EB04100DF1180A90E80E0096
:100AE0008AE80E00C068F04201D198190890324699
:100AF000012306A903A800F027FB03AB83E8070046
:100B00006D10641C002DE3D14FF00103324669469D
:100B1000B8F1000F03A802D000F001FB01E000F0E3
:100B200013FBC9E90001C9F808200AB0BDE8F08745
:100B3000D45F000000487047640100207546FFF74D
:100B4000F9FFAE4605006946534620F0070085468A
:100B500018B020B5FFF758FBBDE820404FF0000665
:100B60004FF000074FF000084FF0000B21F0070195
:100B7000AC46ACE8C009ACE8C009ACE8C009ACE8D8
:100B8000C0098D46704710B50446AFF3008020467B
:100B9000BDE81040FFF723BB4FF0013C50F8042B99
:100BA00051F8043B9A4221D1A2EB0C03934313EA80
:100BB000CC1317D150F8042B51F8043B9A4215D1AD
:100BC000A2EB0C03934313EACC130BD150F8042B84
:100BD00051F8043B9A4209D1A2EB0C03934313EA68
:100BE000CC13DBD04FF00000704700BFD01A01BA21
:100BF000B1FA81F101F0180122FA01F0CB40C1F104
:100C00002001DBB2C0B2C01A2CFA01F3D11A914311
:100C100011EAC311E6D1704701491820ABBEFEE7C7
:100C20002600020070475FEA400C08BF91F0000FF9
:100C30004FEA8C234FEAC12243EA51514FEA1C503C
:100C400018BF00F5F0404FEA300018BF41F00041F6
:100C50005FEA6C5C00F02980BCF1FF3F08BF40F008
:100C600080407047130C06BF12044FF0100C4FF079
:100C7000000C130E04BF12020CF1080C130F04BF7A
:100C800012010CF1040C930F04BF92000CF1020C42
:100C9000D30F04BF52000CF1010C11464FF00002BB
:100CA000A0F11F00A0EB0C00704711F0004F08BF2F
:100CB000704731F000413FF4D5AF0B0C06BF09047B
:100CC0004FF0100C4FF0000C0B0E04BF09020CF19A
:100CD000080C0B0F04BF09010CF1040C8B0F04BFAF
:100CE00089000CF1020CCB0F04BF49000CF1010C80
:100CF000CCF12003A0EB0C0022FA03F302FA0CF271
:100D000041EA030100F10100704720F07F4C80EAC6
:100D1000030023F07F47ACEB070303F57C5300F09F
:100D2000004003F1FF032DE980494FEA154B09B458
:100D30004FEA144325EA0B4E24EA03480FF2042637
:100D400006EB132749083E785FEA320203FB066789
:100D5000C7F5000707FB06F64FEA54374FEAD646B9
:100D600006F1020607FB066CCCF1005C4FEA1C475B
:100D70002CEA074C07FB06F40CFB06F504EB1546C2
:100D80004FEA961634BF00204FF000404FEAD137AB
:100D900006FB07FC4FEA1C4C0CFB0BF7D21B03FBBA
:100DA0000CF761EB07010CFB0EF7B0EB074072EBA1
:100DB00017420CFB08F734BFA2EB0742B2EB074225
:100DC00061EB17414FEA0C444FEA910706FB07FC21
:100DD0004FEA1C4C0CFB0BF7B0EBC74072EB5732E1
:100DE00003FB0CF734BFA2EBC742B2EBC74261EB87
:100DF00057310CFB0EF7B0EBC70072EB57720CFBD0
:100E000008F734BFA2EBC702B2EBC70261EB577120
:100E1000039F4FEA816141EA921104EBCC044FEA4F
:100E2000D1374FEA826206FB07FC42EA90124FEA92
:100E300080604FEA1C4C0CFB0BF7D21B03FB0CF73A
:100E400061EB07010CFB0EF7B0EB074072EB1742AA
:100E50000CFB08F734BFA2EB0742B2EB074261EB91
:100E600017414FEA8C554FEA910704EB9C2406FB8F
:100E700007FC4FEA1C4C0CFB0BF7B0EBC74072EBC6
:100E8000573203FB0CF734BFA2EBC742B2EBC742A9
:100E900061EB57310CFB0EF7B0EBC70072EB5772EA
:100EA0000CFB08F734BFA2EBC702B2EBC70261EB41
:100EB000577115EB4C254FEA816141EA92114FEAD7
:100EC00082624FEAD13742EA901206FB07FC44F1F6
:100ED00000044FEA80604FEA1C4C0CFB0BF7D21B5E
:100EE00003FB0CF761EB07010CFB0EF7B0EB0740BF
:100EF00072EB17420CFB08F734BFA2EB0742B2EBD0
:100F0000074261EB174115EB1C154FEA813141EAAD
:100F100092414FEA823242EA90424FEA80304FEAF1
:100F20000C7644F1000448EA03434EEA0B484FF0C4
:100F3000000EB2EB080C71EB030724BF6246394682
:100F40004EEB0E0E4FF0000B0018524149414BEB97
:100F50000B0BB2EB080C71EB03077BF1000B24BF0A
:100F6000624639464EEB0E0E4FF0000B0018524110
:100F700049414BEB0B0BB2EB080C71EB03077BF118
:100F8000000B24BF624639464EEB0E0E51EA0207B3
:100F900018BF46F0010616EB0E7655F1000254F12B
:100FA000000103D5BDE88901BDE80088BDE88901DD
:100FB000BDE80048B619524141EB0101A3F101031C
:100FC000704780807F7E7D7C7B7A797877767675B6
:100FD0007473727171706F6E6E6D6C6C6B6A6A692E
:100FE0006868676666656464636362616160605FC8
:100FF0005F5E5E5D5D5C5C5B5B5A5A595958585741
:1010000057565655555554545353525252515150A8
:1010100050504F4F4F4E4E4D4D4D4C4C4C4B4B4BFB
:101020004A4A4A4949494848484747474746464641
:10103000454545444444444343434342424242417C
:101040004141002B9C4630D477002BD01CB54FEA91
:10105000370703B44FF010004FF01001BAF1000F42
:1010600006D0BCF1000FDCBF40F0080040F00801E2
:101070004FF000000FBCBDE810400BF1010BBBF1BD
:10108000010F08BF5FEA170722BF12F1010211F139
:1010900001014FF0004143F1000300F0004043EA3A
:1010A00000007047F9D35708D0E746EA064613F127
:1010B000400F4FEA16461FDD13F1200FDFBF164326
:1010C0000A46002120335B42BED0C3F1200746EA26
:1010D000064602FA07F74FEA164646EA0706C3F144
:1010E000200722FA03F201FA07F721FA03F14FF081
:1010F000000342EA0702A7E746EA020646EA064676
:101100004FEA164646EA0106BCBF46EA0646360CDA
:101110004FF000034FF000024FF0000194E72DE97B
:10112000804C9A46934670B491E8380007C831EA7B
:10113000400C48BF34EA430C03D5FFF7E6FDFFF748
:1011400080FFF0BCBDE8008C2DE9804C9A469346A8
:1011500070B491E8380007C810F0804F08BF13F052
:10116000804F03D100F005F8FFF76BFFF0BCBDE83E
:10117000008C20F07F4780EA030023F07F4C07EBD0
:101180000C03A3F57C5300F00040A3F1FE0392F0A2
:10119000000F00F0B38095F0000F00F077802DE98C
:1011A00001494FEA11404FEA144621EA004800FB8A
:1011B00006FC24EA064708FB06F607FB08F800FBD6
:1011C00007F718EB06484CEB164C4FEA124B18EB9E
:1011D00007484FEA15464CEB174022EA0B4E0BFB33
:1011E00006FC25EA06470EFB06F607FB0EFE0BFB88
:1011F00007F71EEB064E4CEB164C4FF000061EEBAD
:10120000074E4CEB174B18EB0B0840F1000018EBA6
:101210000E0B58EB000840F100008F1A4FF0000150
:101220003CBFC943661B14BFB5EB040C00213CBF97
:10123000C943F61B4FEA17444EEA8E0E27EA0445CF
:101240004FEA1C4704FB07622CEA074C05FB07F733
:101250000CFB05F604FB0CFC16EB074642EB1742B1
:1012600016EB0C4642EB1C421BEB060658EB020247
:10127000414146EA9E0601D5BDE80189B6195241B1
:1012800041EB0101A3F10103BDE801894FEA1445D7
:101290004FEA114724EA054621EA074C05FB07F40B
:1012A00006FB07F70CFB06F105FB0CFC11EB0741F5
:1012B00044EB17444FEA124711EB0C4144EB1C443A
:1012C00022EA074C05FB07F206FB07F70CFB06F6C4
:1012D00005FB0CFC16EB074642EB174216EB0C46DF
:1012E00042EB1C456A1854F1000148BF7047B6191B
:1012F000524141EB0101A3F10103704795F0000F4A
:1013000037D04FEA11424FEA144721EA024624EA55
:10131000074C02FB07F106FB07F70CFB06F402FB88
:101320000CFC14EB074441EB17414FEA154714EB53
:101330000C4441EB1C4125EA074C02FB07F506FB78
:1013400007F70CFB06F602FB0CFC16EB074645EB19
:10135000174516EB0C4645EB1C42121951F10001E2
:1013600048BF7047B619524141EB0101A3F1010397
:1013700070474FEA14454FEA114724EA054621EA2F
:10138000074C05FB07F106FB07F70CFB06F24FF0D5
:10139000000605FB0CFC12EB074241EB174112EB78
:1013A0000C4251EB1C4148BF7047921841EB0101C0
:1013B000A3F101037047CA43026070470246002050
:1013C00013680B400BB1012000E000207047F0B51E
:1013D00004460D4600200021092D11DDE068A5F12D
:1013E0000A0606EB4607072606FA07F18843A5F129
:1013F0000A0606EB460603FA06F10843E0600CE035
:10140000206905EB4507072606FA07F1884305EB37
:10141000450603FA06F108432061072A0FDA606BDC
:10142000561E06EB86071F2606FA07F18843561E4E
:1014300006EB860605FA06F10843606322E00D2AF2
:101440000FDA206BD61F06EB86071F2606FA07F178
:101450008843D61F06EB860605FA06F1084320638B
:1014600010E0E06AA2F10D0606EB86071F2606FAD9
:1014700007F18843A2F10D0606EB860605FA06F190
:101480000843E062F0BD21B1826842F4A0028260AC
:1014900003E0826822F4A002826070472DE9F047E1
:1014A00004464FF000090723012221461748FFF7A1
:1014B0008EFF01211548FFF7E6FF012000F07CF8C0
:1014C00000BF02211148FFF779FF0028F9D002215F
:1014D0000E48FFF770FF0D494C31086802F018F80C
:1014E00081464FF08B41484601F050FF824601F0A3
:1014F00015FF07464FF06632054B01F01BFD054610
:1015000001F0E6FA81464846BDE8F0870024014034
:1015100066660A4000B50648064908600648486005
:10152000064888600648086200F00CF800BD00001C
:101530002518000828010020151E0008CD220008EB
:10154000BD2000080A4840680A4948600848006809
:1015500008600748C068C860054880688860064819
:101560000068086104484168024841617047000012
:10157000180100204C0100201C00002000BFFEE7E5
:1015800030B50446002006E0462A02D1255C0D5401
:1015900000E00A54401C9842F6DB30BD7047000062
:1015A0000021044A116000BF024909688142FBD34F
:1015B0007047000018000020014607E00022064B9B
:1015C0001A6000BF044A1268642AFBD30A1EA1F104
:1015D0000101F3D170470000180000202DE9F0410F
:1015E000024600250026002000230024002791F851
:1015F00003C00CF00F0591F803C00CF0100CBCF107
:10160000000F03D091F802C04CEA050591F800C024
:10161000BCF1000F31D0146800202BE04FF0010C1A
:101620000CFA00F3B1F800C00CEA03069E4220D188
:1016300083004FF00F0C0CFA03F7BC4305FA03FCD0
:101640004CEA040491F803C0BCF1280F06D14FF016
:10165000010C0CFA00FCC2F814C00AE091F803C0B7
:10166000BCF1480F05D14FF0010C0CFA00FCC2F898
:1016700010C0401C0828D1D31460B1F800C0BCF1E0
:10168000FF0F34DD546800202EE000F1080C4FF00D
:10169000010808FA0CF3B1F800C00CEA03069E42F8
:1016A00021D183004FF00F0C0CFA03F7BC4305FA6D
:1016B00003FC4CEA040491F803C0BCF1280F05D1E7
:1016C00000F1080C08FA0CF8C2F8148091F803C075
:1016D000BCF1480F07D100F1080C4FF0010808FADF
:1016E0000CF8C2F81080401C0828CED35460BDE826
:1016F000F0810000F0B50A460023002400210025F7
:1017000000F00046B6F1004F02D11D4EF16901E034
:101710001B4E7168C0F3034583B200F44016B6F562
:10172000401F08D121F07061154E766826F0706672
:10173000134F7E6012E000F48016B6F5801F06D1CC
:10174000032606FA05F4A14341F0706106E0460D58
:10175000360103FA06F6B14341F0706122B1460D3D
:10176000360103FA06F6314300F00046B6F1004FA9
:1017700002D1034EF16101E0014E7160F0BD000045
:1017800000000140416170470161704700BFFEE702
:1017900070B505464FF400600F4908602846FFF712
:1017A000FFFE4FF480600C4908602846FFF7F8FE02
:1017B00009480838006800F4006008B1012400E01E
:1017C00000244FF480600449091D08602846FFF793
:1017D000E7FE204670BD0000100C014070B50546C4
:1017E0000C4625B94FF400600D49086004E04FF441
:1017F00000600B49091F08602046FFF7D1FE4FF437
:1018000080600749091F08602046FFF7C9FE4FF4B2
:101810008060034908602046FFF7C2FE70BD0000EB
:10182000140C014038B504462146082000F036FA71
:10183000BCB100BF4FF44060ADF8000003208DF84C
:10184000020018208DF8030069460F48FFF7C6FE16
:1018500000BF4FF480600C49103108604000086000
:101860000CE000BF4FF44060ADF8000000208DF8A0
:10187000030069460448FFF7B1FE00BF034804496E
:1018800048600448086038BD000C01409918000801
:1018900018010020D51800082DE9F04107460D4633
:1018A00008260EE02846FFF773FF20B16006040EFD
:1018B00044F0010403E06006040E04F0FE04701E10
:1018C000C6B2002EEED129463846FFF787FF2046E4
:1018D000BDE8F0812DE9F04104460D4608260DE0F3
:1018E00004F0800008B1012700E0002729463846AF
:1018F000FFF774FF6006040E701EC6B2002EEFD113
:101900002846FFF745FF80464046BDE8F0812DE9B7
:10191000F04107460C4615461E462A2000F006F9FF
:10192000384600F0F3F8284600F0F0F82B2000F0DD
:10193000FDF8204600F0EAF8304600F0E7F82C20E9
:1019400000F0F4F8BDE8F08170B504460D46164687
:101950002B46224629462046FFF7D9FF304600F0A5
:10196000D5F870BD2DE9FF5F07468A4690469B4635
:101970000F9D002002900097284605EBD071C1F31F
:1019800047042046E21704EB5272D2102146E317B7
:1019900004EB5373DB10A4EBC3030BB1012300E092
:1019A00000231A446A4392B20192A8F1200000F089
:1019B000FF080AEB0500401E83B23819401E82B2B0
:1019C00051463846FFF7A3FF00265BE0102D05D1F6
:1019D0002F4800EB0810805D039013E0182D07D10D
:1019E00008EB48002B4901EB0010805D039009E0F3
:1019F000202D05D1284800EB8810805D039001E080
:101A0000BDE8FF9F4FF0000936E01098C8B90120EB
:101A100000FA09F00399084018B1584600F076F82A
:101A200002E00E9800F072F80298401CC0B20290DA
:101A3000029890FBF4F104FB1100C8B90020029059
:101A40001DE0012000FA09F00399084020B15A4630
:101A500051463846FFF778FF781C87B20098381A4D
:101A6000A04205D1009F0AF101001FFA80FA06E0AA
:101A700009F1010000F0FF09B9F1080FC5DB00BF53
:101A8000701C86B201988642A0DB00BFB8E7000058
:101A90003A3600082A3C0008FA4D00082DE9FE43BA
:101AA00005460F4616469846DDE90A94102C03D0E9
:101AB000182C01D0202C0FD1204604EBD0714910F6
:101AC00069438DB207FB04F087B2F02D00DDF025ED
:101AD000F02F03DDF02701E0BDE8FE8310E00020D9
:101AE000CDE9009402903278434639462846FFF704
:101AF00039FF204604EBD07105EB61018DB2761CF5
:101B000030780028EBD100BFE6E7000010B50446AE
:101B10004FF480610448FFF737FE201200F014F8FC
:101B2000E0B200F011F810BD0008014010B5044605
:101B30004FF480610348FFF725FE204600F004F8CB
:101B400010BD00000008014070B504464FF48051FC
:101B50001448FFF717FE00251BE04FF40051114811
:101B6000FFF710FE04F0800028B14FF400410D484B
:101B7000FFF70AFE04E04FF400410A48FFF702FEB7
:101B80004FF400510748FFF7FFFD6006040E681C84
:101B9000C5B2082DE1DB4FF480510248FFF7F4FD98
:101BA00070BD0000000C014000BFFEE710B5FFF75C
:101BB000B1FC054801680120884704480C210268EF
:101BC0006120904710BD0000280100204C0100203A
:101BD0007047000070B5002100230F22C47804B3C1
:101BE000154C246804F4E064C4F5E064210AC1F1F2
:101BF0000403CA40447804FA03F184781440214372
:101C000009010E4C0678A155047804F01F05012443
:101C1000AC4005786D11AD0005F1E025C5F8004137
:101C200009E0047804F01F050124AC40044D067857
:101C3000761145F8264070BD0CED00E000E400E0B0
:101C400080E100E002490143024A11607047000050
:101C50000000FA050CED00E07047000029B1064ACB
:101C6000D2690243044BDA6104E0034AD269824339
:101C7000014BDA61704700000010024029B1064AAA
:101C800012690243044B1A6104E0034A1269824359
:101C9000014B1A61704700000010024029B1064A4A
:101CA00092690243044B9A6104E0034A92698243B9
:101CB000014B9A61704700000010024029B1064AAA
:101CC000D2680243044BDA6004E0034AD2688243DC
:101CD000014BDA60704700000010024030B500216F
:101CE0000022002400232D4D6D6805F00C0121B168
:101CF000042905D0082923D105E0294D056022E0FB
:101D0000274D05601FE0254D6D6805F47012234DC9
:101D10006D6805F48034022505EB92421CB9214D13
:101D2000554305600BE01D4D6D6805F400351DB190
:101D30001C4D5543056002E0194D5543056002E016
:101D4000174D056000BF00BF144D6D6805F0F00130
:101D50000909154D6B5C0568DD4045600F4D6D68E8
:101D600005F4E061090A104D6B5C4568DD40856053
:101D70000A4D6D6805F46051C90A0B4D6B5C4568EE
:101D8000DD40C560054D6D6805F44041890B074D88
:101D90006B5CC568B5FBF3F5056130BD0010024012
:101DA00000127A0000093D003800002048000020A1
:101DB0002DE9FC471020FFF771FB8246504601F0E9
:101DC000ADFA06460E4A0F4B01F0B2F904460E4A30
:101DD0000E4B00F057FF804600220D4B00F0AAFE8C
:101DE000CDE9000100F074FE82460021504601F06A
:101DF000A3FB01D28AF0004A5046BDE8FC870000F0
:101E0000E17A14AE47E1F63F85EB51B81E85DB3F22
:101E10000000394038B5044601210846FFF73EFF6F
:101E200001211F48FFF766FC21460820FFF736FF17
:101E300024B300BF4FF43040ADF8000003208DF80C
:101E4000020010208DF8030069461648FFF7C6FB14
:101E50004FF48040ADF8000048208DF8030069463B
:101E60001048FFF7BBFB00BF4FF400400D49103195
:101E7000086080100860401008600CE000BF4FF45C
:101E80007040ADF8000000208DF803006946054859
:101E9000FFF7A4FB00BF04480449086038BD0000F8
:101EA00000023000000C0140B11E00081C000020A0
:101EB0002DE9F04107468846002580263002234957
:101EC0000860801008604010091D08604046FFF758
:101ED00067FB00242CE04FF400501C49091D0860EA
:101EE00007FA04F03040B04204D14FF40040091F1B
:101EF000086004E04FF400401449091D08604046A2
:101F0000FFF74EFB4FF40050104908600F480838A7
:101F1000006800F4804018B146FA04F0054302E07E
:101F20000020204105434046FFF73AFB601CC4B245
:101F3000082CD0DB4FF40040044908608010086092
:101F4000401008602846BDE8F0810000100C0140F8
:101F5000704710B500F002F810BD00000CB500206D
:101F6000019000903348006840F4803031490860A7
:101F700000BF3048006800F4003000900198401C19
:101F80000190009818B90198B0F57F4FF1D1294818
:101F9000006800F4003010B10120009001E0002042
:101FA00000900098012843D12348006840F01000B9
:101FB000214908600846006820F0030008600846D0
:101FC000006840F0020008601A48406819494860FB
:101FD0000846406848600846406840F480604860B1
:101FE0000846406820F47C1048600846406840F489
:101FF000E81048600846006840F08070086000BF44
:102000000C48006800F000700028F9D009484068CA
:1020100020F00300074948600846406840F002008D
:10202000486000BF0348406800F00C000828F9D160
:102030000CBD0000001002400020024000B5044822
:102040000068401C0249086000F004F800BD000070
:102050001800002017488068401C16498860084610
:1020600080681549884224D90120124988600846B1
:102070004068401C486008468078401C88700846CC
:1020800080783B2815DD0020887008464078401C89
:102090004870084640783B280BDD00204870084611
:1020A0000078401C087008460078172801DD0020E1
:1020B000087070470C000020A086010070B5034630
:1020C00053B31E4800681E4AB0FBF2F1B1F1807FA5
:1020D00001D301201DE021F07F40401E4FF0E0229F
:1020E000506150170F22002807DA1407260E154CEE
:1020F00000F00F052D1F665503E01407250E124C46
:10210000255400BF00204FF0E022906107201061AD
:10211000002090B100BFFEE700BF0A480C380068FD
:1021200000F4E06009490843001D06490C390860C5
:10213000BFF34F8F00BF00BFFEE770BD240000203B
:10214000A086010018ED00E000E400E00000FA05C0
:1021500010B51348006840F00100114908600846B6
:102160004068104908400E494860084600680E491A
:1021700008400B4908600846006820F48020086089
:102180000846406820F4FE0048604FF41F00886055
:10219000FFF7DFFE4FF000600449086010BD00004B
:1021A000001002400000FFF8FFFFF6FE08ED00E01F
:1021B0004FF08040008A4FF08040008A20F00100FC
:1021C0004FF0804108827047044800880348008827
:1021D00020F0010001490880704700001004004011
:1021E000044800880348008820F001000149088065
:1021F0007047000010080040044800880348008829
:1022000020F001000149088070470000100C0040D8
:1022100010B540F22551144800F00AFB18B340F203
:102220002551114800F0A0FA104890F89400D0B958
:102230000D4800F0B9FBC4B20C4890F89A1090F821
:102240009A00401CC2B2094880F89A206030445479
:102250000A2C01D07D2C06D10121044880F894106D
:10226000002180F89A1010BD004C00407A00002038
:1022700010B540F22551134800F0DAFA08B340F2E5
:102280002551104800F070FA0F4890F89500C0B939
:102290000C4800F089FBC4B20B4890F89B1090F8F2
:1022A0009B00401CC2B2084880F89B207830445400
:1022B0007D2C06D10121783880F89510002180F816
:1022C0009B1010BD005000407A00002070B586B011
:1022D00004460D4616464FF4A060FFF7B3FC0121FB
:1022E0000846FFF7DBFC012C4FD101210820FFF746
:1022F000D5FC3146A003FFF7D1FC01210420FFF7F4
:10230000F9F9C54800F046FA4020ADF81400032062
:102310008DF8160018208DF8170005A9BF48FFF7A3
:102320005DF98020ADF8140048208DF8170005A94C
:10233000BA48FFF753F901950020ADF810000C20C2
:10234000ADF80E000020ADF80C00ADF80A00ADF8B5
:10235000080001A9B04800F0BBFA012240F2255163
:10236000AD4800F08FFA3146AB4800F006FA252060
:102370008DF8000001208DF801008DF802008DF825
:1023800003006846FFF726FC44E1022C4CD10121F2
:102390000420FFF783FC31462004FFF75FFC042094
:1023A000ADF8140018208DF8170003208DF81600E2
:1023B00005A99B48FFF712F90820ADF81400042086
:1023C0008DF8170005A99648FFF708F90195002038
:1023D000ADF80800ADF80A00ADF80C00ADF810003B
:1023E0000C20ADF80E0001A98E4800F071FA4FF4F0
:1023F000A060FFF727FC26208DF8000000208DF854
:1024000001008DF8020001208DF803006846FFF7F7
:10241000E1FB012240F22551824800F033FA3146B7
:10242000804800F0AAF9F5E0032C54D101211020D6
:10243000FFF734FC31464FF48020FFF70FFC0121F9
:102440007948FFF757F94FF48060ADF81400182071
:102450008DF8170003208DF8160005A97348FFF7C3
:10246000BDF84FF40060ADF8140004208DF817009B
:1024700005A96E48FFF7B2F801950020ADF80800F5
:10248000ADF80A00ADF80C00ADF810000C20ADF866
:102490000E0001A9664800F01BFA4FF4A060FFF798
:1024A000D1FB27208DF8000001208DF801000220CB
:1024B0008DF8020001208DF803006846FFF78AFBC3
:1024C000012240F225515A4800F0DCF931465848C3
:1024D00000F053F99EE0042C4FD101211020FFF7AA
:1024E000DDFB31466004FFF7B9FB2002ADF81400B4
:1024F00018208DF8170003208DF8160005A94B4809
:10250000FFF76CF86002ADF8140004208DF8170096
:1025100005A94648FFF762F84FF4165001900020D5
:10252000ADF80800ADF80A00ADF80C00ADF81000E9
:102530000C20ADF80E0001A93E4800F0C9F94FF497
:10254000A060FFF77FFB34208DF8000001208DF89C
:10255000010003208DF8020001208DF80300684679
:10256000FFF738FB012240F22551324800F08AF98A
:102570003146304800F001F94CE0052C4AD10121E8
:102580003020FFF78BFB31464FF48010FFF766FBDE
:102590004FF48050ADF8140018208DF81700032078
:1025A0008DF8160005A92148FFF718F80420ADF8AA
:1025B00014008DF8170005A91F48FFF70FF80195C3
:1025C0000020ADF810000C20ADF80E000020ADF892
:1025D0000C00ADF80A00ADF8080001A9174800F09A
:1025E00077F935208DF8000001208DF801000220D8
:1025F0008DF8020001208DF803006846FFF7EAFA23
:10260000012240F225510D4800F03CF931460B48BB
:1026100000F0B3F806B070BD00380140000C014076
:102620000008014000440040100014000010014068
:1026300000480040004C00400014014000500040A1
:1026400010B540F22551154800F0F2F8012823D1C9
:1026500040F22551114800F087F8114890F8910098
:10266000D0B90E4800F0A0F9C4B20D4890F8971008
:1026700090F89700401CC2B2094880F897201830A3
:1026800044540A2C01D07D2C06D10121044880F845
:102690009110002180F8971010BD00000038014013
:1026A0007A00002010B540F22551144800F0C0F81F
:1026B00018B340F22551114800F056F8104890F830
:1026C0009200D0B90D4800F06FF9C4B20C4890F8F0
:1026D000981090F89800401CC2B2094880F89820E1
:1026E000303044540A2C01D07D2C06D101210448FD
:1026F00080F89210002180F8981010BD004400402E
:102700007A00002010B540F22551154800F090F8ED
:10271000012823D140F22551114800F025F8114835
:1027200090F89300D0B90E4800F03EF9C4B20D48BD
:1027300090F8991090F89900401CC2B2094880F8AE
:102740009920483044540A2C01D07D2C06D1012117
:10275000044880F89310002180F8991010BD000003
:10276000004800407A00002001F40072B2F5007FBA
:1027700000D100BFCA430280704721B1828942F470
:102780000052828104E082894DF6FF731A408281F3
:102790007047000010B504462048844209D1012149
:1027A0008803FFF78BFA00214FF48040FFF786FA89
:1027B00032E01B48844209D101214804FFF75EFA48
:1027C00000214FF40030FFF759FA25E01548844204
:1027D00009D101218804FFF751FA00214FF480202C
:1027E000FFF74CFA18E01048844209D10121C804CF
:1027F000FFF744FA00214FF40020FFF73FFA0BE007
:102800000A48844208D101210805FFF737FA002160
:102810004FF48010FFF732FA10BD0000003801407D
:102820000044004000480040004C00400050004080
:1028300070B50246002400230025002040F66A16E9
:10284000B14200D100BFC1F3421501F01F030126C0
:1028500006FA03F3012D02D19689334006E0022DDA
:1028600002D1168A334001E0968A33400C120126C9
:1028700006FA04F41688344013B10CB1012000E0CC
:10288000002070BDF0B5034600240026002500207E
:1028900040F66A17B94200D100BF1846C1F342148E
:1028A00001F01F06012707FA06F5012C01D10C30B3
:1028B00004E0022C01D1103000E014301AB1076896
:1028C0002F43076002E00768AF430760F0BD0000D8
:1028D0002DE9F04786B005460E460024A24600BF0B
:1028E000A1460027B08900B100BF2F462C8A4CF6C4
:1028F000FF700440F08804432C82AC894EF6F3103C
:102900000440B08831890843718908430443AC818D
:10291000AC8A4FF6FF400440B0890443AC8201A862
:10292000FFF7DCF91F48874202D1DDF810A001E073
:10293000DDF80CA0A88900F4004040B10AEBCA0001
:1029400000EB0A1031684900B0FBF1F807E00AEB30
:10295000CA0000EB0A1031688900B0FBF1F864206E
:10296000B8FBF0F004012009642101FB1089A8895B
:1029700000F4004040B1322000EBC900B0FBF1F0A0
:1029800000F00700044308E0322000EB0910642146
:10299000B0FBF1F000F00F0004432C8106B0BDE85D
:1029A000F08700000038014001468888C0F3080025
:1029B000704700BFFEE7490050EAC12018BF04205D
:1029C0004A0D18BF40F0010040F2FF72B2EB515FB8
:1029D00008BF40F00200012808BF052070473038CA
:1029E0000A2801D201207047002070471CB5FFF76C
:1029F000DDF839E0FFF7DCF91C490860084600689B
:102A000000F08CFC044622460B4619A11C48FDF739
:102A10000DFC102000214FF6FF73194ACDE900107C
:102A200002210846FFF73AF810230022144915A0A6
:102A3000FEF7A6FD1448807800901348437802788A
:102A400012A11748FDF7F2FB102000211F23144AA2
:102A5000CDE900100E210820FFF720F81E230022E8
:102A60000F4908A0FEF78CFDC4E700000800002015
:102A70004D43553A20252E326620432000000000A9
:102A80004C000020313233000C00002054696D6589
:102A90003A202532643A2532643A253264202000F7
:102AA0005C00002010B500290AD00878002807D063
:102AB00005487844FEF770F8002801D0002010BDCA
:102AC0000248784410BD0000BA3F0000B23F000049
:102AD00021F00042A2F16052B2F5801F01F00043E4
:102AE00028BFD2F17F6C0BD95FEA001C43EAC20217
:102AF00042EB507018BF704728BF20F001007047AC
:102B0000B2F5801FBCBF184670474FEA410C1CF558
:102B1000001F02D2084600F089BD70B500F0B4FA7B
:102B200000000089FFF7F6BF4FF00040A0F58000DD
:102B30007047000010B591EA030F48BF83F00043CF
:102B400000F10A83841A71EB030C05D2121943EBCE
:102B50000C03001B61EB0C01DFF824E14FEA115478
:102B6000A4EB135C1EEA430F18BF9EEA445F73D0C8
:102B700023EA0E03DCF1200E21EA045143F4801312
:102B800032D322FA0CFE10EB0E0023FA0CFE41EBBE
:102B90000E01CCF1200E03FA0EFE10EB0E0051F1E7
:102BA0000001B1F5801FCCF1200E32D201EB0451AF
:102BB00012FA0EF2BDE8104058BF7047401C38BFF3
:102BC0005FEA420218BF7047002814BF20F00100DE
:102BD00041F100014FEA410313F5001F38BF704770
:102BE000A1F1C04100F09EBA012A43EB0302ACF10F
:102BF000200CDCF11F0E32BF4FF0000E23FA0CF355
:102C000010EB030041EB0451B4EB115FD0D0A1EB0A
:102C1000045101F5801149085FEA300001EB0451CD
:102C20000ED350F1000038BF12FA0EFE08D1BDE8F5
:102C30001040C9E7401C38BF5FEA4202CAD1C3E76F
:102C4000BDE810404FEA410313F5001F38BF70473D
:102C5000A1F1C04100F066BA9EEA445F08D011EAD3
:102C60005E0FBDE8104004BF01F000410020704736
:102C7000BDE8104070B500F007FA00BF64FBBE3E2F
:102C80000000E0FF2DE9C04130B4DFF8A0C23CEA0B
:102C9000111418BF3CEA131400F0EC8081EA03051C
:102CA0001CEA111444EAD57418BF1CEA131500F08D
:102CB000C780A4EB05044FF0004545EAC12145EA71
:102CC000C32341EA505143EA525304F17F749942BD
:102CD00004F500344FEAC0204FEAC22208BF9042F8
:102CE00000F09C804FEA13650FF24016765D4FEAC4
:102CF000134506FB05F7C7F1807706FB07F74FEA98
:102D0000D737A7FB03687642C8F58038A7FB06CE05
:102D100038BFA8F1010807FB08E64FF0000EA6FB3C
:102D2000028CE6FB03CEDCF1000CCEF1004E38BF86
:102D3000AEF1010EA6FB0C584FF000074FF0000556
:102D4000E6FB0E87A1FB08C6A0FB07CE16EB0E061E
:102D500045F10005E1FB076515F1E04E7EBFA4F5E6
:102D600080345FEA46066D4116F1800745F10005A3
:102D70004FEA17274FEA066647EA0567A6F1DE46DF
:102D8000B6F1805F4FEA15251FD9384624F0010CB3
:102D900005EBC471BCF1FE6F01EB0C1102D8F0BC65
:102DA000BDE8008124425CBF01F5801E9EEAC47F1D
:102DB00002D4F0BCBDE80081244238D4F0BCA1F1BB
:102DC000C041BDE8004100F0ADB94FEAD22242EA6D
:102DD00043524FEAD323A7FB02864FEAD02040EAB2
:102DE000415007FB03661EEA0E0F4FEAD12105FB97
:102DF000026658BFA6EB0056B6EB00564FEA520EDD
:102E00004EEAC37E18EB0E0E56EB530EBDD518EBF3
:102E100002085E417F1C55F10005B6E74FF48015AE
:102E20004FF000074FF000064FF00008ADE7F0BC90
:102E30004FF0000001F1C04101F00041BDE8008108
:102E400011EA0C1F0CEA131500D00CE013EA0C1F5A
:102E500000F025804FF00000F0BC81EA030101F092
:102E60000041BDE80081F0BCBDE8004181EA0301FA
:102E700000F058B9F0BCBDE8004170B500F004F9AD
:102E8000097EFC3E00F007B881EA03014FF0000024
:102E900001F00041704781EA030100F043B9F0BC42
:102EA000BDE800414FF0000021497047FFFDFBF9EC
:102EB000F7F5F4F2F0EEEDEBE9E8E6E4E3E1E0DE6D
:102EC000DDDBDAD8D7D5D4D3D1D0CFCDCCCBCAC8DF
:102ED000C7C6C5C4C2C1C0BFBEBDBCBBBAB9B8B706
:102EE000B6B5B4B3B2B1B0AFAEADACABAAA9A8A8F9
:102EF000A7A6A5A4A3A3A2A1A09F9F9E9D9C9C9BC7
:102F00009A99999897979695959493939291919071
:102F10008F8F8E8E8D8C8C8B8B8A89898888878702
:102F20008685858484838382828181800000FF0777
:102F30000000F87FDFF848C170B51CEA111E1EBF03
:102F40001CEA13159EEA0C0F95EA0C0F00F06F8037
:102F500081EA030423EA4C134EEAD47E21EA4C11A1
:102F600041F4801143F48013AE44A1FB024CA0FB5A
:102F70000365AEF17F7E361955EB0C05A1FB034CC2
:102F80004CF10003A0FB021C16EB0C06654153F14B
:102F90000003094218BF46F0010613F4007F0BD16D
:102FA0004FEA03314FEA0530340341EA155140EA54
:102FB00016506FF003020AE04FEAC3214FEAC52022
:102FC000F40241EA555140EA56506FF0020202EB1A
:102FD0002E4201EB025585EACE710AD05FEA440C1D
:102FE00018BF24F0004450F1000041F1000120EA34
:102FF000D47040F2FE7C624500D270BDA84214BF7E
:103000004FF080444FF04044002E08BF0024BEF132
:10301000806FA8BFA1F1C041BDE8704080F28280FE
:103020004FF0000001F1C04101F0004170479EEAFD
:103030000C0F0CEA131518BF95EA0C0F06D04FF0D1
:10304000000081EA030E0EF0004170BD00F01CF894
:103050008900013E00F007B800F009B84FEA430CC0
:103060005FEA5C5C08D081EA030100F05BB84FEADC
:10307000410C5FEA5C5CF6D14FF0000001497047FB
:103080000000FF070000F87F0EF1020E2EF0030E85
:103090005EF8046B364205D4012A43EB030515F5AF
:1030A000001F12D8012841EB010C1CF5001F0CD8A1
:1030B0000ED14FEAD17C15F5001F0CEB4C0C0CF136
:1030C000020C08BF4CEBD37C04E04FF0080C01E08D
:1030D0004FEAD37C0CEB4C0526FA05F606F0070602
:1030E000B6F1040C06D20EEB860CBDE870404CF035
:1030F000010C6047DFE80CF0090B02024FF00041C1
:103100004FF00000A1F5002170BD194610460128BE
:1031100051EB010418BFD4F5001484BF002001F066
:10312000004170BD0808A0F500114FEA3101704759
:1031300091EA030F10B581F000413FF503AD83F034
:10314000004300F009B8000010B591EA030F48BF32
:1031500083F000433FF5F6AC841A71EB030C07D201
:1031600012198CF0004C43EB0C03001B61EB0C01BB
:10317000DFF8A4E14FEA1154A4EB135C1EEA430FFD
:1031800018BF9EEA445F00F0B08023EA6E0352420B
:1031900021EA0451C3EB6E0338BF5B1EDCF1200E45
:1031A00025D322FA0CFE10EB0E0043FA0CFE41EB85
:1031B0000E01CCF1200E03FA0EFE10EB0E0051F1C1
:1031C0000001CCF1200E29D412FA0EF201EB0451C9
:1031D000BDE8104058BF7047401C1CBFB2F1004F03
:1031E000704700280CBF491C20F00100704712EB0B
:1031F000020E43EB030218BF4FF0010E4EEA4202EB
:10320000ACF1200CDCF11E0E54D943FA0CFE10EB8D
:103210000E0051F1FF31CCF11E0ED5D50EF1010E8D
:1032200012FA0EFE404141EB010101EB445C5FEA02
:103230005C5C10D910EBDE7001EB045138BFBEF1BD
:10324000004FBDE8104018BF704700280CBF491C54
:1032500020F00100704730D24FEAD42C11F5001154
:1032600024F400641BD0B1FA81F20B3AA41AA41E14
:10327000D2F12003914030FA03F31943904001EB5F
:10328000CC71002C01EB0451BDE81040A8BF704781
:1032900001F1C0414FF0000001F000417047B0FA69
:1032A00080F310FA03F100D110BDE41A173C480571
:1032B000C90AE4E701EB045110BD491001EB0451C8
:1032C000BDE810404FEA300002E04FF000017047C7
:1032D0004A0008BF0042F8D0B2F5001F28BF70476F
:1032E00001F000414FF0000070479EEA445F07D0B4
:1032F00011EA5E0FBDE8104004BF002100207047B6
:10330000BDE8104070B5FFF7BFFE00BF40DFF63EDE
:1033100083F00041104670470000E0FF43004FEA91
:10332000D30C4FEA3C0C43401FBF40070CF16051E7
:1033300013F0FE4F70471CF0006F03D100200CF01B
:10334000004170470CF0004343EA507010B540EA6A
:10335000CC0000F025F900BF000000924FEA000108
:10336000FFF7E0BE4FF000414FF00000A1F5002153
:103370007047401058BFC0F14040491058BFC1F1DC
:1033800040418142EFF30080704700004FF47F0C12
:103390001CEAD0121EBF1CEAD11392EA0C0F93EA6A
:1033A0000C0F00F0858090EA010F48BF42F4807254
:1033B00040F4000C41F400002CF07F4120F07F40ED
:1033C00000B58142A2EB03020FF2081CACEB504E99
:1033D000C0F100009EF800E04FEA4E0E00FB0EFC2C
:1033E00038BF49004FEA2C1C02F5FA020CFB0EF321
:1033F0004FEACE1E4FEA112C4FEAC1210EEB635E5D
:1034000042EB22420EFB0CFC4FEA1C5300FB031163
:103410004FEA112C4FEA01310EFB0CFC4FEADC4C59
:1034200000FB0C11C14228BF09184CEB03335DF8B7
:1034300004EB10EB410143EBC250B2F57C0F38BFF7
:10344000704729D512F0F00F1CBF00F1C04000F00A
:1034500000407047008182838485868788898B8CB1
:103460008D8E8F919293959697999A9C9D9FA0A2ED
:10347000A3A5A7A8AAACAEB0B2B3B5B7B9BCBEC03D
:10348000C2C5C7C9CCCED1D4D7D9DCDFE2E6E9ECDE
:10349000F0F3F7FAFE0000004FEA400C0CF1807CDC
:1034A000BCF17E4F28BF7047B0F1C04000F0BEB8FD
:1034B00090EA010F0CEAD11348BF42F480726245D2
:1034C00038BF634507D213F47F0F16D080EA01009E
:1034D00000F00040704710B500F062F8097EFC3E35
:1034E00000F005B880EA010000F00040704780EA73
:1034F000010000F0004000F099B812F47F0F04BF03
:103500000248704780EA010000F090B80000C07FD8
:10351000B0FA80F310FA03F2C3F19D030AD0D90583
:1035200001EB1220530638BF704700F1010008BFBD
:1035300020F001007047000050EA010C00F11380F8
:103540001CF5000F58BFBCF5000F01D4884270472E
:1035500007D710F5000F58BF11F5000F15D488429A
:103560007047894270471CF5000F04D5BCF5000F69
:10357000F7D5814270474FF0807C1CEB400F38BF7D
:103580001CEB410F01D28142704710B500F008F8E2
:10359000922449004FF000504FF08051FFF7E9BEF0
:1035A0000EF1020E2EF0030E5EF8044B244204D4FA
:1035B0004FEA4102B2F17F4F11D84FEA4003B3F115
:1035C0007F4F0CD80ED14FEAD07CB2F17F4F0CEB7D
:1035D0004C0C0CF1020C08BF4CEBD17C04E04FF01A
:1035E000080C01E04FEAD17C0CEB4C0324FA03F405
:1035F00004F00704B4F1040C06D20EEB840CBDE811
:1036000010404CF0010C6047DFE80CF007080202A4
:103610004FF00040A0F5800010BD0846420018BFE2
:10362000D2F1807288BF00F0004010BDFF2141EA56
:10363000D050C0057047FDF72DB800000000000015
:103640000000000000000000000000000008080862
:103650000808080800001818000000486C24120030
:1036600000000000000000000000000000242424EE
:103670007F1212127F12121200000000081C2A2A68
:103680000A0C1828282A2A1C0808000000222515E0
:1036900015152A585454542200000000000C121230
:1036A000120A76252911916E000000060604030017
:1036B0000000000000000000000000402010100882
:1036C000080808080810102040000002040808102C
:1036D0001010101010080804020000000000080874
:1036E0006B1C1C6B080800000000000000000808AC
:1036F00008087F080808080000000000000000001B
:1037000000000000000006060403000000000000A6
:103710000000FE00000000000000000000000000AB
:10372000000000000000060600000000804040206D
:1037300020101008080404020200000000182442AF
:1037400042424242424224180000000000080E0893
:10375000080808080808083E00000000003C424233
:10376000422020100804427E00000000003C42423B
:10377000201820404042221C000000000020302879
:10378000242422227E20207800000000007E0202F5
:10379000021A26404042221C000000000038240289
:1037A000021A26424242241800000000007E222213
:1037B000101008080808080800000000003C4242F9
:1037C000422418244242423C0000000000182442D7
:1037D000424264584040241C0000000000000000E9
:1037E0001818000000001818000000000000000079
:1037F000000800000000000808040000004020103D
:10380000080402040810204000000000000000002E
:103810007F0000007F00000000000000000204089C
:10382000102040201008040200000000003C42422A
:10383000464020101000181800000000001C225AFA
:10384000555555552D42221C00000000000808184F
:103850001414243C224242E700000000001F2222F0
:10386000221E22424242221F00000000007C4242EF
:10387000010101010142221C00000000001F224240
:10388000424242424242221F00000000003F4212D8
:10389000121E12120242423F00000000003F42127C
:1038A000121E12120202020700000000003C222237
:1038B000010101712122221C0000000000E74242A8
:1038C00042427E42424242E700000000003E0808B9
:1038D000080808080808083E00000000007C1010D6
:1038E0001010101010101010110F0000007722128D
:1038F0000A0E0A12122222770000000000070202BC
:10390000020202020202427F000000000077363607
:1039100036362A2A2A2A2A6B0000000000E346468F
:103920004A4A52525262624700000000001C224183
:10393000414141414141221C00000000003F424200
:1039400042423E020202020700000000001C224127
:10395000414141414D53321C60000000003F424252
:10396000423E1212222242C700000000007C424266
:10397000020418204042423E00000000007F490837
:10398000080808080808081C0000000000E7424278
:10399000424242424242423C0000000000E74242B2
:1039A000222424141418080800000000006B494960
:1039B00049495555362222220000000000E74224E2
:1039C00024181818242442E700000000007722225F
:1039D000141408080808081C00000000007E2120BC
:1039E000101008040442423F00000078080808084C
:1039F0000808080808080808780000000202040403
:103A000008080810102020204040001E1010101040
:103A100010101010101010101E000038440000008C
:103A20000000000000000000000000000000000096
:103A3000000000000000000000FF00060800000079
:103A40000000000000000000000000000000000076
:103A5000003C4278444242FC0000000000030202A5
:103A6000021A26424242261A00000000000000000E
:103A70000038440202024438000000000060404068
:103A800040784442424264D8000000000000000038
:103A9000003C427E0202423C0000000000F0880828
:103AA000087E08080808083E00000000000000002A
:103AB000007C22221C023C42423C00000003020225
:103AC000023A4642424242E700000000000C0C006D
:103AD000000E08080808083E000000000030300012
:103AE0000038202020202020221E00000003020297
:103AF0000272120A1612227700000000000E080857
:103B0000080808080808083E00000000000000003F
:103B1000007F9292929292B7000000000000000095
:103B2000003B4642424242E7000000000000000025
:103B3000003C42424242423C0000000000000000C3
:103B4000001B26424242221E020700000000000025
:103B5000007844424242447840E000000000000007
:103B600000774C040404041F000000000000000063
:103B7000007C42023C40423E000000000000000881
:103B8000083E080808080830000000000000000097
:103B900000634242424262DC00000000000000007C
:103BA00000E7422424140808000000000000000080
:103BB00000EB49495555222200000000000000009A
:103BC000007624181818246E000000000000000081
:103BD00000E7422424141808080700000000000031
:103BE000007E22100808447E000000C02020202013
:103BF0002010202020202020C000101010101010B5
:103C000010101010101010101010000608080808EE
:103C1000081008080808080806000C32C200000056
:103C20000000000000000000000000000000000094
:103C30000000000000000000000000000000000084
:103C40000000000000000000000000000000000074
:103C50000000000000000000000000000000000064
:103C600000006000600060006000600060006000B4
:103C70004000200020002000000000000000600044
:103C8000600060000000000000000000000060060E
:103C90006006300398018800440000000000000026
:103CA0000000000000000000000000000000000014
:103CB0000000000000000000000000000000000004
:103CC00000001002100210021002FE07FE07080298
:103CD0000801080108010801FE07FE0704010401AC
:103CE00004010401000000000000000000000000CA
:103CF00040004000F00158034C03CC034C00580036
:103D00007000E000C001C00140034C035C034C03A1
:103D10004801F000400040000000000000000000EA
:103D200000000E010A019100910091005100510024
:103D30003A00AE03A002500450044804480448046A
:103D40008402840300000000000000000000000066
:103D5000000038006C006C006C006C006C002C00E3
:103D600098071C011A01330133016301E300C30802
:103D7000C6093C07000000000000000000000C0025
:103D80001C001000100008000400000000000000EB
:103D90000000000000000000000000000000000023
:103DA000000000000000000000000000000000040F
:103DB0000002000180008000400040002000200040
:103DC0002000200020002000200040004000800053
:103DD000800000010002000400000000000002005A
:103DE00004000800100010002000200040004000E7
:103DF0004000400040004000400020002000100033
:103E00001000080004000200000000000000000094
:103E10000000000000004000C0004000460C4E0FB3
:103E2000D001F0015E0F460C400040004000000051
:103E30000000000000000000000000000000000082
:103E40000000000000000000400040004000400072
:103E50004000FE0F400040004000400040000000D5
:103E60000000000000000000000000000000000052
:103E70000000000000000000000000000000000042
:103E800000000000000000000000000000000C0026
:103E90001C001000100008000400000000000000DA
:103EA0000000000000000000000000000000000012
:103EB0000000FE07000000000000000000000000FD
:103EC00000000000000000000000000000000000F2
:103ED00000000000000000000000000000000000E2
:103EE00000000000000000000000000000001C00B6
:103EF0001C001C0000000000000000000000000486
:103F00000006000200030001000180008000400064
:103F10004000600020002000100010000800080091
:103F20000C00040006000200000000000000000079
:103F300000000000F00098010C030C0306060606C2
:103F40000606060606060606060606060C030C030B
:103F50009801F000000000000000000000000000D8
:103F60000000000040007C00600060006000600015
:103F70006000600060006000600060006000600041
:103F80006000FC03000000000000000000000000D2
:103F900000000000F800840102030603060300038A
:103FA00000018001C000600020001000080204022F
:103FB0000602FE03000000000000000000000000F8
:103FC000000000007800C6008601860180018001A3
:103FD000C000700080010001000300030603060317
:103FE0008601F80000000000000000000000000052
:103FF0000000000080018001C001A001A00190012B
:104000008801880184018201FE0F80018001800106
:104010008001E00700000000000000000000000038
:1040200000000000FC03040004000400040004007D
:10403000F4008C010403000300030603060382015D
:104040008401F800000000000000000000000000F3
:1040500000000000E00118030C030C00040006003F
:10406000E60116030E0606060606060604060C0200
:104070001803F00000000000000000000000000035
:1040800000000000F8070C06040204010001000112
:104090008000800040004000400060006000600040
:1040A0006000600000000000000000000000000050
:1040B00000000000F8010C030606060606060C02C6
:1040C0001C03F000C8010C030606060606060606D9
:1040D0000C03F001000000000000000000000000E0
:1040E00000000000F0000C010C03060206060606A4
:1040F000060606078C0678060006000300030C017E
:104100008C017800000000000000000000000000AA
:104110000000000000000000000000000000E000BF
:10412000E000E00000000000000000000000E000EF
:10413000E000E000000000000000000000000000BF
:10414000000000000000000000000000000060000F
:1041500060000000000000000000000000000000FF
:10416000600060004000200020000000000000000F
:104170000000000400020001800040002000100048
:10418000080004000800100020004000800000012A
:104190000002000400000000000000000000000019
:1041A0000000000000000000000000000000FE070A
:1041B000000000000000FE070000000000000000FA
:1041C00000000000000000000000000000000000EF
:1041D00000000400080010002000400080000001E2
:1041E00000020004000200018000400020001000D6
:1041F00008000400000000000000000000000000B3
:1042000000000000E0031806040C040C0C0C0C0C5D
:104210000007800140004000400000000000E00076
:10422000E000E000000000000000000000000000CE
:104230000000E00018030C02CC0564056605A60525
:10424000B604B604B604B604B602E4010C040C02CB
:104250001803F00000000000000000000000000053
:1042600000000000600060005000D000900090004E
:10427000880088010801F801040304030402020213
:1042800002060F0F00000000000000000000000008
:1042900000000000FE008C030C030C030C030C0355
:1042A0008C01FC000C030C020C060C060C060C0620
:1042B0000C03FE01000000000000000000000000F0
:1042C00000000000E00318030C060C0404040600C0
:1042D0000600060006000600060006040C040C0298
:1042E0001803F000000000000000000000000000C3
:1042F000000000007F008C010C030C030C060C0670
:104300000C060C060C060C060C060C060C030C0323
:104310008C017F0000000000000000000000000091
:1043200000000000FF0306030604060406008600E2
:104330008600FE008600860086000600060406044D
:104340000602FF0300000000000000000000000063
:1043500000000000FF0306030604060406008600B2
:104360008600FE0086008600860006000600060025
:1043700006001F0000000000000000000000000018
:1043800000000000F00018010C020C0204020600FC
:10439000060006000600C60F060306030C030C0306
:1043A0001803F00000000000000000000000000002
:1043B000000000000F0F06060606060606060606A3
:1043C0000606FE0706060606060606060606060694
:1043D00006060F0F000000000000000000000000B3
:1043E00000000000FC0360006000600060006000EE
:1043F00060006000600060006000600060006000BD
:104400006000FC030000000000000000000000004D
:1044100000000000F807C000C000C000C000C000DD
:10442000C000C000C000C000C000C000C000C0008C
:10443000C000C000C60066003C0000000000000094
:1044400000000000CF038601C600460026001600CB
:1044500036002E006E004600C6008600860106016A
:1044600006038F07000000000000000000000000AD
:10447000000000001F0006000600060006000600FF
:1044800006000600060006000600060006040604F4
:104490000602FF0300000000000000000000000012
:1044A000000000000707860386038E038E034E0379
:1044B0004E034A035A035A033A03320332033203C8
:1044C0001203870700000000000000000000000049
:1044D000000000008E0F0C021C021C023402340289
:1044E000640264024402C402840284038403040359
:1044F00004031F0200000000000000000000000094
:1045000000000000F00098010C030C0206060606ED
:104510000606060606060606060606060C020C0336
:104520009801F00000000000000000000000000002
:1045300000000000FF000603060606060606060643
:1045400006068603FE0006000600060006000600BA
:1045500006001F0000000000000000000000000036
:1045600000000000F00098010C030C02060606068D
:104570000606060606060606060676064C02CC0366
:104580009801F00080070003000000000000000018
:1045900000000000FF0106030606060606060606E2
:1045A0000603FE004600C6008600860106030603D9
:1045B00006060F0E000000000000000000000000D2
:1045C00000000000F8020C030602060206000E00BE
:1045D0003C00F800E003800300070206020606061E
:1045E0000C03F001000000000000000000000000CB
:1045F00000000000FE0762046108610860006000BE
:1046000060006000600060006000600060006000AA
:104610006000F80100000000000000000000000041
:10462000000000001E070C020C020C020C020C021F
:104630000C020C020C020C020C020C020C020C020A
:104640001801F00000000000000000000000000061
:10465000000000000F070602040104010C010C0118
:1046600088008800980098005000500070003000CA
:1046700020002000000000000000000000000000FA
:1046800000000000F70E620442044604460464027F
:104690006402E402E4029C029C01980198018801F2
:1046A00088008800000000000000000000000000FA
:1046B000000000009E070C01080118019000B000E6
:1046C0006000200060006000D000900088010801B8
:1046D00004038E070000000000000000000000003E
:1046E000000000000F0F060404020C02080118016C
:1046F000B800B00070006000600060006000600002
:104700006000F80100000000000000000000000050
:1047100000000000FC070C0206030201800180007B
:1047200040004000200020001000180008040C0485
:104730000402FE0300000000000000000000E0038F
:104740002000200020002000200020002000200069
:104750002000200020002000200020002000200059
:10476000200020002000E003000000000000000006
:1047700000000400040008000800100010001000F1
:104780002000200040004000C000800080000001A8
:1047900000010002000200020004000000007C0092
:1047A0004000400040004000400040004000400009
:1047B00040004000400040004000400040004000F9
:1047C0004000400040007C000000000060009000BD
:1047D00008010000000000000000000000000000D0
:1047E00000000000000000000000000000000000C9
:1047F00000000000000000000000000000000000B9
:1048000000000000000000000000000000000000A8
:104810000000000000000000000000000000000098
:104820000000000000000000FF0F00000000180062
:104830006000000000000000000000000000000018
:104840000000000000000000000000000000000068
:104850000000000000000000000000000000000058
:104860000000000000000000000000000000F00157
:104870000C030C030003E0031C030E0306030603F2
:104880008E0B7C0E00000000000000000000000005
:10489000000008000E000C000C000C000C00CC0105
:1048A0003C031C060C060C060C060C060C060C023F
:1048B0001C03E401000000000000000000000000F4
:1048C0000000000000000000000000000000F000F8
:1048D0008C018C01860106000600060006020C020F
:1048E0000C01F000000000000000000000000000CB
:1048F00000000002C003000300030003000378036C
:104900008C030C03060306030603060306030403D5
:104910008C0778010000000000000000000000008B
:104920000000000000000000000000000000E001A6
:10493000180308020C060C06FC070C000C001804F7
:104940001802E0010000000000000000000000006C
:1049500000000000C0036006300630003000FE0199
:1049600030003000300030003000300030003000C7
:104970003000FC010000000000000000000000000A
:104980000000000000000000000000000000F00730
:10499000D8068C018C018C019801F8000C00FC00F9
:1049A000CC03060306038E03F8000000000000009D
:1049B000000008000E000C000C000C000C00EC01C4
:1049C0001C030C030C030C030C030C030C030C035F
:1049D0000C039E0700000000000000000000000023
:1049E00000000000600060000000000040007C004B
:1049F00060006000600060006000600060006000B7
:104A00006000FC0300000000000000000000000047
:104A100000000000C001C001000000000001F00122
:104A2000800180018001800180018001800180017E
:104A3000800180018001CC007C00000000000000AB
:104A4000000008000E000C000C000C000C008C0391
:104A50008C008C004C006C005C008C008C010C0104
:104A60000C039E0700000000000000000000000092
:104A7000000040007C00600060006000600060009A
:104A80006000600060006000600060006000600026
:104A90006000FC03000000000000000000000000B7
:104AA00000000000000000000000000000003707C8
:104AB000EE0666066606660666066606660666060E
:104AC0006606FF0F0000000000000000000000006C
:104AD0000000000000000000000000000000EE01E7
:104AE0001C030C030C030C030C030C030C030C033E
:104AF0000C039E0700000000000000000000000002
:104B00000000000000000000000000000000F000B5
:104B100098010C03060606060606060606060C03A2
:104B20000C03F00000000000000000000000000086
:104B30000000000000000000000000000000EE0186
:104B40001C030C060C060C060C060C060C060C03CB
:104B50001C03EC010C000C003E00000000000000F3
:104B600000000000000000000000000000007802CB
:104B70008C030C0306030603060306030603040363
:104B80008C03780300030003C0070000000000004E
:104B900000000000000000000000000000009F0373
:104BA00058063806180018001800180018001800D9
:104BB0001800FF00000000000000000000000000DE
:104BC0000000000000000000000000000000F003F2
:104BD0001C030C020C023800F000C00304030403A1
:104BE0008C03FC0100000000000000000000000039
:104BF0000000000000002000200030003000FE0116
:104C00003000300030003000300030003000300222
:104C10003002E00100000000000000000000000081
:104C200000000000000000000000000008028E03E9
:104C30000C030C030C030C030C030C030C030C03FC
:104C40009C07780100000000000000000000000048
:104C500000000000000000000000000000001E072F
:104C60000C020801080118019000B000B0006000BB
:104C700060002000000000000000000000000000B4
:104C80000000000000000000000000000000F70E1F
:104C90006204460464026402EC029C0198019801DB
:104CA0009801080000000000000000000000000063
:104CB0000000000000000000000000000000BC0731
:104CC00018011001B00060006000E00090000801D1
:104CD00008039E0700000000000000000000000024
:104CE00000000000000000000000000000009E071F
:104CF00008010801080190009000B0006000600009
:104D000060002000200024001C00000000000000C3
:104D10000000000000000000000000000000FC0196
:104D20008401C40044006000200030001802080222
:104D30000C03FC0100000000000000000000000364
:104D40008000800080008000800080008000800063
:104D50004000200040008000800080008000800033
:104D60008000800080000003000040004000400000
:104D70004000400040004000400040004000400033
:104D80004000400040004000400040004000400023
:104D900040004000400040004000000000000C00C7
:104DA0001000100010001000100010001000100083
:104DB0002000400020001000100010001000100023
:104DC0001000100010000C00000000001C00220465
:104DD000C20480030000000000000000000000008A
:104DE00000000000000000000000000000000000C3
:104DF00000000000000000000000000000000000B3
:104E000000000000000000000000000000000000A2
:104E10000000000000000000000000000000000092
:104E20000000000000000000000000000000000082
:104E30000000000000000000000000000000000072
:104E400000000000C001C001C001C001C001C001DC
:104E5000C001800080008000800080008000800011
:104E600000000000000000008001C003C0038001BA
:104E70000000000000000000000000000000000032
:104E8000E01CE01CF01E700E3807180308018400B7
:104E90000000000000000000000000000000000012
:104EA0000000000000000000000000000000000002
:104EB00000000000000000000000000000000000F2
:104EC00000000000000020102010201020102010F2
:104ED000FE7FFE7F10081008100810081008100848
:104EE0001008FE7FFE7F0804080408040804080474
:104EF00000000000000000000000000000000000B2
:104F0000000000010001C007601910311831183984
:104F1000183938017001E001C0038007000F001D3F
:104F2000003900311C311C310C310C11180DE00717
:104F3000000100010001000000000000000000006E
:104F40000000000000001C1036186308630C6304A6
:104F50006304630263026301361D9C378022806311
:104F60004063406320632063306310221836081CBE
:104F70000000000000000000000000000000000031
:104F8000000000000000F00098018C018C018C01F1
:104F90008C018C00CC007800183E1C0836083208C2
:104FA00063046304C304C303834306438E26781C4F
:104FB00000000000000000000000000000000000F1
:104FC0001C003C003C003000300010000C000600CB
:104FD00000000000000000000000000000000000D1
:104FE00000000000000000000000000000000000C1
:104FF00000000000000000000000000000000000B1
:105000000040002000100008000C0004000600030F
:105010000003000380018001800180018001800184
:105020008001800100030003000300060006000C5D
:1050300000080010002000400000000000000000F8
:105040000200040008001000300020006000C000D2
:10505000C000C000800180018001800180018001CA
:1050600080018001C000C000C0006000600030000E
:105070001000080004000200000000000000000012
:105080000000000000000000000000018003800319
:1050900000011C713C79783DC0070001C007783DD4
:1050A0003C791C7100018003800380010000000036
:1050B00000000000000000000000000000000000F0
:1050C00000000000000000000000000000010001DE
:1050D00000010001000100010001FC7F000100014E
:1050E00000010001000100010001000000000000BB
:1050F00000000000000000000000000000000000B0
:10510000000000000000000000000000000000009F
:10511000000000000000000000000000000000008F
:10512000000000000000000000001C003C003C00EB
:105130003000300010000C000600000000000000ED
:10514000000000000000000000000000000000005F
:1051500000000000000000000000FE7F00000000D2
:10516000000000000000000000000000000000003F
:10517000000000000000000000000000000000002F
:10518000000000000000000000000000000000001F
:10519000000000000000000000000000000000000F
:1051A000000000000000000018003C003C00180057
:1051B00000000000000000000000000000000000EF
:1051C0000040006000200030001000180008000CB3
:1051D0000004000600020003000180018000C000FE
:1051E00040006000200030001000180008000C0093
:1051F00004000600020000000000000000000000A3
:10520000000000000000C007600C30181830183093
:1052100018200C600C600C600C600C600C600C6062
:105220000C600C601820183018303018600CC00763
:10523000000000000000000000000000000000006E
:1052400000000000000000018001F80180018001E1
:105250008001800180018001800180018001800146
:10526000800180018001800180018001C003F81F5E
:10527000000000000000000000000000000000002E
:10528000000000000000E007101C08180430043083
:105290000C300C300030001800080004000200013F
:1052A000800040002020102008200430FC1FFC1F3C
:1052B00000000000000000000000000000000000EE
:1052C000000000000000E003180E0C0C0C180C1875
:1052D0000C180018000C0006C003000E0018001087
:1052E000003000300C300C300C100C18180CE0039F
:1052F00000000000000000000000000000000000AE
:10530000000000000000000C000E000E000F800ED8
:10531000800E400E600E200E100E100E080E040EB1
:10532000040EFE7F000E000E000E000E000E000E9A
:10533000C07F00000000000000000000000000002E
:10534000000000000000F03FF03F100010001000CF
:1053500008000800C807280C181808100030003092
:10536000003000300C300C3004180418080CF00326
:10537000000000000000000000000000000000002D
:10538000000000000000800FC01020301030180016
:10539000180008000C008C0F6C183C301C600C606E
:1053A0000C600C600C601860182030306018C0076A
:1053B00000000000000000000000000000000000ED
:1053C000000000000000F83FF83F1C100C08040823
:1053D000040400040002000200010001000180003A
:1053E00080008000C000C000C000C000C000C0003D
:1053F00000000000000000000000000000000000AD
:10540000000000000000E007300C18180C300C30D1
:105410000C301C3038187008E007B007180E0C1C50
:10542000063806300630063006300C18180CE0033B
:10543000000000000000000000000000000000006C
:10544000000000000000E00318040C080C1806100F
:10545000063006300630063006380C3C1836F0317F
:1054600000300018001800180C0C0C060C03F0019A
:10547000000000000000000000000000000000002C
:10548000000000000000000000000000000000001C
:10549000000000008001C003C00380010000000084
:1054A00000000000000000008001C003C003800174
:1054B00000000000000000000000000000000000EC
:1054C00000000000000000000000000000000000DC
:1054D00000000000C000C00000000000000000004C
:1054E000000000000000000000000000C000C0003C
:1054F000800080004000400000000000000000002C
:105500000000000000200010000800040006000356
:105510008001C0006000300018000C00180030004E
:105520006000C000800100030006000400080010B5
:10553000002000000000000000000000000000004B
:10554000000000000000000000000000000000005B
:1055500000000000FE7F00000000000000000000CE
:10556000FE7F0000000000000000000000000000BE
:10557000000000000000000000000000000000002B
:105580000000000004000800100020006000C000BF
:10559000800100030006000C001800300018000C09
:1055A000000600038001C000600020001000080019
:1055B00004000000000000000000000000000000E7
:1055C00000000000C0073018083008600C601C6044
:1055D0001C601C600030001C000600018000800080
:1055E00080008000000000008001C003C003800133
:1055F00000000000000000000000000000000000AB
:10560000000000000000C0076018103018200C2FA8
:105610008C4D864CC64CC64C664C66446644662629
:1056200066266615CC1C0C40082018303018C007C0
:10563000000000000000000000000000000000006A
:10564000000000000001C001C001C0014001600372
:105650002003200320033006100610061006F80F62
:10566000080C080C080C0C0C0418041806181F7CF5
:10567000000000000000000000000000000000002A
:10568000000000000000FE07181C18381830183001
:10569000183018301818180CF80718181830182077
:1056A0001860186018601860186018301818FE0F1D
:1056B00000000000000000000000000000000000EA
:1056C000000000000000C0276038103018200C4097
:1056D0000C40040006000600060006000600060056
:1056E000060006000C400C400C2018303018C00793
:1056F00000000000000000000000000000000000AA
:10570000000000000000FE03180E181818301830B2
:1057100018301860186018601860186018601860F9
:10572000186018601830183018101818180EFE037A
:105730000000000000000000000000000000000069
:10574000000000000000FE3F1830182018601840CC
:10575000180018081808180CF80F180C1808180862
:105760001800180018001840184018201830FE3F84
:105770000000000000000000000000000000000029
:10578000000000000000FE7F1870184018C018804C
:105790001800181018101818F81F181818101810DA
:1057A00018001800180018001800180018007E00D3
:1057B00000000000000000000000000000000000E9
:1057C000000000000000C013701C101018100C2006
:1057D0000C2004000600060006000600060006FC79
:1057E000063006300C300C30183018303008C00746
:1057F00000000000000000000000000000000000A9
:105800000000000000003F7E0C180C180C180C184B
:105810000C180C180C180C180C18FC1F0C180C1871
:105820000C180C180C180C180C180C180C183F7EBF
:105830000000000000000000000000000000000068
:10584000000000000000F81F80018001800180013D
:105850008001800180018001800180018001800140
:105860008001800180018001800180018001F81F9A
:105870000000000000000000000000000000000028
:10588000000000000000E07F0006000600060006A1
:1058900000060006000600060006000600060006D8
:1058A00000060006000600060006000600060006C8
:1058B00000060E060E038E01FC0000000000000032
:1058C0000000000000007E7C181818081804180654
:1058D0001802180198019801D801B8033803180775
:1058E0001806180E180C181C1818183018307EFCE2
:1058F00000000000000000000000000000000000A8
:105900000000000000007E001800180018001800B9
:1059100018001800180018001800180018001800C7
:105920001800180018001840184018201830FE3FC2
:105930000000000000000000000000000000000067
:105940000000000000001FF81C381C381C381C3CEC
:10595000343434343434343674326432643264323D
:105960006431C431C431C431C430C43084309FFC8C
:105970000000000000000000000000000000000027
:105980000000000000001F7C1C103C10341034107C
:1059900074106410E410C410C4118411841304132F
:1059A00004170416041E041C041C041C04181F18ED
:1059B00000000000000000000000000000000000E7
:1059C000000000000000C003300C181808100C3054
:1059D0000C300660066006600660066006600660C1
:1059E000066006600C200C3008101818300CC0033C
:1059F00000000000000000000000000000000000A7
:105A0000000000000000FE0F181818301860186021
:105A100018601860186018301818F80F180018006F
:105A200018001800180018001800180018007E0050
:105A30000000000000000000000000000000000066
:105A4000000000000000C003300C18180C100C30CF
:105A50000C20066006600660066006600660066050
:105A600006600660E4612C331C321816300EC00745
:105A7000004C007C00380000000000000000000026
:105A8000000000000000FE07181C183818301830FD
:105A9000183018301818180CF8079803180318074E
:105AA00018061806180E180C180C181C18187E78F2
:105AB00000000000000000000000000000000000E6
:105AC000000000000000E027303818300C200C20C7
:105AD0000C000C0018007800E003800F001E003856
