:020000040800F2
:10000000E81800205D020008E10F0008310E00082A
:100010009D0F00086D0800084B2300080000000039
:10002000000000000000000000000000651B000848
:10003000AD0800080000000063110008151E00084C
:1000400077020008770200087702000877020008AC
:10005000770200087702000877020008770200089C
:10006000770200087702000877020008770200088C
:10007000770200087702000877020008770200087C
:10008000770200087702000877020008770200086C
:10009000770200087702000877020008770200085C
:1000A000770200087702000877020008770200084C
:1000B000770200087702000877020008770200083C
:1000C000770200087702000877020008770200082C
:1000D000770200087702000877020008770200081C
:1000E000770200087702000877020008000000008D
:1000F0000000000000000000000000000000000000
:1001000000000000770200087702000800000000ED
:10011000E11F000877020008000000000000000056
:1001200077020008770200087702000877020008CB
:1001300000000000000000000000000000000000BF
:10014000000000000000000000000000770200082E
:10015000000000000000000077020008770200089D
:10016000770200080000000000000000770200088D
:1001700000F002F800F062F80AA090E8000C824457
:100180008344AAF10107DA4501D100F057F8AFF234
:10019000090EBAE80F0013F0010F18BFFB1A43F065
:1001A00001031847A4260000C42600000A444FF0AB
:1001B000000C10F8013B13F0070408BF10F8014BC6
:1001C0001D1108BF10F8015B641E05D010F8016B0B
:1001D000641E01F8016BF9D113F0080F1EBF10F86F
:1001E000014BAD1C0C1B09D16D1E58BF01F801CB92
:1001F000FAD505E014F8016B01F8016B6D1EF9D515
:100200009142D6D370470000002300240025002629
:10021000103A28BF78C1FBD8520728BF30C148BF69
:100220000B607047642900F0F980782900F0328172
:10023000002070471FB51FBD10B510BD00F08DFA2E
:100240001146FFF7F7FF02F083F800F0ABFA03B4B2
:10025000FFF7F2FF03BC00F0B3FA00000948804743
:1002600009480047FEE7FEE7FEE7FEE7FEE7FEE798
:10027000FEE7FEE7FEE7FEE704480549054A064BB0
:1002800070470000451F000871010008E8120020B7
:10029000E8180020E8140020E814002053EA020CBB
:1002A00000F069802DE9F04B4FF00006002B1FBFD6
:1002B000B3FA83F503FA05F424FA05F65E4012BF9B
:1002C0001643B2FA82F502FA05F4C5F120051EBF05
:1002D00022FA05FC44EA0C04203556EA044C4FEAA5
:1002E000144418BF641C4FF000084FF000099042FE
:1002F00071EB030C39D3002919BFB1FA81F701FA68
:1003000007F6B0FA80F700FA07F6C7F120071EBF1C
:1003100020FA07FC46EA0C062037B6FBF4FCA7EBF4
:100320000507103F07F01F0BCBF120060CFA0BFB63
:100330002CFA06F644BFB3460026202FA4BF5E4623
:100340004FF0000B5BEA060C08BF4FF0010B19EBF6
:100350000B09ABFB027C48EB0608C01B06FB02CC7A
:100360000BFB03CC71EB0C01C1E70B460246414687
:100370004846BDE8F08B13B54FF000004FF0000188
:10038000AFF30080BDE81C40704700000FB41CB5FF
:10039000074B06AA7B4469460090059800F0C5F912
:1003A0000020694600F0D4F91CBC5DF814FB000085
:1003B000B90300002DE9F0410E46044600202062FA
:1003C0002046E168884730B3252805D0D4E90121CB
:1003D0009047206A401CF2E7E168204600278847E2
:1003E000050018D0A5F14100192802D820354FF496
:1003F00000673246294620462760FFF713FF40B1C9
:10040000012804D0F61D26F007060836D8E7361D69
:10041000D6E72846DAE7206ABDE8F0812DE9F04109
:100420000646002410687529314616A510D0AFF392
:100430000080002802DA404213A507E031688A07ED
:1004400001D512A502E0490704D511A5012401E058
:10045000AFF3008000210A2206F1240709E0B0FB77
:10046000F2FCB0FBF2F302FB1C003030785418466B
:10047000491C0028F3D123462A463046BDE8F04106
:1004800000F0F4B8000000002D0000002B00000078
:100490002000000070B504460D4621461068AFF3F9
:1004A00000802188090502D50F4A7A4402E00E4AED
:1004B0007A440E32002104F1240305E000F00F0617
:1004C0000009965D5E54491C0028F7D1207800236E
:1004D000000704D5702D02D009B102231132204645
:1004E000BDE8704000F0C2B87023000010B5431C96
:1004F00002E010F8011B71B18107FAD14FF001320F
:1005000002C88C1A8C4314EAC211F9D0C01A0A0628
:1005100003D0C01E10BDC01A10BD0A0401D0801E39
:1005200010BD0902FCD0401E10BD032A40F23080ED
:1005300010F0030C00F0158011F8013BBCF1020F24
:10054000624498BF11F801CB00F8013B38BF11F8A5
:10055000013BA2F1040298BF00F801CB38BF00F8BC
:10056000013B11F0030300F02580083AC0F0088039
:1005700051F8043B083A51F804CBA0E80810F5E71D
:10058000121D5CBF51F8043B40F8043BAFF3008000
:10059000D20724BF11F8013B11F801CB48BF11F875
:1005A000012B24BF00F8013B00F801CB48BF00F845
:1005B000012B704710B5203AC0F00B80B1E81850FD
:1005C000203AA0E81850B1E81850A0E81850BFF43D
:1005D000F5AF5FEA027C24BFB1E81850A0E81850DC
:1005E00044BF18C918C0BDE810405FEA827C24BF30
:1005F00051F8043B40F8043B08BF7047D20728BFBE
:1006000031F8023B48BF11F8012B28BF20F8023B0C
:1006100048BF00F8012B70474FF0000200B51346A9
:1006200094469646203922BFA0E80C50A0E80C5012
:10063000B1F12001BFF4F7AF090728BFA0E80C50C3
:1006400048BF0CC05DF804EB890028BF40F8042BBC
:1006500008BF704748BF20F8022B11F0804F18BF29
:1006600000F8012B70477047704770472DE9F0473D
:100670000D4699469246044600F124080168880612
:1006800004D5E06921F01001216000E00120A842BA
:1006900001DD471B00E00027A1697A1902EB090080
:1006A000081AA0612078C00602D42046AFF300806B
:1006B000002608E0D4E901211AF806009047206AD4
:1006C000401C761C20624E45F4DB2078C0060AD51B
:1006D0002046AFF3008006E0D4E9012130209047A6
:1006E000206A401C2062381EA7F10107F4DC07E0F5
:1006F000D4E9012118F805009047206A401C2062C7
:10070000281EA5F10105F3DC2046AFF30080207818
:10071000000602D50220BDE8F0870120FBE70000BB
:1007200001694A1C02610878704700B58FB0CDE9B5
:1007300001310021059105497944CDE903101146A5
:100740006846FFF737FE0FB000BD0000E5FFFFFF72
:100750000A6802F8010B0A607047754600F02CF831
:10076000AE4605006946534620F00700854618B09E
:1007700020B5FFF781FDBDE820404FF000064FF0A7
:1007800000074FF000084FF0000B21F00701AC46C6
:10079000ACE8C009ACE8C009ACE8C009ACE8C009E5
:1007A0008D46704710B50446AFF300802046BDE883
:1007B0001040FFF74CBD0000004870478412002035
:1007C00001491820ABBEFEE726000200704700007A
:1007D00009480A4908600A4848600A490748816090
:1007E0000949C1600948054908610949034841614F
:1007F0000849816170470000890800087C0D0020CD
:100800000909000865110008A91B0008350E000839
:10081000671B00089110000800B5044804494860AF
:100820000448086000F008F800BD0000951E0008AC
:10083000740400203520000806480749086007486E
:100840004860074888600749034801610648024933
:10085000C8607047B108000864120020E50800086D
:10086000C9080008D92000081921000800BFFEE7C8
:10087000024682EA2120034B33F8100080EA01206F
:1008800080B270471E26000870B504460D4600264B
:1008900005E020783146FFF7EBFF0646641C281E72
:1008A000A5F101018DB2F4D1304670BD7047000052
:1008B0000021044A116000BF024909688142FBD34C
:1008C000704700007004002030B50446254603E060
:1008D0004FF47A7000F006F8281EA5F10105F7D153
:1008E00030BD0000014607E00022064B1A6000BF41
:1008F000044A1268642AFBD90A1EA1F10101F3D14E
:10090000704700007004002030B50346002005E069
:100910000446401C1C5D8C4200D130BD9042F7D390
:100920000020FAE72DE9F0410246002500260020CC
:1009300000230024002791F803C00CF00F0591F864
:1009400003C00CF0100CBCF1000F03D091F802C0F2
:100950004CEA050591F800C0BCF1000F31D01468D5
:1009600000202BE04FF0010C0CFA00F3B1F800C0AE
:100970000CEA03069E4220D183004FF00F0C0CFAC4
:1009800003F7BC4305FA03FC4CEA040491F803C0E6
:10099000BCF1280F06D14FF0010C0CFA00FCC2F894
:1009A00014C00AE091F803C0BCF1480F05D14FF024
:1009B000010C0CFA00FCC2F810C0401C0828D1D36E
:1009C0001460B1F800C0BCF1FF0F34DD54680020A2
:1009D0002EE000F1080C4FF0010808FA0CF3B1F812
:1009E00000C00CEA03069E4221D183004FF00F0C99
:1009F0000CFA03F7BC4305FA03FC4CEA040491F833
:100A000003C0BCF1280F05D100F1080C08FA0CF85E
:100A1000C2F8148091F803C0BCF1480F07D100F16F
:100A2000080C4FF0010808FA0CF8C2F81080401CBE
:100A30000828CED35460BDE8F0810000F0B504462C
:100A4000B4F1004F72D90023002224F00045EB09D5
:100A500005F07F052A0905F00F05052B03D0970047
:100A600005FA07F603E05708BF0005FA07F6062B5C
:100A700015D2DFE803F00305080B0E11EA480FE07A
:100A8000E948001D0CE0E848083009E0E6480C3071
:100A900006E0E548103003E0E348143000E000BF12
:100AA00000BF5AB9052B04D1076827F00307076078
:100AB0004AE0076827F00F07076045E0012A0BD1DD
:100AC000052B04D1076827F00C0707603CE0076896
:100AD00027F0F007076037E0022A0BD1052B04D17D
:100AE000076827F0300707602EE0076827F4706773
:100AF000076029E0032A0BD1052B04D1076827F0F2
:100B0000C007076020E0076827F4704707601BE014
:100B1000042A04D1076827F47027076014E0052A27
:100B200005D1076827F4700707600DE012E0062A78
:100B300004D1076827F07067076005E0072A03D132
:100B4000076827F070470760012902D1076837431B
:100B5000076067E1B4F5406F77D020DC402C75D09A
:100B60000CDC042C3FD004DC012C4ED0022C6ED1C6
:100B700038E0102C59D0202CF9D169E0B4F5007F71
:100B800076D005DC802C77D0B4F5807FEFD197E06C
:100B9000B4F5407F6ED0B4F5006FE8D1C0E0B4F199
:100BA000807F68D011DCB4F5803F1ED006DCB4F540
:100BB000804F71D0B4F5004FD9D115E0B4F5003FA6
:100BC00014D0B4F5802FD2D111E0B4F1007F74D0ED
:100BD000B4F1806F72D0B4F1884F70D0B4F1904FFF
:100BE000C5D10DE100BF00BF00BF00BF00BF8E48F0
:100BF00020384068A0438C4A203A5060012903D134
:100C000010464068204350600BE187482038406818
:100C1000864A1040844A203A5060012904D1104687
:100C2000406840F001005060FBE07F482038406899
:100C300020F030007C4A203A5060012904D110464F
:100C4000406840F010005060EBE079E025E0E7E01C
:100C500075482038406820F03000734A203A5060D0
:100C6000012904D11046406840F020005060D8E0CF
:100C700036E001E044E083E06B482038406820F033
:100C8000C000694A203A5060012904D110464068EA
:100C900040F080005060C4E062E063482038406863
:100CA00020F0C000604A203A5060012904D110466B
:100CB000406840F040005060B3E071E080E08FE0B9
:100CC00059482038406820F44070574A203A506014
:100CD000012904D11046406840F480705060A0E0C3
:100CE00051482038406820F440704F4A203A506004
:100CF000012904D11046406840F40070506090E033
:100D000049482038406820F44070474A203A5060F3
:100D1000012904D11046406840F44070506080E0E2
:100D200041482038406820F440603F4A203A5060F3
:100D3000012904D11046406840F40060506070E022
:100D400039482038406820F44060374A203A5060E3
:100D5000012904D11046406840F44060506060E0D2
:100D600031482038406820F4C0402F4A203A506073
:100D7000012904D11046406840F48040506050E0A2
:100D800029482038406820F0E060274A203A506027
:100D9000012904D11046406840F08070506040E066
:100DA00021482038406820F0E0601F4A203A506017
:100DB000012904D11046406840F00070506030E0D6
:100DC00019482038406820F0E060174A203A506007
:100DD000012904D11046406840F08060506020E056
:100DE00011482038C06920F040600F4A203AD06195
:100DF000012904D11046C06940F08060D06110E044
:100E000009482038C06920F04060074A203AD06184
:100E1000012904D11046C06940F00060D06100E0B3
:100E200000BF00BFF0BD000020000140FEFFFF7FBB
:100E300000BFFEE703B59DF802109DF80120C2EB4C
:100E4000021201EB82019DF80020C2EB4213C3EBBA
:100E5000022201EB02100CBD08B501214806FFF784
:100E6000EDFD0121182000F0C3FC10208DF80300D7
:100E700002208DF802004FF6FF70ADF800006946C1
:100E80000D48FFF74FFDBDF800000B491431086015
:100E900010208DF8030002208DF802004FF4E0705E
:100EA000ADF8000069460548FFF73CFDBDF80000BD
:100EB0000249486108BD0000000C014000100140DB
:100EC00010B503460122102B01DD002010BD19468C
:100ED0000E2911DC032901DB481CC1B202FA01F022
:100EE00082B24FF6FF700D4C2060C0200C4C606148
:100EF0000A48001F02600FE010290DDCA1F1090073
:100F000002FA00F082B2C020054C60614FF6FF701B
:100F1000024C2060024802611846D7E7140C0140D9
:100F20000010014010B5FFF753FCFFF775FC00F00F
:100F300037F81248416801208847114801680F4876
:100F40000268042090470F49086880470D494868A7
:100F500080470D4800690D4908600B48406888606B
:100F60000B488069C8600A48006848600948086101
:100F7000094841680020884710BD00007404002023
:100F8000200000207C04002064120020480D002076
:100F90007C0D0020980D00207812002000BFFEE795
:100FA00000B50448044948600448086000F008F8A7
:100FB00000BD0000D91A00087C040020590E00086A
:100FC0000348044908600448486004488860704742
:100FD000C10E000878120020B5170008451D000852
:100FE000704708B54FF4E06000F048F834208DF801
:100FF000000000208DF801008DF8020001208DF81E
:101000000300684600F002F808BD000070B500213A
:1010100000230F22C47804B3154C246804F4E06460
:10102000C4F5E064210AC1F10403CA40447804FA1B
:1010300003F184781440214309010E4C0678A15530
:10104000047804F01F050124AC4005786D11AD0053
:1010500005F1E025C5F8004109E0047804F01F051A
:101060000124AC40044D0678761145F8264070BD49
:101070000CED00E000E400E080E100E00249014303
:10108000024A1160704700000000FA050CED00E014
:101090001FB50446A08821680988884206D02068C8
:1010A0000088A0800020A071E07157E0A07940B9CD
:1010B0000120A0710020E071E16903C9C4E90501C4
:1010C0004CE0E0690078217D401AC0B28DF808003C
:1010D000E0694178607D081AC0B28DF80900E069C6
:1010E0008178A07D081AC0B28DF80A00E0694168D5
:1010F000A069081A0390DDE90201FFF79BFE00904A
:10110000D4E90301FFF796FE0190DDE90001401AE2
:1011100021D4DDE90001401A00280ADD7020E071C9
:10112000207A08B9012000E0002020720020A07180
:1011300013E003992069081A0AD47020E071207A1C
:1011400008B9012000E0002020720020A07104E016
:101150000020E07101E00020E07100BFE07904B000
:1011600010BD70472DE9F04F9BB004460D46164662
:1011700098464FF00009CB46208800287ED0FE4AD2
:1011800011786388221D98180722FFF7BDFB00F035
:10119000FF0ABAF1000F72D06188AAF10100084479
:1011A0006080F6480460F5493069C86195F81A0412
:1011B00000287CD120886188401A082877DB4FF40A
:1011C00086612846FFF728FAB8F1000F04D00522FF
:1011D000EBA10420336898476188201D405C28708B
:1011E0006088401C87B206E04FEA0B2B201DC05DD3
:1011F0008344781C87B26088001DB842F4DAC5F8D1
:1012000004B0A88800F40050A8B1012140F22240A7
:1012100041556088401D211D085C28726088C01DF2
:101220000A5C6088801D085C02EB00206881082051
:1012300085F81A0412E0002140F2224041550020B6
:1012400028726088801D211D0A5C6088401D085C32
:1012500002EB00206881072085F81A046889C649D6
:101260004989884206DB012140F227404155092087
:1012700085F82604688995F81A1401E081E279E27C
:101280000844801CC5F81C046088401C211D085CB3
:1012900085F820046088801C095C40F2214041559B
:1012A0006088C01C211D085CC0F3001100E01AE03A
:1012B00040F2234041556088C01C211D085C00F0AD
:1012C0000F0140F2244041556088001D211D095C3A
:1012D00040F225404155608895F81A140144201DBC
:1012E0000844E86042E295F81A04002872D0208889
:1012F0006188401AD5F81C1488426BDBB8F1000FE6
:1013000004D00522A0A10420336898476088D5F84E
:101310001C140844401E211D0A5C6088D5F81C146A
:101320000844801E211D085C02EB00202882B5F8CD
:101330001C34DB1E99B2B4F802C0231D6344581C50
:10134000726890470746298AB94206D0012140F2C7
:1013500027404155032085F826046088401C211D44
:10136000085C854991F82014884202D1462085F80E
:101370001A046088B5F81C1408446080B8F1000FA6
:10138000B0D0424682A102A8FFF700F802A8FFF7FA
:10139000ADF8401C0190024602A90420336898472A
:1013A00040F22740405D012815D115227EA104207E
:1013B000336898473A4682A102A8FEF7E7FF02A8E1
:1013C000FFF794F8401C0190024602A904203368FC
:1013D000984705E07FE11D227EA1042033689847ED
:1013E0004FF000092B784A4609F1010981A102A8B2
:1013F000FEF7CCFF02A8FFF779F8401C01900246E7
:1014000002A90420336898474A4609F1010979A1E5
:1014100002A86B68FEF7BAFF02A8FFF767F8401C46
:101420000190024602A90420336898472B7A4A4665
:1014300009F101096FA102A8FEF7A8FF02A8FFF7B2
:1014400055F8401C0190024602A9042033689847D1
:101450006B894A4609F1010966A102A8FEF796FFC9
:1014600002A8FFF743F8401C0190024602A904209D
:1014700033689847002712E0E868C35D3A4660A1E8
:1014800002A8FEF783FF02A8FFF730F8401C019086
:10149000024602A9042033689847781C87B26889FD
:1014A000B842E9DC2A8A5BA102A8FEF76FFF02A816
:1014B000FFF71CF8401C0190024602A90420336883
:1014C0009847B8F1020F55D1142256A10420336871
:1014D000984795F8202458A102A8FEF757FF02A8C4
:1014E000FFF704F8401C0190024602A9042033686B
:1014F000984740F22140425D53A102A8FEF746FF03
:1015000002A8FEF7F3FF401C0190024602A9042046
:101510003368984740F22240425D4FA102A8FEF78F
:1015200035FF02A8FEF7E2FF401C0190024602A927
:1015300004203368984740F22340425D4AA102A844
:10154000FEF724FF02A8FEF7D1FF401C01900246DF
:1015500002A904203368984740F22440425D46A126
:1015600002A8FEF713FF02A8FEF7C0FF401C01907F
:10157000024689E09DE00000400000205C0D002054
:10158000696E203120000000696E203220000000CA
:101590003E3E2D2D2D2D64656275672025642D2D11
:1015A0002D2D3C3C0D0A000056616C696461746924
:1015B0006F6E206661696C7320210D0A00000000C7
:1015C000436865636B203A257820200D0A20200DA2
:1015D0000A00000056616C69646174696F6E20696D
:1015E00073207375636365737366756C20210D0AD0
:1015F000000000002564203A257820200D0A000014
:101600002D3E20202564203A257820203C2D200DD9
:101610000A000000456E64203A257820200D0A203B
:101620000D0A00003E3E2D2D20436F6E74726F6CCC
:10163000202D2D3C3C0D0A004D6F64656C203A2531
:1016400078200D0A0000000056657273696F6E20E5
:101650003A2564200D0A00005253343835203A25CB
:101660007820200D0A0000004D5F6F725F53203A12
:101670002578200D0A000000436C617373203A2521
:1016800078200D0A0000000002A904203368984762
:1016900040F22540425D3CA102A8FEF777FE02A879
:1016A000FEF724FF401C0190024602A90420336883
:1016B0009847B8F1030F59D1364903C9CDE9000164
:1016C000042269461046336898472288211D042069
:1016D000336898474AE0002000902F49019003C9E1
:1016E000CDE900012D48DDE90012C0E90312F168DF
:1016F00088472A48C079C0B3B8F1000F04D005224A
:1017000027A104203368984720886188401A072859
:1017100008DB6088401C60804FF486612846FEF735
:101720007BFF22E0B8F1000F04D005221EA10420A7
:10173000336898476088401C211D085C1C4991F85B
:101740002014884209D1012140F2274041550A2046
:1017500085F82604462085F81A0400200F49C87130
:1017600040F2BC412046FEF757FF00BF01201BB0EE
:10177000BDE8F08F40F2BC412046FEF74DFF00204F
:10178000F5E70020F3E700004D4944203A25782092
:101790000D0A000018260008102600085C0D002025
:1017A000696E203320000000696E203420000000A4
:1017B0004000002020B14FF48071044A516103E0E1
:1017C0004FF48071014A1161704700000010014020
:1017D00029B1064AD2690243044BDA6104E0034AA4
:1017E000D2698243014BDA61704700000010024069
:1017F00029B1064A92690243044B9A6104E0034A04
:1018000092698243014B9A617047000000100240C8
:101810002DE9F04F00260027B4460024A046A1463B
:101820000022002100250023DFF88CA2DAF804A0B2
:101830000AF00C0222B1042A1ED0082A73D120E03B
:10184000DFF874A2DAF830A00AF0007ABAF1000FDB
:101850000DD0DFF864A2DAF854A00AF4007ABAF1E5
:10186000000F04D0DFF854A2C0F800A003E0DFF8B6
:1018700050A2C0F800A0A9E0DFF844A2C0F800A080
:10188000A4E0DFF834A2DAF804A00AF48035DFF827
:1018900028A2DAF82CA00AF00046B6F1004F52D187
:1018A000DFF814A2DAF82CA0DFF818B20AEA0B0766
:1018B000DFF804A2DAF82CA00AF0F00CDFF8F8A1A7
:1018C000DAF82CA00AF0070400BF062C16D2DFE8D5
:1018D00004F00306090C0F124FF0010911E04FF05C
:1018E00002090EE04FF004090BE04FF0080908E090
:1018F0004FF0100905E04FF0200902E04FF0010918
:1019000000BF00BF00BF15B9DFF8BC810EE0DFF8F3
:10191000A8A1DAF804A00AF4003ABAF1000F03D043
:10192000DFF8A48102E04CE0DFF894814FEA172A47
:101930000AFB08FA4FEA1C1B0BFB09FBBAFBFBFA7C
:10194000C0F800A03CE0DFF870A1DAF804A0DFF8EE
:101950007CB10AEA0B0101F0C04ABAF1000F07D1CD
:1019600001F4701ABAF5701F02D04FF0020A01E0BC
:101970004FF0010A01F0C04BC1F3834E4EEA5B6B9E
:101980000AEB0B0135B9DFF840A101FB0AFAC0F8F8
:1019900000A015E0DFF820A1DAF804A00AF4003A6C
:1019A000BAF1000F06D0DFF820A101FB0AFAC0F857
:1019B00000A005E0DFF808A101FB0AFAC0F800A0CA
:1019C00004E0DFF8FCA0C0F800A000BF00BFDFF813
:1019D000E8A0DAF804A0CAF30212DFF8DCA0DAF813
:1019E00004A00AF0800ABAF1000F04D0DFF8E0A0EA
:1019F0001AF802A001E04FF0000A5346D0F800A008
:101A00002AFA03FAC0F804A0DFF8ACA0DAF804A0C0
:101A1000CAF30122DFF8A0A0DAF804A00AF4806A71
:101A2000BAF1000F04D0DFF8A8A01AF802A001E074
:101A30004FF0000A5346D0F804A02AFA03FAC0F87F
:101A400008A0DFF874A0DAF804A0CAF3C122DFF816
:101A500068A0DAF804A00AF4005ABAF1000F04D022
:101A6000DFF86CA01AF802A001E04FF0000A53461C
:101A7000D0F804A02AFA03FAC0F80CA0DFF838A0C6
:101A8000DAF804A0CAF38132DFF82CA0DAF804A057
:101A90000AF0805ABAF1000F01D042F00402DFF8D8
:101AA00034A01AF80230D0F80CA0BAFBF3FAC0F850
:101AB00010A0BDE8F08F000000100240006CDC02B6
:101AC00000127A0000FF010000093D0000003C60A8
:101AD000002600080826000808B501210846FFF77F
:101AE00087FE01214806FEF7A9FF01210420FFF728
:101AF0007FFE10208DF8030002208DF8020041F6D1
:101B00003870ADF8000069460448FEF70BFFBDF8D9
:101B1000000002491031086008BD000000080140C3
:101B200010B5082900DB10BD0A464FF4C0530C4C19
:101B300023604FF4E763241D2360012806D11302BC
:101B4000241F2360C302241D236007E0022805D15F
:101B5000D300034C2360C302241D236000BFE2E7CF
:101B60001008014070470CB54FF4616291FBF2F22E
:101B7000D2B28DF800204FF4616291FBF2F302FBC8
:101B800013123C2392FBF3F2D2B28DF801203C22D7
:101B900091FBF2F302FB1312D2B28DF80220DDE9C1
:101BA0000023C0E900230CBD2DE9F04104460F4697
:101BB0004FF000082078A074A07C5A2802D00020A2
:101BC000BDE8F081D4F80480042607E004F1120097
:101BD00000F806804FEA1828701E86B2012EF5DA4A
:101BE00040F22240005D40B1217AE1756089010A2E
:101BF0002176A17A6176082505E06089010AE17500
:101C0000A17A21760725628904F112035819E16847
:101C1000FEF78BFC60892844401E81B204F113005A
:101C20007A6890470646310A6089421904F1120029
:101C3000815460892844401C04F112010E546089CB
:101C40002844821C04203B6898470120B8E710B55F
:101C500000F002F810BD00000CB5002001900090CB
:101C60003448006840F001003249086000BF314844
:101C7000006800F0020000900198401C019000985C
:101C800020B94FF6FF7101988842F0D129480068C9
:101C900000F0020010B10120009001E0002000904F
:101CA0000098012844D11320234908602148406846
:101CB000204948600846406820F460504860084663
:101CC000406840F4005048600846406820F4E060F6
:101CD00048600846406840F48060486008464068B4
:101CE00016490840134948600846406814490843AB
:101CF000104948600846006840F08070086000BFE6
:101D00000C48006800F000700028F9D009484068CD
:101D100020F00300074948600846406840F0020090
:101D2000486000BF0348406800F00C000828F9D163
:101D30000CBD00000010024000200240FFFFC01F49
:101D40000000282010B50446102C01DD002010BD35
:101D5000112C5AD2DFE804F059090E13181D22275E
:101D60002C31363B40454A4F540007210120FFF7F4
:101D7000D7FE4BE005210120FFF7D2FE46E003210C
:101D80000120FFF7CDFE41E001210846FFF7C8FE24
:101D90003CE000210120FFF7C3FE37E002210120D3
:101DA000FFF7BEFE32E004210120FFF7B9FE2DE06F
:101DB00006210120FFF7B4FE28E007210220FFF7EB
:101DC000AFFE23E005210220FFF7AAFE1EE003215B
:101DD0000220FFF7A5FE19E001210220FFF7A0FE77
:101DE00014E000210220FFF79BFE0FE002210846CD
:101DF000FFF796FE0AE004210220FFF791FE05E0BE
:101E000006210220FFF78CFE00E000BF00BF204645
:101E10009DE7000000B504480068401C02490860C6
:101E200000F004F800BD000070040020174840686E
:101E3000401C16494860084640681549884224DD20
:101E400001201249486008468068401C88600846A6
:101E50008078401C8870084680783B2815DD00207B
:101E6000887008464078401C4870084640783B28F7
:101E70000BDD0020487008460078401C08700846BA
:101E80000078172801DD002008707047980D0020A9
:101E9000A086010070B503464BB325480068254A6B
:101EA000B0FBF2F1481EB0F1807F01D301201BE0AE
:101EB000481E4FF0E022506150170F22002807DA29
:101EC0001407260E1C4C00F00F052D1F665503E06D
:101ED0001407250E194C255400BF00204FF0E022B6
:101EE000906107201061002008B300BFFEE700BF2B
:101EF00000BF00BF00BF00BFBFF34F8F00BF00BFD8
:101F000000BF0D480C38006800F4E0600C4908433D
:101F1000001D09490C39086000BF00BF00BFBFF3B6
:101F20004F8F00BF00BF00BF00BF00BFFDE770BD07
:101F30002C000020A086010018ED00E000E400E085
:101F40000000FA0510B501210807FFF741FC1D4804
:101F5000007840F004001B49503981F850000021FE
:101F60004FF08050FFF734FC1748006840F0010044
:101F700015490860084640681449084012494860FD
:101F800008460068124908400F4908600846006882
:101F900020F480200860084640680E4908400A493D
:101FA00048600846006B0C490840074908634FF435
:101FB0001F008860FFF74BFE4FF000600749086084
:101FC00010BD000050700040001002400C00FFE8FF
:101FD000FFFFF6FEFFFF001700FFFEFE08ED00E02A
:101FE00010B540F22551114800F0D6F8E0B120219B
:101FF0000E4800F0AFF80D4800F092F9C4B20C485A
:10200000407888B90A4881888088401C084A9080B6
:1020100002F1080044540838808840F24C4188425C
:1020200002DB01201146487010BD0000004C00404A
:10203000A40D002030B585B005460C46042D43D1D3
:1020400001210846FFF7D4FB01211020FFF7D0FB48
:102050000121C804FFF7BCFBFEF7C3FF6802ADF81F
:10206000100004208DF8130004A91948FEF75AFC4B
:1020700018208DF8130002208DF812004002ADF8F0
:10208000100004A91248FEF74DFC684600F051F913
:1020900000940020ADF80400ADF80600ADF808008B
:1020A000ADF80C000C20ADF80A006946094800F0B4
:1020B000C3F8012240F22551064800F097F80121AB
:1020C000044800F050F801E005B030BD00BFFBE768
:1020D00000100140004C00402DE9F04104460D463F
:1020E00016460027042C13D110E038467F1C295CCB
:1020F000084800F01AF900BF4021064800F03FF8F8
:102100000028F9D04021034800F024F8B742ECDB66
:10211000BDE8F081004C004070B505460C46002635
:10212000042D14D100BFA15D094800F0FEF800BFE6
:102130004021074800F023F80028F9D04021044846
:1021400000F008F8701C0646205C0028EBD170BD3A
:10215000004C004001F40072B2F5007F00D100BFD6
:10216000CA430280704721B1828942F400528281C1
:1021700004E082894DF6FF731A408281704702465F
:102180000020B1F5007F00D100BF13880B400BB1D8
:10219000012000E00020704770B5024600240023B3
:1021A0000025002040F66A16B14200D100BFC1F3FD
:1021B000421501F01F03012606FA03F3012D02D197
:1021C0009689334006E0022D02D1168A334001E0A1
:1021D000968A33400C12012606FA04F4168834401D
:1021E00013B10CB1012000E0002070BDF0B5034632
:1021F000002400260025002040F66A17B94200D1CD
:1022000000BF1846C1F3421401F01F06012707FA68
:1022100006F5012C01D10C3004E0022C01D1103064
:1022200000E014301AB107682F43076002E0076826
:10223000AF430760F0BD00002DE9F04F89B00546BF
:102240000E46002400200790834682468146B089CE
:1022500000B100BFA9462C8A4CF6FF700440F088FC
:1022600004432C82AC894EF6F3100440B0883189C7
:102270000843718908430443AC81AC8A4FF6FF40A0
:102280000440B0890443AC8202A8FFF7C1FA234896
:10229000814502D10598079001E0049807904FF41A
:1022A0007A710798A0FB017001461022002338467E
:1022B000FDF7F4FFCDE9000137683A460023FDF74A
:1022C000EDFF04464FF47A70B4FBF0FBB4FBF0F181
:1022D00000FB11404FEA001A4FF47A70BAFBF0F19C
:1022E00000FB11A0B0F5FA7F04D24FF47A70BAFB6C
:1022F000F0FA0CE04FF47A70BAFBF0F000F1010A4A
:10230000BAF1100F03D34FF0000A0BF1010B4AEAA8
:102310000B10288109B0BDE8F08F000000380140A3
:1023200001468888C0F308007047C1F30802828024
:1023300070474FF41651016000218180C1800181F6
:102340000C21418100218181704700BFFEE7000020
:1023500092B0FEF7E7FD964841680A2088470020C2
:1023600011902022934909A8FEF724F911A8099099
:102370001DE19148816909A888479DF82C008F4A82
:102380005168884700238E4A8E498F48FEF7EAFE3F
:102390008C4890F81A04462870D18A4890F827048F
:1023A000F0B1884890F826048DF8040000208DF8DC
:1023B00005008DF806008DF8070082484089000A64
:1023C0008DF808007F48807A8DF8090006207F4943
:1023D00048815A20087001A8C8607D484860AFE075
:1023E000784890F8250430B1012813D002284DD048
:1023F000032872D17EE000208DF8040001208DF8C2
:10240000050000208DF806008DF8070004206F49B4
:10241000488188E000208DF804006A48C068407850
:1024200020B94FF416506B4908602BE06548C0682E
:102430004078012804D14FF496406649086021E0B5
:102440006048C0684078022804D14FF4E130614907
:10245000086017E05B48C0684078032804D14FF457
:1024600061305C4908600DE05648C0684078042837
:1024700005D14FF4E1205749086003E06FE00120E7
:102480008DF804000120514948814CE000208DF86E
:10249000040050480068B0F5165F03D100208DF8A5
:1024A000050023E04B480068B0F5964F03D10120AA
:1024B0008DF805001AE047480068B0F5E13F03D108
:1024C00002208DF8050011E042480068B0F5613F38
:1024D00004D103208DF8050008E023E03D480068A2
:1024E000B0F5E12F02D104208DF805000220374914
:1024F000488118E03348C0680078364908720846B9
:10250000007A102803DC0846007A012803DA01204B
:102510008DF8040002E000208DF8040001202B4912
:10252000488100E000BF00BF5A202849087001A878
:10253000C860244890F82504274908442349486086
:102540001F492248FFF730FB4FF486611D48FEF714
:1025500063F84FF486611D48FEF75EF800BF1D4822
:10256000407A1C49097A884211D01A48007A1949E0
:1025700048720846007AC0F11100C4B20F480168E1
:10258000204688470D4881682046884700BF11488B
:10259000406810490968884209D00E4800680D4912
:1025A0004860084601680D48026804209047E0E64C
:1025B00064120020E02500087C0D00207812002025
:1025C000480D0020E8040020A80D00201809002074
:1025D0000000010F200000200001010F7404002002
:1025E00000000000000000000000000000000000EB
:1025F000102700000000000000000000980D0020DF
:10260000010203040607080902040608020C081068
:102610000000020000000000FFFFFFFF00000000BC
:102620002110422063308440A550C660E7700881C5
:1026300029914AA16BB18CC1ADD1CEE1EFF131123C
:10264000100273325222B5529442F772D662399315
:1026500018837BB35AA3BDD39CC3FFF3DEE362248C
:10266000433420040114E664C774A44485546AA565
:102670004BB528850995EEE5CFF5ACC58DD553361C
:10268000722611163006D776F6669556B4465BB7B5
:102690007AA719973887DFF7FEE79DD7BCC7C448EC
:1026A000E5588668A7784008611802282338CCC905
:1026B000EDD98EE9AFF9488969990AA92BB9F55A7C
:1026C000D44AB77A966A711A500A333A122AFDDB55
:1026D000DCCBBFFB9EEB799B588B3BBB1AABA66C4C
:1026E000877CE44CC55C222C033C600C411CAEEDA5
:1026F0008FFDECCDCDDD2AAD0BBD688D499D977E5C
:10270000B66ED55EF44E133E322E511E700E9FFFF4
:10271000BEEFDDDFFCCF1BBF3AAF599F788F8891AA
:10272000A981CAB1EBA10CD12DC14EF16FE180108E
:10273000A100C230E3200450254046706760B98391
:102740009893FBA3DAB33DC31CD37FE35EF3B102DE
:102750009012F322D2323542145277625672EAB5A1
:10276000CBA5A89589856EF54FE52CD50DC5E2342E
:10277000C324A01481046674476424540544DBA771
:10278000FAB79987B8975FE77EF71DC73CD7D3267E
:10279000F2369106B01657667676154634564CD901
:1027A0006DC90EF92FE9C899E9898AB9ABA94458CE
:1027B000654806782768C018E1088238A3287DCBD1
:1027C0005CDB3FEB1EFBF98BD89BBBAB9ABB754A1E
:1027D000545A376A167AF10AD01AB32A923A2EFD61
:1027E0000FED6CDD4DCDAABD8BADE89DC98D267C6E
:1027F000076C645C454CA23C832CE01CC10C1FEFB1
:102800003EFF5DCF7CDF9BAFBABFD98FF89F176EBD
:10281000367E554E745E932EB23ED10EF01E303190
:1028200032333435363738394142434445464030F7
:1028300058003031323334353637383961626364A9
:10284000656640307800000068280008000000201D
:1028500084040000AC0100088C28000884040020D7
:102860006414000008020008041E010203A3C20150
:1028700084F36F061938A704060708095A02FF04F3
:0C28800001FF01FF01FF011803220F01FE
:04000005080001717D
:00000001FF
